ARM GAS  C:\Users\Dell\AppData\Local\Temp\ccIPbawa.s 			page 1


   1              		.syntax unified
   2              		.cpu cortex-m3
   3              		.fpu softvfp
   4              		.eabi_attribute 20, 1
   5              		.eabi_attribute 21, 1
   6              		.eabi_attribute 23, 3
   7              		.eabi_attribute 24, 1
   8              		.eabi_attribute 25, 1
   9              		.eabi_attribute 26, 1
  10              		.eabi_attribute 30, 1
  11              		.eabi_attribute 34, 1
  12              		.eabi_attribute 18, 4
  13              		.thumb
  14              		.syntax unified
  15              		.file	"Clock_1.c"
  16              		.text
  17              	.Ltext0:
  18              		.cfi_sections	.debug_frame
  19              		.section	.text.Clock_1_Start,"ax",%progbits
  20              		.align	2
  21              		.global	Clock_1_Start
  22              		.thumb
  23              		.thumb_func
  24              		.type	Clock_1_Start, %function
  25              	Clock_1_Start:
  26              	.LFB0:
  27              		.file 1 "Generated_Source\\PSoC5\\Clock_1.c"
   1:Generated_Source\PSoC5/Clock_1.c **** /*******************************************************************************
   2:Generated_Source\PSoC5/Clock_1.c **** * File Name: Clock_1.c
   3:Generated_Source\PSoC5/Clock_1.c **** * Version 2.20
   4:Generated_Source\PSoC5/Clock_1.c **** *
   5:Generated_Source\PSoC5/Clock_1.c **** *  Description:
   6:Generated_Source\PSoC5/Clock_1.c **** *   This file provides the source code to the API for the clock component.
   7:Generated_Source\PSoC5/Clock_1.c **** *
   8:Generated_Source\PSoC5/Clock_1.c **** *  Note:
   9:Generated_Source\PSoC5/Clock_1.c **** *
  10:Generated_Source\PSoC5/Clock_1.c **** ********************************************************************************
  11:Generated_Source\PSoC5/Clock_1.c **** * Copyright 2008-2012, Cypress Semiconductor Corporation.  All rights reserved.
  12:Generated_Source\PSoC5/Clock_1.c **** * You may use this file only in accordance with the license, terms, conditions, 
  13:Generated_Source\PSoC5/Clock_1.c **** * disclaimers, and limitations in the end user license agreement accompanying 
  14:Generated_Source\PSoC5/Clock_1.c **** * the software package with which this file was provided.
  15:Generated_Source\PSoC5/Clock_1.c **** *******************************************************************************/
  16:Generated_Source\PSoC5/Clock_1.c **** 
  17:Generated_Source\PSoC5/Clock_1.c **** #include <cydevice_trm.h>
  18:Generated_Source\PSoC5/Clock_1.c **** #include "Clock_1.h"
  19:Generated_Source\PSoC5/Clock_1.c **** 
  20:Generated_Source\PSoC5/Clock_1.c **** /* Clock Distribution registers. */
  21:Generated_Source\PSoC5/Clock_1.c **** #define CLK_DIST_LD              (* (reg8 *) CYREG_CLKDIST_LD)
  22:Generated_Source\PSoC5/Clock_1.c **** #define CLK_DIST_BCFG2           (* (reg8 *) CYREG_CLKDIST_BCFG2)
  23:Generated_Source\PSoC5/Clock_1.c **** #define BCFG2_MASK               (0x80u)
  24:Generated_Source\PSoC5/Clock_1.c **** #define CLK_DIST_DMASK           (* (reg8 *) CYREG_CLKDIST_DMASK)
  25:Generated_Source\PSoC5/Clock_1.c **** #define CLK_DIST_AMASK           (* (reg8 *) CYREG_CLKDIST_AMASK)
  26:Generated_Source\PSoC5/Clock_1.c **** 
  27:Generated_Source\PSoC5/Clock_1.c **** #define HAS_CLKDIST_LD_DISABLE   (CY_PSOC3 || CY_PSOC5LP)
  28:Generated_Source\PSoC5/Clock_1.c **** 
  29:Generated_Source\PSoC5/Clock_1.c **** 
  30:Generated_Source\PSoC5/Clock_1.c **** /*******************************************************************************
ARM GAS  C:\Users\Dell\AppData\Local\Temp\ccIPbawa.s 			page 2


  31:Generated_Source\PSoC5/Clock_1.c **** * Function Name: Clock_1_Start
  32:Generated_Source\PSoC5/Clock_1.c **** ********************************************************************************
  33:Generated_Source\PSoC5/Clock_1.c **** *
  34:Generated_Source\PSoC5/Clock_1.c **** * Summary:
  35:Generated_Source\PSoC5/Clock_1.c **** *  Starts the clock. Note that on startup, clocks may be already running if the
  36:Generated_Source\PSoC5/Clock_1.c **** *  "Start on Reset" option is enabled in the DWR.
  37:Generated_Source\PSoC5/Clock_1.c **** *
  38:Generated_Source\PSoC5/Clock_1.c **** * Parameters:
  39:Generated_Source\PSoC5/Clock_1.c **** *  None
  40:Generated_Source\PSoC5/Clock_1.c **** *
  41:Generated_Source\PSoC5/Clock_1.c **** * Returns:
  42:Generated_Source\PSoC5/Clock_1.c **** *  None
  43:Generated_Source\PSoC5/Clock_1.c **** *
  44:Generated_Source\PSoC5/Clock_1.c **** *******************************************************************************/
  45:Generated_Source\PSoC5/Clock_1.c **** void Clock_1_Start(void) 
  46:Generated_Source\PSoC5/Clock_1.c **** {
  28              		.loc 1 46 0
  29              		.cfi_startproc
  30              		@ args = 0, pretend = 0, frame = 0
  31              		@ frame_needed = 0, uses_anonymous_args = 0
  32              		@ link register save eliminated.
  47:Generated_Source\PSoC5/Clock_1.c ****     /* Set the bit to enable the clock. */
  48:Generated_Source\PSoC5/Clock_1.c ****     Clock_1_CLKEN |= Clock_1_CLKEN_MASK;
  33              		.loc 1 48 0
  34 0000 054A     		ldr	r2, .L2
  35 0002 1378     		ldrb	r3, [r2]	@ zero_extendqisi2
  36 0004 43F00403 		orr	r3, r3, #4
  37 0008 1370     		strb	r3, [r2]
  49:Generated_Source\PSoC5/Clock_1.c **** 	Clock_1_CLKSTBY |= Clock_1_CLKSTBY_MASK;
  38              		.loc 1 49 0
  39 000a 1032     		adds	r2, r2, #16
  40 000c 1378     		ldrb	r3, [r2]	@ zero_extendqisi2
  41 000e 43F00403 		orr	r3, r3, #4
  42 0012 1370     		strb	r3, [r2]
  43 0014 7047     		bx	lr
  44              	.L3:
  45 0016 00BF     		.align	2
  46              	.L2:
  47 0018 A1430040 		.word	1073759137
  48              		.cfi_endproc
  49              	.LFE0:
  50              		.size	Clock_1_Start, .-Clock_1_Start
  51              		.section	.text.Clock_1_Stop,"ax",%progbits
  52              		.align	2
  53              		.global	Clock_1_Stop
  54              		.thumb
  55              		.thumb_func
  56              		.type	Clock_1_Stop, %function
  57              	Clock_1_Stop:
  58              	.LFB1:
  50:Generated_Source\PSoC5/Clock_1.c **** }
  51:Generated_Source\PSoC5/Clock_1.c **** 
  52:Generated_Source\PSoC5/Clock_1.c **** 
  53:Generated_Source\PSoC5/Clock_1.c **** /*******************************************************************************
  54:Generated_Source\PSoC5/Clock_1.c **** * Function Name: Clock_1_Stop
  55:Generated_Source\PSoC5/Clock_1.c **** ********************************************************************************
  56:Generated_Source\PSoC5/Clock_1.c **** *
ARM GAS  C:\Users\Dell\AppData\Local\Temp\ccIPbawa.s 			page 3


  57:Generated_Source\PSoC5/Clock_1.c **** * Summary:
  58:Generated_Source\PSoC5/Clock_1.c **** *  Stops the clock and returns immediately. This API does not require the
  59:Generated_Source\PSoC5/Clock_1.c **** *  source clock to be running but may return before the hardware is actually
  60:Generated_Source\PSoC5/Clock_1.c **** *  disabled. If the settings of the clock are changed after calling this
  61:Generated_Source\PSoC5/Clock_1.c **** *  function, the clock may glitch when it is started. To avoid the clock
  62:Generated_Source\PSoC5/Clock_1.c **** *  glitch, use the StopBlock function.
  63:Generated_Source\PSoC5/Clock_1.c **** *
  64:Generated_Source\PSoC5/Clock_1.c **** * Parameters:
  65:Generated_Source\PSoC5/Clock_1.c **** *  None
  66:Generated_Source\PSoC5/Clock_1.c **** *
  67:Generated_Source\PSoC5/Clock_1.c **** * Returns:
  68:Generated_Source\PSoC5/Clock_1.c **** *  None
  69:Generated_Source\PSoC5/Clock_1.c **** *
  70:Generated_Source\PSoC5/Clock_1.c **** *******************************************************************************/
  71:Generated_Source\PSoC5/Clock_1.c **** void Clock_1_Stop(void) 
  72:Generated_Source\PSoC5/Clock_1.c **** {
  59              		.loc 1 72 0
  60              		.cfi_startproc
  61              		@ args = 0, pretend = 0, frame = 0
  62              		@ frame_needed = 0, uses_anonymous_args = 0
  63              		@ link register save eliminated.
  73:Generated_Source\PSoC5/Clock_1.c ****     /* Clear the bit to disable the clock. */
  74:Generated_Source\PSoC5/Clock_1.c ****     Clock_1_CLKEN &= (uint8)(~Clock_1_CLKEN_MASK);
  64              		.loc 1 74 0
  65 0000 054A     		ldr	r2, .L5
  66 0002 1378     		ldrb	r3, [r2]	@ zero_extendqisi2
  67 0004 03F0FB03 		and	r3, r3, #251
  68 0008 1370     		strb	r3, [r2]
  75:Generated_Source\PSoC5/Clock_1.c **** 	Clock_1_CLKSTBY &= (uint8)(~Clock_1_CLKSTBY_MASK);
  69              		.loc 1 75 0
  70 000a 1032     		adds	r2, r2, #16
  71 000c 1378     		ldrb	r3, [r2]	@ zero_extendqisi2
  72 000e 03F0FB03 		and	r3, r3, #251
  73 0012 1370     		strb	r3, [r2]
  74 0014 7047     		bx	lr
  75              	.L6:
  76 0016 00BF     		.align	2
  77              	.L5:
  78 0018 A1430040 		.word	1073759137
  79              		.cfi_endproc
  80              	.LFE1:
  81              		.size	Clock_1_Stop, .-Clock_1_Stop
  82              		.section	.text.Clock_1_StopBlock,"ax",%progbits
  83              		.align	2
  84              		.global	Clock_1_StopBlock
  85              		.thumb
  86              		.thumb_func
  87              		.type	Clock_1_StopBlock, %function
  88              	Clock_1_StopBlock:
  89              	.LFB2:
  76:Generated_Source\PSoC5/Clock_1.c **** }
  77:Generated_Source\PSoC5/Clock_1.c **** 
  78:Generated_Source\PSoC5/Clock_1.c **** 
  79:Generated_Source\PSoC5/Clock_1.c **** #if(CY_PSOC3 || CY_PSOC5LP)
  80:Generated_Source\PSoC5/Clock_1.c **** 
  81:Generated_Source\PSoC5/Clock_1.c **** 
  82:Generated_Source\PSoC5/Clock_1.c **** /*******************************************************************************
ARM GAS  C:\Users\Dell\AppData\Local\Temp\ccIPbawa.s 			page 4


  83:Generated_Source\PSoC5/Clock_1.c **** * Function Name: Clock_1_StopBlock
  84:Generated_Source\PSoC5/Clock_1.c **** ********************************************************************************
  85:Generated_Source\PSoC5/Clock_1.c **** *
  86:Generated_Source\PSoC5/Clock_1.c **** * Summary:
  87:Generated_Source\PSoC5/Clock_1.c **** *  Stops the clock and waits for the hardware to actually be disabled before
  88:Generated_Source\PSoC5/Clock_1.c **** *  returning. This ensures that the clock is never truncated (high part of the
  89:Generated_Source\PSoC5/Clock_1.c **** *  cycle will terminate before the clock is disabled and the API returns).
  90:Generated_Source\PSoC5/Clock_1.c **** *  Note that the source clock must be running or this API will never return as
  91:Generated_Source\PSoC5/Clock_1.c **** *  a stopped clock cannot be disabled.
  92:Generated_Source\PSoC5/Clock_1.c **** *
  93:Generated_Source\PSoC5/Clock_1.c **** * Parameters:
  94:Generated_Source\PSoC5/Clock_1.c **** *  None
  95:Generated_Source\PSoC5/Clock_1.c **** *
  96:Generated_Source\PSoC5/Clock_1.c **** * Returns:
  97:Generated_Source\PSoC5/Clock_1.c **** *  None
  98:Generated_Source\PSoC5/Clock_1.c **** *
  99:Generated_Source\PSoC5/Clock_1.c **** *******************************************************************************/
 100:Generated_Source\PSoC5/Clock_1.c **** void Clock_1_StopBlock(void) 
 101:Generated_Source\PSoC5/Clock_1.c **** {
  90              		.loc 1 101 0
  91              		.cfi_startproc
  92              		@ args = 0, pretend = 0, frame = 0
  93              		@ frame_needed = 0, uses_anonymous_args = 0
  94              		@ link register save eliminated.
 102:Generated_Source\PSoC5/Clock_1.c ****     if ((Clock_1_CLKEN & Clock_1_CLKEN_MASK) != 0u)
  95              		.loc 1 102 0
  96 0000 174B     		ldr	r3, .L10
  97 0002 1B78     		ldrb	r3, [r3]	@ zero_extendqisi2
  98 0004 13F0040F 		tst	r3, #4
  99 0008 29D0     		beq	.L7
 100              	.LBB2:
 103:Generated_Source\PSoC5/Clock_1.c ****     {
 104:Generated_Source\PSoC5/Clock_1.c **** #if HAS_CLKDIST_LD_DISABLE
 105:Generated_Source\PSoC5/Clock_1.c ****         uint16 oldDivider;
 106:Generated_Source\PSoC5/Clock_1.c **** 
 107:Generated_Source\PSoC5/Clock_1.c ****         CLK_DIST_LD = 0u;
 101              		.loc 1 107 0
 102 000a 1649     		ldr	r1, .L10+4
 103 000c 0023     		movs	r3, #0
 104 000e 0B70     		strb	r3, [r1]
 108:Generated_Source\PSoC5/Clock_1.c **** 
 109:Generated_Source\PSoC5/Clock_1.c ****         /* Clear all the mask bits except ours. */
 110:Generated_Source\PSoC5/Clock_1.c **** #if defined(Clock_1__CFG3)
 111:Generated_Source\PSoC5/Clock_1.c ****         CLK_DIST_AMASK = Clock_1_CLKEN_MASK;
 105              		.loc 1 111 0
 106 0010 0420     		movs	r0, #4
 107 0012 154A     		ldr	r2, .L10+8
 108 0014 1070     		strb	r0, [r2]
 112:Generated_Source\PSoC5/Clock_1.c ****         CLK_DIST_DMASK = 0x00u;
 109              		.loc 1 112 0
 110 0016 043A     		subs	r2, r2, #4
 111 0018 1370     		strb	r3, [r2]
 113:Generated_Source\PSoC5/Clock_1.c **** #else
 114:Generated_Source\PSoC5/Clock_1.c ****         CLK_DIST_DMASK = Clock_1_CLKEN_MASK;
 115:Generated_Source\PSoC5/Clock_1.c ****         CLK_DIST_AMASK = 0x00u;
 116:Generated_Source\PSoC5/Clock_1.c **** #endif /* Clock_1__CFG3 */
 117:Generated_Source\PSoC5/Clock_1.c **** 
ARM GAS  C:\Users\Dell\AppData\Local\Temp\ccIPbawa.s 			page 5


 118:Generated_Source\PSoC5/Clock_1.c ****         /* Clear mask of bus clock. */
 119:Generated_Source\PSoC5/Clock_1.c ****         CLK_DIST_BCFG2 &= (uint8)(~BCFG2_MASK);
 112              		.loc 1 119 0
 113 001a 083A     		subs	r2, r2, #8
 114 001c 1378     		ldrb	r3, [r2]	@ zero_extendqisi2
 115 001e 03F07F03 		and	r3, r3, #127
 116 0022 1370     		strb	r3, [r2]
 120:Generated_Source\PSoC5/Clock_1.c **** 
 121:Generated_Source\PSoC5/Clock_1.c ****         oldDivider = CY_GET_REG16(Clock_1_DIV_PTR);
 117              		.loc 1 121 0
 118 0024 114B     		ldr	r3, .L10+12
 119 0026 1A88     		ldrh	r2, [r3]
 120 0028 92B2     		uxth	r2, r2
 121              	.LVL0:
 122:Generated_Source\PSoC5/Clock_1.c ****         CY_SET_REG16(CYREG_CLKDIST_WRK0, oldDivider);
 122              		.loc 1 122 0
 123 002a A3F58373 		sub	r3, r3, #262
 124 002e 1A80     		strh	r2, [r3]	@ movhi
 123:Generated_Source\PSoC5/Clock_1.c ****         CLK_DIST_LD = CYCLK_LD_DISABLE | CYCLK_LD_SYNC_EN | CYCLK_LD_LOAD;
 125              		.loc 1 123 0
 126 0030 0723     		movs	r3, #7
 127 0032 0B70     		strb	r3, [r1]
 128              	.L9:
 124:Generated_Source\PSoC5/Clock_1.c **** 
 125:Generated_Source\PSoC5/Clock_1.c ****         /* Wait for clock to be disabled */
 126:Generated_Source\PSoC5/Clock_1.c ****         while ((CLK_DIST_LD & CYCLK_LD_LOAD) != 0u) { }
 129              		.loc 1 126 0 discriminator 1
 130 0034 0B4B     		ldr	r3, .L10+4
 131 0036 1B78     		ldrb	r3, [r3]	@ zero_extendqisi2
 132 0038 13F0010F 		tst	r3, #1
 133 003c FAD1     		bne	.L9
 127:Generated_Source\PSoC5/Clock_1.c **** #endif /* HAS_CLKDIST_LD_DISABLE */
 128:Generated_Source\PSoC5/Clock_1.c **** 
 129:Generated_Source\PSoC5/Clock_1.c ****         /* Clear the bit to disable the clock. */
 130:Generated_Source\PSoC5/Clock_1.c ****         Clock_1_CLKEN &= (uint8)(~Clock_1_CLKEN_MASK);
 134              		.loc 1 130 0
 135 003e 0849     		ldr	r1, .L10
 136 0040 0B78     		ldrb	r3, [r1]	@ zero_extendqisi2
 137 0042 03F0FB03 		and	r3, r3, #251
 138 0046 0B70     		strb	r3, [r1]
 131:Generated_Source\PSoC5/Clock_1.c ****         Clock_1_CLKSTBY &= (uint8)(~Clock_1_CLKSTBY_MASK);
 139              		.loc 1 131 0
 140 0048 1031     		adds	r1, r1, #16
 141 004a 0B78     		ldrb	r3, [r1]	@ zero_extendqisi2
 142 004c 03F0FB03 		and	r3, r3, #251
 143 0050 0B70     		strb	r3, [r1]
 132:Generated_Source\PSoC5/Clock_1.c **** 
 133:Generated_Source\PSoC5/Clock_1.c **** #if HAS_CLKDIST_LD_DISABLE
 134:Generated_Source\PSoC5/Clock_1.c ****         /* Clear the disable bit */
 135:Generated_Source\PSoC5/Clock_1.c ****         CLK_DIST_LD = 0x00u;
 144              		.loc 1 135 0
 145 0052 0021     		movs	r1, #0
 146 0054 034B     		ldr	r3, .L10+4
 147 0056 1970     		strb	r1, [r3]
 136:Generated_Source\PSoC5/Clock_1.c ****         CY_SET_REG16(Clock_1_DIV_PTR, oldDivider);
 148              		.loc 1 136 0
 149 0058 03F20713 		addw	r3, r3, #263
ARM GAS  C:\Users\Dell\AppData\Local\Temp\ccIPbawa.s 			page 6


 150 005c 1A80     		strh	r2, [r3]	@ movhi
 151              	.LVL1:
 152              	.L7:
 153 005e 7047     		bx	lr
 154              	.L11:
 155              		.align	2
 156              	.L10:
 157 0060 A1430040 		.word	1073759137
 158 0064 01400040 		.word	1073758209
 159 0068 14400040 		.word	1073758228
 160 006c 08410040 		.word	1073758472
 161              	.LBE2:
 162              		.cfi_endproc
 163              	.LFE2:
 164              		.size	Clock_1_StopBlock, .-Clock_1_StopBlock
 165              		.section	.text.Clock_1_StandbyPower,"ax",%progbits
 166              		.align	2
 167              		.global	Clock_1_StandbyPower
 168              		.thumb
 169              		.thumb_func
 170              		.type	Clock_1_StandbyPower, %function
 171              	Clock_1_StandbyPower:
 172              	.LFB3:
 137:Generated_Source\PSoC5/Clock_1.c **** #endif /* HAS_CLKDIST_LD_DISABLE */
 138:Generated_Source\PSoC5/Clock_1.c ****     }
 139:Generated_Source\PSoC5/Clock_1.c **** }
 140:Generated_Source\PSoC5/Clock_1.c **** #endif /* (CY_PSOC3 || CY_PSOC5LP) */
 141:Generated_Source\PSoC5/Clock_1.c **** 
 142:Generated_Source\PSoC5/Clock_1.c **** 
 143:Generated_Source\PSoC5/Clock_1.c **** /*******************************************************************************
 144:Generated_Source\PSoC5/Clock_1.c **** * Function Name: Clock_1_StandbyPower
 145:Generated_Source\PSoC5/Clock_1.c **** ********************************************************************************
 146:Generated_Source\PSoC5/Clock_1.c **** *
 147:Generated_Source\PSoC5/Clock_1.c **** * Summary:
 148:Generated_Source\PSoC5/Clock_1.c **** *  Sets whether the clock is active in standby mode.
 149:Generated_Source\PSoC5/Clock_1.c **** *
 150:Generated_Source\PSoC5/Clock_1.c **** * Parameters:
 151:Generated_Source\PSoC5/Clock_1.c **** *  state:  0 to disable clock during standby, nonzero to enable.
 152:Generated_Source\PSoC5/Clock_1.c **** *
 153:Generated_Source\PSoC5/Clock_1.c **** * Returns:
 154:Generated_Source\PSoC5/Clock_1.c **** *  None
 155:Generated_Source\PSoC5/Clock_1.c **** *
 156:Generated_Source\PSoC5/Clock_1.c **** *******************************************************************************/
 157:Generated_Source\PSoC5/Clock_1.c **** void Clock_1_StandbyPower(uint8 state) 
 158:Generated_Source\PSoC5/Clock_1.c **** {
 173              		.loc 1 158 0
 174              		.cfi_startproc
 175              		@ args = 0, pretend = 0, frame = 0
 176              		@ frame_needed = 0, uses_anonymous_args = 0
 177              		@ link register save eliminated.
 178              	.LVL2:
 159:Generated_Source\PSoC5/Clock_1.c ****     if(state == 0u)
 179              		.loc 1 159 0
 180 0000 28B9     		cbnz	r0, .L13
 160:Generated_Source\PSoC5/Clock_1.c ****     {
 161:Generated_Source\PSoC5/Clock_1.c ****         Clock_1_CLKSTBY &= (uint8)(~Clock_1_CLKSTBY_MASK);
 181              		.loc 1 161 0
ARM GAS  C:\Users\Dell\AppData\Local\Temp\ccIPbawa.s 			page 7


 182 0002 064A     		ldr	r2, .L15
 183 0004 1378     		ldrb	r3, [r2]	@ zero_extendqisi2
 184 0006 03F0FB03 		and	r3, r3, #251
 185 000a 1370     		strb	r3, [r2]
 186 000c 7047     		bx	lr
 187              	.L13:
 162:Generated_Source\PSoC5/Clock_1.c ****     }
 163:Generated_Source\PSoC5/Clock_1.c ****     else
 164:Generated_Source\PSoC5/Clock_1.c ****     {
 165:Generated_Source\PSoC5/Clock_1.c ****         Clock_1_CLKSTBY |= Clock_1_CLKSTBY_MASK;
 188              		.loc 1 165 0
 189 000e 034A     		ldr	r2, .L15
 190 0010 1378     		ldrb	r3, [r2]	@ zero_extendqisi2
 191 0012 43F00403 		orr	r3, r3, #4
 192 0016 1370     		strb	r3, [r2]
 193 0018 7047     		bx	lr
 194              	.L16:
 195 001a 00BF     		.align	2
 196              	.L15:
 197 001c B1430040 		.word	1073759153
 198              		.cfi_endproc
 199              	.LFE3:
 200              		.size	Clock_1_StandbyPower, .-Clock_1_StandbyPower
 201              		.section	.text.Clock_1_GetDividerRegister,"ax",%progbits
 202              		.align	2
 203              		.global	Clock_1_GetDividerRegister
 204              		.thumb
 205              		.thumb_func
 206              		.type	Clock_1_GetDividerRegister, %function
 207              	Clock_1_GetDividerRegister:
 208              	.LFB5:
 166:Generated_Source\PSoC5/Clock_1.c ****     }
 167:Generated_Source\PSoC5/Clock_1.c **** }
 168:Generated_Source\PSoC5/Clock_1.c **** 
 169:Generated_Source\PSoC5/Clock_1.c **** 
 170:Generated_Source\PSoC5/Clock_1.c **** /*******************************************************************************
 171:Generated_Source\PSoC5/Clock_1.c **** * Function Name: Clock_1_SetDividerRegister
 172:Generated_Source\PSoC5/Clock_1.c **** ********************************************************************************
 173:Generated_Source\PSoC5/Clock_1.c **** *
 174:Generated_Source\PSoC5/Clock_1.c **** * Summary:
 175:Generated_Source\PSoC5/Clock_1.c **** *  Modifies the clock divider and, thus, the frequency. When the clock divider
 176:Generated_Source\PSoC5/Clock_1.c **** *  register is set to zero or changed from zero, the clock will be temporarily
 177:Generated_Source\PSoC5/Clock_1.c **** *  disabled in order to change the SSS mode bit. If the clock is enabled when
 178:Generated_Source\PSoC5/Clock_1.c **** *  SetDividerRegister is called, then the source clock must be running.
 179:Generated_Source\PSoC5/Clock_1.c **** *
 180:Generated_Source\PSoC5/Clock_1.c **** * Parameters:
 181:Generated_Source\PSoC5/Clock_1.c **** *  clkDivider:  Divider register value (0-65,535). This value is NOT the
 182:Generated_Source\PSoC5/Clock_1.c **** *    divider; the clock hardware divides by clkDivider plus one. For example,
 183:Generated_Source\PSoC5/Clock_1.c **** *    to divide the clock by 2, this parameter should be set to 1.
 184:Generated_Source\PSoC5/Clock_1.c **** *  restart:  If nonzero, restarts the clock divider: the current clock cycle
 185:Generated_Source\PSoC5/Clock_1.c **** *   will be truncated and the new divide value will take effect immediately. If
 186:Generated_Source\PSoC5/Clock_1.c **** *   zero, the new divide value will take effect at the end of the current clock
 187:Generated_Source\PSoC5/Clock_1.c **** *   cycle.
 188:Generated_Source\PSoC5/Clock_1.c **** *
 189:Generated_Source\PSoC5/Clock_1.c **** * Returns:
 190:Generated_Source\PSoC5/Clock_1.c **** *  None
 191:Generated_Source\PSoC5/Clock_1.c **** *
ARM GAS  C:\Users\Dell\AppData\Local\Temp\ccIPbawa.s 			page 8


 192:Generated_Source\PSoC5/Clock_1.c **** *******************************************************************************/
 193:Generated_Source\PSoC5/Clock_1.c **** void Clock_1_SetDividerRegister(uint16 clkDivider, uint8 restart)
 194:Generated_Source\PSoC5/Clock_1.c ****                                 
 195:Generated_Source\PSoC5/Clock_1.c **** {
 196:Generated_Source\PSoC5/Clock_1.c ****     uint8 enabled;
 197:Generated_Source\PSoC5/Clock_1.c **** 
 198:Generated_Source\PSoC5/Clock_1.c ****     uint8 currSrc = Clock_1_GetSourceRegister();
 199:Generated_Source\PSoC5/Clock_1.c ****     uint16 oldDivider = Clock_1_GetDividerRegister();
 200:Generated_Source\PSoC5/Clock_1.c **** 
 201:Generated_Source\PSoC5/Clock_1.c ****     if (clkDivider != oldDivider)
 202:Generated_Source\PSoC5/Clock_1.c ****     {
 203:Generated_Source\PSoC5/Clock_1.c ****         enabled = Clock_1_CLKEN & Clock_1_CLKEN_MASK;
 204:Generated_Source\PSoC5/Clock_1.c **** 
 205:Generated_Source\PSoC5/Clock_1.c ****         if ((currSrc == (uint8)CYCLK_SRC_SEL_CLK_SYNC_D) && ((oldDivider == 0u) || (clkDivider == 0
 206:Generated_Source\PSoC5/Clock_1.c ****         {
 207:Generated_Source\PSoC5/Clock_1.c ****             /* Moving to/from SSS requires correct ordering to prevent halting the clock    */
 208:Generated_Source\PSoC5/Clock_1.c ****             if (oldDivider == 0u)
 209:Generated_Source\PSoC5/Clock_1.c ****             {
 210:Generated_Source\PSoC5/Clock_1.c ****                 /* Moving away from SSS, set the divider first so when SSS is cleared we    */
 211:Generated_Source\PSoC5/Clock_1.c ****                 /* don't halt the clock.  Using the shadow load isn't required as the       */
 212:Generated_Source\PSoC5/Clock_1.c ****                 /* divider is ignored while SSS is set.                                     */
 213:Generated_Source\PSoC5/Clock_1.c ****                 CY_SET_REG16(Clock_1_DIV_PTR, clkDivider);
 214:Generated_Source\PSoC5/Clock_1.c ****                 Clock_1_MOD_SRC &= (uint8)(~CYCLK_SSS);
 215:Generated_Source\PSoC5/Clock_1.c ****             }
 216:Generated_Source\PSoC5/Clock_1.c ****             else
 217:Generated_Source\PSoC5/Clock_1.c ****             {
 218:Generated_Source\PSoC5/Clock_1.c ****                 /* Moving to SSS, set SSS which then ignores the divider and we can set     */
 219:Generated_Source\PSoC5/Clock_1.c ****                 /* it without bothering with the shadow load.                               */
 220:Generated_Source\PSoC5/Clock_1.c ****                 Clock_1_MOD_SRC |= CYCLK_SSS;
 221:Generated_Source\PSoC5/Clock_1.c ****                 CY_SET_REG16(Clock_1_DIV_PTR, clkDivider);
 222:Generated_Source\PSoC5/Clock_1.c ****             }
 223:Generated_Source\PSoC5/Clock_1.c ****         }
 224:Generated_Source\PSoC5/Clock_1.c ****         else
 225:Generated_Source\PSoC5/Clock_1.c ****         {
 226:Generated_Source\PSoC5/Clock_1.c **** 			
 227:Generated_Source\PSoC5/Clock_1.c ****             if (enabled != 0u)
 228:Generated_Source\PSoC5/Clock_1.c ****             {
 229:Generated_Source\PSoC5/Clock_1.c ****                 CLK_DIST_LD = 0x00u;
 230:Generated_Source\PSoC5/Clock_1.c **** 
 231:Generated_Source\PSoC5/Clock_1.c ****                 /* Clear all the mask bits except ours. */
 232:Generated_Source\PSoC5/Clock_1.c **** #if defined(Clock_1__CFG3)
 233:Generated_Source\PSoC5/Clock_1.c ****                 CLK_DIST_AMASK = Clock_1_CLKEN_MASK;
 234:Generated_Source\PSoC5/Clock_1.c ****                 CLK_DIST_DMASK = 0x00u;
 235:Generated_Source\PSoC5/Clock_1.c **** #else
 236:Generated_Source\PSoC5/Clock_1.c ****                 CLK_DIST_DMASK = Clock_1_CLKEN_MASK;
 237:Generated_Source\PSoC5/Clock_1.c ****                 CLK_DIST_AMASK = 0x00u;
 238:Generated_Source\PSoC5/Clock_1.c **** #endif /* Clock_1__CFG3 */
 239:Generated_Source\PSoC5/Clock_1.c ****                 /* Clear mask of bus clock. */
 240:Generated_Source\PSoC5/Clock_1.c ****                 CLK_DIST_BCFG2 &= (uint8)(~BCFG2_MASK);
 241:Generated_Source\PSoC5/Clock_1.c **** 
 242:Generated_Source\PSoC5/Clock_1.c ****                 /* If clock is currently enabled, disable it if async or going from N-to-1*/
 243:Generated_Source\PSoC5/Clock_1.c ****                 if (((Clock_1_MOD_SRC & CYCLK_SYNC) == 0u) || (clkDivider == 0u))
 244:Generated_Source\PSoC5/Clock_1.c ****                 {
 245:Generated_Source\PSoC5/Clock_1.c **** #if HAS_CLKDIST_LD_DISABLE
 246:Generated_Source\PSoC5/Clock_1.c ****                     CY_SET_REG16(CYREG_CLKDIST_WRK0, oldDivider);
 247:Generated_Source\PSoC5/Clock_1.c ****                     CLK_DIST_LD = CYCLK_LD_DISABLE|CYCLK_LD_SYNC_EN|CYCLK_LD_LOAD;
 248:Generated_Source\PSoC5/Clock_1.c **** 
ARM GAS  C:\Users\Dell\AppData\Local\Temp\ccIPbawa.s 			page 9


 249:Generated_Source\PSoC5/Clock_1.c ****                     /* Wait for clock to be disabled */
 250:Generated_Source\PSoC5/Clock_1.c ****                     while ((CLK_DIST_LD & CYCLK_LD_LOAD) != 0u) { }
 251:Generated_Source\PSoC5/Clock_1.c **** #endif /* HAS_CLKDIST_LD_DISABLE */
 252:Generated_Source\PSoC5/Clock_1.c **** 
 253:Generated_Source\PSoC5/Clock_1.c ****                     Clock_1_CLKEN &= (uint8)(~Clock_1_CLKEN_MASK);
 254:Generated_Source\PSoC5/Clock_1.c **** 
 255:Generated_Source\PSoC5/Clock_1.c **** #if HAS_CLKDIST_LD_DISABLE
 256:Generated_Source\PSoC5/Clock_1.c ****                     /* Clear the disable bit */
 257:Generated_Source\PSoC5/Clock_1.c ****                     CLK_DIST_LD = 0x00u;
 258:Generated_Source\PSoC5/Clock_1.c **** #endif /* HAS_CLKDIST_LD_DISABLE */
 259:Generated_Source\PSoC5/Clock_1.c ****                 }
 260:Generated_Source\PSoC5/Clock_1.c ****             }
 261:Generated_Source\PSoC5/Clock_1.c **** 
 262:Generated_Source\PSoC5/Clock_1.c ****             /* Load divide value. */
 263:Generated_Source\PSoC5/Clock_1.c ****             if ((Clock_1_CLKEN & Clock_1_CLKEN_MASK) != 0u)
 264:Generated_Source\PSoC5/Clock_1.c ****             {
 265:Generated_Source\PSoC5/Clock_1.c ****                 /* If the clock is still enabled, use the shadow registers */
 266:Generated_Source\PSoC5/Clock_1.c ****                 CY_SET_REG16(CYREG_CLKDIST_WRK0, clkDivider);
 267:Generated_Source\PSoC5/Clock_1.c **** 
 268:Generated_Source\PSoC5/Clock_1.c ****                 CLK_DIST_LD = (CYCLK_LD_LOAD | ((restart != 0u) ? CYCLK_LD_SYNC_EN : 0x00u));
 269:Generated_Source\PSoC5/Clock_1.c ****                 while ((CLK_DIST_LD & CYCLK_LD_LOAD) != 0u) { }
 270:Generated_Source\PSoC5/Clock_1.c ****             }
 271:Generated_Source\PSoC5/Clock_1.c ****             else
 272:Generated_Source\PSoC5/Clock_1.c ****             {
 273:Generated_Source\PSoC5/Clock_1.c ****                 /* If the clock is disabled, set the divider directly */
 274:Generated_Source\PSoC5/Clock_1.c ****                 CY_SET_REG16(Clock_1_DIV_PTR, clkDivider);
 275:Generated_Source\PSoC5/Clock_1.c **** 				Clock_1_CLKEN |= enabled;
 276:Generated_Source\PSoC5/Clock_1.c ****             }
 277:Generated_Source\PSoC5/Clock_1.c ****         }
 278:Generated_Source\PSoC5/Clock_1.c ****     }
 279:Generated_Source\PSoC5/Clock_1.c **** }
 280:Generated_Source\PSoC5/Clock_1.c **** 
 281:Generated_Source\PSoC5/Clock_1.c **** 
 282:Generated_Source\PSoC5/Clock_1.c **** /*******************************************************************************
 283:Generated_Source\PSoC5/Clock_1.c **** * Function Name: Clock_1_GetDividerRegister
 284:Generated_Source\PSoC5/Clock_1.c **** ********************************************************************************
 285:Generated_Source\PSoC5/Clock_1.c **** *
 286:Generated_Source\PSoC5/Clock_1.c **** * Summary:
 287:Generated_Source\PSoC5/Clock_1.c **** *  Gets the clock divider register value.
 288:Generated_Source\PSoC5/Clock_1.c **** *
 289:Generated_Source\PSoC5/Clock_1.c **** * Parameters:
 290:Generated_Source\PSoC5/Clock_1.c **** *  None
 291:Generated_Source\PSoC5/Clock_1.c **** *
 292:Generated_Source\PSoC5/Clock_1.c **** * Returns:
 293:Generated_Source\PSoC5/Clock_1.c **** *  Divide value of the clock minus 1. For example, if the clock is set to
 294:Generated_Source\PSoC5/Clock_1.c **** *  divide by 2, the return value will be 1.
 295:Generated_Source\PSoC5/Clock_1.c **** *
 296:Generated_Source\PSoC5/Clock_1.c **** *******************************************************************************/
 297:Generated_Source\PSoC5/Clock_1.c **** uint16 Clock_1_GetDividerRegister(void) 
 298:Generated_Source\PSoC5/Clock_1.c **** {
 209              		.loc 1 298 0
 210              		.cfi_startproc
 211              		@ args = 0, pretend = 0, frame = 0
 212              		@ frame_needed = 0, uses_anonymous_args = 0
 213              		@ link register save eliminated.
 299:Generated_Source\PSoC5/Clock_1.c ****     return CY_GET_REG16(Clock_1_DIV_PTR);
 214              		.loc 1 299 0
ARM GAS  C:\Users\Dell\AppData\Local\Temp\ccIPbawa.s 			page 10


 215 0000 014B     		ldr	r3, .L18
 216 0002 1888     		ldrh	r0, [r3]
 300:Generated_Source\PSoC5/Clock_1.c **** }
 217              		.loc 1 300 0
 218 0004 80B2     		uxth	r0, r0
 219 0006 7047     		bx	lr
 220              	.L19:
 221              		.align	2
 222              	.L18:
 223 0008 08410040 		.word	1073758472
 224              		.cfi_endproc
 225              	.LFE5:
 226              		.size	Clock_1_GetDividerRegister, .-Clock_1_GetDividerRegister
 227              		.section	.text.Clock_1_SetModeRegister,"ax",%progbits
 228              		.align	2
 229              		.global	Clock_1_SetModeRegister
 230              		.thumb
 231              		.thumb_func
 232              		.type	Clock_1_SetModeRegister, %function
 233              	Clock_1_SetModeRegister:
 234              	.LFB6:
 301:Generated_Source\PSoC5/Clock_1.c **** 
 302:Generated_Source\PSoC5/Clock_1.c **** 
 303:Generated_Source\PSoC5/Clock_1.c **** /*******************************************************************************
 304:Generated_Source\PSoC5/Clock_1.c **** * Function Name: Clock_1_SetModeRegister
 305:Generated_Source\PSoC5/Clock_1.c **** ********************************************************************************
 306:Generated_Source\PSoC5/Clock_1.c **** *
 307:Generated_Source\PSoC5/Clock_1.c **** * Summary:
 308:Generated_Source\PSoC5/Clock_1.c **** *  Sets flags that control the operating mode of the clock. This function only
 309:Generated_Source\PSoC5/Clock_1.c **** *  changes flags from 0 to 1; flags that are already 1 will remain unchanged.
 310:Generated_Source\PSoC5/Clock_1.c **** *  To clear flags, use the ClearModeRegister function. The clock must be
 311:Generated_Source\PSoC5/Clock_1.c **** *  disabled before changing the mode.
 312:Generated_Source\PSoC5/Clock_1.c **** *
 313:Generated_Source\PSoC5/Clock_1.c **** * Parameters:
 314:Generated_Source\PSoC5/Clock_1.c **** *  clkMode: Bit mask containing the bits to set. For PSoC 3 and PSoC 5,
 315:Generated_Source\PSoC5/Clock_1.c **** *   clkMode should be a set of the following optional bits or'ed together.
 316:Generated_Source\PSoC5/Clock_1.c **** *   - CYCLK_EARLY Enable early phase mode. Rising edge of output clock will
 317:Generated_Source\PSoC5/Clock_1.c **** *                 occur when the divider count reaches half of the divide
 318:Generated_Source\PSoC5/Clock_1.c **** *                 value.
 319:Generated_Source\PSoC5/Clock_1.c **** *   - CYCLK_DUTY  Enable 50% duty cycle output. When enabled, the output clock
 320:Generated_Source\PSoC5/Clock_1.c **** *                 is asserted for approximately half of its period. When
 321:Generated_Source\PSoC5/Clock_1.c **** *                 disabled, the output clock is asserted for one period of the
 322:Generated_Source\PSoC5/Clock_1.c **** *                 source clock.
 323:Generated_Source\PSoC5/Clock_1.c **** *   - CYCLK_SYNC  Enable output synchronization to master clock. This should
 324:Generated_Source\PSoC5/Clock_1.c **** *                 be enabled for all synchronous clocks.
 325:Generated_Source\PSoC5/Clock_1.c **** *   See the Technical Reference Manual for details about setting the mode of
 326:Generated_Source\PSoC5/Clock_1.c **** *   the clock. Specifically, see the CLKDIST.DCFG.CFG2 register.
 327:Generated_Source\PSoC5/Clock_1.c **** *
 328:Generated_Source\PSoC5/Clock_1.c **** * Returns:
 329:Generated_Source\PSoC5/Clock_1.c **** *  None
 330:Generated_Source\PSoC5/Clock_1.c **** *
 331:Generated_Source\PSoC5/Clock_1.c **** *******************************************************************************/
 332:Generated_Source\PSoC5/Clock_1.c **** void Clock_1_SetModeRegister(uint8 modeBitMask) 
 333:Generated_Source\PSoC5/Clock_1.c **** {
 235              		.loc 1 333 0
 236              		.cfi_startproc
 237              		@ args = 0, pretend = 0, frame = 0
ARM GAS  C:\Users\Dell\AppData\Local\Temp\ccIPbawa.s 			page 11


 238              		@ frame_needed = 0, uses_anonymous_args = 0
 239              		@ link register save eliminated.
 240              	.LVL3:
 334:Generated_Source\PSoC5/Clock_1.c ****     Clock_1_MOD_SRC |= modeBitMask & (uint8)Clock_1_MODE_MASK;
 241              		.loc 1 334 0
 242 0000 034B     		ldr	r3, .L21
 243 0002 1A78     		ldrb	r2, [r3]	@ zero_extendqisi2
 244 0004 00F0F800 		and	r0, r0, #248
 245              	.LVL4:
 246 0008 1043     		orrs	r0, r0, r2
 247 000a 1870     		strb	r0, [r3]
 248 000c 7047     		bx	lr
 249              	.L22:
 250 000e 00BF     		.align	2
 251              	.L21:
 252 0010 0A410040 		.word	1073758474
 253              		.cfi_endproc
 254              	.LFE6:
 255              		.size	Clock_1_SetModeRegister, .-Clock_1_SetModeRegister
 256              		.section	.text.Clock_1_ClearModeRegister,"ax",%progbits
 257              		.align	2
 258              		.global	Clock_1_ClearModeRegister
 259              		.thumb
 260              		.thumb_func
 261              		.type	Clock_1_ClearModeRegister, %function
 262              	Clock_1_ClearModeRegister:
 263              	.LFB7:
 335:Generated_Source\PSoC5/Clock_1.c **** }
 336:Generated_Source\PSoC5/Clock_1.c **** 
 337:Generated_Source\PSoC5/Clock_1.c **** 
 338:Generated_Source\PSoC5/Clock_1.c **** /*******************************************************************************
 339:Generated_Source\PSoC5/Clock_1.c **** * Function Name: Clock_1_ClearModeRegister
 340:Generated_Source\PSoC5/Clock_1.c **** ********************************************************************************
 341:Generated_Source\PSoC5/Clock_1.c **** *
 342:Generated_Source\PSoC5/Clock_1.c **** * Summary:
 343:Generated_Source\PSoC5/Clock_1.c **** *  Clears flags that control the operating mode of the clock. This function
 344:Generated_Source\PSoC5/Clock_1.c **** *  only changes flags from 1 to 0; flags that are already 0 will remain
 345:Generated_Source\PSoC5/Clock_1.c **** *  unchanged. To set flags, use the SetModeRegister function. The clock must be
 346:Generated_Source\PSoC5/Clock_1.c **** *  disabled before changing the mode.
 347:Generated_Source\PSoC5/Clock_1.c **** *
 348:Generated_Source\PSoC5/Clock_1.c **** * Parameters:
 349:Generated_Source\PSoC5/Clock_1.c **** *  clkMode: Bit mask containing the bits to clear. For PSoC 3 and PSoC 5,
 350:Generated_Source\PSoC5/Clock_1.c **** *   clkMode should be a set of the following optional bits or'ed together.
 351:Generated_Source\PSoC5/Clock_1.c **** *   - CYCLK_EARLY Enable early phase mode. Rising edge of output clock will
 352:Generated_Source\PSoC5/Clock_1.c **** *                 occur when the divider count reaches half of the divide
 353:Generated_Source\PSoC5/Clock_1.c **** *                 value.
 354:Generated_Source\PSoC5/Clock_1.c **** *   - CYCLK_DUTY  Enable 50% duty cycle output. When enabled, the output clock
 355:Generated_Source\PSoC5/Clock_1.c **** *                 is asserted for approximately half of its period. When
 356:Generated_Source\PSoC5/Clock_1.c **** *                 disabled, the output clock is asserted for one period of the
 357:Generated_Source\PSoC5/Clock_1.c **** *                 source clock.
 358:Generated_Source\PSoC5/Clock_1.c **** *   - CYCLK_SYNC  Enable output synchronization to master clock. This should
 359:Generated_Source\PSoC5/Clock_1.c **** *                 be enabled for all synchronous clocks.
 360:Generated_Source\PSoC5/Clock_1.c **** *   See the Technical Reference Manual for details about setting the mode of
 361:Generated_Source\PSoC5/Clock_1.c **** *   the clock. Specifically, see the CLKDIST.DCFG.CFG2 register.
 362:Generated_Source\PSoC5/Clock_1.c **** *
 363:Generated_Source\PSoC5/Clock_1.c **** * Returns:
 364:Generated_Source\PSoC5/Clock_1.c **** *  None
ARM GAS  C:\Users\Dell\AppData\Local\Temp\ccIPbawa.s 			page 12


 365:Generated_Source\PSoC5/Clock_1.c **** *
 366:Generated_Source\PSoC5/Clock_1.c **** *******************************************************************************/
 367:Generated_Source\PSoC5/Clock_1.c **** void Clock_1_ClearModeRegister(uint8 modeBitMask) 
 368:Generated_Source\PSoC5/Clock_1.c **** {
 264              		.loc 1 368 0
 265              		.cfi_startproc
 266              		@ args = 0, pretend = 0, frame = 0
 267              		@ frame_needed = 0, uses_anonymous_args = 0
 268              		@ link register save eliminated.
 269              	.LVL5:
 369:Generated_Source\PSoC5/Clock_1.c ****     Clock_1_MOD_SRC &= (uint8)(~modeBitMask) | (uint8)(~(uint8)(Clock_1_MODE_MASK));
 270              		.loc 1 369 0
 271 0000 044B     		ldr	r3, .L24
 272 0002 1A78     		ldrb	r2, [r3]	@ zero_extendqisi2
 273 0004 C043     		mvns	r0, r0
 274              	.LVL6:
 275 0006 C0B2     		uxtb	r0, r0
 276 0008 40F00700 		orr	r0, r0, #7
 277 000c 1040     		ands	r0, r0, r2
 278 000e 1870     		strb	r0, [r3]
 279 0010 7047     		bx	lr
 280              	.L25:
 281 0012 00BF     		.align	2
 282              	.L24:
 283 0014 0A410040 		.word	1073758474
 284              		.cfi_endproc
 285              	.LFE7:
 286              		.size	Clock_1_ClearModeRegister, .-Clock_1_ClearModeRegister
 287              		.section	.text.Clock_1_GetModeRegister,"ax",%progbits
 288              		.align	2
 289              		.global	Clock_1_GetModeRegister
 290              		.thumb
 291              		.thumb_func
 292              		.type	Clock_1_GetModeRegister, %function
 293              	Clock_1_GetModeRegister:
 294              	.LFB8:
 370:Generated_Source\PSoC5/Clock_1.c **** }
 371:Generated_Source\PSoC5/Clock_1.c **** 
 372:Generated_Source\PSoC5/Clock_1.c **** 
 373:Generated_Source\PSoC5/Clock_1.c **** /*******************************************************************************
 374:Generated_Source\PSoC5/Clock_1.c **** * Function Name: Clock_1_GetModeRegister
 375:Generated_Source\PSoC5/Clock_1.c **** ********************************************************************************
 376:Generated_Source\PSoC5/Clock_1.c **** *
 377:Generated_Source\PSoC5/Clock_1.c **** * Summary:
 378:Generated_Source\PSoC5/Clock_1.c **** *  Gets the clock mode register value.
 379:Generated_Source\PSoC5/Clock_1.c **** *
 380:Generated_Source\PSoC5/Clock_1.c **** * Parameters:
 381:Generated_Source\PSoC5/Clock_1.c **** *  None
 382:Generated_Source\PSoC5/Clock_1.c **** *
 383:Generated_Source\PSoC5/Clock_1.c **** * Returns:
 384:Generated_Source\PSoC5/Clock_1.c **** *  Bit mask representing the enabled mode bits. See the SetModeRegister and
 385:Generated_Source\PSoC5/Clock_1.c **** *  ClearModeRegister descriptions for details about the mode bits.
 386:Generated_Source\PSoC5/Clock_1.c **** *
 387:Generated_Source\PSoC5/Clock_1.c **** *******************************************************************************/
 388:Generated_Source\PSoC5/Clock_1.c **** uint8 Clock_1_GetModeRegister(void) 
 389:Generated_Source\PSoC5/Clock_1.c **** {
 295              		.loc 1 389 0
ARM GAS  C:\Users\Dell\AppData\Local\Temp\ccIPbawa.s 			page 13


 296              		.cfi_startproc
 297              		@ args = 0, pretend = 0, frame = 0
 298              		@ frame_needed = 0, uses_anonymous_args = 0
 299              		@ link register save eliminated.
 390:Generated_Source\PSoC5/Clock_1.c ****     return Clock_1_MOD_SRC & (uint8)(Clock_1_MODE_MASK);
 300              		.loc 1 390 0
 301 0000 024B     		ldr	r3, .L27
 302 0002 1878     		ldrb	r0, [r3]	@ zero_extendqisi2
 391:Generated_Source\PSoC5/Clock_1.c **** }
 303              		.loc 1 391 0
 304 0004 00F0F800 		and	r0, r0, #248
 305 0008 7047     		bx	lr
 306              	.L28:
 307 000a 00BF     		.align	2
 308              	.L27:
 309 000c 0A410040 		.word	1073758474
 310              		.cfi_endproc
 311              	.LFE8:
 312              		.size	Clock_1_GetModeRegister, .-Clock_1_GetModeRegister
 313              		.section	.text.Clock_1_GetSourceRegister,"ax",%progbits
 314              		.align	2
 315              		.global	Clock_1_GetSourceRegister
 316              		.thumb
 317              		.thumb_func
 318              		.type	Clock_1_GetSourceRegister, %function
 319              	Clock_1_GetSourceRegister:
 320              	.LFB10:
 392:Generated_Source\PSoC5/Clock_1.c **** 
 393:Generated_Source\PSoC5/Clock_1.c **** 
 394:Generated_Source\PSoC5/Clock_1.c **** /*******************************************************************************
 395:Generated_Source\PSoC5/Clock_1.c **** * Function Name: Clock_1_SetSourceRegister
 396:Generated_Source\PSoC5/Clock_1.c **** ********************************************************************************
 397:Generated_Source\PSoC5/Clock_1.c **** *
 398:Generated_Source\PSoC5/Clock_1.c **** * Summary:
 399:Generated_Source\PSoC5/Clock_1.c **** *  Sets the input source of the clock. The clock must be disabled before
 400:Generated_Source\PSoC5/Clock_1.c **** *  changing the source. The old and new clock sources must be running.
 401:Generated_Source\PSoC5/Clock_1.c **** *
 402:Generated_Source\PSoC5/Clock_1.c **** * Parameters:
 403:Generated_Source\PSoC5/Clock_1.c **** *  clkSource:  For PSoC 3 and PSoC 5 devices, clkSource should be one of the
 404:Generated_Source\PSoC5/Clock_1.c **** *   following input sources:
 405:Generated_Source\PSoC5/Clock_1.c **** *   - CYCLK_SRC_SEL_SYNC_DIG
 406:Generated_Source\PSoC5/Clock_1.c **** *   - CYCLK_SRC_SEL_IMO
 407:Generated_Source\PSoC5/Clock_1.c **** *   - CYCLK_SRC_SEL_XTALM
 408:Generated_Source\PSoC5/Clock_1.c **** *   - CYCLK_SRC_SEL_ILO
 409:Generated_Source\PSoC5/Clock_1.c **** *   - CYCLK_SRC_SEL_PLL
 410:Generated_Source\PSoC5/Clock_1.c **** *   - CYCLK_SRC_SEL_XTALK
 411:Generated_Source\PSoC5/Clock_1.c **** *   - CYCLK_SRC_SEL_DSI_G
 412:Generated_Source\PSoC5/Clock_1.c **** *   - CYCLK_SRC_SEL_DSI_D/CYCLK_SRC_SEL_DSI_A
 413:Generated_Source\PSoC5/Clock_1.c **** *   See the Technical Reference Manual for details on clock sources.
 414:Generated_Source\PSoC5/Clock_1.c **** *
 415:Generated_Source\PSoC5/Clock_1.c **** * Returns:
 416:Generated_Source\PSoC5/Clock_1.c **** *  None
 417:Generated_Source\PSoC5/Clock_1.c **** *
 418:Generated_Source\PSoC5/Clock_1.c **** *******************************************************************************/
 419:Generated_Source\PSoC5/Clock_1.c **** void Clock_1_SetSourceRegister(uint8 clkSource) 
 420:Generated_Source\PSoC5/Clock_1.c **** {
 421:Generated_Source\PSoC5/Clock_1.c ****     uint16 currDiv = Clock_1_GetDividerRegister();
ARM GAS  C:\Users\Dell\AppData\Local\Temp\ccIPbawa.s 			page 14


 422:Generated_Source\PSoC5/Clock_1.c ****     uint8 oldSrc = Clock_1_GetSourceRegister();
 423:Generated_Source\PSoC5/Clock_1.c **** 
 424:Generated_Source\PSoC5/Clock_1.c ****     if (((oldSrc != ((uint8)CYCLK_SRC_SEL_CLK_SYNC_D)) && 
 425:Generated_Source\PSoC5/Clock_1.c ****         (clkSource == ((uint8)CYCLK_SRC_SEL_CLK_SYNC_D))) && (currDiv == 0u))
 426:Generated_Source\PSoC5/Clock_1.c ****     {
 427:Generated_Source\PSoC5/Clock_1.c ****         /* Switching to Master and divider is 1, set SSS, which will output master, */
 428:Generated_Source\PSoC5/Clock_1.c ****         /* then set the source so we are consistent.                                */
 429:Generated_Source\PSoC5/Clock_1.c ****         Clock_1_MOD_SRC |= CYCLK_SSS;
 430:Generated_Source\PSoC5/Clock_1.c ****         Clock_1_MOD_SRC =
 431:Generated_Source\PSoC5/Clock_1.c ****             (Clock_1_MOD_SRC & (uint8)(~Clock_1_SRC_SEL_MSK)) | clkSource;
 432:Generated_Source\PSoC5/Clock_1.c ****     }
 433:Generated_Source\PSoC5/Clock_1.c ****     else if (((oldSrc == ((uint8)CYCLK_SRC_SEL_CLK_SYNC_D)) && 
 434:Generated_Source\PSoC5/Clock_1.c ****             (clkSource != ((uint8)CYCLK_SRC_SEL_CLK_SYNC_D))) && (currDiv == 0u))
 435:Generated_Source\PSoC5/Clock_1.c ****     {
 436:Generated_Source\PSoC5/Clock_1.c ****         /* Switching from Master to not and divider is 1, set source, so we don't   */
 437:Generated_Source\PSoC5/Clock_1.c ****         /* lock when we clear SSS.                                                  */
 438:Generated_Source\PSoC5/Clock_1.c ****         Clock_1_MOD_SRC =
 439:Generated_Source\PSoC5/Clock_1.c ****             (Clock_1_MOD_SRC & (uint8)(~Clock_1_SRC_SEL_MSK)) | clkSource;
 440:Generated_Source\PSoC5/Clock_1.c ****         Clock_1_MOD_SRC &= (uint8)(~CYCLK_SSS);
 441:Generated_Source\PSoC5/Clock_1.c ****     }
 442:Generated_Source\PSoC5/Clock_1.c ****     else
 443:Generated_Source\PSoC5/Clock_1.c ****     {
 444:Generated_Source\PSoC5/Clock_1.c ****         Clock_1_MOD_SRC =
 445:Generated_Source\PSoC5/Clock_1.c ****             (Clock_1_MOD_SRC & (uint8)(~Clock_1_SRC_SEL_MSK)) | clkSource;
 446:Generated_Source\PSoC5/Clock_1.c ****     }
 447:Generated_Source\PSoC5/Clock_1.c **** }
 448:Generated_Source\PSoC5/Clock_1.c **** 
 449:Generated_Source\PSoC5/Clock_1.c **** 
 450:Generated_Source\PSoC5/Clock_1.c **** /*******************************************************************************
 451:Generated_Source\PSoC5/Clock_1.c **** * Function Name: Clock_1_GetSourceRegister
 452:Generated_Source\PSoC5/Clock_1.c **** ********************************************************************************
 453:Generated_Source\PSoC5/Clock_1.c **** *
 454:Generated_Source\PSoC5/Clock_1.c **** * Summary:
 455:Generated_Source\PSoC5/Clock_1.c **** *  Gets the input source of the clock.
 456:Generated_Source\PSoC5/Clock_1.c **** *
 457:Generated_Source\PSoC5/Clock_1.c **** * Parameters:
 458:Generated_Source\PSoC5/Clock_1.c **** *  None
 459:Generated_Source\PSoC5/Clock_1.c **** *
 460:Generated_Source\PSoC5/Clock_1.c **** * Returns:
 461:Generated_Source\PSoC5/Clock_1.c **** *  The input source of the clock. See SetSourceRegister for details.
 462:Generated_Source\PSoC5/Clock_1.c **** *
 463:Generated_Source\PSoC5/Clock_1.c **** *******************************************************************************/
 464:Generated_Source\PSoC5/Clock_1.c **** uint8 Clock_1_GetSourceRegister(void) 
 465:Generated_Source\PSoC5/Clock_1.c **** {
 321              		.loc 1 465 0
 322              		.cfi_startproc
 323              		@ args = 0, pretend = 0, frame = 0
 324              		@ frame_needed = 0, uses_anonymous_args = 0
 325              		@ link register save eliminated.
 466:Generated_Source\PSoC5/Clock_1.c ****     return Clock_1_MOD_SRC & Clock_1_SRC_SEL_MSK;
 326              		.loc 1 466 0
 327 0000 024B     		ldr	r3, .L30
 328 0002 1878     		ldrb	r0, [r3]	@ zero_extendqisi2
 467:Generated_Source\PSoC5/Clock_1.c **** }
 329              		.loc 1 467 0
 330 0004 00F00700 		and	r0, r0, #7
 331 0008 7047     		bx	lr
ARM GAS  C:\Users\Dell\AppData\Local\Temp\ccIPbawa.s 			page 15


 332              	.L31:
 333 000a 00BF     		.align	2
 334              	.L30:
 335 000c 0A410040 		.word	1073758474
 336              		.cfi_endproc
 337              	.LFE10:
 338              		.size	Clock_1_GetSourceRegister, .-Clock_1_GetSourceRegister
 339              		.section	.text.Clock_1_SetDividerRegister,"ax",%progbits
 340              		.align	2
 341              		.global	Clock_1_SetDividerRegister
 342              		.thumb
 343              		.thumb_func
 344              		.type	Clock_1_SetDividerRegister, %function
 345              	Clock_1_SetDividerRegister:
 346              	.LFB4:
 195:Generated_Source\PSoC5/Clock_1.c ****     uint8 enabled;
 347              		.loc 1 195 0
 348              		.cfi_startproc
 349              		@ args = 0, pretend = 0, frame = 0
 350              		@ frame_needed = 0, uses_anonymous_args = 0
 351              	.LVL7:
 352 0000 70B5     		push	{r4, r5, r6, lr}
 353              		.cfi_def_cfa_offset 16
 354              		.cfi_offset 4, -16
 355              		.cfi_offset 5, -12
 356              		.cfi_offset 6, -8
 357              		.cfi_offset 14, -4
 358 0002 0446     		mov	r4, r0
 359 0004 0D46     		mov	r5, r1
 198:Generated_Source\PSoC5/Clock_1.c ****     uint16 oldDivider = Clock_1_GetDividerRegister();
 360              		.loc 1 198 0
 361 0006 FFF7FEFF 		bl	Clock_1_GetSourceRegister
 362              	.LVL8:
 363 000a 0646     		mov	r6, r0
 364              	.LVL9:
 199:Generated_Source\PSoC5/Clock_1.c **** 
 365              		.loc 1 199 0
 366 000c FFF7FEFF 		bl	Clock_1_GetDividerRegister
 367              	.LVL10:
 201:Generated_Source\PSoC5/Clock_1.c ****     {
 368              		.loc 1 201 0
 369 0010 A042     		cmp	r0, r4
 370 0012 57D0     		beq	.L32
 203:Generated_Source\PSoC5/Clock_1.c **** 
 371              		.loc 1 203 0
 372 0014 2C4B     		ldr	r3, .L45
 373 0016 1B78     		ldrb	r3, [r3]	@ zero_extendqisi2
 374 0018 03F00403 		and	r3, r3, #4
 375 001c DAB2     		uxtb	r2, r3
 376              	.LVL11:
 205:Generated_Source\PSoC5/Clock_1.c ****         {
 377              		.loc 1 205 0
 378 001e 96B9     		cbnz	r6, .L34
 205:Generated_Source\PSoC5/Clock_1.c ****         {
 379              		.loc 1 205 0 is_stmt 0 discriminator 1
 380 0020 00B1     		cbz	r0, .L35
 205:Generated_Source\PSoC5/Clock_1.c ****         {
ARM GAS  C:\Users\Dell\AppData\Local\Temp\ccIPbawa.s 			page 16


 381              		.loc 1 205 0 discriminator 2
 382 0022 84B9     		cbnz	r4, .L34
 383              	.L35:
 208:Generated_Source\PSoC5/Clock_1.c ****             {
 384              		.loc 1 208 0 is_stmt 1
 385 0024 38B9     		cbnz	r0, .L36
 213:Generated_Source\PSoC5/Clock_1.c ****                 Clock_1_MOD_SRC &= (uint8)(~CYCLK_SSS);
 386              		.loc 1 213 0
 387 0026 294B     		ldr	r3, .L45+4
 388 0028 1C80     		strh	r4, [r3]	@ movhi
 214:Generated_Source\PSoC5/Clock_1.c ****             }
 389              		.loc 1 214 0
 390 002a 294A     		ldr	r2, .L45+8
 391              	.LVL12:
 392 002c 1378     		ldrb	r3, [r2]	@ zero_extendqisi2
 393 002e 03F0BF03 		and	r3, r3, #191
 394 0032 1370     		strb	r3, [r2]
 395 0034 70BD     		pop	{r4, r5, r6, pc}
 396              	.LVL13:
 397              	.L36:
 220:Generated_Source\PSoC5/Clock_1.c ****                 CY_SET_REG16(Clock_1_DIV_PTR, clkDivider);
 398              		.loc 1 220 0
 399 0036 264A     		ldr	r2, .L45+8
 400              	.LVL14:
 401 0038 1378     		ldrb	r3, [r2]	@ zero_extendqisi2
 402              	.LVL15:
 403 003a 43F04003 		orr	r3, r3, #64
 404 003e 1370     		strb	r3, [r2]
 221:Generated_Source\PSoC5/Clock_1.c ****             }
 405              		.loc 1 221 0
 406 0040 224B     		ldr	r3, .L45+4
 407 0042 1C80     		strh	r4, [r3]	@ movhi
 408 0044 70BD     		pop	{r4, r5, r6, pc}
 409              	.LVL16:
 410              	.L34:
 227:Generated_Source\PSoC5/Clock_1.c ****             {
 411              		.loc 1 227 0
 412 0046 22B3     		cbz	r2, .L37
 229:Generated_Source\PSoC5/Clock_1.c **** 
 413              		.loc 1 229 0
 414 0048 0023     		movs	r3, #0
 415 004a 2249     		ldr	r1, .L45+12
 416 004c 0B70     		strb	r3, [r1]
 233:Generated_Source\PSoC5/Clock_1.c ****                 CLK_DIST_DMASK = 0x00u;
 417              		.loc 1 233 0
 418 004e 0426     		movs	r6, #4
 419              	.LVL17:
 420 0050 1331     		adds	r1, r1, #19
 421 0052 0E70     		strb	r6, [r1]
 234:Generated_Source\PSoC5/Clock_1.c **** #else
 422              		.loc 1 234 0
 423 0054 0439     		subs	r1, r1, #4
 424 0056 0B70     		strb	r3, [r1]
 240:Generated_Source\PSoC5/Clock_1.c **** 
 425              		.loc 1 240 0
 426 0058 0839     		subs	r1, r1, #8
 427 005a 0B78     		ldrb	r3, [r1]	@ zero_extendqisi2
ARM GAS  C:\Users\Dell\AppData\Local\Temp\ccIPbawa.s 			page 17


 428 005c 03F07F03 		and	r3, r3, #127
 429 0060 0B70     		strb	r3, [r1]
 243:Generated_Source\PSoC5/Clock_1.c ****                 {
 430              		.loc 1 243 0
 431 0062 1B4B     		ldr	r3, .L45+8
 432 0064 1B78     		ldrb	r3, [r3]	@ zero_extendqisi2
 433 0066 13F0080F 		tst	r3, #8
 434 006a 00D0     		beq	.L38
 243:Generated_Source\PSoC5/Clock_1.c ****                 {
 435              		.loc 1 243 0 is_stmt 0 discriminator 1
 436 006c 8CB9     		cbnz	r4, .L37
 437              	.L38:
 246:Generated_Source\PSoC5/Clock_1.c ****                     CLK_DIST_LD = CYCLK_LD_DISABLE|CYCLK_LD_SYNC_EN|CYCLK_LD_LOAD;
 438              		.loc 1 246 0 is_stmt 1
 439 006e 1A4B     		ldr	r3, .L45+16
 440 0070 1880     		strh	r0, [r3]	@ movhi
 247:Generated_Source\PSoC5/Clock_1.c **** 
 441              		.loc 1 247 0
 442 0072 0721     		movs	r1, #7
 443 0074 013B     		subs	r3, r3, #1
 444 0076 1970     		strb	r1, [r3]
 445              	.L39:
 250:Generated_Source\PSoC5/Clock_1.c **** #endif /* HAS_CLKDIST_LD_DISABLE */
 446              		.loc 1 250 0 discriminator 1
 447 0078 164B     		ldr	r3, .L45+12
 448 007a 1B78     		ldrb	r3, [r3]	@ zero_extendqisi2
 449 007c 13F0010F 		tst	r3, #1
 450 0080 FAD1     		bne	.L39
 253:Generated_Source\PSoC5/Clock_1.c **** 
 451              		.loc 1 253 0
 452 0082 1149     		ldr	r1, .L45
 453 0084 0B78     		ldrb	r3, [r1]	@ zero_extendqisi2
 454 0086 03F0FB03 		and	r3, r3, #251
 455 008a 0B70     		strb	r3, [r1]
 257:Generated_Source\PSoC5/Clock_1.c **** #endif /* HAS_CLKDIST_LD_DISABLE */
 456              		.loc 1 257 0
 457 008c 0021     		movs	r1, #0
 458 008e 114B     		ldr	r3, .L45+12
 459 0090 1970     		strb	r1, [r3]
 460              	.L37:
 263:Generated_Source\PSoC5/Clock_1.c ****             {
 461              		.loc 1 263 0
 462 0092 0D4B     		ldr	r3, .L45
 463 0094 1B78     		ldrb	r3, [r3]	@ zero_extendqisi2
 464 0096 13F0040F 		tst	r3, #4
 465 009a 0DD0     		beq	.L40
 266:Generated_Source\PSoC5/Clock_1.c **** 
 466              		.loc 1 266 0
 467 009c 0E4B     		ldr	r3, .L45+16
 468 009e 1C80     		strh	r4, [r3]	@ movhi
 268:Generated_Source\PSoC5/Clock_1.c ****                 while ((CLK_DIST_LD & CYCLK_LD_LOAD) != 0u) { }
 469              		.loc 1 268 0
 470 00a0 0DB1     		cbz	r5, .L43
 471 00a2 0322     		movs	r2, #3
 472              	.LVL18:
 473 00a4 00E0     		b	.L41
 474              	.LVL19:
ARM GAS  C:\Users\Dell\AppData\Local\Temp\ccIPbawa.s 			page 18


 475              	.L43:
 476 00a6 0122     		movs	r2, #1
 477              	.LVL20:
 478              	.L41:
 268:Generated_Source\PSoC5/Clock_1.c ****                 while ((CLK_DIST_LD & CYCLK_LD_LOAD) != 0u) { }
 479              		.loc 1 268 0 is_stmt 0 discriminator 4
 480 00a8 0A4B     		ldr	r3, .L45+12
 481 00aa 1A70     		strb	r2, [r3]
 482              	.L42:
 269:Generated_Source\PSoC5/Clock_1.c ****             }
 483              		.loc 1 269 0 is_stmt 1 discriminator 1
 484 00ac 094B     		ldr	r3, .L45+12
 485 00ae 1B78     		ldrb	r3, [r3]	@ zero_extendqisi2
 486 00b0 13F0010F 		tst	r3, #1
 487 00b4 FAD1     		bne	.L42
 488 00b6 70BD     		pop	{r4, r5, r6, pc}
 489              	.LVL21:
 490              	.L40:
 274:Generated_Source\PSoC5/Clock_1.c **** 				Clock_1_CLKEN |= enabled;
 491              		.loc 1 274 0
 492 00b8 044B     		ldr	r3, .L45+4
 493 00ba 1C80     		strh	r4, [r3]	@ movhi
 275:Generated_Source\PSoC5/Clock_1.c ****             }
 494              		.loc 1 275 0
 495 00bc 0249     		ldr	r1, .L45
 496 00be 0B78     		ldrb	r3, [r1]	@ zero_extendqisi2
 497 00c0 1343     		orrs	r3, r3, r2
 498 00c2 0B70     		strb	r3, [r1]
 499              	.LVL22:
 500              	.L32:
 501 00c4 70BD     		pop	{r4, r5, r6, pc}
 502              	.L46:
 503 00c6 00BF     		.align	2
 504              	.L45:
 505 00c8 A1430040 		.word	1073759137
 506 00cc 08410040 		.word	1073758472
 507 00d0 0A410040 		.word	1073758474
 508 00d4 01400040 		.word	1073758209
 509 00d8 02400040 		.word	1073758210
 510              		.cfi_endproc
 511              	.LFE4:
 512              		.size	Clock_1_SetDividerRegister, .-Clock_1_SetDividerRegister
 513              		.section	.text.Clock_1_SetSourceRegister,"ax",%progbits
 514              		.align	2
 515              		.global	Clock_1_SetSourceRegister
 516              		.thumb
 517              		.thumb_func
 518              		.type	Clock_1_SetSourceRegister, %function
 519              	Clock_1_SetSourceRegister:
 520              	.LFB9:
 420:Generated_Source\PSoC5/Clock_1.c ****     uint16 currDiv = Clock_1_GetDividerRegister();
 521              		.loc 1 420 0
 522              		.cfi_startproc
 523              		@ args = 0, pretend = 0, frame = 0
 524              		@ frame_needed = 0, uses_anonymous_args = 0
 525              	.LVL23:
 526 0000 38B5     		push	{r3, r4, r5, lr}
ARM GAS  C:\Users\Dell\AppData\Local\Temp\ccIPbawa.s 			page 19


 527              		.cfi_def_cfa_offset 16
 528              		.cfi_offset 3, -16
 529              		.cfi_offset 4, -12
 530              		.cfi_offset 5, -8
 531              		.cfi_offset 14, -4
 532 0002 0446     		mov	r4, r0
 421:Generated_Source\PSoC5/Clock_1.c ****     uint8 oldSrc = Clock_1_GetSourceRegister();
 533              		.loc 1 421 0
 534 0004 FFF7FEFF 		bl	Clock_1_GetDividerRegister
 535              	.LVL24:
 536 0008 0546     		mov	r5, r0
 537              	.LVL25:
 422:Generated_Source\PSoC5/Clock_1.c **** 
 538              		.loc 1 422 0
 539 000a FFF7FEFF 		bl	Clock_1_GetSourceRegister
 540              	.LVL26:
 424:Generated_Source\PSoC5/Clock_1.c ****         (clkSource == ((uint8)CYCLK_SRC_SEL_CLK_SYNC_D))) && (currDiv == 0u))
 541              		.loc 1 424 0
 542 000e 0346     		mov	r3, r0
 543 0010 60B1     		cbz	r0, .L48
 424:Generated_Source\PSoC5/Clock_1.c ****         (clkSource == ((uint8)CYCLK_SRC_SEL_CLK_SYNC_D))) && (currDiv == 0u))
 544              		.loc 1 424 0 is_stmt 0 discriminator 1
 545 0012 5CB9     		cbnz	r4, .L48
 425:Generated_Source\PSoC5/Clock_1.c ****     {
 546              		.loc 1 425 0 is_stmt 1
 547 0014 55B9     		cbnz	r5, .L48
 429:Generated_Source\PSoC5/Clock_1.c ****         Clock_1_MOD_SRC =
 548              		.loc 1 429 0
 549 0016 104A     		ldr	r2, .L52
 550 0018 1378     		ldrb	r3, [r2]	@ zero_extendqisi2
 551 001a 43F04003 		orr	r3, r3, #64
 552 001e 1370     		strb	r3, [r2]
 431:Generated_Source\PSoC5/Clock_1.c ****     }
 553              		.loc 1 431 0
 554 0020 1378     		ldrb	r3, [r2]	@ zero_extendqisi2
 430:Generated_Source\PSoC5/Clock_1.c ****             (Clock_1_MOD_SRC & (uint8)(~Clock_1_SRC_SEL_MSK)) | clkSource;
 555              		.loc 1 430 0
 556 0022 03F0F803 		and	r3, r3, #248
 557 0026 1C43     		orrs	r4, r4, r3
 558 0028 1470     		strb	r4, [r2]
 559 002a 38BD     		pop	{r3, r4, r5, pc}
 560              	.LVL27:
 561              	.L48:
 433:Generated_Source\PSoC5/Clock_1.c ****             (clkSource != ((uint8)CYCLK_SRC_SEL_CLK_SYNC_D))) && (currDiv == 0u))
 562              		.loc 1 433 0
 563 002c 63B9     		cbnz	r3, .L50
 433:Generated_Source\PSoC5/Clock_1.c ****             (clkSource != ((uint8)CYCLK_SRC_SEL_CLK_SYNC_D))) && (currDiv == 0u))
 564              		.loc 1 433 0 is_stmt 0 discriminator 1
 565 002e 5CB1     		cbz	r4, .L50
 434:Generated_Source\PSoC5/Clock_1.c ****     {
 566              		.loc 1 434 0 is_stmt 1
 567 0030 55B9     		cbnz	r5, .L50
 439:Generated_Source\PSoC5/Clock_1.c ****         Clock_1_MOD_SRC &= (uint8)(~CYCLK_SSS);
 568              		.loc 1 439 0
 569 0032 094A     		ldr	r2, .L52
 570 0034 1378     		ldrb	r3, [r2]	@ zero_extendqisi2
 438:Generated_Source\PSoC5/Clock_1.c ****             (Clock_1_MOD_SRC & (uint8)(~Clock_1_SRC_SEL_MSK)) | clkSource;
ARM GAS  C:\Users\Dell\AppData\Local\Temp\ccIPbawa.s 			page 20


 571              		.loc 1 438 0
 572 0036 03F0F803 		and	r3, r3, #248
 573 003a 1C43     		orrs	r4, r4, r3
 574 003c 1470     		strb	r4, [r2]
 440:Generated_Source\PSoC5/Clock_1.c ****     }
 575              		.loc 1 440 0
 576 003e 1378     		ldrb	r3, [r2]	@ zero_extendqisi2
 577 0040 03F0BF03 		and	r3, r3, #191
 578 0044 1370     		strb	r3, [r2]
 579 0046 38BD     		pop	{r3, r4, r5, pc}
 580              	.LVL28:
 581              	.L50:
 445:Generated_Source\PSoC5/Clock_1.c ****     }
 582              		.loc 1 445 0
 583 0048 034A     		ldr	r2, .L52
 584 004a 1378     		ldrb	r3, [r2]	@ zero_extendqisi2
 444:Generated_Source\PSoC5/Clock_1.c ****             (Clock_1_MOD_SRC & (uint8)(~Clock_1_SRC_SEL_MSK)) | clkSource;
 585              		.loc 1 444 0
 586 004c 03F0F803 		and	r3, r3, #248
 587 0050 1C43     		orrs	r4, r4, r3
 588 0052 1470     		strb	r4, [r2]
 589 0054 38BD     		pop	{r3, r4, r5, pc}
 590              	.LVL29:
 591              	.L53:
 592 0056 00BF     		.align	2
 593              	.L52:
 594 0058 0A410040 		.word	1073758474
 595              		.cfi_endproc
 596              	.LFE9:
 597              		.size	Clock_1_SetSourceRegister, .-Clock_1_SetSourceRegister
 598              		.section	.text.Clock_1_SetPhaseRegister,"ax",%progbits
 599              		.align	2
 600              		.global	Clock_1_SetPhaseRegister
 601              		.thumb
 602              		.thumb_func
 603              		.type	Clock_1_SetPhaseRegister, %function
 604              	Clock_1_SetPhaseRegister:
 605              	.LFB11:
 468:Generated_Source\PSoC5/Clock_1.c **** 
 469:Generated_Source\PSoC5/Clock_1.c **** 
 470:Generated_Source\PSoC5/Clock_1.c **** #if defined(Clock_1__CFG3)
 471:Generated_Source\PSoC5/Clock_1.c **** 
 472:Generated_Source\PSoC5/Clock_1.c **** 
 473:Generated_Source\PSoC5/Clock_1.c **** /*******************************************************************************
 474:Generated_Source\PSoC5/Clock_1.c **** * Function Name: Clock_1_SetPhaseRegister
 475:Generated_Source\PSoC5/Clock_1.c **** ********************************************************************************
 476:Generated_Source\PSoC5/Clock_1.c **** *
 477:Generated_Source\PSoC5/Clock_1.c **** * Summary:
 478:Generated_Source\PSoC5/Clock_1.c **** *  Sets the phase delay of the analog clock. This function is only available
 479:Generated_Source\PSoC5/Clock_1.c **** *  for analog clocks. The clock must be disabled before changing the phase
 480:Generated_Source\PSoC5/Clock_1.c **** *  delay to avoid glitches.
 481:Generated_Source\PSoC5/Clock_1.c **** *
 482:Generated_Source\PSoC5/Clock_1.c **** * Parameters:
 483:Generated_Source\PSoC5/Clock_1.c **** *  clkPhase: Amount to delay the phase of the clock, in 1.0ns increments.
 484:Generated_Source\PSoC5/Clock_1.c **** *   clkPhase must be from 1 to 11 inclusive. Other values, including 0,
 485:Generated_Source\PSoC5/Clock_1.c **** *   disable the clock. clkPhase = 1 produces a 0ns delay and clkPhase = 11 
 486:Generated_Source\PSoC5/Clock_1.c **** *   produces a 10ns delay.
ARM GAS  C:\Users\Dell\AppData\Local\Temp\ccIPbawa.s 			page 21


 487:Generated_Source\PSoC5/Clock_1.c **** *
 488:Generated_Source\PSoC5/Clock_1.c **** * Returns:
 489:Generated_Source\PSoC5/Clock_1.c **** *  None
 490:Generated_Source\PSoC5/Clock_1.c **** *
 491:Generated_Source\PSoC5/Clock_1.c **** *******************************************************************************/
 492:Generated_Source\PSoC5/Clock_1.c **** void Clock_1_SetPhaseRegister(uint8 clkPhase) 
 493:Generated_Source\PSoC5/Clock_1.c **** {
 606              		.loc 1 493 0
 607              		.cfi_startproc
 608              		@ args = 0, pretend = 0, frame = 0
 609              		@ frame_needed = 0, uses_anonymous_args = 0
 610              		@ link register save eliminated.
 611              	.LVL30:
 494:Generated_Source\PSoC5/Clock_1.c ****     Clock_1_PHASE = clkPhase & Clock_1_PHASE_MASK;
 612              		.loc 1 494 0
 613 0000 00F00F00 		and	r0, r0, #15
 614              	.LVL31:
 615 0004 014B     		ldr	r3, .L55
 616 0006 1870     		strb	r0, [r3]
 617 0008 7047     		bx	lr
 618              	.L56:
 619 000a 00BF     		.align	2
 620              	.L55:
 621 000c 0B410040 		.word	1073758475
 622              		.cfi_endproc
 623              	.LFE11:
 624              		.size	Clock_1_SetPhaseRegister, .-Clock_1_SetPhaseRegister
 625              		.section	.text.Clock_1_GetPhaseRegister,"ax",%progbits
 626              		.align	2
 627              		.global	Clock_1_GetPhaseRegister
 628              		.thumb
 629              		.thumb_func
 630              		.type	Clock_1_GetPhaseRegister, %function
 631              	Clock_1_GetPhaseRegister:
 632              	.LFB12:
 495:Generated_Source\PSoC5/Clock_1.c **** }
 496:Generated_Source\PSoC5/Clock_1.c **** 
 497:Generated_Source\PSoC5/Clock_1.c **** 
 498:Generated_Source\PSoC5/Clock_1.c **** /*******************************************************************************
 499:Generated_Source\PSoC5/Clock_1.c **** * Function Name: Clock_1_GetPhase
 500:Generated_Source\PSoC5/Clock_1.c **** ********************************************************************************
 501:Generated_Source\PSoC5/Clock_1.c **** *
 502:Generated_Source\PSoC5/Clock_1.c **** * Summary:
 503:Generated_Source\PSoC5/Clock_1.c **** *  Gets the phase delay of the analog clock. This function is only available
 504:Generated_Source\PSoC5/Clock_1.c **** *  for analog clocks.
 505:Generated_Source\PSoC5/Clock_1.c **** *
 506:Generated_Source\PSoC5/Clock_1.c **** * Parameters:
 507:Generated_Source\PSoC5/Clock_1.c **** *  None
 508:Generated_Source\PSoC5/Clock_1.c **** *
 509:Generated_Source\PSoC5/Clock_1.c **** * Returns:
 510:Generated_Source\PSoC5/Clock_1.c **** *  Phase of the analog clock. See SetPhaseRegister for details.
 511:Generated_Source\PSoC5/Clock_1.c **** *
 512:Generated_Source\PSoC5/Clock_1.c **** *******************************************************************************/
 513:Generated_Source\PSoC5/Clock_1.c **** uint8 Clock_1_GetPhaseRegister(void) 
 514:Generated_Source\PSoC5/Clock_1.c **** {
 633              		.loc 1 514 0
 634              		.cfi_startproc
ARM GAS  C:\Users\Dell\AppData\Local\Temp\ccIPbawa.s 			page 22


 635              		@ args = 0, pretend = 0, frame = 0
 636              		@ frame_needed = 0, uses_anonymous_args = 0
 637              		@ link register save eliminated.
 515:Generated_Source\PSoC5/Clock_1.c ****     return Clock_1_PHASE & Clock_1_PHASE_MASK;
 638              		.loc 1 515 0
 639 0000 024B     		ldr	r3, .L58
 640 0002 1878     		ldrb	r0, [r3]	@ zero_extendqisi2
 516:Generated_Source\PSoC5/Clock_1.c **** }
 641              		.loc 1 516 0
 642 0004 00F00F00 		and	r0, r0, #15
 643 0008 7047     		bx	lr
 644              	.L59:
 645 000a 00BF     		.align	2
 646              	.L58:
 647 000c 0B410040 		.word	1073758475
 648              		.cfi_endproc
 649              	.LFE12:
 650              		.size	Clock_1_GetPhaseRegister, .-Clock_1_GetPhaseRegister
 651              		.text
 652              	.Letext0:
 653              		.file 2 "Generated_Source\\PSoC5/cytypes.h"
