ARM GAS  C:\Users\Dell\AppData\Local\Temp\ccpe0Dqd.s 			page 1


   1              		.syntax unified
   2              		.cpu cortex-m3
   3              		.fpu softvfp
   4              		.eabi_attribute 20, 1
   5              		.eabi_attribute 21, 1
   6              		.eabi_attribute 23, 3
   7              		.eabi_attribute 24, 1
   8              		.eabi_attribute 25, 1
   9              		.eabi_attribute 26, 1
  10              		.eabi_attribute 30, 1
  11              		.eabi_attribute 34, 1
  12              		.eabi_attribute 18, 4
  13              		.thumb
  14              		.syntax unified
  15              		.file	"communication.c"
  16              		.text
  17              	.Ltext0:
  18              		.cfi_sections	.debug_frame
  19              		.section	.text.BuildHeader,"ax",%progbits
  20              		.align	2
  21              		.global	BuildHeader
  22              		.thumb
  23              		.thumb_func
  24              		.type	BuildHeader, %function
  25              	BuildHeader:
  26              	.LFB64:
  27              		.file 1 "communication.c"
   1:communication.c **** /* ========================================
   2:communication.c ****  *
   3:communication.c ****  * Copyright YOUR COMPANY, THE YEAR
   4:communication.c ****  * All Rights Reserved
   5:communication.c ****  * UNPUBLISHED, LICENSED SOFTWARE.
   6:communication.c ****  *
   7:communication.c ****  * CONFIDENTIAL AND PROPRIETARY INFORMATION
   8:communication.c ****  * WHICH IS THE PROPERTY OF your company.
   9:communication.c ****  *
  10:communication.c ****  * ========================================
  11:communication.c **** */
  12:communication.c **** 
  13:communication.c **** /* [] END OF FILE */
  14:communication.c **** #include <Communication.h>
  15:communication.c **** #include <project.h>
  16:communication.c **** #include <stdio.h>
  17:communication.c **** #include <Flash.h>
  18:communication.c **** 
  19:communication.c **** //#include <Details.h>
  20:communication.c **** //void BuildHeader ();
  21:communication.c **** //uint8 FrameNum(enum Category category);
  22:communication.c **** //void SendResponse (enum SubType subtype, enum Category category, enum Status status);
  23:communication.c **** //#define USBUART_BUFFER_SIZE (64u)
  24:communication.c **** //uint8 bufferIN[USBUART_BUFFER_SIZE];
  25:communication.c **** //uint8 bufferOUT[USBUART_BUFFER_SIZE];
  26:communication.c **** uint8 responseFrameNum;
  27:communication.c **** uint8 eventFrameNum;
  28:communication.c **** uint8 requestFrameNum;
  29:communication.c **** uint8 EventNoResponseFrameNum;
  30:communication.c **** uint16 size;
ARM GAS  C:\Users\Dell\AppData\Local\Temp\ccpe0Dqd.s 			page 2


  31:communication.c **** uint16 msg_length;
  32:communication.c **** enum Status status;
  33:communication.c **** enum SubType subtype;
  34:communication.c **** enum Category category;  
  35:communication.c **** uint8 ZeroBuf[USBUART_BUFFER_SIZE]={[0 ... 63] = 0};
  36:communication.c **** uint8 I2CBufWrite[TIDataLength];
  37:communication.c **** uint8 I2CBufRead[TIDataLength];
  38:communication.c ****     
  39:communication.c **** void BuildHeader () {
  28              		.loc 1 39 0
  29              		.cfi_startproc
  30              		@ args = 0, pretend = 0, frame = 0
  31              		@ frame_needed = 0, uses_anonymous_args = 0
  32              		@ link register save eliminated.
  40:communication.c ****     bufferOUT[0]=0xaa;
  33              		.loc 1 40 0
  34 0000 034B     		ldr	r3, .L2
  35 0002 AA22     		movs	r2, #170
  36 0004 1A70     		strb	r2, [r3]
  41:communication.c ****     bufferOUT[1]=0xbb;
  37              		.loc 1 41 0
  38 0006 BB21     		movs	r1, #187
  39 0008 5970     		strb	r1, [r3, #1]
  42:communication.c ****     bufferOUT[2]=0xbb;
  40              		.loc 1 42 0
  41 000a 9970     		strb	r1, [r3, #2]
  43:communication.c ****     bufferOUT[3]=0xaa;
  42              		.loc 1 43 0
  43 000c DA70     		strb	r2, [r3, #3]
  44 000e 7047     		bx	lr
  45              	.L3:
  46              		.align	2
  47              	.L2:
  48 0010 00000000 		.word	bufferOUT
  49              		.cfi_endproc
  50              	.LFE64:
  51              		.size	BuildHeader, .-BuildHeader
  52              		.section	.text.FrameNum,"ax",%progbits
  53              		.align	2
  54              		.global	FrameNum
  55              		.thumb
  56              		.thumb_func
  57              		.type	FrameNum, %function
  58              	FrameNum:
  59              	.LFB65:
  44:communication.c **** }
  45:communication.c **** 
  46:communication.c **** uint8 FrameNum(enum Category category){
  60              		.loc 1 46 0
  61              		.cfi_startproc
  62              		@ args = 0, pretend = 0, frame = 0
  63              		@ frame_needed = 0, uses_anonymous_args = 0
  64              		@ link register save eliminated.
  65              	.LVL0:
  47:communication.c ****     if (category==kResponse){
  66              		.loc 1 47 0
  67 0000 0228     		cmp	r0, #2
ARM GAS  C:\Users\Dell\AppData\Local\Temp\ccpe0Dqd.s 			page 3


  68 0002 04D1     		bne	.L5
  48:communication.c ****      return responseFrameNum++; //%msgMaxsize ?
  69              		.loc 1 48 0
  70 0004 0D4B     		ldr	r3, .L10
  71 0006 1878     		ldrb	r0, [r3]	@ zero_extendqisi2
  72              	.LVL1:
  73 0008 421C     		adds	r2, r0, #1
  74 000a 1A70     		strb	r2, [r3]
  75 000c 7047     		bx	lr
  76              	.LVL2:
  77              	.L5:
  49:communication.c ****     }
  50:communication.c ****     else if (category==kEvent){
  78              		.loc 1 50 0
  79 000e 0328     		cmp	r0, #3
  80 0010 04D1     		bne	.L7
  51:communication.c ****      return eventFrameNum++; 
  81              		.loc 1 51 0
  82 0012 0B4B     		ldr	r3, .L10+4
  83 0014 1878     		ldrb	r0, [r3]	@ zero_extendqisi2
  84              	.LVL3:
  85 0016 421C     		adds	r2, r0, #1
  86 0018 1A70     		strb	r2, [r3]
  87 001a 7047     		bx	lr
  88              	.LVL4:
  89              	.L7:
  52:communication.c ****     }
  53:communication.c ****     else if (category==kRequest){
  90              		.loc 1 53 0
  91 001c 0128     		cmp	r0, #1
  92 001e 04D1     		bne	.L8
  54:communication.c ****     return requestFrameNum++;
  93              		.loc 1 54 0
  94 0020 084B     		ldr	r3, .L10+8
  95 0022 1878     		ldrb	r0, [r3]	@ zero_extendqisi2
  96              	.LVL5:
  97 0024 421C     		adds	r2, r0, #1
  98 0026 1A70     		strb	r2, [r3]
  99 0028 7047     		bx	lr
 100              	.LVL6:
 101              	.L8:
  55:communication.c ****     }
  56:communication.c ****     else if (category==kEventNoResponse){
 102              		.loc 1 56 0
 103 002a 0428     		cmp	r0, #4
 104 002c 04D1     		bne	.L9
  57:communication.c ****     return EventNoResponseFrameNum++;
 105              		.loc 1 57 0
 106 002e 064B     		ldr	r3, .L10+12
 107 0030 1878     		ldrb	r0, [r3]	@ zero_extendqisi2
 108              	.LVL7:
 109 0032 421C     		adds	r2, r0, #1
 110 0034 1A70     		strb	r2, [r3]
 111 0036 7047     		bx	lr
 112              	.LVL8:
 113              	.L9:
  58:communication.c ****     }
ARM GAS  C:\Users\Dell\AppData\Local\Temp\ccpe0Dqd.s 			page 4


  59:communication.c ****     return 0;
 114              		.loc 1 59 0
 115 0038 0020     		movs	r0, #0
 116              	.LVL9:
  60:communication.c **** }
 117              		.loc 1 60 0
 118 003a 7047     		bx	lr
 119              	.L11:
 120              		.align	2
 121              	.L10:
 122 003c 00000000 		.word	responseFrameNum
 123 0040 00000000 		.word	eventFrameNum
 124 0044 00000000 		.word	requestFrameNum
 125 0048 00000000 		.word	EventNoResponseFrameNum
 126              		.cfi_endproc
 127              	.LFE65:
 128              		.size	FrameNum, .-FrameNum
 129              		.section	.text.WriteMatParamsToFlash_old,"ax",%progbits
 130              		.align	2
 131              		.global	WriteMatParamsToFlash_old
 132              		.thumb
 133              		.thumb_func
 134              		.type	WriteMatParamsToFlash_old, %function
 135              	WriteMatParamsToFlash_old:
 136              	.LFB73:
  61:communication.c **** 
  62:communication.c **** //////////////////////////////////////////////////
  63:communication.c **** //////////////////USB-OUT////////////////////////
  64:communication.c **** ////////////////////////////////////////////////
  65:communication.c **** 
  66:communication.c **** void SendFWVersion(struct FW_Details* FWversion, enum Status status){   
  67:communication.c ****    // uint8 size=3; //sizeof (FWversion)
  68:communication.c ****     size = sizeof(struct FW_Details);  
  69:communication.c ****     memcpy(bufferOUT,FWversion,size);
  70:communication.c ****     CyDelay(1000);
  71:communication.c ****     for(uint8 i=0; i<size; i++){
  72:communication.c ****       bufferOUT[basicMsgSize + size -1 -i] =  bufferOUT[size-1-i];
  73:communication.c ****     }
  74:communication.c ****     BuildHeader();
  75:communication.c ****     uint16 msg_length= basicMsgSize+size;
  76:communication.c ****     bufferOUT[4]=FrameNum(kResponse);  //msg serial number
  77:communication.c ****     bufferOUT[5]=msg_length&0x00ff; //msg length LSB
  78:communication.c ****     bufferOUT[6]=msg_length>>8; //msg length MSB 
  79:communication.c ****     bufferOUT[7]=kResponse; //category
  80:communication.c ****     bufferOUT[8]=subtype;    
  81:communication.c ****     bufferOUT[9]=status;
  82:communication.c ****     /* Wait until component is ready to send data to host. */
  83:communication.c ****     while (0u == USBUART_CDCIsReady()){}                  
  84:communication.c ****     USBUART_PutData(bufferOUT,msg_length);    
  85:communication.c ****     ClearBufOut();
  86:communication.c ****     UART_PutString("Send FW Version");
  87:communication.c ****     UART_PutString("\n\r\n\r");
  88:communication.c **** }
  89:communication.c **** 
  90:communication.c **** void SendResponse (enum SubType subtype, enum Status status){
  91:communication.c ****     BuildHeader();
  92:communication.c ****     bufferOUT[4]=FrameNum(kResponse);  //msg serial number
ARM GAS  C:\Users\Dell\AppData\Local\Temp\ccpe0Dqd.s 			page 5


  93:communication.c ****     bufferOUT[5]=10u; //msg length LSB
  94:communication.c ****     bufferOUT[6]=0u; //msg length MSB 
  95:communication.c ****     bufferOUT[7]=kResponse; //category
  96:communication.c ****     bufferOUT[8]= subtype;    
  97:communication.c ****     bufferOUT[9]=status;
  98:communication.c **** 
  99:communication.c ****     /* Wait until component is ready to send data to host. */
 100:communication.c ****     while (0u == USBUART_CDCIsReady()){}                  
 101:communication.c ****     USBUART_PutData(bufferOUT,basicMsgSize);
 102:communication.c ****     ClearBufOut();
 103:communication.c ****     UART_PutString("Send Response");
 104:communication.c ****     UART_PutString("\n\r\n\r");
 105:communication.c **** }
 106:communication.c **** 
 107:communication.c **** void SendCheckSumResponse (enum SubType subtype, enum Status status, uint8 checksumresults){
 108:communication.c ****     BuildHeader();       
 109:communication.c ****     bufferOUT[4]=FrameNum(kResponse);  //msg serial number
 110:communication.c ****     bufferOUT[5]=11u; //msg length LSB
 111:communication.c ****     bufferOUT[6]=0u; //msg length MSB 
 112:communication.c ****     bufferOUT[7]=kResponse; //category
 113:communication.c ****     bufferOUT[8]= subtype;    
 114:communication.c ****     bufferOUT[9]=status;
 115:communication.c ****     bufferOUT[10]=checksumresults;
 116:communication.c **** 
 117:communication.c ****     /* Wait until component is ready to send data to host. */
 118:communication.c ****     while (0u == USBUART_CDCIsReady()){}                  
 119:communication.c ****     USBUART_PutData(bufferOUT,11);
 120:communication.c ****     ClearBufOut();
 121:communication.c ****     UART_PutString("Send check sum Response");
 122:communication.c ****     UART_PutString("\n\r\n\r");
 123:communication.c **** }
 124:communication.c **** 
 125:communication.c **** void SendEBoxParams(struct EBoxParams* params, enum Status status){      
 126:communication.c ****     size = sizeof(struct EBoxParams);
 127:communication.c ****     msg_length=basicMsgSize+size; 
 128:communication.c ****     memcpy(bufferOUT,params,size);
 129:communication.c ****     CyDelay(1000);
 130:communication.c ****     for(uint8 i=0; i<size; i++){
 131:communication.c ****       bufferOUT[basicMsgSize + size -1 -i] =  bufferOUT[size-1-i];
 132:communication.c ****     }
 133:communication.c ****     BuildHeader();
 134:communication.c ****     bufferOUT[4]=FrameNum(kResponse);  //msg serial number
 135:communication.c ****     bufferOUT[7]=kResponse; //category
 136:communication.c ****     bufferOUT[8]=kGetEBoxParamsResponse;    
 137:communication.c ****     bufferOUT[9]=status;  
 138:communication.c ****     bufferOUT[5]=msg_length&0x00ff; //msg length LSB
 139:communication.c ****     bufferOUT[6]=msg_length>>8; //msg length MSB 
 140:communication.c ****     /* Wait until component is ready to send data to host. */
 141:communication.c ****     while (0u == USBUART_CDCIsReady()){}                  
 142:communication.c ****     USBUART_PutData(bufferOUT,msg_length);    
 143:communication.c ****     ClearBufOut();
 144:communication.c ****     UART_PutString("Send E-Box Params");
 145:communication.c ****     UART_PutString("\n\r\n\r");
 146:communication.c **** }
 147:communication.c **** 
 148:communication.c **** void SendMatParams(struct MatParams* params, enum Status status){
 149:communication.c ****     size = sizeof(struct MatParams);
ARM GAS  C:\Users\Dell\AppData\Local\Temp\ccpe0Dqd.s 			page 6


 150:communication.c ****     msg_length=basicMsgSize+size; 
 151:communication.c ****     memcpy(bufferOUT,params,size);
 152:communication.c ****     CyDelay(1000);
 153:communication.c ****     for(uint8 i=0; i<size; i++){
 154:communication.c ****       bufferOUT[basicMsgSize + size -1 -i] =  bufferOUT[size-1-i];
 155:communication.c ****     }
 156:communication.c ****     BuildHeader();
 157:communication.c ****     bufferOUT[4]=FrameNum(kResponse);  //msg serial number
 158:communication.c ****     bufferOUT[7]=kResponse; //category
 159:communication.c ****     bufferOUT[8]=kGetMatParamsAtOnceResponse;    
 160:communication.c ****     bufferOUT[9]=status;    
 161:communication.c ****     bufferOUT[5]=msg_length&0x00ff; //msg length LSB
 162:communication.c ****     bufferOUT[6]=msg_length>>8; //msg length MSB 
 163:communication.c ****     /* Wait until component is ready to send data to host. */
 164:communication.c ****     while (0u == USBUART_CDCIsReady()){}                  
 165:communication.c ****     USBUART_PutData(bufferOUT,msg_length);
 166:communication.c ****     ClearBufOut();
 167:communication.c ****     UART_PutString("Send MAT Params");
 168:communication.c ****     UART_PutString("\n\r\n\r");  
 169:communication.c **** }
 170:communication.c **** 
 171:communication.c **** 
 172:communication.c ****  uint8 SendLutToUSB(struct Lut_temp* lut,uint8 numOfCols, enum Status status){
 173:communication.c ****     size = lut->numOfCoef*numOfCols*sizeof(float)+sizeof(uint32); //size of num of coef (uint16) an
 174:communication.c ****     msg_length=basicMsgSize+size; 
 175:communication.c ****     memcpy(bufferOUT,lut,size);
 176:communication.c ****     
 177:communication.c ****     //CyDelay(1000);
 178:communication.c ****     for(uint16 i=0; i<size; i++){
 179:communication.c ****       bufferOUT[basicMsgSize + size -1 -i] =  bufferOUT[size-1-i];
 180:communication.c ****     }
 181:communication.c ****     uint16 hasWriten=0;
 182:communication.c ****     uint16 toWrite=0;
 183:communication.c ****     BuildHeader();
 184:communication.c ****     bufferOUT[4]=FrameNum(kResponse);  //msg serial number
 185:communication.c ****     bufferOUT[5]=msg_length&0x00ff; //msg length LSB
 186:communication.c ****     bufferOUT[6]=msg_length>>8; //msg length MSB 
 187:communication.c ****     bufferOUT[7]=kResponse; //category
 188:communication.c ****     bufferOUT[8]=kGetLutAtOnceResponse;
 189:communication.c ****     bufferOUT[9]=status;         
 190:communication.c ****     
 191:communication.c **** 	while(hasWriten < msg_length) {
 192:communication.c ****     	if(msg_length - hasWriten > USBUART_BUFFER_SIZE) {
 193:communication.c ****     		toWrite = USBUART_BUFFER_SIZE;
 194:communication.c ****     	}
 195:communication.c ****     	else {
 196:communication.c ****     		toWrite = msg_length - hasWriten;
 197:communication.c ****     	}    
 198:communication.c ****     while (0u == USBUART_CDCIsReady()){}    // Wait until component is ready to send data to host. 
 199:communication.c ****     USBUART_PutData(&bufferOUT[hasWriten],toWrite);    
 200:communication.c ****     hasWriten += toWrite;
 201:communication.c ****     }
 202:communication.c ****     ClearBufOut();
 203:communication.c ****     UART_PutString("Send Lut To USB Params");
 204:communication.c ****     UART_PutString("\n\r\n\r"); 
 205:communication.c ****     return 1;
 206:communication.c ****     
ARM GAS  C:\Users\Dell\AppData\Local\Temp\ccpe0Dqd.s 			page 7


 207:communication.c **** }
 208:communication.c **** 
 209:communication.c **** void SendRowMeas(uint8_t currentRow,uint8_t NumOfColsWRef){
 210:communication.c ****     msg_length = basicMsgSize + NumOfColsWRef*3 + 1; //TBD
 211:communication.c ****     uint8 hasWriten=0;
 212:communication.c ****     uint8 toWrite=0;
 213:communication.c ****     BuildHeader();
 214:communication.c ****     bufferOUT[4]=FrameNum(kEventNoResponse);  //msg serial number
 215:communication.c ****     bufferOUT[5]=msg_length&0x00ff; //msg length LSB
 216:communication.c ****     bufferOUT[6]=msg_length>>8; //msg length MSB 
 217:communication.c ****     bufferOUT[7]=kEventNoResponse; //category
 218:communication.c ****     bufferOUT[8]=kReturnRow;
 219:communication.c ****     bufferOUT[9]=currentRow;
 220:communication.c ****     bufferOUT[10]=NumOfColsWRef;     
 221:communication.c ****     
 222:communication.c **** 	while(hasWriten < msg_length) {
 223:communication.c ****     	if(msg_length - hasWriten > USBUART_BUFFER_SIZE) {
 224:communication.c ****     		toWrite = USBUART_BUFFER_SIZE;
 225:communication.c ****     	}
 226:communication.c ****     	else {
 227:communication.c ****     		toWrite = msg_length - hasWriten;
 228:communication.c ****     	}    
 229:communication.c ****     while (0u == USBUART_CDCIsReady()){}    // Wait until component is ready to send data to host. 
 230:communication.c ****     USBUART_PutData(&bufferOUT[hasWriten],toWrite);    
 231:communication.c ****     hasWriten += toWrite;
 232:communication.c ****     }
 233:communication.c ****     ClearBufOut();
 234:communication.c ****   //  UART_PutString(" Send Row Meas Params");
 235:communication.c ****   //  UART_PutString("\n\r\n\r");  
 236:communication.c **** 
 237:communication.c **** }
 238:communication.c **** 
 239:communication.c **** ///////////////////////////////////////////////////////
 240:communication.c **** ///////////////////////SPIM - Flash///////////////////
 241:communication.c **** /////////////////////////////////////////////////////
 242:communication.c **** 
 243:communication.c **** uint8 SPIM_status;
 244:communication.c **** uint8 SPIMWriteBuf[256];
 245:communication.c **** uint8 SPIMReadBuf[256];
 246:communication.c **** uint8 SPIMCommandBuf[4];
 247:communication.c **** uint8 SPIMReadBuf_temp[10];
 248:communication.c **** 
 249:communication.c **** 
 250:communication.c **** ///////////////SPIM Write///////////////////
 251:communication.c **** void WriteMatParamsToFlash_old( struct MatParams* MAT_Params){
 137              		.loc 1 251 0
 138              		.cfi_startproc
 139              		@ args = 0, pretend = 0, frame = 8
 140              		@ frame_needed = 0, uses_anonymous_args = 0
 141              	.LVL10:
 142 0000 10B5     		push	{r4, lr}
 143              		.cfi_def_cfa_offset 8
 144              		.cfi_offset 4, -8
 145              		.cfi_offset 14, -4
 146 0002 82B0     		sub	sp, sp, #8
 147              		.cfi_def_cfa_offset 16
 148 0004 02AB     		add	r3, sp, #8
ARM GAS  C:\Users\Dell\AppData\Local\Temp\ccpe0Dqd.s 			page 8


 149 0006 43F8040D 		str	r0, [r3, #-4]!
 150              	.LVL11:
 252:communication.c ****     uint16 i;
 253:communication.c ****     uint32 address = MatParamStartAddress;
 254:communication.c ****     
 255:communication.c ****     memcpy(SPIMWriteBuf,&MAT_Params,sizeof(MAT_Params));
 151              		.loc 1 255 0
 152 000a 1868     		ldr	r0, [r3]	@ unaligned
 153              	.LVL12:
 154 000c 264B     		ldr	r3, .L17
 155              	.LVL13:
 156 000e 1860     		str	r0, [r3]	@ unaligned
 157              	.LVL14:
 256:communication.c ****     for(i=0;i<sizeof(MAT_Params); i++){
 158              		.loc 1 256 0
 159 0010 0023     		movs	r3, #0
 160 0012 08E0     		b	.L13
 161              	.LVL15:
 162              	.L14:
 257:communication.c ****     SPIMWriteBuf[sizeof(MAT_Params)+4-i]=SPIMWriteBuf[sizeof(MAT_Params)-i];   
 163              		.loc 1 257 0 discriminator 3
 164 0014 C3F10801 		rsb	r1, r3, #8
 165 0018 C3F10400 		rsb	r0, r3, #4
 166 001c 224A     		ldr	r2, .L17
 167 001e 105C     		ldrb	r0, [r2, r0]	@ zero_extendqisi2
 168 0020 5054     		strb	r0, [r2, r1]
 256:communication.c ****     for(i=0;i<sizeof(MAT_Params); i++){
 169              		.loc 1 256 0 discriminator 3
 170 0022 0133     		adds	r3, r3, #1
 171              	.LVL16:
 172 0024 9BB2     		uxth	r3, r3
 173              	.LVL17:
 174              	.L13:
 256:communication.c ****     for(i=0;i<sizeof(MAT_Params); i++){
 175              		.loc 1 256 0 is_stmt 0 discriminator 1
 176 0026 032B     		cmp	r3, #3
 177 0028 F4D9     		bls	.L14
 258:communication.c ****     }
 259:communication.c ****     SPIM_WriteTxData(WREN);
 178              		.loc 1 259 0 is_stmt 1
 179 002a 0620     		movs	r0, #6
 180 002c FFF7FEFF 		bl	SPIM_WriteTxData
 181              	.LVL18:
 260:communication.c ****     CyDelay(100);
 182              		.loc 1 260 0
 183 0030 6420     		movs	r0, #100
 184 0032 FFF7FEFF 		bl	CyDelay
 185              	.LVL19:
 261:communication.c ****     SPIM_WriteTxData(ULBPR);
 186              		.loc 1 261 0
 187 0036 9820     		movs	r0, #152
 188 0038 FFF7FEFF 		bl	SPIM_WriteTxData
 189              	.LVL20:
 262:communication.c ****     CyDelay(100);
 190              		.loc 1 262 0
 191 003c 6420     		movs	r0, #100
 192 003e FFF7FEFF 		bl	CyDelay
ARM GAS  C:\Users\Dell\AppData\Local\Temp\ccpe0Dqd.s 			page 9


 193              	.LVL21:
 263:communication.c ****     SPIM_WriteTxData(WREN);
 194              		.loc 1 263 0
 195 0042 0620     		movs	r0, #6
 196 0044 FFF7FEFF 		bl	SPIM_WriteTxData
 197              	.LVL22:
 264:communication.c ****     CyDelay(100);
 198              		.loc 1 264 0
 199 0048 6420     		movs	r0, #100
 200 004a FFF7FEFF 		bl	CyDelay
 201              	.LVL23:
 265:communication.c ****     SPIM_WriteTxData(Erase_Full_Array);
 202              		.loc 1 265 0
 203 004e C720     		movs	r0, #199
 204 0050 FFF7FEFF 		bl	SPIM_WriteTxData
 205              	.LVL24:
 266:communication.c ****     CyDelay(300);
 206              		.loc 1 266 0
 207 0054 4FF49670 		mov	r0, #300
 208 0058 FFF7FEFF 		bl	CyDelay
 209              	.LVL25:
 267:communication.c ****     SPIM_WriteTxData(WREN);
 210              		.loc 1 267 0
 211 005c 0620     		movs	r0, #6
 212 005e FFF7FEFF 		bl	SPIM_WriteTxData
 213              	.LVL26:
 268:communication.c ****     CyDelay(100);
 214              		.loc 1 268 0
 215 0062 6420     		movs	r0, #100
 216 0064 FFF7FEFF 		bl	CyDelay
 217              	.LVL27:
 269:communication.c ****     
 270:communication.c ****     SPIMWriteBuf[0]=(uint8)PP;
 218              		.loc 1 270 0
 219 0068 0F4B     		ldr	r3, .L17
 220 006a 0222     		movs	r2, #2
 221 006c 1A70     		strb	r2, [r3]
 271:communication.c ****     SPIMWriteBuf[1]=(address>16)&0x00ff; //MSB
 222              		.loc 1 271 0
 223 006e 0122     		movs	r2, #1
 224 0070 5A70     		strb	r2, [r3, #1]
 272:communication.c ****     SPIMWriteBuf[2]=(address>8)&0x00ff;
 225              		.loc 1 272 0
 226 0072 9A70     		strb	r2, [r3, #2]
 273:communication.c ****     SPIMWriteBuf[3]= address&0x0000ff;  //LSB
 227              		.loc 1 273 0
 228 0074 2022     		movs	r2, #32
 229 0076 DA70     		strb	r2, [r3, #3]
 274:communication.c ****     
 275:communication.c ****     SPIM_status=SPIM_ReadTxStatus();
 230              		.loc 1 275 0
 231 0078 FFF7FEFF 		bl	SPIM_ReadTxStatus
 232              	.LVL28:
 233 007c 0B4C     		ldr	r4, .L17+4
 234 007e 2070     		strb	r0, [r4]
 276:communication.c ****     CyDelay(300);
 235              		.loc 1 276 0
ARM GAS  C:\Users\Dell\AppData\Local\Temp\ccpe0Dqd.s 			page 10


 236 0080 4FF49670 		mov	r0, #300
 237 0084 FFF7FEFF 		bl	CyDelay
 238              	.LVL29:
 277:communication.c ****     if(SPIM_status & (SPIM_STS_SPI_DONE | SPIM_STS_SPI_IDLE))
 239              		.loc 1 277 0
 240 0088 2378     		ldrb	r3, [r4]	@ zero_extendqisi2
 241 008a 13F0110F 		tst	r3, #17
 242 008e 04D0     		beq	.L15
 278:communication.c ****     {              
 279:communication.c ****         SPIM_PutArray(SPIMWriteBuf,(uint8)MAT_Params); 
 243              		.loc 1 279 0
 244 0090 9DF80410 		ldrb	r1, [sp, #4]	@ zero_extendqisi2
 245 0094 0448     		ldr	r0, .L17
 246 0096 FFF7FEFF 		bl	SPIM_PutArray
 247              	.LVL30:
 248              	.L15:
 280:communication.c ****     }
 281:communication.c ****     CyDelay(2000);
 249              		.loc 1 281 0
 250 009a 4FF4FA60 		mov	r0, #2000
 251 009e FFF7FEFF 		bl	CyDelay
 252              	.LVL31:
 282:communication.c ****         
 283:communication.c **** }
 253              		.loc 1 283 0
 254 00a2 02B0     		add	sp, sp, #8
 255              		.cfi_def_cfa_offset 8
 256              	.LVL32:
 257              		@ sp needed
 258 00a4 10BD     		pop	{r4, pc}
 259              	.LVL33:
 260              	.L18:
 261 00a6 00BF     		.align	2
 262              	.L17:
 263 00a8 00000000 		.word	SPIMWriteBuf
 264 00ac 00000000 		.word	SPIM_status
 265              		.cfi_endproc
 266              	.LFE73:
 267              		.size	WriteMatParamsToFlash_old, .-WriteMatParamsToFlash_old
 268              		.section	.text.WriteMatParamsToFlash,"ax",%progbits
 269              		.align	2
 270              		.global	WriteMatParamsToFlash
 271              		.thumb
 272              		.thumb_func
 273              		.type	WriteMatParamsToFlash, %function
 274              	WriteMatParamsToFlash:
 275              	.LFB74:
 284:communication.c **** void WriteMatParamsToFlash( struct MAT_parameters* MAT_Parameters){
 276              		.loc 1 284 0
 277              		.cfi_startproc
 278              		@ args = 0, pretend = 0, frame = 8
 279              		@ frame_needed = 0, uses_anonymous_args = 0
 280              	.LVL34:
 281 0000 10B5     		push	{r4, lr}
 282              		.cfi_def_cfa_offset 8
 283              		.cfi_offset 4, -8
 284              		.cfi_offset 14, -4
ARM GAS  C:\Users\Dell\AppData\Local\Temp\ccpe0Dqd.s 			page 11


 285 0002 82B0     		sub	sp, sp, #8
 286              		.cfi_def_cfa_offset 16
 287 0004 02AB     		add	r3, sp, #8
 288 0006 43F8040D 		str	r0, [r3, #-4]!
 289              	.LVL35:
 285:communication.c ****     uint16 i;
 286:communication.c ****     uint32 address = MatParamStartAddress;
 287:communication.c ****     
 288:communication.c ****     memcpy(SPIMWriteBuf,&MAT_Parameters,sizeof(MAT_Parameters));
 290              		.loc 1 288 0
 291 000a 1868     		ldr	r0, [r3]	@ unaligned
 292              	.LVL36:
 293 000c 294B     		ldr	r3, .L24
 294              	.LVL37:
 295 000e 1860     		str	r0, [r3]	@ unaligned
 296              	.LVL38:
 289:communication.c ****     for(i=0;i<sizeof(MAT_Parameters); i++){
 297              		.loc 1 289 0
 298 0010 0023     		movs	r3, #0
 299 0012 08E0     		b	.L20
 300              	.LVL39:
 301              	.L21:
 290:communication.c ****     SPIMWriteBuf[sizeof(MAT_Parameters)+4-i]=SPIMWriteBuf[sizeof(MAT_Parameters)-i];   
 302              		.loc 1 290 0 discriminator 3
 303 0014 C3F10801 		rsb	r1, r3, #8
 304 0018 C3F10400 		rsb	r0, r3, #4
 305 001c 254A     		ldr	r2, .L24
 306 001e 105C     		ldrb	r0, [r2, r0]	@ zero_extendqisi2
 307 0020 5054     		strb	r0, [r2, r1]
 289:communication.c ****     for(i=0;i<sizeof(MAT_Parameters); i++){
 308              		.loc 1 289 0 discriminator 3
 309 0022 0133     		adds	r3, r3, #1
 310              	.LVL40:
 311 0024 9BB2     		uxth	r3, r3
 312              	.LVL41:
 313              	.L20:
 289:communication.c ****     for(i=0;i<sizeof(MAT_Parameters); i++){
 314              		.loc 1 289 0 is_stmt 0 discriminator 1
 315 0026 032B     		cmp	r3, #3
 316 0028 F4D9     		bls	.L21
 291:communication.c ****     }
 292:communication.c ****     
 293:communication.c ****     
 294:communication.c ****     /*
 295:communication.c ****     SPIMCommandBuf[0] = (uint8)Erase_4k_Of_Memory;
 296:communication.c ****     SPIMCommandBuf[1] = (address>16)&0x00ff; //MSB
 297:communication.c ****     SPIMCommandBuf[2] = (address>8)&0x00ff;
 298:communication.c ****     SPIMCommandBuf[3] =  address&0x0000ff;  //LSB
 299:communication.c ****     */
 300:communication.c ****     SPIM_WriteTxData(WREN);
 317              		.loc 1 300 0 is_stmt 1
 318 002a 0620     		movs	r0, #6
 319 002c FFF7FEFF 		bl	SPIM_WriteTxData
 320              	.LVL42:
 301:communication.c ****     CyDelay(100);
 321              		.loc 1 301 0
 322 0030 6420     		movs	r0, #100
ARM GAS  C:\Users\Dell\AppData\Local\Temp\ccpe0Dqd.s 			page 12


 323 0032 FFF7FEFF 		bl	CyDelay
 324              	.LVL43:
 302:communication.c ****     SPIM_WriteTxData(ULBPR);
 325              		.loc 1 302 0
 326 0036 9820     		movs	r0, #152
 327 0038 FFF7FEFF 		bl	SPIM_WriteTxData
 328              	.LVL44:
 303:communication.c ****     CyDelay(100);
 329              		.loc 1 303 0
 330 003c 6420     		movs	r0, #100
 331 003e FFF7FEFF 		bl	CyDelay
 332              	.LVL45:
 304:communication.c ****     SPIM_WriteTxData(WREN);
 333              		.loc 1 304 0
 334 0042 0620     		movs	r0, #6
 335 0044 FFF7FEFF 		bl	SPIM_WriteTxData
 336              	.LVL46:
 305:communication.c ****     CyDelay(100);
 337              		.loc 1 305 0
 338 0048 6420     		movs	r0, #100
 339 004a FFF7FEFF 		bl	CyDelay
 340              	.LVL47:
 306:communication.c ****     SPIM_WriteTxData(Erase_Full_Array);
 341              		.loc 1 306 0
 342 004e C720     		movs	r0, #199
 343 0050 FFF7FEFF 		bl	SPIM_WriteTxData
 344              	.LVL48:
 307:communication.c ****     CyDelay(300);
 345              		.loc 1 307 0
 346 0054 4FF49670 		mov	r0, #300
 347 0058 FFF7FEFF 		bl	CyDelay
 348              	.LVL49:
 308:communication.c ****     SPIM_WriteTxData(WREN);
 349              		.loc 1 308 0
 350 005c 0620     		movs	r0, #6
 351 005e FFF7FEFF 		bl	SPIM_WriteTxData
 352              	.LVL50:
 309:communication.c ****     CyDelay(100);
 353              		.loc 1 309 0
 354 0062 6420     		movs	r0, #100
 355 0064 FFF7FEFF 		bl	CyDelay
 356              	.LVL51:
 310:communication.c ****     /*
 311:communication.c ****     SPIM_PutArray(SPIMCommandBuf,4); //write command   
 312:communication.c ****     SPIMCommandBuf[0] = (uint8)PP;
 313:communication.c ****     SPIMCommandBuf[1] = (address>16)&0x00ff; //MSB
 314:communication.c ****     SPIMCommandBuf[2] = (address>8)&0x00ff;
 315:communication.c ****     SPIMCommandBuf[3] =  address&0x0000ff;  //LSB
 316:communication.c ****     
 317:communication.c ****     CyDelay(300);
 318:communication.c ****     */
 319:communication.c ****     
 320:communication.c ****     SPIMWriteBuf[0]=(uint8)PP;
 357              		.loc 1 320 0
 358 0068 124B     		ldr	r3, .L24
 359 006a 0222     		movs	r2, #2
 360 006c 1A70     		strb	r2, [r3]
ARM GAS  C:\Users\Dell\AppData\Local\Temp\ccpe0Dqd.s 			page 13


 321:communication.c ****     SPIMWriteBuf[1]=10;//(address>16)&0x00ff; //MSB
 361              		.loc 1 321 0
 362 006e 0A22     		movs	r2, #10
 363 0070 5A70     		strb	r2, [r3, #1]
 322:communication.c ****     SPIMWriteBuf[2]=10;//(address>8)&0x00ff;
 364              		.loc 1 322 0
 365 0072 9A70     		strb	r2, [r3, #2]
 323:communication.c ****     SPIMWriteBuf[3]=20;//address&0x0000ff;  //LSB
 366              		.loc 1 323 0
 367 0074 1421     		movs	r1, #20
 368 0076 D970     		strb	r1, [r3, #3]
 324:communication.c ****     SPIMWriteBuf[4]=8;//(uint8)(MAT_Parameters->checkSum_1)&0x0000ff;
 369              		.loc 1 324 0
 370 0078 0821     		movs	r1, #8
 371 007a 1971     		strb	r1, [r3, #4]
 325:communication.c ****     SPIMWriteBuf[5]=9;//(uint8)((MAT_Parameters->checkSum_1)>8)&0x0000ff;
 372              		.loc 1 325 0
 373 007c 0921     		movs	r1, #9
 374 007e 5971     		strb	r1, [r3, #5]
 326:communication.c ****     SPIMWriteBuf[6]=10;//(uint8)((MAT_Parameters->checkSum_1)>16)&0x0000ff;
 375              		.loc 1 326 0
 376 0080 9A71     		strb	r2, [r3, #6]
 327:communication.c ****     SPIMWriteBuf[7]=11;//(uint8)((MAT_Parameters->checkSum_1)>24)&0x0000ff;
 377              		.loc 1 327 0
 378 0082 0B22     		movs	r2, #11
 379 0084 DA71     		strb	r2, [r3, #7]
 328:communication.c ****     
 329:communication.c ****     SPIM_status=SPIM_ReadTxStatus();
 380              		.loc 1 329 0
 381 0086 FFF7FEFF 		bl	SPIM_ReadTxStatus
 382              	.LVL52:
 383 008a 0B4C     		ldr	r4, .L24+4
 384 008c 2070     		strb	r0, [r4]
 330:communication.c ****     CyDelay(300);
 385              		.loc 1 330 0
 386 008e 4FF49670 		mov	r0, #300
 387 0092 FFF7FEFF 		bl	CyDelay
 388              	.LVL53:
 331:communication.c ****     if(SPIM_status & (SPIM_STS_SPI_DONE | SPIM_STS_SPI_IDLE))
 389              		.loc 1 331 0
 390 0096 2378     		ldrb	r3, [r4]	@ zero_extendqisi2
 391 0098 13F0110F 		tst	r3, #17
 392 009c 03D0     		beq	.L22
 332:communication.c ****     {  
 333:communication.c ****             
 334:communication.c ****         SPIM_PutArray(SPIMWriteBuf,8/*(uint8)MAT_Parameters*/); 
 393              		.loc 1 334 0
 394 009e 0821     		movs	r1, #8
 395 00a0 0448     		ldr	r0, .L24
 396 00a2 FFF7FEFF 		bl	SPIM_PutArray
 397              	.LVL54:
 398              	.L22:
 335:communication.c ****     }
 336:communication.c ****     CyDelay(2000);
 399              		.loc 1 336 0
 400 00a6 4FF4FA60 		mov	r0, #2000
 401 00aa FFF7FEFF 		bl	CyDelay
ARM GAS  C:\Users\Dell\AppData\Local\Temp\ccpe0Dqd.s 			page 14


 402              	.LVL55:
 337:communication.c ****     
 338:communication.c **** }
 403              		.loc 1 338 0
 404 00ae 02B0     		add	sp, sp, #8
 405              		.cfi_def_cfa_offset 8
 406              	.LVL56:
 407              		@ sp needed
 408 00b0 10BD     		pop	{r4, pc}
 409              	.LVL57:
 410              	.L25:
 411 00b2 00BF     		.align	2
 412              	.L24:
 413 00b4 00000000 		.word	SPIMWriteBuf
 414 00b8 00000000 		.word	SPIM_status
 415              		.cfi_endproc
 416              	.LFE74:
 417              		.size	WriteMatParamsToFlash, .-WriteMatParamsToFlash
 418              		.section	.text.WriteRefRowToFlash,"ax",%progbits
 419              		.align	2
 420              		.global	WriteRefRowToFlash
 421              		.thumb
 422              		.thumb_func
 423              		.type	WriteRefRowToFlash, %function
 424              	WriteRefRowToFlash:
 425              	.LFB75:
 339:communication.c **** void WriteRefRowToFlash (struct MAT_RefRow* Mat_refRow){
 426              		.loc 1 339 0
 427              		.cfi_startproc
 428              		@ args = 0, pretend = 0, frame = 8
 429              		@ frame_needed = 0, uses_anonymous_args = 0
 430              	.LVL58:
 431 0000 10B5     		push	{r4, lr}
 432              		.cfi_def_cfa_offset 8
 433              		.cfi_offset 4, -8
 434              		.cfi_offset 14, -4
 435 0002 82B0     		sub	sp, sp, #8
 436              		.cfi_def_cfa_offset 16
 437 0004 02AB     		add	r3, sp, #8
 438 0006 43F8040D 		str	r0, [r3, #-4]!
 439              	.LVL59:
 340:communication.c ****     uint32 address = MatRefRowAddress;
 341:communication.c ****     
 342:communication.c ****     memcpy(SPIMWriteBuf,&Mat_refRow,sizeof(Mat_refRow));
 440              		.loc 1 342 0
 441 000a 1868     		ldr	r0, [r3]	@ unaligned
 442              	.LVL60:
 443 000c 1A4B     		ldr	r3, .L31
 444              	.LVL61:
 445 000e 1860     		str	r0, [r3]	@ unaligned
 446              	.LVL62:
 447              	.LBB2:
 343:communication.c ****     for(uint8 i=0;i<sizeof(Mat_refRow); i++){
 448              		.loc 1 343 0
 449 0010 0023     		movs	r3, #0
 450 0012 08E0     		b	.L27
 451              	.LVL63:
ARM GAS  C:\Users\Dell\AppData\Local\Temp\ccpe0Dqd.s 			page 15


 452              	.L28:
 344:communication.c ****     SPIMWriteBuf[sizeof(Mat_refRow)+4-i]=SPIMWriteBuf[sizeof(Mat_refRow)-i];   
 453              		.loc 1 344 0 discriminator 3
 454 0014 C3F10801 		rsb	r1, r3, #8
 455 0018 C3F10400 		rsb	r0, r3, #4
 456 001c 164A     		ldr	r2, .L31
 457 001e 105C     		ldrb	r0, [r2, r0]	@ zero_extendqisi2
 458 0020 5054     		strb	r0, [r2, r1]
 343:communication.c ****     for(uint8 i=0;i<sizeof(Mat_refRow); i++){
 459              		.loc 1 343 0 discriminator 3
 460 0022 0133     		adds	r3, r3, #1
 461              	.LVL64:
 462 0024 DBB2     		uxtb	r3, r3
 463              	.LVL65:
 464              	.L27:
 343:communication.c ****     for(uint8 i=0;i<sizeof(Mat_refRow); i++){
 465              		.loc 1 343 0 is_stmt 0 discriminator 1
 466 0026 032B     		cmp	r3, #3
 467 0028 F4D9     		bls	.L28
 468              	.LBE2:
 345:communication.c ****     }
 346:communication.c ****     SPIMWriteBuf[0]=(uint8)PP;
 469              		.loc 1 346 0 is_stmt 1
 470 002a 134B     		ldr	r3, .L31
 471              	.LVL66:
 472 002c 0222     		movs	r2, #2
 473 002e 1A70     		strb	r2, [r3]
 347:communication.c ****     SPIMWriteBuf[1]=(address>16)&0x00ff; //MSB
 474              		.loc 1 347 0
 475 0030 0122     		movs	r2, #1
 476 0032 5A70     		strb	r2, [r3, #1]
 348:communication.c ****     SPIMWriteBuf[2]=(address>8)&0x00ff;
 477              		.loc 1 348 0
 478 0034 9A70     		strb	r2, [r3, #2]
 349:communication.c ****     SPIMWriteBuf[3]= address&0x0000ff;  //LSB
 479              		.loc 1 349 0
 480 0036 FF22     		movs	r2, #255
 481 0038 DA70     		strb	r2, [r3, #3]
 350:communication.c ****     
 351:communication.c ****     /*      TBD
 352:communication.c ****     SPIMCommandBuf[0] = (uint8)Erase_4k_Of_Memory;
 353:communication.c ****     SPIMCommandBuf[1] = (address>16)&0x00ff; //MSB
 354:communication.c ****     SPIMCommandBuf[2] = (address>8)&0x00ff;
 355:communication.c ****     SPIMCommandBuf[3] =  address&0x0000ff;  //LSB
 356:communication.c ****     SPIM_status=SPIM_ReadTxStatus();
 357:communication.c ****     CyDelay(300);
 358:communication.c ****     SPIM_WriteTxData(WREN);
 359:communication.c ****     CyDelay(300);
 360:communication.c ****     if(SPIM_status & (SPIM_STS_SPI_DONE | SPIM_STS_SPI_IDLE))
 361:communication.c ****     {  
 362:communication.c ****             
 363:communication.c ****         SPIM_PutArray(SPIMWriteBuf,(uint8)Mat_refRow); 
 364:communication.c ****     }
 365:communication.c ****     CyDelay(2000);
 366:communication.c ****     */
 367:communication.c ****     
 368:communication.c ****     SPIM_WriteTxData(WREN);
ARM GAS  C:\Users\Dell\AppData\Local\Temp\ccpe0Dqd.s 			page 16


 482              		.loc 1 368 0
 483 003a 0620     		movs	r0, #6
 484 003c FFF7FEFF 		bl	SPIM_WriteTxData
 485              	.LVL67:
 369:communication.c ****     CyDelay(300);
 486              		.loc 1 369 0
 487 0040 4FF49670 		mov	r0, #300
 488 0044 FFF7FEFF 		bl	CyDelay
 489              	.LVL68:
 370:communication.c ****     SPIM_status=SPIM_ReadTxStatus();
 490              		.loc 1 370 0
 491 0048 FFF7FEFF 		bl	SPIM_ReadTxStatus
 492              	.LVL69:
 493 004c 0B4C     		ldr	r4, .L31+4
 494 004e 2070     		strb	r0, [r4]
 371:communication.c ****     CyDelay(300);
 495              		.loc 1 371 0
 496 0050 4FF49670 		mov	r0, #300
 497 0054 FFF7FEFF 		bl	CyDelay
 498              	.LVL70:
 372:communication.c ****     if(SPIM_status & (SPIM_STS_SPI_DONE | SPIM_STS_SPI_IDLE))
 499              		.loc 1 372 0
 500 0058 2378     		ldrb	r3, [r4]	@ zero_extendqisi2
 501 005a 13F0110F 		tst	r3, #17
 502 005e 04D0     		beq	.L29
 373:communication.c ****     {  
 374:communication.c ****             
 375:communication.c ****         SPIM_PutArray(SPIMWriteBuf,(uint8)Mat_refRow); 
 503              		.loc 1 375 0
 504 0060 9DF80410 		ldrb	r1, [sp, #4]	@ zero_extendqisi2
 505 0064 0448     		ldr	r0, .L31
 506 0066 FFF7FEFF 		bl	SPIM_PutArray
 507              	.LVL71:
 508              	.L29:
 376:communication.c ****     }
 377:communication.c ****     CyDelay(2000);
 509              		.loc 1 377 0
 510 006a 4FF4FA60 		mov	r0, #2000
 511 006e FFF7FEFF 		bl	CyDelay
 512              	.LVL72:
 378:communication.c ****     
 379:communication.c **** }
 513              		.loc 1 379 0
 514 0072 02B0     		add	sp, sp, #8
 515              		.cfi_def_cfa_offset 8
 516              	.LVL73:
 517              		@ sp needed
 518 0074 10BD     		pop	{r4, pc}
 519              	.LVL74:
 520              	.L32:
 521 0076 00BF     		.align	2
 522              	.L31:
 523 0078 00000000 		.word	SPIMWriteBuf
 524 007c 00000000 		.word	SPIM_status
 525              		.cfi_endproc
 526              	.LFE75:
 527              		.size	WriteRefRowToFlash, .-WriteRefRowToFlash
ARM GAS  C:\Users\Dell\AppData\Local\Temp\ccpe0Dqd.s 			page 17


 528              		.section	.text.WriteRefColToFlash,"ax",%progbits
 529              		.align	2
 530              		.global	WriteRefColToFlash
 531              		.thumb
 532              		.thumb_func
 533              		.type	WriteRefColToFlash, %function
 534              	WriteRefColToFlash:
 535              	.LFB76:
 380:communication.c **** void WriteRefColToFlash (struct MAT_RefCol* Mat_refCol){
 536              		.loc 1 380 0
 537              		.cfi_startproc
 538              		@ args = 0, pretend = 0, frame = 8
 539              		@ frame_needed = 0, uses_anonymous_args = 0
 540              	.LVL75:
 541 0000 10B5     		push	{r4, lr}
 542              		.cfi_def_cfa_offset 8
 543              		.cfi_offset 4, -8
 544              		.cfi_offset 14, -4
 545 0002 82B0     		sub	sp, sp, #8
 546              		.cfi_def_cfa_offset 16
 547 0004 02AB     		add	r3, sp, #8
 548 0006 43F8040D 		str	r0, [r3, #-4]!
 549              	.LVL76:
 381:communication.c ****     uint32 address = MatRefColAddress;
 382:communication.c ****     
 383:communication.c ****     memcpy(SPIMWriteBuf,&Mat_refCol,sizeof(Mat_refCol));
 550              		.loc 1 383 0
 551 000a 1868     		ldr	r0, [r3]	@ unaligned
 552              	.LVL77:
 553 000c 1A4B     		ldr	r3, .L38
 554              	.LVL78:
 555 000e 1860     		str	r0, [r3]	@ unaligned
 556              	.LVL79:
 557              	.LBB3:
 384:communication.c ****     for(uint8 i=0;i<sizeof(Mat_refCol); i++){
 558              		.loc 1 384 0
 559 0010 0023     		movs	r3, #0
 560 0012 08E0     		b	.L34
 561              	.LVL80:
 562              	.L35:
 385:communication.c ****     SPIMWriteBuf[sizeof(Mat_refCol)+4-i]=SPIMWriteBuf[sizeof(Mat_refCol)-i];   
 563              		.loc 1 385 0 discriminator 3
 564 0014 C3F10801 		rsb	r1, r3, #8
 565 0018 C3F10400 		rsb	r0, r3, #4
 566 001c 164A     		ldr	r2, .L38
 567 001e 105C     		ldrb	r0, [r2, r0]	@ zero_extendqisi2
 568 0020 5054     		strb	r0, [r2, r1]
 384:communication.c ****     for(uint8 i=0;i<sizeof(Mat_refCol); i++){
 569              		.loc 1 384 0 discriminator 3
 570 0022 0133     		adds	r3, r3, #1
 571              	.LVL81:
 572 0024 DBB2     		uxtb	r3, r3
 573              	.LVL82:
 574              	.L34:
 384:communication.c ****     for(uint8 i=0;i<sizeof(Mat_refCol); i++){
 575              		.loc 1 384 0 is_stmt 0 discriminator 1
 576 0026 032B     		cmp	r3, #3
ARM GAS  C:\Users\Dell\AppData\Local\Temp\ccpe0Dqd.s 			page 18


 577 0028 F4D9     		bls	.L35
 578              	.LBE3:
 386:communication.c ****     }
 387:communication.c ****     SPIMWriteBuf[0]=(uint8)PP;
 579              		.loc 1 387 0 is_stmt 1
 580 002a 134B     		ldr	r3, .L38
 581              	.LVL83:
 582 002c 0222     		movs	r2, #2
 583 002e 1A70     		strb	r2, [r3]
 388:communication.c ****     SPIMWriteBuf[1]=(address>16)&0x00ff; //MSB
 584              		.loc 1 388 0
 585 0030 0122     		movs	r2, #1
 586 0032 5A70     		strb	r2, [r3, #1]
 389:communication.c ****     SPIMWriteBuf[2]=(address>8)&0x00ff;
 587              		.loc 1 389 0
 588 0034 9A70     		strb	r2, [r3, #2]
 390:communication.c ****     SPIMWriteBuf[3]= address&0x0000ff;  //LSB
 589              		.loc 1 390 0
 590 0036 FF22     		movs	r2, #255
 591 0038 DA70     		strb	r2, [r3, #3]
 391:communication.c ****     
 392:communication.c ****     /*      TBD
 393:communication.c ****     SPIMCommandBuf[0] = (uint8)Erase_4k_Of_Memory;
 394:communication.c ****     SPIMCommandBuf[1] = (address>16)&0x00ff; //MSB
 395:communication.c ****     SPIMCommandBuf[2] = (address>8)&0x00ff;
 396:communication.c ****     SPIMCommandBuf[3] =  address&0x0000ff;  //LSB
 397:communication.c ****     SPIM_status=SPIM_ReadTxStatus();
 398:communication.c ****     CyDelay(300);
 399:communication.c ****     SPIM_WriteTxData(WREN);
 400:communication.c ****     CyDelay(300);
 401:communication.c ****     if(SPIM_status & (SPIM_STS_SPI_DONE | SPIM_STS_SPI_IDLE))
 402:communication.c ****     {  
 403:communication.c ****             
 404:communication.c ****         SPIM_PutArray(SPIMWriteBuf,(uint8)Mat_refCol); 
 405:communication.c ****     }
 406:communication.c ****     CyDelay(2000);
 407:communication.c ****     */
 408:communication.c ****     
 409:communication.c ****     SPIM_WriteTxData(WREN);
 592              		.loc 1 409 0
 593 003a 0620     		movs	r0, #6
 594 003c FFF7FEFF 		bl	SPIM_WriteTxData
 595              	.LVL84:
 410:communication.c ****     CyDelay(300);
 596              		.loc 1 410 0
 597 0040 4FF49670 		mov	r0, #300
 598 0044 FFF7FEFF 		bl	CyDelay
 599              	.LVL85:
 411:communication.c ****     SPIM_status=SPIM_ReadTxStatus();
 600              		.loc 1 411 0
 601 0048 FFF7FEFF 		bl	SPIM_ReadTxStatus
 602              	.LVL86:
 603 004c 0B4C     		ldr	r4, .L38+4
 604 004e 2070     		strb	r0, [r4]
 412:communication.c ****     CyDelay(300);
 605              		.loc 1 412 0
 606 0050 4FF49670 		mov	r0, #300
ARM GAS  C:\Users\Dell\AppData\Local\Temp\ccpe0Dqd.s 			page 19


 607 0054 FFF7FEFF 		bl	CyDelay
 608              	.LVL87:
 413:communication.c ****     if(SPIM_status & (SPIM_STS_SPI_DONE | SPIM_STS_SPI_IDLE))
 609              		.loc 1 413 0
 610 0058 2378     		ldrb	r3, [r4]	@ zero_extendqisi2
 611 005a 13F0110F 		tst	r3, #17
 612 005e 04D0     		beq	.L36
 414:communication.c ****     {  
 415:communication.c ****             
 416:communication.c ****         SPIM_PutArray(SPIMWriteBuf,(uint8)Mat_refCol); 
 613              		.loc 1 416 0
 614 0060 9DF80410 		ldrb	r1, [sp, #4]	@ zero_extendqisi2
 615 0064 0448     		ldr	r0, .L38
 616 0066 FFF7FEFF 		bl	SPIM_PutArray
 617              	.LVL88:
 618              	.L36:
 417:communication.c ****     }
 418:communication.c ****     CyDelay(2000);
 619              		.loc 1 418 0
 620 006a 4FF4FA60 		mov	r0, #2000
 621 006e FFF7FEFF 		bl	CyDelay
 622              	.LVL89:
 419:communication.c ****     
 420:communication.c **** }
 623              		.loc 1 420 0
 624 0072 02B0     		add	sp, sp, #8
 625              		.cfi_def_cfa_offset 8
 626              	.LVL90:
 627              		@ sp needed
 628 0074 10BD     		pop	{r4, pc}
 629              	.LVL91:
 630              	.L39:
 631 0076 00BF     		.align	2
 632              	.L38:
 633 0078 00000000 		.word	SPIMWriteBuf
 634 007c 00000000 		.word	SPIM_status
 635              		.cfi_endproc
 636              	.LFE76:
 637              		.size	WriteRefColToFlash, .-WriteRefColToFlash
 638              		.section	.text.ReadMatParamsFromFlash,"ax",%progbits
 639              		.align	2
 640              		.global	ReadMatParamsFromFlash
 641              		.thumb
 642              		.thumb_func
 643              		.type	ReadMatParamsFromFlash, %function
 644              	ReadMatParamsFromFlash:
 645              	.LFB77:
 421:communication.c **** ///////////////SPIM READ///////////////////
 422:communication.c **** void ReadMatParamsFromFlash( struct MAT_parameters* MAT_Parameters){
 646              		.loc 1 422 0
 647              		.cfi_startproc
 648              		@ args = 0, pretend = 0, frame = 8
 649              		@ frame_needed = 0, uses_anonymous_args = 0
 650              	.LVL92:
 651 0000 30B5     		push	{r4, r5, lr}
 652              		.cfi_def_cfa_offset 12
 653              		.cfi_offset 4, -12
ARM GAS  C:\Users\Dell\AppData\Local\Temp\ccpe0Dqd.s 			page 20


 654              		.cfi_offset 5, -8
 655              		.cfi_offset 14, -4
 656 0002 83B0     		sub	sp, sp, #12
 657              		.cfi_def_cfa_offset 24
 658 0004 0546     		mov	r5, r0
 659              	.LVL93:
 423:communication.c ****     uint32 address = MatParamStartAddress;
 424:communication.c ****     uint16 counter;
 425:communication.c ****     uint8 head=6;
 426:communication.c ****     uint8 dummy=0xff;
 660              		.loc 1 426 0
 661 0006 FF23     		movs	r3, #255
 662 0008 8DF80730 		strb	r3, [sp, #7]
 427:communication.c ****     
 428:communication.c ****     SPIM_ClearRxBuffer();
 663              		.loc 1 428 0
 664 000c FFF7FEFF 		bl	SPIM_ClearRxBuffer
 665              	.LVL94:
 429:communication.c ****     SPIMWriteBuf[0] = (uint8)READ;
 666              		.loc 1 429 0
 667 0010 2148     		ldr	r0, .L46
 668 0012 0323     		movs	r3, #3
 669 0014 0370     		strb	r3, [r0]
 430:communication.c ****     SPIMWriteBuf[1] = 10;//(address>16)&0x00ff; //MSB
 670              		.loc 1 430 0
 671 0016 0A23     		movs	r3, #10
 672 0018 4370     		strb	r3, [r0, #1]
 431:communication.c ****     SPIMWriteBuf[2] = 10;//(address>8)&0x00ff;
 673              		.loc 1 431 0
 674 001a 8370     		strb	r3, [r0, #2]
 432:communication.c ****     SPIMWriteBuf[3] = 20;// address&0x0000ff;  //LSB
 675              		.loc 1 432 0
 676 001c 1423     		movs	r3, #20
 677 001e C370     		strb	r3, [r0, #3]
 433:communication.c ****     
 434:communication.c ****     SPIM_PutArray(SPIMWriteBuf,4); 
 678              		.loc 1 434 0
 679 0020 0421     		movs	r1, #4
 680 0022 FFF7FEFF 		bl	SPIM_PutArray
 681              	.LVL95:
 435:communication.c ****     for(counter=0;counter<6/*sizeof(MAT_Parameters)*/;counter++){ 
 682              		.loc 1 435 0
 683 0026 0024     		movs	r4, #0
 684 0028 0AE0     		b	.L41
 685              	.LVL96:
 686              	.L42:
 436:communication.c ****     SPIMReadBuf_temp[counter] = SPIM_ReadRxData();  
 687              		.loc 1 436 0 discriminator 3
 688 002a FFF7FEFF 		bl	SPIM_ReadRxData
 689              	.LVL97:
 690 002e 1B4B     		ldr	r3, .L46+4
 691 0030 1855     		strb	r0, [r3, r4]
 437:communication.c ****     SPIM_PutArray(&dummy,1);         
 692              		.loc 1 437 0 discriminator 3
 693 0032 0121     		movs	r1, #1
 694 0034 0DF10700 		add	r0, sp, #7
 695 0038 FFF7FEFF 		bl	SPIM_PutArray
ARM GAS  C:\Users\Dell\AppData\Local\Temp\ccpe0Dqd.s 			page 21


 696              	.LVL98:
 435:communication.c ****     for(counter=0;counter<6/*sizeof(MAT_Parameters)*/;counter++){ 
 697              		.loc 1 435 0 discriminator 3
 698 003c 0134     		adds	r4, r4, #1
 699              	.LVL99:
 700 003e A4B2     		uxth	r4, r4
 701              	.LVL100:
 702              	.L41:
 435:communication.c ****     for(counter=0;counter<6/*sizeof(MAT_Parameters)*/;counter++){ 
 703              		.loc 1 435 0 is_stmt 0 discriminator 1
 704 0040 052C     		cmp	r4, #5
 705 0042 F2D9     		bls	.L42
 706 0044 0024     		movs	r4, #0
 707              	.LVL101:
 708 0046 0AE0     		b	.L43
 709              	.LVL102:
 710              	.L44:
 438:communication.c ****     }
 439:communication.c ****     for(counter=0;counter<10/*sizeof(MAT_Parameters)*/;counter++){ 
 440:communication.c ****     SPIMReadBuf[counter] = SPIM_ReadRxData();  
 711              		.loc 1 440 0 is_stmt 1 discriminator 3
 712 0048 FFF7FEFF 		bl	SPIM_ReadRxData
 713              	.LVL103:
 714 004c 144B     		ldr	r3, .L46+8
 715 004e 1855     		strb	r0, [r3, r4]
 441:communication.c ****     SPIM_PutArray(&dummy,1);      
 716              		.loc 1 441 0 discriminator 3
 717 0050 0121     		movs	r1, #1
 718 0052 0DF10700 		add	r0, sp, #7
 719 0056 FFF7FEFF 		bl	SPIM_PutArray
 720              	.LVL104:
 439:communication.c ****     SPIMReadBuf[counter] = SPIM_ReadRxData();  
 721              		.loc 1 439 0 discriminator 3
 722 005a 0134     		adds	r4, r4, #1
 723              	.LVL105:
 724 005c A4B2     		uxth	r4, r4
 725              	.LVL106:
 726              	.L43:
 439:communication.c ****     SPIMReadBuf[counter] = SPIM_ReadRxData();  
 727              		.loc 1 439 0 is_stmt 0 discriminator 1
 728 005e 092C     		cmp	r4, #9
 729 0060 F2D9     		bls	.L44
 730              	.LVL107:
 442:communication.c ****     }
 443:communication.c ****     counter = sizeof(struct MAT_parameters);    
 444:communication.c ****     CyDelay(1000);
 731              		.loc 1 444 0 is_stmt 1
 732 0062 4FF47A70 		mov	r0, #1000
 733 0066 FFF7FEFF 		bl	CyDelay
 734              	.LVL108:
 445:communication.c ****     memcpy(MAT_Parameters,&SPIMReadBuf,sizeof(struct MAT_parameters)); //TBD sizeof(struct MAT_para
 735              		.loc 1 445 0
 736 006a 0D4B     		ldr	r3, .L46+8
 737 006c 1868     		ldr	r0, [r3]	@ unaligned
 738 006e 5968     		ldr	r1, [r3, #4]	@ unaligned
 739 0070 9A68     		ldr	r2, [r3, #8]	@ unaligned
 740 0072 DC68     		ldr	r4, [r3, #12]	@ unaligned
ARM GAS  C:\Users\Dell\AppData\Local\Temp\ccpe0Dqd.s 			page 22


 741 0074 2860     		str	r0, [r5]	@ unaligned
 742 0076 6960     		str	r1, [r5, #4]	@ unaligned
 743 0078 AA60     		str	r2, [r5, #8]	@ unaligned
 744 007a EC60     		str	r4, [r5, #12]	@ unaligned
 745 007c 1869     		ldr	r0, [r3, #16]	@ unaligned
 746 007e 5969     		ldr	r1, [r3, #20]	@ unaligned
 747 0080 9A69     		ldr	r2, [r3, #24]	@ unaligned
 748 0082 2861     		str	r0, [r5, #16]	@ unaligned
 749 0084 6961     		str	r1, [r5, #20]	@ unaligned
 750 0086 AA61     		str	r2, [r5, #24]	@ unaligned
 751 0088 1B7F     		ldrb	r3, [r3, #28]	@ zero_extendqisi2
 752 008a 2B77     		strb	r3, [r5, #28]
 446:communication.c ****     CyDelay(1000);
 753              		.loc 1 446 0
 754 008c 4FF47A70 		mov	r0, #1000
 755 0090 FFF7FEFF 		bl	CyDelay
 756              	.LVL109:
 447:communication.c **** 
 448:communication.c **** }
 757              		.loc 1 448 0
 758 0094 03B0     		add	sp, sp, #12
 759              		.cfi_def_cfa_offset 12
 760              		@ sp needed
 761 0096 30BD     		pop	{r4, r5, pc}
 762              	.LVL110:
 763              	.L47:
 764              		.align	2
 765              	.L46:
 766 0098 00000000 		.word	SPIMWriteBuf
 767 009c 00000000 		.word	SPIMReadBuf_temp
 768 00a0 00000000 		.word	SPIMReadBuf
 769              		.cfi_endproc
 770              	.LFE77:
 771              		.size	ReadMatParamsFromFlash, .-ReadMatParamsFromFlash
 772              		.section	.text.ReadRefRowFromFlash,"ax",%progbits
 773              		.align	2
 774              		.global	ReadRefRowFromFlash
 775              		.thumb
 776              		.thumb_func
 777              		.type	ReadRefRowFromFlash, %function
 778              	ReadRefRowFromFlash:
 779              	.LFB78:
 449:communication.c **** 
 450:communication.c **** void ReadRefRowFromFlash( struct MAT_RefRow* MAT_refRow){
 780              		.loc 1 450 0
 781              		.cfi_startproc
 782              		@ args = 0, pretend = 0, frame = 8
 783              		@ frame_needed = 0, uses_anonymous_args = 0
 784              	.LVL111:
 785 0000 30B5     		push	{r4, r5, lr}
 786              		.cfi_def_cfa_offset 12
 787              		.cfi_offset 4, -12
 788              		.cfi_offset 5, -8
 789              		.cfi_offset 14, -4
 790 0002 83B0     		sub	sp, sp, #12
 791              		.cfi_def_cfa_offset 24
 792 0004 0546     		mov	r5, r0
ARM GAS  C:\Users\Dell\AppData\Local\Temp\ccpe0Dqd.s 			page 23


 793              	.LVL112:
 451:communication.c ****     uint32 address = MatRefRowAddress;
 452:communication.c ****     uint16 counter;
 453:communication.c ****     uint8 head=6;
 454:communication.c ****     uint8 dummy=0xff;
 794              		.loc 1 454 0
 795 0006 FF24     		movs	r4, #255
 796 0008 8DF80740 		strb	r4, [sp, #7]
 455:communication.c ****     
 456:communication.c ****     SPIM_ClearRxBuffer();
 797              		.loc 1 456 0
 798 000c FFF7FEFF 		bl	SPIM_ClearRxBuffer
 799              	.LVL113:
 457:communication.c ****     SPIMWriteBuf[0] = (uint8)READ;
 800              		.loc 1 457 0
 801 0010 1B48     		ldr	r0, .L54
 802 0012 0323     		movs	r3, #3
 803 0014 0370     		strb	r3, [r0]
 458:communication.c ****     SPIMWriteBuf[1] = (address>16)&0x00ff; //MSB
 804              		.loc 1 458 0
 805 0016 0123     		movs	r3, #1
 806 0018 4370     		strb	r3, [r0, #1]
 459:communication.c ****     SPIMWriteBuf[2] = (address>8)&0x00ff;
 807              		.loc 1 459 0
 808 001a 8370     		strb	r3, [r0, #2]
 460:communication.c ****     SPIMWriteBuf[3] =  address&0x0000ff;  //LSB
 809              		.loc 1 460 0
 810 001c C470     		strb	r4, [r0, #3]
 461:communication.c ****     
 462:communication.c ****     SPIM_PutArray(SPIMWriteBuf,4); 
 811              		.loc 1 462 0
 812 001e 0421     		movs	r1, #4
 813 0020 FFF7FEFF 		bl	SPIM_PutArray
 814              	.LVL114:
 463:communication.c ****     for(counter=0;counter<6;counter++){ 
 815              		.loc 1 463 0
 816 0024 0024     		movs	r4, #0
 817 0026 0AE0     		b	.L49
 818              	.LVL115:
 819              	.L50:
 464:communication.c ****     SPIMReadBuf_temp[counter] = SPIM_ReadRxData();  
 820              		.loc 1 464 0 discriminator 3
 821 0028 FFF7FEFF 		bl	SPIM_ReadRxData
 822              	.LVL116:
 823 002c 154B     		ldr	r3, .L54+4
 824 002e 1855     		strb	r0, [r3, r4]
 465:communication.c ****     SPIM_PutArray(&dummy,1);         
 825              		.loc 1 465 0 discriminator 3
 826 0030 0121     		movs	r1, #1
 827 0032 0DF10700 		add	r0, sp, #7
 828 0036 FFF7FEFF 		bl	SPIM_PutArray
 829              	.LVL117:
 463:communication.c ****     for(counter=0;counter<6;counter++){ 
 830              		.loc 1 463 0 discriminator 3
 831 003a 0134     		adds	r4, r4, #1
 832              	.LVL118:
 833 003c A4B2     		uxth	r4, r4
ARM GAS  C:\Users\Dell\AppData\Local\Temp\ccpe0Dqd.s 			page 24


 834              	.LVL119:
 835              	.L49:
 463:communication.c ****     for(counter=0;counter<6;counter++){ 
 836              		.loc 1 463 0 is_stmt 0 discriminator 1
 837 003e 052C     		cmp	r4, #5
 838 0040 F2D9     		bls	.L50
 839 0042 0024     		movs	r4, #0
 840              	.LVL120:
 841 0044 0AE0     		b	.L51
 842              	.LVL121:
 843              	.L52:
 466:communication.c ****     }
 467:communication.c ****     for(counter=0;counter<sizeof(MAT_refRow);counter++){ 
 468:communication.c ****     SPIMReadBuf[counter] = SPIM_ReadRxData();  
 844              		.loc 1 468 0 is_stmt 1 discriminator 3
 845 0046 FFF7FEFF 		bl	SPIM_ReadRxData
 846              	.LVL122:
 847 004a 0F4B     		ldr	r3, .L54+8
 848 004c 1855     		strb	r0, [r3, r4]
 469:communication.c ****     SPIM_PutArray(&dummy,1);      
 849              		.loc 1 469 0 discriminator 3
 850 004e 0121     		movs	r1, #1
 851 0050 0DF10700 		add	r0, sp, #7
 852 0054 FFF7FEFF 		bl	SPIM_PutArray
 853              	.LVL123:
 467:communication.c ****     SPIMReadBuf[counter] = SPIM_ReadRxData();  
 854              		.loc 1 467 0 discriminator 3
 855 0058 0134     		adds	r4, r4, #1
 856              	.LVL124:
 857 005a A4B2     		uxth	r4, r4
 858              	.LVL125:
 859              	.L51:
 467:communication.c ****     SPIMReadBuf[counter] = SPIM_ReadRxData();  
 860              		.loc 1 467 0 is_stmt 0 discriminator 1
 861 005c 032C     		cmp	r4, #3
 862 005e F2D9     		bls	.L52
 863              	.LVL126:
 470:communication.c ****     }
 471:communication.c ****     counter = sizeof(struct MAT_parameters);    
 472:communication.c ****     CyDelay(1000);
 864              		.loc 1 472 0 is_stmt 1
 865 0060 4FF47A70 		mov	r0, #1000
 866 0064 FFF7FEFF 		bl	CyDelay
 867              	.LVL127:
 473:communication.c ****     memcpy(MAT_refRow,&SPIMReadBuf,sizeof(struct MAT_RefRow)); //TBD sizeof(struct MAT_RefRow)=32 i
 868              		.loc 1 473 0
 869 0068 A222     		movs	r2, #162
 870 006a 0749     		ldr	r1, .L54+8
 871 006c 2846     		mov	r0, r5
 872 006e FFF7FEFF 		bl	memcpy
 873              	.LVL128:
 474:communication.c ****     CyDelay(1000);
 874              		.loc 1 474 0
 875 0072 4FF47A70 		mov	r0, #1000
 876 0076 FFF7FEFF 		bl	CyDelay
 877              	.LVL129:
 475:communication.c **** 
ARM GAS  C:\Users\Dell\AppData\Local\Temp\ccpe0Dqd.s 			page 25


 476:communication.c **** }
 878              		.loc 1 476 0
 879 007a 03B0     		add	sp, sp, #12
 880              		.cfi_def_cfa_offset 12
 881              		@ sp needed
 882 007c 30BD     		pop	{r4, r5, pc}
 883              	.LVL130:
 884              	.L55:
 885 007e 00BF     		.align	2
 886              	.L54:
 887 0080 00000000 		.word	SPIMWriteBuf
 888 0084 00000000 		.word	SPIMReadBuf_temp
 889 0088 00000000 		.word	SPIMReadBuf
 890              		.cfi_endproc
 891              	.LFE78:
 892              		.size	ReadRefRowFromFlash, .-ReadRefRowFromFlash
 893              		.section	.text.ReadRefColFromFlash,"ax",%progbits
 894              		.align	2
 895              		.global	ReadRefColFromFlash
 896              		.thumb
 897              		.thumb_func
 898              		.type	ReadRefColFromFlash, %function
 899              	ReadRefColFromFlash:
 900              	.LFB79:
 477:communication.c **** 
 478:communication.c **** void ReadRefColFromFlash( struct MAT_RefCol* MAT_refcol){
 901              		.loc 1 478 0
 902              		.cfi_startproc
 903              		@ args = 0, pretend = 0, frame = 8
 904              		@ frame_needed = 0, uses_anonymous_args = 0
 905              	.LVL131:
 906 0000 30B5     		push	{r4, r5, lr}
 907              		.cfi_def_cfa_offset 12
 908              		.cfi_offset 4, -12
 909              		.cfi_offset 5, -8
 910              		.cfi_offset 14, -4
 911 0002 83B0     		sub	sp, sp, #12
 912              		.cfi_def_cfa_offset 24
 913 0004 0546     		mov	r5, r0
 914              	.LVL132:
 479:communication.c ****     uint32 address = MatRefRowAddress;
 480:communication.c ****     uint16 counter;
 481:communication.c ****     uint8 head=6;
 482:communication.c ****     uint8 dummy=0xff;
 915              		.loc 1 482 0
 916 0006 FF24     		movs	r4, #255
 917 0008 8DF80740 		strb	r4, [sp, #7]
 483:communication.c ****     
 484:communication.c ****     SPIM_ClearRxBuffer();
 918              		.loc 1 484 0
 919 000c FFF7FEFF 		bl	SPIM_ClearRxBuffer
 920              	.LVL133:
 485:communication.c ****     SPIMWriteBuf[0] = (uint8)READ;
 921              		.loc 1 485 0
 922 0010 1B48     		ldr	r0, .L62
 923 0012 0323     		movs	r3, #3
 924 0014 0370     		strb	r3, [r0]
ARM GAS  C:\Users\Dell\AppData\Local\Temp\ccpe0Dqd.s 			page 26


 486:communication.c ****     SPIMWriteBuf[1] = (address>16)&0x00ff; //MSB
 925              		.loc 1 486 0
 926 0016 0123     		movs	r3, #1
 927 0018 4370     		strb	r3, [r0, #1]
 487:communication.c ****     SPIMWriteBuf[2] = (address>8)&0x00ff;
 928              		.loc 1 487 0
 929 001a 8370     		strb	r3, [r0, #2]
 488:communication.c ****     SPIMWriteBuf[3] =  address&0x0000ff;  //LSB
 930              		.loc 1 488 0
 931 001c C470     		strb	r4, [r0, #3]
 489:communication.c ****     
 490:communication.c ****     SPIM_PutArray(SPIMWriteBuf,4); 
 932              		.loc 1 490 0
 933 001e 0421     		movs	r1, #4
 934 0020 FFF7FEFF 		bl	SPIM_PutArray
 935              	.LVL134:
 491:communication.c ****     for(counter=0;counter<6;counter++){ 
 936              		.loc 1 491 0
 937 0024 0024     		movs	r4, #0
 938 0026 0AE0     		b	.L57
 939              	.LVL135:
 940              	.L58:
 492:communication.c ****     SPIMReadBuf_temp[counter] = SPIM_ReadRxData();  
 941              		.loc 1 492 0 discriminator 3
 942 0028 FFF7FEFF 		bl	SPIM_ReadRxData
 943              	.LVL136:
 944 002c 154B     		ldr	r3, .L62+4
 945 002e 1855     		strb	r0, [r3, r4]
 493:communication.c ****     SPIM_PutArray(&dummy,1);         
 946              		.loc 1 493 0 discriminator 3
 947 0030 0121     		movs	r1, #1
 948 0032 0DF10700 		add	r0, sp, #7
 949 0036 FFF7FEFF 		bl	SPIM_PutArray
 950              	.LVL137:
 491:communication.c ****     for(counter=0;counter<6;counter++){ 
 951              		.loc 1 491 0 discriminator 3
 952 003a 0134     		adds	r4, r4, #1
 953              	.LVL138:
 954 003c A4B2     		uxth	r4, r4
 955              	.LVL139:
 956              	.L57:
 491:communication.c ****     for(counter=0;counter<6;counter++){ 
 957              		.loc 1 491 0 is_stmt 0 discriminator 1
 958 003e 052C     		cmp	r4, #5
 959 0040 F2D9     		bls	.L58
 960 0042 0024     		movs	r4, #0
 961              	.LVL140:
 962 0044 0AE0     		b	.L59
 963              	.LVL141:
 964              	.L60:
 494:communication.c ****     }
 495:communication.c ****     for(counter=0;counter<sizeof(MAT_refcol);counter++){ 
 496:communication.c ****     SPIMReadBuf[counter] = SPIM_ReadRxData();  
 965              		.loc 1 496 0 is_stmt 1 discriminator 3
 966 0046 FFF7FEFF 		bl	SPIM_ReadRxData
 967              	.LVL142:
 968 004a 0F4B     		ldr	r3, .L62+8
ARM GAS  C:\Users\Dell\AppData\Local\Temp\ccpe0Dqd.s 			page 27


 969 004c 1855     		strb	r0, [r3, r4]
 497:communication.c ****     SPIM_PutArray(&dummy,1);      
 970              		.loc 1 497 0 discriminator 3
 971 004e 0121     		movs	r1, #1
 972 0050 0DF10700 		add	r0, sp, #7
 973 0054 FFF7FEFF 		bl	SPIM_PutArray
 974              	.LVL143:
 495:communication.c ****     SPIMReadBuf[counter] = SPIM_ReadRxData();  
 975              		.loc 1 495 0 discriminator 3
 976 0058 0134     		adds	r4, r4, #1
 977              	.LVL144:
 978 005a A4B2     		uxth	r4, r4
 979              	.LVL145:
 980              	.L59:
 495:communication.c ****     SPIMReadBuf[counter] = SPIM_ReadRxData();  
 981              		.loc 1 495 0 is_stmt 0 discriminator 1
 982 005c 032C     		cmp	r4, #3
 983 005e F2D9     		bls	.L60
 984              	.LVL146:
 498:communication.c ****     }
 499:communication.c ****     counter = sizeof(struct MAT_parameters);    
 500:communication.c ****     CyDelay(1000);
 985              		.loc 1 500 0 is_stmt 1
 986 0060 4FF47A70 		mov	r0, #1000
 987 0064 FFF7FEFF 		bl	CyDelay
 988              	.LVL147:
 501:communication.c ****     memcpy(MAT_refcol,&SPIMReadBuf,sizeof(struct MAT_RefCol)); //TBD sizeof(struct MAT_RefCol)=32 i
 989              		.loc 1 501 0
 990 0068 4FF49172 		mov	r2, #290
 991 006c 0649     		ldr	r1, .L62+8
 992 006e 2846     		mov	r0, r5
 993 0070 FFF7FEFF 		bl	memcpy
 994              	.LVL148:
 502:communication.c ****     CyDelay(1000);
 995              		.loc 1 502 0
 996 0074 4FF47A70 		mov	r0, #1000
 997 0078 FFF7FEFF 		bl	CyDelay
 998              	.LVL149:
 503:communication.c **** 
 504:communication.c **** }
 999              		.loc 1 504 0
 1000 007c 03B0     		add	sp, sp, #12
 1001              		.cfi_def_cfa_offset 12
 1002              		@ sp needed
 1003 007e 30BD     		pop	{r4, r5, pc}
 1004              	.LVL150:
 1005              	.L63:
 1006              		.align	2
 1007              	.L62:
 1008 0080 00000000 		.word	SPIMWriteBuf
 1009 0084 00000000 		.word	SPIMReadBuf_temp
 1010 0088 00000000 		.word	SPIMReadBuf
 1011              		.cfi_endproc
 1012              	.LFE79:
 1013              		.size	ReadRefColFromFlash, .-ReadRefColFromFlash
 1014              		.section	.text.GetMatParamFromUSB,"ax",%progbits
 1015              		.align	2
ARM GAS  C:\Users\Dell\AppData\Local\Temp\ccpe0Dqd.s 			page 28


 1016              		.global	GetMatParamFromUSB
 1017              		.thumb
 1018              		.thumb_func
 1019              		.type	GetMatParamFromUSB, %function
 1020              	GetMatParamFromUSB:
 1021              	.LFB82:
 505:communication.c **** 
 506:communication.c **** //////////////////////////////////////////////
 507:communication.c **** /////////////////USB - IN ////////////////////
 508:communication.c **** //////////////////////////////////////////////
 509:communication.c **** 
 510:communication.c **** void GetPowerConfigFromUSB(struct HwcPowerConfig* powerConfig){
 511:communication.c ****     uint16 _nextParamPtr = 9;
 512:communication.c ****     _nextParamPtr +=ReadFloat(&bufferIN[_nextParamPtr],&powerConfig->refreshRate);
 513:communication.c ****     _nextParamPtr +=ReadFloat(&bufferIN[_nextParamPtr],&powerConfig->batteryImageDelay);
 514:communication.c ****     _nextParamPtr +=ReadFloat(&bufferIN[_nextParamPtr],&powerConfig->codeRedImageDelay);    
 515:communication.c **** }
 516:communication.c **** enum PowerStatus GetPowerStatusFromUSB(){ 
 517:communication.c ****     uint8_t state;
 518:communication.c ****     uint16 _nextParamPtr = 9;
 519:communication.c **** 	ReadInt8(&bufferIN[_nextParamPtr],&state);
 520:communication.c ****     return state;
 521:communication.c **** }
 522:communication.c **** void GetMatParamFromUSB(struct MAT_parameters* MAT_Parameters){
 1022              		.loc 1 522 0
 1023              		.cfi_startproc
 1024              		@ args = 0, pretend = 0, frame = 0
 1025              		@ frame_needed = 0, uses_anonymous_args = 0
 1026              	.LVL151:
 1027 0000 10B5     		push	{r4, lr}
 1028              		.cfi_def_cfa_offset 8
 1029              		.cfi_offset 4, -8
 1030              		.cfi_offset 14, -4
 1031 0002 0446     		mov	r4, r0
 523:communication.c ****     uint16 count;
 524:communication.c **** 
 525:communication.c ****         // Check for input data from host. 
 526:communication.c ****     if (0u != USBUART_DataIsReady()){
 1032              		.loc 1 526 0
 1033 0004 FFF7FEFF 		bl	USBUART_DataIsReady
 1034              	.LVL152:
 1035 0008 60B3     		cbz	r0, .L64
 527:communication.c ****         // Read received data and re-enable OUT endpoint. 
 528:communication.c ****         count = USBUART_GetAll(bufferIN);
 1036              		.loc 1 528 0
 1037 000a 1748     		ldr	r0, .L67
 1038 000c FFF7FEFF 		bl	USBUART_GetAll
 1039              	.LVL153:
 529:communication.c ****         MAT_Parameters-> checkSum_1=10;//bufferIN[InDataStartPosition+CheckSum1Address];
 1040              		.loc 1 529 0
 1041 0010 0023     		movs	r3, #0
 1042 0012 0A22     		movs	r2, #10
 1043 0014 2270     		strb	r2, [r4]
 1044 0016 6370     		strb	r3, [r4, #1]
 1045 0018 A370     		strb	r3, [r4, #2]
 1046 001a E370     		strb	r3, [r4, #3]
 530:communication.c ****         MAT_Parameters-> MT_ID=11;//bufferIN[InDataStartPosition+MT_ID_Address];
ARM GAS  C:\Users\Dell\AppData\Local\Temp\ccpe0Dqd.s 			page 29


 1047              		.loc 1 530 0
 1048 001c 0B22     		movs	r2, #11
 1049 001e 2271     		strb	r2, [r4, #4]
 1050 0020 6371     		strb	r3, [r4, #5]
 1051 0022 A371     		strb	r3, [r4, #6]
 1052 0024 E371     		strb	r3, [r4, #7]
 531:communication.c ****         MAT_Parameters-> NumOfRows=12;//bufferIN[InDataStartPosition+NumOfRowsAddress];
 1053              		.loc 1 531 0
 1054 0026 0C22     		movs	r2, #12
 1055 0028 2272     		strb	r2, [r4, #8]
 532:communication.c ****         MAT_Parameters-> NumOfCols=13;//bufferIN[InDataStartPosition+NumOfColsAddress];
 1056              		.loc 1 532 0
 1057 002a 0D22     		movs	r2, #13
 1058 002c 6272     		strb	r2, [r4, #9]
 533:communication.c ****         MAT_Parameters-> HWMajor=14;//bufferIN[InDataStartPosition+HWMajorAddress];
 1059              		.loc 1 533 0
 1060 002e 0E22     		movs	r2, #14
 1061 0030 A272     		strb	r2, [r4, #10]
 534:communication.c ****         MAT_Parameters-> HWMinor=15;//bufferIN[InDataStartPosition+HWMinorAddress];
 1062              		.loc 1 534 0
 1063 0032 0F22     		movs	r2, #15
 1064 0034 E272     		strb	r2, [r4, #11]
 535:communication.c ****         MAT_Parameters-> LifeTime=16;//bufferIN[InDataStartPosition+LifeTimeAddress];
 1065              		.loc 1 535 0
 1066 0036 1022     		movs	r2, #16
 1067 0038 2273     		strb	r2, [r4, #12]
 1068 003a 6373     		strb	r3, [r4, #13]
 1069 003c A373     		strb	r3, [r4, #14]
 1070 003e E373     		strb	r3, [r4, #15]
 536:communication.c ****         MAT_Parameters-> FirstActivationDate=17;//bufferIN[InDataStartPosition+FirstActivationDateA
 1071              		.loc 1 536 0
 1072 0040 1122     		movs	r2, #17
 1073 0042 2274     		strb	r2, [r4, #16]
 1074 0044 6374     		strb	r3, [r4, #17]
 1075 0046 A374     		strb	r3, [r4, #18]
 1076 0048 E374     		strb	r3, [r4, #19]
 537:communication.c ****         MAT_Parameters-> codeRedStatus=18;//bufferIN[InDataStartPosition+codeRedStatusAddress];
 1077              		.loc 1 537 0
 1078 004a 1222     		movs	r2, #18
 1079 004c 2275     		strb	r2, [r4, #20]
 538:communication.c ****         MAT_Parameters-> codeRedIndex=19;//bufferIN[InDataStartPosition+codeRedIndexAddress];
 1080              		.loc 1 538 0
 1081 004e 1322     		movs	r2, #19
 1082 0050 6275     		strb	r2, [r4, #21]
 1083 0052 A375     		strb	r3, [r4, #22]
 539:communication.c ****         MAT_Parameters-> ManufacturingDate=20;//bufferIN[InDataStartPosition+ManufacturingDateAddre
 1084              		.loc 1 539 0
 1085 0054 1422     		movs	r2, #20
 1086 0056 E275     		strb	r2, [r4, #23]
 1087 0058 2376     		strb	r3, [r4, #24]
 1088 005a 6376     		strb	r3, [r4, #25]
 1089 005c A376     		strb	r3, [r4, #26]
 540:communication.c ****         MAT_Parameters-> numOfCoef=21;//bufferIN[InDataStartPosition+numOfCoefAddress];
 1090              		.loc 1 540 0
 1091 005e 1522     		movs	r2, #21
 1092 0060 E276     		strb	r2, [r4, #27]
 1093 0062 2377     		strb	r3, [r4, #28]
ARM GAS  C:\Users\Dell\AppData\Local\Temp\ccpe0Dqd.s 			page 30


 1094              	.L64:
 1095 0064 10BD     		pop	{r4, pc}
 1096              	.LVL154:
 1097              	.L68:
 1098 0066 00BF     		.align	2
 1099              	.L67:
 1100 0068 00000000 		.word	bufferIN
 1101              		.cfi_endproc
 1102              	.LFE82:
 1103              		.size	GetMatParamFromUSB, .-GetMatParamFromUSB
 1104              		.global	__aeabi_ui2f
 1105              		.section	.text.GetLutFromUSB,"ax",%progbits
 1106              		.align	2
 1107              		.global	GetLutFromUSB
 1108              		.thumb
 1109              		.thumb_func
 1110              		.type	GetLutFromUSB, %function
 1111              	GetLutFromUSB:
 1112              	.LFB83:
 541:communication.c ****     }
 542:communication.c **** }
 543:communication.c **** 
 544:communication.c **** void GetLutFromUSB(struct MAT_Lut* mat_lut){
 1113              		.loc 1 544 0
 1114              		.cfi_startproc
 1115              		@ args = 0, pretend = 0, frame = 0
 1116              		@ frame_needed = 0, uses_anonymous_args = 0
 1117              	.LVL155:
 1118 0000 70B5     		push	{r4, r5, r6, lr}
 1119              		.cfi_def_cfa_offset 16
 1120              		.cfi_offset 4, -16
 1121              		.cfi_offset 5, -12
 1122              		.cfi_offset 6, -8
 1123              		.cfi_offset 14, -4
 1124 0002 0646     		mov	r6, r0
 1125              	.LVL156:
 545:communication.c ****     uint8 i;
 546:communication.c ****     uint8 j=0;
 547:communication.c ****     // Check for input data from host. 
 548:communication.c ****     if (0u != USBUART_DataIsReady()){
 1126              		.loc 1 548 0
 1127 0004 FFF7FEFF 		bl	USBUART_DataIsReady
 1128              	.LVL157:
 1129 0008 C0B1     		cbz	r0, .L69
 549:communication.c ****        mat_lut->RowNum = bufferIN[RowNumPos];
 1130              		.loc 1 549 0
 1131 000a 0D4B     		ldr	r3, .L74
 1132 000c 9A7A     		ldrb	r2, [r3, #10]	@ zero_extendqisi2
 1133 000e 3270     		strb	r2, [r6]
 550:communication.c ****        mat_lut->numOfCols = bufferIN[NumOfColPos];
 1134              		.loc 1 550 0
 1135 0010 DB7A     		ldrb	r3, [r3, #11]	@ zero_extendqisi2
 1136 0012 A6F80130 		strh	r3, [r6, #1]	@ unaligned
 1137              	.LVL158:
 546:communication.c ****     // Check for input data from host. 
 1138              		.loc 1 546 0
 1139 0016 0024     		movs	r4, #0
ARM GAS  C:\Users\Dell\AppData\Local\Temp\ccpe0Dqd.s 			page 31


 551:communication.c ****        for(i=NumOfColPos+1; i<USBUART_BUFFER_SIZE; i++){
 1140              		.loc 1 551 0
 1141 0018 0C25     		movs	r5, #12
 1142 001a 0DE0     		b	.L71
 1143              	.LVL159:
 1144              	.L72:
 552:communication.c ****        mat_lut->coefList[j]= bufferIN[StartLutPos+j];
 1145              		.loc 1 552 0 discriminator 3
 1146 001c 04F10C03 		add	r3, r4, #12
 1147 0020 074A     		ldr	r2, .L74
 1148 0022 D05C     		ldrb	r0, [r2, r3]	@ zero_extendqisi2
 1149 0024 FFF7FEFF 		bl	__aeabi_ui2f
 1150              	.LVL160:
 1151 0028 06EB8403 		add	r3, r6, r4, lsl #2
 1152 002c C3F80300 		str	r0, [r3, #3]	@ unaligned
 553:communication.c ****        j++;
 1153              		.loc 1 553 0 discriminator 3
 1154 0030 0134     		adds	r4, r4, #1
 1155              	.LVL161:
 1156 0032 E4B2     		uxtb	r4, r4
 1157              	.LVL162:
 551:communication.c ****        for(i=NumOfColPos+1; i<USBUART_BUFFER_SIZE; i++){
 1158              		.loc 1 551 0 discriminator 3
 1159 0034 0135     		adds	r5, r5, #1
 1160              	.LVL163:
 1161 0036 EDB2     		uxtb	r5, r5
 1162              	.LVL164:
 1163              	.L71:
 551:communication.c ****        for(i=NumOfColPos+1; i<USBUART_BUFFER_SIZE; i++){
 1164              		.loc 1 551 0 is_stmt 0 discriminator 1
 1165 0038 3F2D     		cmp	r5, #63
 1166 003a EFD9     		bls	.L72
 1167              	.LVL165:
 1168              	.L69:
 1169 003c 70BD     		pop	{r4, r5, r6, pc}
 1170              	.LVL166:
 1171              	.L75:
 1172 003e 00BF     		.align	2
 1173              	.L74:
 1174 0040 00000000 		.word	bufferIN
 1175              		.cfi_endproc
 1176              	.LFE83:
 1177              		.size	GetLutFromUSB, .-GetLutFromUSB
 1178              		.section	.text.RequestFromTI,"ax",%progbits
 1179              		.align	2
 1180              		.global	RequestFromTI
 1181              		.thumb
 1182              		.thumb_func
 1183              		.type	RequestFromTI, %function
 1184              	RequestFromTI:
 1185              	.LFB84:
 554:communication.c ****        }
 555:communication.c ****     }
 556:communication.c **** }
 557:communication.c **** 
 558:communication.c **** /////////////////////////// TO TI Micro /////////////////////////////////
 559:communication.c **** enum I2C_Status RequestFromTI(enum I2C_Category i2cCategory, enum I2C_ON_OFF i2cState){
ARM GAS  C:\Users\Dell\AppData\Local\Temp\ccpe0Dqd.s 			page 32


 1186              		.loc 1 559 0 is_stmt 1
 1187              		.cfi_startproc
 1188              		@ args = 0, pretend = 0, frame = 0
 1189              		@ frame_needed = 0, uses_anonymous_args = 0
 1190              	.LVL167:
 1191 0000 70B5     		push	{r4, r5, r6, lr}
 1192              		.cfi_def_cfa_offset 16
 1193              		.cfi_offset 4, -16
 1194              		.cfi_offset 5, -12
 1195              		.cfi_offset 6, -8
 1196              		.cfi_offset 14, -4
 1197 0002 0546     		mov	r5, r0
 1198 0004 0E46     		mov	r6, r1
 560:communication.c ****     Timer_1_WriteCounter(TimerCounter);
 1199              		.loc 1 560 0
 1200 0006 1F48     		ldr	r0, .L83
 1201              	.LVL168:
 1202 0008 FFF7FEFF 		bl	Timer_1_WriteCounter
 1203              	.LVL169:
 561:communication.c ****     CyDelayUs(10);
 1204              		.loc 1 561 0
 1205 000c 0A20     		movs	r0, #10
 1206 000e FFF7FEFF 		bl	CyDelayUs
 1207              	.LVL170:
 562:communication.c ****     Timer_1_Start();    
 1208              		.loc 1 562 0
 1209 0012 FFF7FEFF 		bl	Timer_1_Start
 1210              	.LVL171:
 563:communication.c ****     I2CBufWrite[0]=i2cCategory;
 1211              		.loc 1 563 0
 1212 0016 1C4C     		ldr	r4, .L83+4
 1213 0018 2570     		strb	r5, [r4]
 564:communication.c ****     I2CBufWrite[1]=i2cState;
 1214              		.loc 1 564 0
 1215 001a 6670     		strb	r6, [r4, #1]
 565:communication.c ****     UART_PutString("TI request");
 1216              		.loc 1 565 0
 1217 001c 1B48     		ldr	r0, .L83+8
 1218 001e FFF7FEFF 		bl	UART_PutString
 1219              	.LVL172:
 566:communication.c ****     UART_PutString("\n\r\n\r");
 1220              		.loc 1 566 0
 1221 0022 1B48     		ldr	r0, .L83+12
 1222 0024 FFF7FEFF 		bl	UART_PutString
 1223              	.LVL173:
 567:communication.c ****     uint8 I2C_Status = I2C_MasterWriteBuf(TI_MicroAddress, (uint8 *)I2CBufWrite,2, I2C_MODE_COMPLET
 1224              		.loc 1 567 0
 1225 0028 0023     		movs	r3, #0
 1226 002a 0222     		movs	r2, #2
 1227 002c 2146     		mov	r1, r4
 1228 002e 4820     		movs	r0, #72
 1229 0030 FFF7FEFF 		bl	I2C_MasterWriteBuf
 1230              	.LVL174:
 1231              	.L77:
 568:communication.c ****     while(I2C_MasterStatus() & I2C_MSTAT_XFER_INP);
 1232              		.loc 1 568 0 discriminator 1
 1233 0034 FFF7FEFF 		bl	I2C_MasterStatus
ARM GAS  C:\Users\Dell\AppData\Local\Temp\ccpe0Dqd.s 			page 33


 1234              	.LVL175:
 1235 0038 10F0040F 		tst	r0, #4
 1236 003c FAD1     		bne	.L77
 569:communication.c ****     I2C_Status = I2C_MasterReadBuf(TI_MicroAddress, (uint8 *)I2CBufRead,2, I2C_MODE_COMPLETE_XFER);
 1237              		.loc 1 569 0
 1238 003e 0023     		movs	r3, #0
 1239 0040 0222     		movs	r2, #2
 1240 0042 1449     		ldr	r1, .L83+16
 1241 0044 4820     		movs	r0, #72
 1242 0046 FFF7FEFF 		bl	I2C_MasterReadBuf
 1243              	.LVL176:
 1244              	.L78:
 570:communication.c ****     while(I2C_MasterStatus() & I2C_MSTAT_XFER_INP){};                    
 1245              		.loc 1 570 0 discriminator 1
 1246 004a FFF7FEFF 		bl	I2C_MasterStatus
 1247              	.LVL177:
 1248 004e 10F0040F 		tst	r0, #4
 1249 0052 FAD1     		bne	.L78
 571:communication.c ****     if(0u != (I2C_MasterStatus() & I2C_MSTAT_RD_CMPLT)){   //TBD when failed send MSg to tablet  
 1250              		.loc 1 571 0
 1251 0054 FFF7FEFF 		bl	I2C_MasterStatus
 1252              	.LVL178:
 1253 0058 10F0010F 		tst	r0, #1
 1254 005c 0ED0     		beq	.L79
 572:communication.c ****         if(I2CBufRead[0]!=i2cCategory || I2CBufRead[1]!=kSuccess ){
 1255              		.loc 1 572 0
 1256 005e 0D4B     		ldr	r3, .L83+16
 1257 0060 1B78     		ldrb	r3, [r3]	@ zero_extendqisi2
 1258 0062 9D42     		cmp	r5, r3
 1259 0064 02D1     		bne	.L80
 1260              		.loc 1 572 0 is_stmt 0 discriminator 1
 1261 0066 0B4B     		ldr	r3, .L83+16
 1262 0068 5B78     		ldrb	r3, [r3, #1]	@ zero_extendqisi2
 1263 006a 3BB1     		cbz	r3, .L79
 1264              	.L80:
 573:communication.c ****         UART_PutString("error comm to TI ");
 1265              		.loc 1 573 0 is_stmt 1
 1266 006c 0A48     		ldr	r0, .L83+20
 1267 006e FFF7FEFF 		bl	UART_PutString
 1268              	.LVL179:
 574:communication.c ****         UART_PutString("\n\r\n\r"); 
 1269              		.loc 1 574 0
 1270 0072 0748     		ldr	r0, .L83+12
 1271 0074 FFF7FEFF 		bl	UART_PutString
 1272              	.LVL180:
 575:communication.c ****         return (enum I2C_Status)kFailed; //TBD send msg to tablet
 1273              		.loc 1 575 0
 1274 0078 0120     		movs	r0, #1
 1275 007a 70BD     		pop	{r4, r5, r6, pc}
 1276              	.L79:
 576:communication.c ****         }
 577:communication.c ****     }
 578:communication.c ****     Timer_1_Stop();
 1277              		.loc 1 578 0
 1278 007c FFF7FEFF 		bl	Timer_1_Stop
 1279              	.LVL181:
 579:communication.c ****     return (enum I2C_Status)kSuccess; 
ARM GAS  C:\Users\Dell\AppData\Local\Temp\ccpe0Dqd.s 			page 34


 1280              		.loc 1 579 0
 1281 0080 0020     		movs	r0, #0
 580:communication.c **** }
 1282              		.loc 1 580 0
 1283 0082 70BD     		pop	{r4, r5, r6, pc}
 1284              	.L84:
 1285              		.align	2
 1286              	.L83:
 1287 0084 00366E01 		.word	24000000
 1288 0088 00000000 		.word	I2CBufWrite
 1289 008c 00000000 		.word	.LC0
 1290 0090 0C000000 		.word	.LC1
 1291 0094 00000000 		.word	I2CBufRead
 1292 0098 14000000 		.word	.LC2
 1293              		.cfi_endproc
 1294              	.LFE84:
 1295              		.size	RequestFromTI, .-RequestFromTI
 1296              		.section	.text.LineSwitching,"ax",%progbits
 1297              		.align	2
 1298              		.global	LineSwitching
 1299              		.thumb
 1300              		.thumb_func
 1301              		.type	LineSwitching, %function
 1302              	LineSwitching:
 1303              	.LFB85:
 581:communication.c **** 
 582:communication.c **** enum I2C_Status LineSwitching(enum I2C_Category i2cCategory, uint8 lineNumber){
 1304              		.loc 1 582 0
 1305              		.cfi_startproc
 1306              		@ args = 0, pretend = 0, frame = 0
 1307              		@ frame_needed = 0, uses_anonymous_args = 0
 1308              	.LVL182:
 1309 0000 38B5     		push	{r3, r4, r5, lr}
 1310              		.cfi_def_cfa_offset 16
 1311              		.cfi_offset 3, -16
 1312              		.cfi_offset 4, -12
 1313              		.cfi_offset 5, -8
 1314              		.cfi_offset 14, -4
 1315 0002 0446     		mov	r4, r0
 1316 0004 0D46     		mov	r5, r1
 583:communication.c ****     Timer_1_WriteCounter(TimerCounter);
 1317              		.loc 1 583 0
 1318 0006 2648     		ldr	r0, .L93
 1319              	.LVL183:
 1320 0008 FFF7FEFF 		bl	Timer_1_WriteCounter
 1321              	.LVL184:
 584:communication.c ****     CyDelayUs(10);
 1322              		.loc 1 584 0
 1323 000c 0A20     		movs	r0, #10
 1324 000e FFF7FEFF 		bl	CyDelayUs
 1325              	.LVL185:
 585:communication.c ****     Timer_1_Start();  
 1326              		.loc 1 585 0
 1327 0012 FFF7FEFF 		bl	Timer_1_Start
 1328              	.LVL186:
 586:communication.c ****     I2CBufWrite[0]=i2cCategory;
 1329              		.loc 1 586 0
ARM GAS  C:\Users\Dell\AppData\Local\Temp\ccpe0Dqd.s 			page 35


 1330 0016 2349     		ldr	r1, .L93+4
 1331 0018 0C70     		strb	r4, [r1]
 587:communication.c ****     I2CBufWrite[1]=lineNumber;
 1332              		.loc 1 587 0
 1333 001a 4D70     		strb	r5, [r1, #1]
 588:communication.c **** 
 589:communication.c ****     uint8 I2C_Status = I2C_MasterWriteBuf(TI_MicroAddress, (uint8 *)I2CBufWrite, 2, I2C_MODE_COMPLE
 1334              		.loc 1 589 0
 1335 001c 0023     		movs	r3, #0
 1336 001e 0222     		movs	r2, #2
 1337 0020 4820     		movs	r0, #72
 1338 0022 FFF7FEFF 		bl	I2C_MasterWriteBuf
 1339              	.LVL187:
 1340              	.L86:
 590:communication.c ****     
 591:communication.c ****     while(I2C_MasterStatus() & I2C_MSTAT_XFER_INP); // Wait for the data transfer to complete   
 1341              		.loc 1 591 0 discriminator 1
 1342 0026 FFF7FEFF 		bl	I2C_MasterStatus
 1343              	.LVL188:
 1344 002a 10F0040F 		tst	r0, #4
 1345 002e FAD1     		bne	.L86
 592:communication.c ****     if((I2C_MasterStatus() & I2C_MSTAT_ERR_XFER)){
 1346              		.loc 1 592 0
 1347 0030 FFF7FEFF 		bl	I2C_MasterStatus
 1348              	.LVL189:
 1349 0034 10F0800F 		tst	r0, #128
 1350 0038 07D0     		beq	.L87
 593:communication.c ****         UART_PutString("I2C communication Failed ");
 1351              		.loc 1 593 0
 1352 003a 1B48     		ldr	r0, .L93+8
 1353 003c FFF7FEFF 		bl	UART_PutString
 1354              	.LVL190:
 594:communication.c ****         UART_PutString("\n\r\n\r"); 
 1355              		.loc 1 594 0
 1356 0040 1A48     		ldr	r0, .L93+12
 1357 0042 FFF7FEFF 		bl	UART_PutString
 1358              	.LVL191:
 595:communication.c ****         return (enum I2C_Status)kFailed; //TBD send msg to tablet
 1359              		.loc 1 595 0
 1360 0046 0120     		movs	r0, #1
 1361 0048 38BD     		pop	{r3, r4, r5, pc}
 1362              	.L87:
 596:communication.c ****     }
 597:communication.c ****    ////Read response from TI
 598:communication.c ****     I2C_Status = I2C_MasterReadBuf(TI_MicroAddress, (uint8 *)I2CBufRead, 3, I2C_MODE_COMPLETE_XFER)
 1363              		.loc 1 598 0
 1364 004a 0023     		movs	r3, #0
 1365 004c 0322     		movs	r2, #3
 1366 004e 1849     		ldr	r1, .L93+16
 1367 0050 4820     		movs	r0, #72
 1368 0052 FFF7FEFF 		bl	I2C_MasterReadBuf
 1369              	.LVL192:
 1370              	.L89:
 599:communication.c ****     while(I2C_MasterStatus() & I2C_MSTAT_XFER_INP); // Wait for the data transfer to complete  
 1371              		.loc 1 599 0 discriminator 1
 1372 0056 FFF7FEFF 		bl	I2C_MasterStatus
 1373              	.LVL193:
ARM GAS  C:\Users\Dell\AppData\Local\Temp\ccpe0Dqd.s 			page 36


 1374 005a 10F0040F 		tst	r0, #4
 1375 005e FAD1     		bne	.L89
 600:communication.c ****     if(0u != (I2C_MasterStatus() & I2C_MSTAT_RD_CMPLT)){//Wait for I2C master to complete to read  
 1376              		.loc 1 600 0
 1377 0060 FFF7FEFF 		bl	I2C_MasterStatus
 1378              	.LVL194:
 1379 0064 10F0010F 		tst	r0, #1
 1380 0068 16D0     		beq	.L90
 601:communication.c ****         if(I2CBufRead[0]!=i2cCategory || I2CBufRead[1]!=lineNumber || I2CBufRead[2]!=kI2C_Success){
 1381              		.loc 1 601 0
 1382 006a 114B     		ldr	r3, .L93+16
 1383 006c 1B78     		ldrb	r3, [r3]	@ zero_extendqisi2
 1384 006e 9C42     		cmp	r4, r3
 1385 0070 06D1     		bne	.L91
 1386              		.loc 1 601 0 is_stmt 0 discriminator 1
 1387 0072 0F4B     		ldr	r3, .L93+16
 1388 0074 5B78     		ldrb	r3, [r3, #1]	@ zero_extendqisi2
 1389 0076 9D42     		cmp	r5, r3
 1390 0078 02D1     		bne	.L91
 1391              		.loc 1 601 0 discriminator 2
 1392 007a 0D4B     		ldr	r3, .L93+16
 1393 007c 9B78     		ldrb	r3, [r3, #2]	@ zero_extendqisi2
 1394 007e 5BB1     		cbz	r3, .L90
 1395              	.L91:
 602:communication.c ****             UART_PutString("\n\r\n\r"); 
 1396              		.loc 1 602 0 is_stmt 1
 1397 0080 0A4C     		ldr	r4, .L93+12
 1398 0082 2046     		mov	r0, r4
 1399 0084 FFF7FEFF 		bl	UART_PutString
 1400              	.LVL195:
 603:communication.c ****             UART_PutString("error while switching rows ");
 1401              		.loc 1 603 0
 1402 0088 0A48     		ldr	r0, .L93+20
 1403 008a FFF7FEFF 		bl	UART_PutString
 1404              	.LVL196:
 604:communication.c ****             UART_PutString("\n\r\n\r"); 
 1405              		.loc 1 604 0
 1406 008e 2046     		mov	r0, r4
 1407 0090 FFF7FEFF 		bl	UART_PutString
 1408              	.LVL197:
 605:communication.c ****            return (enum I2C_Status)kFailed; //TBD send msg to tablet
 1409              		.loc 1 605 0
 1410 0094 0120     		movs	r0, #1
 1411 0096 38BD     		pop	{r3, r4, r5, pc}
 1412              	.L90:
 606:communication.c ****         }
 607:communication.c ****     }
 608:communication.c ****     Timer_1_Stop();
 1413              		.loc 1 608 0
 1414 0098 FFF7FEFF 		bl	Timer_1_Stop
 1415              	.LVL198:
 609:communication.c ****     return (enum I2C_Status)kSuccess;
 1416              		.loc 1 609 0
 1417 009c 0020     		movs	r0, #0
 610:communication.c **** }
 1418              		.loc 1 610 0
 1419 009e 38BD     		pop	{r3, r4, r5, pc}
ARM GAS  C:\Users\Dell\AppData\Local\Temp\ccpe0Dqd.s 			page 37


 1420              	.L94:
 1421              		.align	2
 1422              	.L93:
 1423 00a0 00366E01 		.word	24000000
 1424 00a4 00000000 		.word	I2CBufWrite
 1425 00a8 28000000 		.word	.LC3
 1426 00ac 0C000000 		.word	.LC1
 1427 00b0 00000000 		.word	I2CBufRead
 1428 00b4 44000000 		.word	.LC4
 1429              		.cfi_endproc
 1430              	.LFE85:
 1431              		.size	LineSwitching, .-LineSwitching
 1432              		.section	.text.GetTIFWVversion,"ax",%progbits
 1433              		.align	2
 1434              		.global	GetTIFWVversion
 1435              		.thumb
 1436              		.thumb_func
 1437              		.type	GetTIFWVversion, %function
 1438              	GetTIFWVversion:
 1439              	.LFB86:
 611:communication.c **** 
 612:communication.c **** enum I2C_Status GetTIFWVversion(uint8* fwVersion){
 1440              		.loc 1 612 0
 1441              		.cfi_startproc
 1442              		@ args = 0, pretend = 0, frame = 0
 1443              		@ frame_needed = 0, uses_anonymous_args = 0
 1444              	.LVL199:
 1445 0000 10B5     		push	{r4, lr}
 1446              		.cfi_def_cfa_offset 8
 1447              		.cfi_offset 4, -8
 1448              		.cfi_offset 14, -4
 1449 0002 0446     		mov	r4, r0
 613:communication.c ****     Timer_1_WriteCounter(TimerCounter);
 1450              		.loc 1 613 0
 1451 0004 2548     		ldr	r0, .L103
 1452              	.LVL200:
 1453 0006 FFF7FEFF 		bl	Timer_1_WriteCounter
 1454              	.LVL201:
 614:communication.c ****     CyDelayUs(10);
 1455              		.loc 1 614 0
 1456 000a 0A20     		movs	r0, #10
 1457 000c FFF7FEFF 		bl	CyDelayUs
 1458              	.LVL202:
 615:communication.c ****     Timer_1_Start();  
 1459              		.loc 1 615 0
 1460 0010 FFF7FEFF 		bl	Timer_1_Start
 1461              	.LVL203:
 616:communication.c ****     I2CBufWrite[0]=kGetTIFWVersion;
 1462              		.loc 1 616 0
 1463 0014 2249     		ldr	r1, .L103+4
 1464 0016 0823     		movs	r3, #8
 1465 0018 0B70     		strb	r3, [r1]
 617:communication.c ****     I2CBufWrite[1]=1; //don't care
 1466              		.loc 1 617 0
 1467 001a 0123     		movs	r3, #1
 1468 001c 4B70     		strb	r3, [r1, #1]
 618:communication.c ****     uint8 I2C_Status = I2C_MasterWriteBuf(TI_MicroAddress, (uint8 *)I2CBufWrite, 2, I2C_MODE_COMPLE
ARM GAS  C:\Users\Dell\AppData\Local\Temp\ccpe0Dqd.s 			page 38


 1469              		.loc 1 618 0
 1470 001e 0023     		movs	r3, #0
 1471 0020 0222     		movs	r2, #2
 1472 0022 4820     		movs	r0, #72
 1473 0024 FFF7FEFF 		bl	I2C_MasterWriteBuf
 1474              	.LVL204:
 1475              	.L96:
 619:communication.c ****     while(I2C_MasterStatus() & I2C_MSTAT_XFER_INP); // Wait for the data transfer to complete   
 1476              		.loc 1 619 0 discriminator 1
 1477 0028 FFF7FEFF 		bl	I2C_MasterStatus
 1478              	.LVL205:
 1479 002c 10F0040F 		tst	r0, #4
 1480 0030 FAD1     		bne	.L96
 620:communication.c ****     if((I2C_MasterStatus() & I2C_MSTAT_ERR_XFER)){
 1481              		.loc 1 620 0
 1482 0032 FFF7FEFF 		bl	I2C_MasterStatus
 1483              	.LVL206:
 1484 0036 10F0800F 		tst	r0, #128
 1485 003a 07D0     		beq	.L97
 621:communication.c ****         UART_PutString("I2C communication Failed ");
 1486              		.loc 1 621 0
 1487 003c 1948     		ldr	r0, .L103+8
 1488 003e FFF7FEFF 		bl	UART_PutString
 1489              	.LVL207:
 622:communication.c ****         UART_PutString("\n\r\n\r");         
 1490              		.loc 1 622 0
 1491 0042 1948     		ldr	r0, .L103+12
 1492 0044 FFF7FEFF 		bl	UART_PutString
 1493              	.LVL208:
 623:communication.c ****         return (enum I2C_Status)kFailed; //TBD send msg to tablet
 1494              		.loc 1 623 0
 1495 0048 0120     		movs	r0, #1
 1496 004a 10BD     		pop	{r4, pc}
 1497              	.LVL209:
 1498              	.L97:
 624:communication.c ****     }
 625:communication.c ****     I2C_Status = I2C_MasterReadBuf(TI_MicroAddress, (uint8 *)I2CBufRead, 2, I2C_MODE_COMPLETE_XFER)
 1499              		.loc 1 625 0
 1500 004c 0023     		movs	r3, #0
 1501 004e 0222     		movs	r2, #2
 1502 0050 1649     		ldr	r1, .L103+16
 1503 0052 4820     		movs	r0, #72
 1504 0054 FFF7FEFF 		bl	I2C_MasterReadBuf
 1505              	.LVL210:
 1506              	.L99:
 626:communication.c ****     while(I2C_MasterStatus() & I2C_MSTAT_XFER_INP); // Wait for the data transfer to complete  
 1507              		.loc 1 626 0 discriminator 1
 1508 0058 FFF7FEFF 		bl	I2C_MasterStatus
 1509              	.LVL211:
 1510 005c 10F0040F 		tst	r0, #4
 1511 0060 FAD1     		bne	.L99
 627:communication.c ****     if(0u != (I2C_MasterStatus() & I2C_MSTAT_RD_CMPLT)){//Wait for I2C master to complete to read  
 1512              		.loc 1 627 0
 1513 0062 FFF7FEFF 		bl	I2C_MasterStatus
 1514              	.LVL212:
 1515 0066 10F0010F 		tst	r0, #1
 1516 006a 12D0     		beq	.L100
ARM GAS  C:\Users\Dell\AppData\Local\Temp\ccpe0Dqd.s 			page 39


 628:communication.c ****         if(I2CBufRead[0]!=kGetTIFWVersion){ 
 1517              		.loc 1 628 0
 1518 006c 0F4B     		ldr	r3, .L103+16
 1519 006e 1B78     		ldrb	r3, [r3]	@ zero_extendqisi2
 1520 0070 082B     		cmp	r3, #8
 1521 0072 0BD0     		beq	.L101
 629:communication.c ****             UART_PutString("\n\r\n\r"); 
 1522              		.loc 1 629 0
 1523 0074 0C4C     		ldr	r4, .L103+12
 1524              	.LVL213:
 1525 0076 2046     		mov	r0, r4
 1526 0078 FFF7FEFF 		bl	UART_PutString
 1527              	.LVL214:
 630:communication.c ****             UART_PutString("error while GetTIFWVversion");
 1528              		.loc 1 630 0
 1529 007c 0C48     		ldr	r0, .L103+20
 1530 007e FFF7FEFF 		bl	UART_PutString
 1531              	.LVL215:
 631:communication.c ****             UART_PutString("\n\r\n\r"); 
 1532              		.loc 1 631 0
 1533 0082 2046     		mov	r0, r4
 1534 0084 FFF7FEFF 		bl	UART_PutString
 1535              	.LVL216:
 632:communication.c ****            return (enum I2C_Status)kFailed; //TBD send msg to tablet
 1536              		.loc 1 632 0
 1537 0088 0120     		movs	r0, #1
 1538 008a 10BD     		pop	{r4, pc}
 1539              	.LVL217:
 1540              	.L101:
 633:communication.c ****         }
 634:communication.c ****     *fwVersion= I2CBufRead[1];
 1541              		.loc 1 634 0
 1542 008c 074B     		ldr	r3, .L103+16
 1543 008e 5B78     		ldrb	r3, [r3, #1]	@ zero_extendqisi2
 1544 0090 2370     		strb	r3, [r4]
 1545              	.L100:
 635:communication.c ****     }
 636:communication.c ****     Timer_1_Stop();
 1546              		.loc 1 636 0
 1547 0092 FFF7FEFF 		bl	Timer_1_Stop
 1548              	.LVL218:
 637:communication.c ****     return (enum I2C_Status)kSuccess;   
 1549              		.loc 1 637 0
 1550 0096 0020     		movs	r0, #0
 638:communication.c **** }
 1551              		.loc 1 638 0
 1552 0098 10BD     		pop	{r4, pc}
 1553              	.LVL219:
 1554              	.L104:
 1555 009a 00BF     		.align	2
 1556              	.L103:
 1557 009c 00366E01 		.word	24000000
 1558 00a0 00000000 		.word	I2CBufWrite
 1559 00a4 28000000 		.word	.LC3
 1560 00a8 0C000000 		.word	.LC1
 1561 00ac 00000000 		.word	I2CBufRead
 1562 00b0 60000000 		.word	.LC5
ARM GAS  C:\Users\Dell\AppData\Local\Temp\ccpe0Dqd.s 			page 40


 1563              		.cfi_endproc
 1564              	.LFE86:
 1565              		.size	GetTIFWVversion, .-GetTIFWVversion
 1566              		.section	.text.SendLastOfCol,"ax",%progbits
 1567              		.align	2
 1568              		.global	SendLastOfCol
 1569              		.thumb
 1570              		.thumb_func
 1571              		.type	SendLastOfCol, %function
 1572              	SendLastOfCol:
 1573              	.LFB87:
 639:communication.c **** 
 640:communication.c **** enum I2C_Status SendLastOfCol(uint8 data){
 1574              		.loc 1 640 0
 1575              		.cfi_startproc
 1576              		@ args = 0, pretend = 0, frame = 0
 1577              		@ frame_needed = 0, uses_anonymous_args = 0
 1578              	.LVL220:
 1579 0000 10B5     		push	{r4, lr}
 1580              		.cfi_def_cfa_offset 8
 1581              		.cfi_offset 4, -8
 1582              		.cfi_offset 14, -4
 1583 0002 0446     		mov	r4, r0
 641:communication.c ****     Timer_1_WriteCounter(TimerCounter);
 1584              		.loc 1 641 0
 1585 0004 2448     		ldr	r0, .L113
 1586              	.LVL221:
 1587 0006 FFF7FEFF 		bl	Timer_1_WriteCounter
 1588              	.LVL222:
 642:communication.c ****     CyDelayUs(10);
 1589              		.loc 1 642 0
 1590 000a 0A20     		movs	r0, #10
 1591 000c FFF7FEFF 		bl	CyDelayUs
 1592              	.LVL223:
 643:communication.c ****     Timer_1_Start();  
 1593              		.loc 1 643 0
 1594 0010 FFF7FEFF 		bl	Timer_1_Start
 1595              	.LVL224:
 644:communication.c ****     I2CBufWrite[0] = kLastCol;
 1596              		.loc 1 644 0
 1597 0014 2149     		ldr	r1, .L113+4
 1598 0016 0923     		movs	r3, #9
 1599 0018 0B70     		strb	r3, [r1]
 645:communication.c ****     I2CBufWrite[1] = data;
 1600              		.loc 1 645 0
 1601 001a 4C70     		strb	r4, [r1, #1]
 646:communication.c ****     
 647:communication.c ****     uint8 I2C_Status = I2C_MasterWriteBuf(TI_MicroAddress, (uint8 *)I2CBufWrite, 2, I2C_MODE_COMPLE
 1602              		.loc 1 647 0
 1603 001c 0023     		movs	r3, #0
 1604 001e 0222     		movs	r2, #2
 1605 0020 4820     		movs	r0, #72
 1606 0022 FFF7FEFF 		bl	I2C_MasterWriteBuf
 1607              	.LVL225:
 1608              	.L106:
 648:communication.c ****     while(I2C_MasterStatus() & I2C_MSTAT_XFER_INP); // Wait for the data transfer to complete   
 1609              		.loc 1 648 0 discriminator 1
ARM GAS  C:\Users\Dell\AppData\Local\Temp\ccpe0Dqd.s 			page 41


 1610 0026 FFF7FEFF 		bl	I2C_MasterStatus
 1611              	.LVL226:
 1612 002a 10F0040F 		tst	r0, #4
 1613 002e FAD1     		bne	.L106
 649:communication.c ****     if((I2C_MasterStatus() & I2C_MSTAT_ERR_XFER)){
 1614              		.loc 1 649 0
 1615 0030 FFF7FEFF 		bl	I2C_MasterStatus
 1616              	.LVL227:
 1617 0034 10F0800F 		tst	r0, #128
 1618 0038 07D0     		beq	.L107
 650:communication.c ****         UART_PutString("I2C communication Failed ");
 1619              		.loc 1 650 0
 1620 003a 1948     		ldr	r0, .L113+8
 1621 003c FFF7FEFF 		bl	UART_PutString
 1622              	.LVL228:
 651:communication.c ****         UART_PutString("\n\r\n\r");         
 1623              		.loc 1 651 0
 1624 0040 1848     		ldr	r0, .L113+12
 1625 0042 FFF7FEFF 		bl	UART_PutString
 1626              	.LVL229:
 652:communication.c ****         return (enum I2C_Status)kFailed; //TBD send msg to tablet
 1627              		.loc 1 652 0
 1628 0046 0120     		movs	r0, #1
 1629 0048 10BD     		pop	{r4, pc}
 1630              	.L107:
 653:communication.c ****     }
 654:communication.c ****     I2C_Status = I2C_MasterReadBuf(TI_MicroAddress, (uint8 *)I2CBufRead, 2, I2C_MODE_COMPLETE_XFER)
 1631              		.loc 1 654 0
 1632 004a 0023     		movs	r3, #0
 1633 004c 0222     		movs	r2, #2
 1634 004e 1649     		ldr	r1, .L113+16
 1635 0050 4820     		movs	r0, #72
 1636 0052 FFF7FEFF 		bl	I2C_MasterReadBuf
 1637              	.LVL230:
 1638              	.L109:
 655:communication.c ****     while(I2C_MasterStatus() & I2C_MSTAT_XFER_INP); // Wait for the data transfer to complete  
 1639              		.loc 1 655 0 discriminator 1
 1640 0056 FFF7FEFF 		bl	I2C_MasterStatus
 1641              	.LVL231:
 1642 005a 10F0040F 		tst	r0, #4
 1643 005e FAD1     		bne	.L109
 656:communication.c ****     if(0u != (I2C_MasterStatus() & I2C_MSTAT_RD_CMPLT)){//Wait for I2C master to complete to read  
 1644              		.loc 1 656 0
 1645 0060 FFF7FEFF 		bl	I2C_MasterStatus
 1646              	.LVL232:
 1647 0064 10F0010F 		tst	r0, #1
 1648 0068 12D0     		beq	.L110
 657:communication.c ****         if(I2CBufRead[0]!=kLastCol|| I2CBufRead[1]!=kI2C_Success){ 
 1649              		.loc 1 657 0
 1650 006a 0F4B     		ldr	r3, .L113+16
 1651 006c 1B78     		ldrb	r3, [r3]	@ zero_extendqisi2
 1652 006e 092B     		cmp	r3, #9
 1653 0070 02D1     		bne	.L111
 1654              		.loc 1 657 0 is_stmt 0 discriminator 1
 1655 0072 0D4B     		ldr	r3, .L113+16
 1656 0074 5B78     		ldrb	r3, [r3, #1]	@ zero_extendqisi2
 1657 0076 5BB1     		cbz	r3, .L110
ARM GAS  C:\Users\Dell\AppData\Local\Temp\ccpe0Dqd.s 			page 42


 1658              	.L111:
 658:communication.c ****             UART_PutString("\n\r\n\r"); 
 1659              		.loc 1 658 0 is_stmt 1
 1660 0078 0A4C     		ldr	r4, .L113+12
 1661 007a 2046     		mov	r0, r4
 1662 007c FFF7FEFF 		bl	UART_PutString
 1663              	.LVL233:
 659:communication.c ****             UART_PutString("SendNumOfCol ");
 1664              		.loc 1 659 0
 1665 0080 0A48     		ldr	r0, .L113+20
 1666 0082 FFF7FEFF 		bl	UART_PutString
 1667              	.LVL234:
 660:communication.c ****             UART_PutString("\n\r\n\r"); 
 1668              		.loc 1 660 0
 1669 0086 2046     		mov	r0, r4
 1670 0088 FFF7FEFF 		bl	UART_PutString
 1671              	.LVL235:
 661:communication.c ****            return (enum I2C_Status)kFailed; //TBD send msg to tablet
 1672              		.loc 1 661 0
 1673 008c 0120     		movs	r0, #1
 1674 008e 10BD     		pop	{r4, pc}
 1675              	.L110:
 662:communication.c ****         }    
 663:communication.c ****     }
 664:communication.c ****     Timer_1_Stop();
 1676              		.loc 1 664 0
 1677 0090 FFF7FEFF 		bl	Timer_1_Stop
 1678              	.LVL236:
 665:communication.c ****     return (enum I2C_Status)kSuccess; 
 1679              		.loc 1 665 0
 1680 0094 0020     		movs	r0, #0
 666:communication.c **** }
 1681              		.loc 1 666 0
 1682 0096 10BD     		pop	{r4, pc}
 1683              	.L114:
 1684              		.align	2
 1685              	.L113:
 1686 0098 00366E01 		.word	24000000
 1687 009c 00000000 		.word	I2CBufWrite
 1688 00a0 28000000 		.word	.LC3
 1689 00a4 0C000000 		.word	.LC1
 1690 00a8 00000000 		.word	I2CBufRead
 1691 00ac 7C000000 		.word	.LC6
 1692              		.cfi_endproc
 1693              	.LFE87:
 1694              		.size	SendLastOfCol, .-SendLastOfCol
 1695              		.section	.text.WriteInt32,"ax",%progbits
 1696              		.align	2
 1697              		.global	WriteInt32
 1698              		.thumb
 1699              		.thumb_func
 1700              		.type	WriteInt32, %function
 1701              	WriteInt32:
 1702              	.LFB89:
 667:communication.c **** 
 668:communication.c **** ////////////////////////////////////////////////////////////////////////////
 669:communication.c **** 
ARM GAS  C:\Users\Dell\AppData\Local\Temp\ccpe0Dqd.s 			page 43


 670:communication.c **** uint8_t WriteFloat(float from, uint8_t* to){
 671:communication.c **** 	uint32_t temp;
 672:communication.c **** 	memcpy(&temp,&from,sizeof(float));
 673:communication.c **** 	WriteInt32(temp,to);
 674:communication.c **** 	return sizeof(float);
 675:communication.c **** }
 676:communication.c **** uint8_t WriteInt32(uint32_t from, uint8_t* to){
 1703              		.loc 1 676 0
 1704              		.cfi_startproc
 1705              		@ args = 0, pretend = 0, frame = 8
 1706              		@ frame_needed = 0, uses_anonymous_args = 0
 1707              		@ link register save eliminated.
 1708              	.LVL237:
 1709 0000 82B0     		sub	sp, sp, #8
 1710              		.cfi_def_cfa_offset 8
 1711 0002 02AB     		add	r3, sp, #8
 1712 0004 43F8040D 		str	r0, [r3, #-4]!
 677:communication.c ****      //   uint32_t temp = from;
 678:communication.c ****         memcpy(to,&from,sizeof(uint32_t));
 1713              		.loc 1 678 0
 1714 0008 1868     		ldr	r0, [r3]	@ unaligned
 1715              	.LVL238:
 1716 000a 0860     		str	r0, [r1]	@ unaligned
 1717              	.LVL239:
 679:communication.c ****         return sizeof(uint32_t);
 680:communication.c **** }
 1718              		.loc 1 680 0
 1719 000c 0420     		movs	r0, #4
 1720 000e 02B0     		add	sp, sp, #8
 1721              		.cfi_def_cfa_offset 0
 1722              		@ sp needed
 1723 0010 7047     		bx	lr
 1724              		.cfi_endproc
 1725              	.LFE89:
 1726              		.size	WriteInt32, .-WriteInt32
 1727 0012 00BF     		.section	.text.WriteFloat,"ax",%progbits
 1728              		.align	2
 1729              		.global	WriteFloat
 1730              		.thumb
 1731              		.thumb_func
 1732              		.type	WriteFloat, %function
 1733              	WriteFloat:
 1734              	.LFB88:
 670:communication.c **** 	uint32_t temp;
 1735              		.loc 1 670 0
 1736              		.cfi_startproc
 1737              		@ args = 0, pretend = 0, frame = 0
 1738              		@ frame_needed = 0, uses_anonymous_args = 0
 1739              	.LVL240:
 1740 0000 08B5     		push	{r3, lr}
 1741              		.cfi_def_cfa_offset 8
 1742              		.cfi_offset 3, -8
 1743              		.cfi_offset 14, -4
 1744              	.LVL241:
 673:communication.c **** 	return sizeof(float);
 1745              		.loc 1 673 0
 1746 0002 FFF7FEFF 		bl	WriteInt32
ARM GAS  C:\Users\Dell\AppData\Local\Temp\ccpe0Dqd.s 			page 44


 1747              	.LVL242:
 675:communication.c **** uint8_t WriteInt32(uint32_t from, uint8_t* to){
 1748              		.loc 1 675 0
 1749 0006 0420     		movs	r0, #4
 1750 0008 08BD     		pop	{r3, pc}
 1751              		.cfi_endproc
 1752              	.LFE88:
 1753              		.size	WriteFloat, .-WriteFloat
 1754 000a 00BF     		.section	.text.WriteInt8,"ax",%progbits
 1755              		.align	2
 1756              		.global	WriteInt8
 1757              		.thumb
 1758              		.thumb_func
 1759              		.type	WriteInt8, %function
 1760              	WriteInt8:
 1761              	.LFB90:
 681:communication.c **** uint8_t WriteInt8(uint8_t from, uint8_t* to){
 1762              		.loc 1 681 0
 1763              		.cfi_startproc
 1764              		@ args = 0, pretend = 0, frame = 0
 1765              		@ frame_needed = 0, uses_anonymous_args = 0
 1766              		@ link register save eliminated.
 1767              	.LVL243:
 682:communication.c **** 	memcpy(to,&from,sizeof(uint8_t));
 1768              		.loc 1 682 0
 1769 0000 0870     		strb	r0, [r1]
 683:communication.c **** 	return sizeof(uint8_t);
 684:communication.c **** }
 1770              		.loc 1 684 0
 1771 0002 0120     		movs	r0, #1
 1772              	.LVL244:
 1773 0004 7047     		bx	lr
 1774              		.cfi_endproc
 1775              	.LFE90:
 1776              		.size	WriteInt8, .-WriteInt8
 1777 0006 00BF     		.section	.text.WriteInt16,"ax",%progbits
 1778              		.align	2
 1779              		.global	WriteInt16
 1780              		.thumb
 1781              		.thumb_func
 1782              		.type	WriteInt16, %function
 1783              	WriteInt16:
 1784              	.LFB91:
 685:communication.c **** uint8_t WriteInt16(uint16_t from, uint8_t* to){
 1785              		.loc 1 685 0
 1786              		.cfi_startproc
 1787              		@ args = 0, pretend = 0, frame = 8
 1788              		@ frame_needed = 0, uses_anonymous_args = 0
 1789              		@ link register save eliminated.
 1790              	.LVL245:
 1791 0000 82B0     		sub	sp, sp, #8
 1792              		.cfi_def_cfa_offset 8
 686:communication.c **** 	uint16_t temp = from;
 1793              		.loc 1 686 0
 1794 0002 02AB     		add	r3, sp, #8
 1795 0004 23F8020D 		strh	r0, [r3, #-2]!	@ movhi
 687:communication.c **** 	memcpy(to,&temp,sizeof(uint16_t));
ARM GAS  C:\Users\Dell\AppData\Local\Temp\ccpe0Dqd.s 			page 45


 1796              		.loc 1 687 0
 1797 0008 1B88     		ldrh	r3, [r3]	@ unaligned
 1798 000a 0B80     		strh	r3, [r1]	@ unaligned
 688:communication.c **** 	return sizeof(uint16_t);
 689:communication.c **** }
 1799              		.loc 1 689 0
 1800 000c 0220     		movs	r0, #2
 1801              	.LVL246:
 1802 000e 02B0     		add	sp, sp, #8
 1803              		.cfi_def_cfa_offset 0
 1804              		@ sp needed
 1805 0010 7047     		bx	lr
 1806              		.cfi_endproc
 1807              	.LFE91:
 1808              		.size	WriteInt16, .-WriteInt16
 1809 0012 00BF     		.section	.text.ReadFloat,"ax",%progbits
 1810              		.align	2
 1811              		.global	ReadFloat
 1812              		.thumb
 1813              		.thumb_func
 1814              		.type	ReadFloat, %function
 1815              	ReadFloat:
 1816              	.LFB92:
 690:communication.c **** int ReadFloat(void* from, float* to){
 1817              		.loc 1 690 0
 1818              		.cfi_startproc
 1819              		@ args = 0, pretend = 0, frame = 0
 1820              		@ frame_needed = 0, uses_anonymous_args = 0
 1821              		@ link register save eliminated.
 1822              	.LVL247:
 691:communication.c **** 	memcpy(to,from,sizeof(float));
 1823              		.loc 1 691 0
 1824 0000 0368     		ldr	r3, [r0]	@ unaligned
 1825 0002 0B60     		str	r3, [r1]	@ unaligned
 692:communication.c **** 	return sizeof(float);
 693:communication.c **** }
 1826              		.loc 1 693 0
 1827 0004 0420     		movs	r0, #4
 1828              	.LVL248:
 1829 0006 7047     		bx	lr
 1830              		.cfi_endproc
 1831              	.LFE92:
 1832              		.size	ReadFloat, .-ReadFloat
 1833              		.section	.text.GetPowerConfigFromUSB,"ax",%progbits
 1834              		.align	2
 1835              		.global	GetPowerConfigFromUSB
 1836              		.thumb
 1837              		.thumb_func
 1838              		.type	GetPowerConfigFromUSB, %function
 1839              	GetPowerConfigFromUSB:
 1840              	.LFB80:
 510:communication.c ****     uint16 _nextParamPtr = 9;
 1841              		.loc 1 510 0
 1842              		.cfi_startproc
 1843              		@ args = 0, pretend = 0, frame = 0
 1844              		@ frame_needed = 0, uses_anonymous_args = 0
 1845              	.LVL249:
ARM GAS  C:\Users\Dell\AppData\Local\Temp\ccpe0Dqd.s 			page 46


 1846 0000 70B5     		push	{r4, r5, r6, lr}
 1847              		.cfi_def_cfa_offset 16
 1848              		.cfi_offset 4, -16
 1849              		.cfi_offset 5, -12
 1850              		.cfi_offset 6, -8
 1851              		.cfi_offset 14, -4
 1852 0002 0646     		mov	r6, r0
 1853              	.LVL250:
 512:communication.c ****     _nextParamPtr +=ReadFloat(&bufferIN[_nextParamPtr],&powerConfig->batteryImageDelay);
 1854              		.loc 1 512 0
 1855 0004 094D     		ldr	r5, .L125
 1856 0006 0146     		mov	r1, r0
 1857 0008 2846     		mov	r0, r5
 1858              	.LVL251:
 1859 000a FFF7FEFF 		bl	ReadFloat
 1860              	.LVL252:
 1861 000e 0930     		adds	r0, r0, #9
 1862 0010 84B2     		uxth	r4, r0
 1863              	.LVL253:
 513:communication.c ****     _nextParamPtr +=ReadFloat(&bufferIN[_nextParamPtr],&powerConfig->codeRedImageDelay);    
 1864              		.loc 1 513 0
 1865 0012 093D     		subs	r5, r5, #9
 1866 0014 311D     		adds	r1, r6, #4
 1867 0016 2819     		adds	r0, r5, r4
 1868 0018 FFF7FEFF 		bl	ReadFloat
 1869              	.LVL254:
 1870 001c 2044     		add	r0, r0, r4
 1871 001e 80B2     		uxth	r0, r0
 1872              	.LVL255:
 514:communication.c **** }
 1873              		.loc 1 514 0
 1874 0020 06F10801 		add	r1, r6, #8
 1875 0024 2844     		add	r0, r0, r5
 1876              	.LVL256:
 1877 0026 FFF7FEFF 		bl	ReadFloat
 1878              	.LVL257:
 1879 002a 70BD     		pop	{r4, r5, r6, pc}
 1880              	.LVL258:
 1881              	.L126:
 1882              		.align	2
 1883              	.L125:
 1884 002c 09000000 		.word	bufferIN+9
 1885              		.cfi_endproc
 1886              	.LFE80:
 1887              		.size	GetPowerConfigFromUSB, .-GetPowerConfigFromUSB
 1888              		.section	.text.ReadInt32,"ax",%progbits
 1889              		.align	2
 1890              		.global	ReadInt32
 1891              		.thumb
 1892              		.thumb_func
 1893              		.type	ReadInt32, %function
 1894              	ReadInt32:
 1895              	.LFB93:
 694:communication.c **** int ReadInt32(const uint8_t* from, unsigned long* to){
 1896              		.loc 1 694 0
 1897              		.cfi_startproc
 1898              		@ args = 0, pretend = 0, frame = 0
ARM GAS  C:\Users\Dell\AppData\Local\Temp\ccpe0Dqd.s 			page 47


 1899              		@ frame_needed = 0, uses_anonymous_args = 0
 1900              		@ link register save eliminated.
 1901              	.LVL259:
 695:communication.c ****     memcpy(to, from, sizeof(uint32_t));        
 1902              		.loc 1 695 0
 1903 0000 0368     		ldr	r3, [r0]	@ unaligned
 1904 0002 0B60     		str	r3, [r1]	@ unaligned
 696:communication.c ****     return(sizeof(uint32_t));
 697:communication.c **** }
 1905              		.loc 1 697 0
 1906 0004 0420     		movs	r0, #4
 1907              	.LVL260:
 1908 0006 7047     		bx	lr
 1909              		.cfi_endproc
 1910              	.LFE93:
 1911              		.size	ReadInt32, .-ReadInt32
 1912              		.section	.text.ReadInt16,"ax",%progbits
 1913              		.align	2
 1914              		.global	ReadInt16
 1915              		.thumb
 1916              		.thumb_func
 1917              		.type	ReadInt16, %function
 1918              	ReadInt16:
 1919              	.LFB94:
 698:communication.c **** int ReadInt16(const uint8_t* from, uint16_t* to){
 1920              		.loc 1 698 0
 1921              		.cfi_startproc
 1922              		@ args = 0, pretend = 0, frame = 0
 1923              		@ frame_needed = 0, uses_anonymous_args = 0
 1924              		@ link register save eliminated.
 1925              	.LVL261:
 699:communication.c **** 	memcpy(to, from, sizeof(uint16_t));
 1926              		.loc 1 699 0
 1927 0000 0388     		ldrh	r3, [r0]	@ unaligned
 1928 0002 0B80     		strh	r3, [r1]	@ unaligned
 700:communication.c **** 	return(sizeof(uint16_t));
 701:communication.c **** }
 1929              		.loc 1 701 0
 1930 0004 0220     		movs	r0, #2
 1931              	.LVL262:
 1932 0006 7047     		bx	lr
 1933              		.cfi_endproc
 1934              	.LFE94:
 1935              		.size	ReadInt16, .-ReadInt16
 1936              		.section	.text.ReadInt8,"ax",%progbits
 1937              		.align	2
 1938              		.global	ReadInt8
 1939              		.thumb
 1940              		.thumb_func
 1941              		.type	ReadInt8, %function
 1942              	ReadInt8:
 1943              	.LFB95:
 702:communication.c **** int ReadInt8(const uint8_t* from, uint8_t* to){
 1944              		.loc 1 702 0
 1945              		.cfi_startproc
 1946              		@ args = 0, pretend = 0, frame = 0
 1947              		@ frame_needed = 0, uses_anonymous_args = 0
ARM GAS  C:\Users\Dell\AppData\Local\Temp\ccpe0Dqd.s 			page 48


 1948              		@ link register save eliminated.
 1949              	.LVL263:
 703:communication.c **** 	memcpy(to,from,sizeof(uint8_t));
 1950              		.loc 1 703 0
 1951 0000 0378     		ldrb	r3, [r0]	@ zero_extendqisi2
 1952 0002 0B70     		strb	r3, [r1]
 704:communication.c **** 	return(sizeof(uint8_t));
 705:communication.c **** }
 1953              		.loc 1 705 0
 1954 0004 0120     		movs	r0, #1
 1955              	.LVL264:
 1956 0006 7047     		bx	lr
 1957              		.cfi_endproc
 1958              	.LFE95:
 1959              		.size	ReadInt8, .-ReadInt8
 1960              		.section	.text.GetPowerStatusFromUSB,"ax",%progbits
 1961              		.align	2
 1962              		.global	GetPowerStatusFromUSB
 1963              		.thumb
 1964              		.thumb_func
 1965              		.type	GetPowerStatusFromUSB, %function
 1966              	GetPowerStatusFromUSB:
 1967              	.LFB81:
 516:communication.c ****     uint8_t state;
 1968              		.loc 1 516 0
 1969              		.cfi_startproc
 1970              		@ args = 0, pretend = 0, frame = 8
 1971              		@ frame_needed = 0, uses_anonymous_args = 0
 1972 0000 00B5     		push	{lr}
 1973              		.cfi_def_cfa_offset 4
 1974              		.cfi_offset 14, -4
 1975 0002 83B0     		sub	sp, sp, #12
 1976              		.cfi_def_cfa_offset 16
 1977              	.LVL265:
 519:communication.c ****     return state;
 1978              		.loc 1 519 0
 1979 0004 0DF10701 		add	r1, sp, #7
 1980 0008 0348     		ldr	r0, .L132
 1981 000a FFF7FEFF 		bl	ReadInt8
 1982              	.LVL266:
 521:communication.c **** void GetMatParamFromUSB(struct MAT_parameters* MAT_Parameters){
 1983              		.loc 1 521 0
 1984 000e 9DF90700 		ldrsb	r0, [sp, #7]
 1985 0012 03B0     		add	sp, sp, #12
 1986              		.cfi_def_cfa_offset 4
 1987              		@ sp needed
 1988 0014 5DF804FB 		ldr	pc, [sp], #4
 1989              	.L133:
 1990              		.align	2
 1991              	.L132:
 1992 0018 09000000 		.word	bufferIN+9
 1993              		.cfi_endproc
 1994              	.LFE81:
 1995              		.size	GetPowerStatusFromUSB, .-GetPowerStatusFromUSB
 1996              		.section	.text.ClearBufOut,"ax",%progbits
 1997              		.align	2
 1998              		.global	ClearBufOut
ARM GAS  C:\Users\Dell\AppData\Local\Temp\ccpe0Dqd.s 			page 49


 1999              		.thumb
 2000              		.thumb_func
 2001              		.type	ClearBufOut, %function
 2002              	ClearBufOut:
 2003              	.LFB96:
 706:communication.c **** 
 707:communication.c **** 
 708:communication.c **** 
 709:communication.c **** void ClearBufOut(){
 2004              		.loc 1 709 0
 2005              		.cfi_startproc
 2006              		@ args = 0, pretend = 0, frame = 0
 2007              		@ frame_needed = 0, uses_anonymous_args = 0
 2008 0000 08B5     		push	{r3, lr}
 2009              		.cfi_def_cfa_offset 8
 2010              		.cfi_offset 3, -8
 2011              		.cfi_offset 14, -4
 2012              	.L135:
 710:communication.c ****     while (0u == USBUART_CDCIsReady()){} 
 2013              		.loc 1 710 0 discriminator 1
 2014 0002 FFF7FEFF 		bl	USBUART_CDCIsReady
 2015              	.LVL267:
 2016 0006 0028     		cmp	r0, #0
 2017 0008 FBD0     		beq	.L135
 711:communication.c ****     //memset (bufferOUT,0,USBUART_BUFFER_SIZE);  
 712:communication.c ****     //CyDelay(10);
 713:communication.c ****    // USBUART_PutData(ZeroBuf,USBUART_BUFFER_SIZE);
 714:communication.c ****    USBUART_PutData(ZeroBuf,10);
 2018              		.loc 1 714 0
 2019 000a 0A21     		movs	r1, #10
 2020 000c 0348     		ldr	r0, .L138
 2021 000e FFF7FEFF 		bl	USBUART_PutData
 2022              	.LVL268:
 2023              	.L136:
 715:communication.c ****     while (0u == USBUART_CDCIsReady()){} 
 2024              		.loc 1 715 0 discriminator 1
 2025 0012 FFF7FEFF 		bl	USBUART_CDCIsReady
 2026              	.LVL269:
 2027 0016 0028     		cmp	r0, #0
 2028 0018 FBD0     		beq	.L136
 716:communication.c ****    // CyDelay(10);
 717:communication.c **** }
 2029              		.loc 1 717 0
 2030 001a 08BD     		pop	{r3, pc}
 2031              	.L139:
 2032              		.align	2
 2033              	.L138:
 2034 001c 00000000 		.word	.LANCHOR0
 2035              		.cfi_endproc
 2036              	.LFE96:
 2037              		.size	ClearBufOut, .-ClearBufOut
 2038              		.section	.text.SendFWVersion,"ax",%progbits
 2039              		.align	2
 2040              		.global	SendFWVersion
 2041              		.thumb
 2042              		.thumb_func
 2043              		.type	SendFWVersion, %function
ARM GAS  C:\Users\Dell\AppData\Local\Temp\ccpe0Dqd.s 			page 50


 2044              	SendFWVersion:
 2045              	.LFB66:
  66:communication.c ****    // uint8 size=3; //sizeof (FWversion)
 2046              		.loc 1 66 0
 2047              		.cfi_startproc
 2048              		@ args = 0, pretend = 0, frame = 0
 2049              		@ frame_needed = 0, uses_anonymous_args = 0
 2050              	.LVL270:
 2051 0000 38B5     		push	{r3, r4, r5, lr}
 2052              		.cfi_def_cfa_offset 16
 2053              		.cfi_offset 3, -16
 2054              		.cfi_offset 4, -12
 2055              		.cfi_offset 5, -8
 2056              		.cfi_offset 14, -4
 2057 0002 0C46     		mov	r4, r1
  68:communication.c ****     memcpy(bufferOUT,FWversion,size);
 2058              		.loc 1 68 0
 2059 0004 0322     		movs	r2, #3
 2060 0006 204B     		ldr	r3, .L145
 2061 0008 1A80     		strh	r2, [r3]	@ movhi
  69:communication.c ****     CyDelay(1000);
 2062              		.loc 1 69 0
 2063 000a 204B     		ldr	r3, .L145+4
 2064 000c 0188     		ldrh	r1, [r0]	@ unaligned
 2065              	.LVL271:
 2066 000e 8278     		ldrb	r2, [r0, #2]	@ zero_extendqisi2
 2067 0010 1980     		strh	r1, [r3]	@ unaligned
 2068 0012 9A70     		strb	r2, [r3, #2]
  70:communication.c ****     for(uint8 i=0; i<size; i++){
 2069              		.loc 1 70 0
 2070 0014 4FF47A70 		mov	r0, #1000
 2071              	.LVL272:
 2072 0018 FFF7FEFF 		bl	CyDelay
 2073              	.LVL273:
 2074              	.LBB4:
  71:communication.c ****       bufferOUT[basicMsgSize + size -1 -i] =  bufferOUT[size-1-i];
 2075              		.loc 1 71 0
 2076 001c 0022     		movs	r2, #0
 2077 001e 08E0     		b	.L141
 2078              	.LVL274:
 2079              	.L142:
  72:communication.c ****     }
 2080              		.loc 1 72 0 discriminator 3
 2081 0020 991A     		subs	r1, r3, r2
 2082 0022 0931     		adds	r1, r1, #9
 2083 0024 013B     		subs	r3, r3, #1
 2084 0026 9B1A     		subs	r3, r3, r2
 2085 0028 1848     		ldr	r0, .L145+4
 2086 002a C35C     		ldrb	r3, [r0, r3]	@ zero_extendqisi2
 2087 002c 4354     		strb	r3, [r0, r1]
  71:communication.c ****       bufferOUT[basicMsgSize + size -1 -i] =  bufferOUT[size-1-i];
 2088              		.loc 1 71 0 discriminator 3
 2089 002e 0132     		adds	r2, r2, #1
 2090              	.LVL275:
 2091 0030 D2B2     		uxtb	r2, r2
 2092              	.LVL276:
 2093              	.L141:
ARM GAS  C:\Users\Dell\AppData\Local\Temp\ccpe0Dqd.s 			page 51


  71:communication.c ****       bufferOUT[basicMsgSize + size -1 -i] =  bufferOUT[size-1-i];
 2094              		.loc 1 71 0 is_stmt 0 discriminator 1
 2095 0032 91B2     		uxth	r1, r2
 2096 0034 144B     		ldr	r3, .L145
 2097 0036 1B88     		ldrh	r3, [r3]
 2098 0038 9942     		cmp	r1, r3
 2099 003a F1D3     		bcc	.L142
 2100              	.LBE4:
  74:communication.c ****     uint16 msg_length= basicMsgSize+size;
 2101              		.loc 1 74 0 is_stmt 1
 2102 003c FFF7FEFF 		bl	BuildHeader
 2103              	.LVL277:
  75:communication.c ****     bufferOUT[4]=FrameNum(kResponse);  //msg serial number
 2104              		.loc 1 75 0
 2105 0040 114B     		ldr	r3, .L145
 2106 0042 1D88     		ldrh	r5, [r3]
 2107 0044 0A35     		adds	r5, r5, #10
 2108 0046 ADB2     		uxth	r5, r5
 2109              	.LVL278:
  76:communication.c ****     bufferOUT[5]=msg_length&0x00ff; //msg length LSB
 2110              		.loc 1 76 0
 2111 0048 0220     		movs	r0, #2
 2112 004a FFF7FEFF 		bl	FrameNum
 2113              	.LVL279:
 2114 004e 0F4B     		ldr	r3, .L145+4
 2115 0050 1871     		strb	r0, [r3, #4]
  77:communication.c ****     bufferOUT[6]=msg_length>>8; //msg length MSB 
 2116              		.loc 1 77 0
 2117 0052 5D71     		strb	r5, [r3, #5]
  78:communication.c ****     bufferOUT[7]=kResponse; //category
 2118              		.loc 1 78 0
 2119 0054 2A0A     		lsrs	r2, r5, #8
 2120 0056 9A71     		strb	r2, [r3, #6]
  79:communication.c ****     bufferOUT[8]=subtype;    
 2121              		.loc 1 79 0
 2122 0058 0222     		movs	r2, #2
 2123 005a DA71     		strb	r2, [r3, #7]
  80:communication.c ****     bufferOUT[9]=status;
 2124              		.loc 1 80 0
 2125 005c 0C4A     		ldr	r2, .L145+8
 2126 005e 1278     		ldrb	r2, [r2]	@ zero_extendqisi2
 2127 0060 1A72     		strb	r2, [r3, #8]
  81:communication.c ****     /* Wait until component is ready to send data to host. */
 2128              		.loc 1 81 0
 2129 0062 5C72     		strb	r4, [r3, #9]
 2130              	.L143:
  83:communication.c ****     USBUART_PutData(bufferOUT,msg_length);    
 2131              		.loc 1 83 0 discriminator 1
 2132 0064 FFF7FEFF 		bl	USBUART_CDCIsReady
 2133              	.LVL280:
 2134 0068 0028     		cmp	r0, #0
 2135 006a FBD0     		beq	.L143
  84:communication.c ****     ClearBufOut();
 2136              		.loc 1 84 0
 2137 006c 2946     		mov	r1, r5
 2138 006e 0748     		ldr	r0, .L145+4
 2139 0070 FFF7FEFF 		bl	USBUART_PutData
ARM GAS  C:\Users\Dell\AppData\Local\Temp\ccpe0Dqd.s 			page 52


 2140              	.LVL281:
  85:communication.c ****     UART_PutString("Send FW Version");
 2141              		.loc 1 85 0
 2142 0074 FFF7FEFF 		bl	ClearBufOut
 2143              	.LVL282:
  86:communication.c ****     UART_PutString("\n\r\n\r");
 2144              		.loc 1 86 0
 2145 0078 0648     		ldr	r0, .L145+12
 2146 007a FFF7FEFF 		bl	UART_PutString
 2147              	.LVL283:
  87:communication.c **** }
 2148              		.loc 1 87 0
 2149 007e 0648     		ldr	r0, .L145+16
 2150 0080 FFF7FEFF 		bl	UART_PutString
 2151              	.LVL284:
 2152 0084 38BD     		pop	{r3, r4, r5, pc}
 2153              	.LVL285:
 2154              	.L146:
 2155 0086 00BF     		.align	2
 2156              	.L145:
 2157 0088 00000000 		.word	size
 2158 008c 00000000 		.word	bufferOUT
 2159 0090 00000000 		.word	subtype
 2160 0094 8C000000 		.word	.LC7
 2161 0098 0C000000 		.word	.LC1
 2162              		.cfi_endproc
 2163              	.LFE66:
 2164              		.size	SendFWVersion, .-SendFWVersion
 2165              		.section	.text.SendResponse,"ax",%progbits
 2166              		.align	2
 2167              		.global	SendResponse
 2168              		.thumb
 2169              		.thumb_func
 2170              		.type	SendResponse, %function
 2171              	SendResponse:
 2172              	.LFB67:
  90:communication.c ****     BuildHeader();
 2173              		.loc 1 90 0
 2174              		.cfi_startproc
 2175              		@ args = 0, pretend = 0, frame = 0
 2176              		@ frame_needed = 0, uses_anonymous_args = 0
 2177              	.LVL286:
 2178 0000 38B5     		push	{r3, r4, r5, lr}
 2179              		.cfi_def_cfa_offset 16
 2180              		.cfi_offset 3, -16
 2181              		.cfi_offset 4, -12
 2182              		.cfi_offset 5, -8
 2183              		.cfi_offset 14, -4
 2184 0002 0546     		mov	r5, r0
 2185 0004 0C46     		mov	r4, r1
  91:communication.c ****     bufferOUT[4]=FrameNum(kResponse);  //msg serial number
 2186              		.loc 1 91 0
 2187 0006 FFF7FEFF 		bl	BuildHeader
 2188              	.LVL287:
  92:communication.c ****     bufferOUT[5]=10u; //msg length LSB
 2189              		.loc 1 92 0
 2190 000a 0220     		movs	r0, #2
ARM GAS  C:\Users\Dell\AppData\Local\Temp\ccpe0Dqd.s 			page 53


 2191 000c FFF7FEFF 		bl	FrameNum
 2192              	.LVL288:
 2193 0010 0D4B     		ldr	r3, .L150
 2194 0012 1871     		strb	r0, [r3, #4]
  93:communication.c ****     bufferOUT[6]=0u; //msg length MSB 
 2195              		.loc 1 93 0
 2196 0014 0A22     		movs	r2, #10
 2197 0016 5A71     		strb	r2, [r3, #5]
  94:communication.c ****     bufferOUT[7]=kResponse; //category
 2198              		.loc 1 94 0
 2199 0018 0022     		movs	r2, #0
 2200 001a 9A71     		strb	r2, [r3, #6]
  95:communication.c ****     bufferOUT[8]= subtype;    
 2201              		.loc 1 95 0
 2202 001c 0222     		movs	r2, #2
 2203 001e DA71     		strb	r2, [r3, #7]
  96:communication.c ****     bufferOUT[9]=status;
 2204              		.loc 1 96 0
 2205 0020 1D72     		strb	r5, [r3, #8]
  97:communication.c **** 
 2206              		.loc 1 97 0
 2207 0022 5C72     		strb	r4, [r3, #9]
 2208              	.L148:
 100:communication.c ****     USBUART_PutData(bufferOUT,basicMsgSize);
 2209              		.loc 1 100 0 discriminator 1
 2210 0024 FFF7FEFF 		bl	USBUART_CDCIsReady
 2211              	.LVL289:
 2212 0028 0028     		cmp	r0, #0
 2213 002a FBD0     		beq	.L148
 101:communication.c ****     ClearBufOut();
 2214              		.loc 1 101 0
 2215 002c 0A21     		movs	r1, #10
 2216 002e 0648     		ldr	r0, .L150
 2217 0030 FFF7FEFF 		bl	USBUART_PutData
 2218              	.LVL290:
 102:communication.c ****     UART_PutString("Send Response");
 2219              		.loc 1 102 0
 2220 0034 FFF7FEFF 		bl	ClearBufOut
 2221              	.LVL291:
 103:communication.c ****     UART_PutString("\n\r\n\r");
 2222              		.loc 1 103 0
 2223 0038 0448     		ldr	r0, .L150+4
 2224 003a FFF7FEFF 		bl	UART_PutString
 2225              	.LVL292:
 104:communication.c **** }
 2226              		.loc 1 104 0
 2227 003e 0448     		ldr	r0, .L150+8
 2228 0040 FFF7FEFF 		bl	UART_PutString
 2229              	.LVL293:
 2230 0044 38BD     		pop	{r3, r4, r5, pc}
 2231              	.L151:
 2232 0046 00BF     		.align	2
 2233              	.L150:
 2234 0048 00000000 		.word	bufferOUT
 2235 004c 9C000000 		.word	.LC8
 2236 0050 0C000000 		.word	.LC1
 2237              		.cfi_endproc
ARM GAS  C:\Users\Dell\AppData\Local\Temp\ccpe0Dqd.s 			page 54


 2238              	.LFE67:
 2239              		.size	SendResponse, .-SendResponse
 2240              		.section	.text.SendCheckSumResponse,"ax",%progbits
 2241              		.align	2
 2242              		.global	SendCheckSumResponse
 2243              		.thumb
 2244              		.thumb_func
 2245              		.type	SendCheckSumResponse, %function
 2246              	SendCheckSumResponse:
 2247              	.LFB68:
 107:communication.c ****     BuildHeader();       
 2248              		.loc 1 107 0
 2249              		.cfi_startproc
 2250              		@ args = 0, pretend = 0, frame = 0
 2251              		@ frame_needed = 0, uses_anonymous_args = 0
 2252              	.LVL294:
 2253 0000 70B5     		push	{r4, r5, r6, lr}
 2254              		.cfi_def_cfa_offset 16
 2255              		.cfi_offset 4, -16
 2256              		.cfi_offset 5, -12
 2257              		.cfi_offset 6, -8
 2258              		.cfi_offset 14, -4
 2259 0002 0646     		mov	r6, r0
 2260 0004 0D46     		mov	r5, r1
 2261 0006 1446     		mov	r4, r2
 108:communication.c ****     bufferOUT[4]=FrameNum(kResponse);  //msg serial number
 2262              		.loc 1 108 0
 2263 0008 FFF7FEFF 		bl	BuildHeader
 2264              	.LVL295:
 109:communication.c ****     bufferOUT[5]=11u; //msg length LSB
 2265              		.loc 1 109 0
 2266 000c 0220     		movs	r0, #2
 2267 000e FFF7FEFF 		bl	FrameNum
 2268              	.LVL296:
 2269 0012 0E4B     		ldr	r3, .L155
 2270 0014 1871     		strb	r0, [r3, #4]
 110:communication.c ****     bufferOUT[6]=0u; //msg length MSB 
 2271              		.loc 1 110 0
 2272 0016 0B22     		movs	r2, #11
 2273 0018 5A71     		strb	r2, [r3, #5]
 111:communication.c ****     bufferOUT[7]=kResponse; //category
 2274              		.loc 1 111 0
 2275 001a 0022     		movs	r2, #0
 2276 001c 9A71     		strb	r2, [r3, #6]
 112:communication.c ****     bufferOUT[8]= subtype;    
 2277              		.loc 1 112 0
 2278 001e 0222     		movs	r2, #2
 2279 0020 DA71     		strb	r2, [r3, #7]
 113:communication.c ****     bufferOUT[9]=status;
 2280              		.loc 1 113 0
 2281 0022 1E72     		strb	r6, [r3, #8]
 114:communication.c ****     bufferOUT[10]=checksumresults;
 2282              		.loc 1 114 0
 2283 0024 5D72     		strb	r5, [r3, #9]
 115:communication.c **** 
 2284              		.loc 1 115 0
 2285 0026 9C72     		strb	r4, [r3, #10]
ARM GAS  C:\Users\Dell\AppData\Local\Temp\ccpe0Dqd.s 			page 55


 2286              	.L153:
 118:communication.c ****     USBUART_PutData(bufferOUT,11);
 2287              		.loc 1 118 0 discriminator 1
 2288 0028 FFF7FEFF 		bl	USBUART_CDCIsReady
 2289              	.LVL297:
 2290 002c 0028     		cmp	r0, #0
 2291 002e FBD0     		beq	.L153
 119:communication.c ****     ClearBufOut();
 2292              		.loc 1 119 0
 2293 0030 0B21     		movs	r1, #11
 2294 0032 0648     		ldr	r0, .L155
 2295 0034 FFF7FEFF 		bl	USBUART_PutData
 2296              	.LVL298:
 120:communication.c ****     UART_PutString("Send check sum Response");
 2297              		.loc 1 120 0
 2298 0038 FFF7FEFF 		bl	ClearBufOut
 2299              	.LVL299:
 121:communication.c ****     UART_PutString("\n\r\n\r");
 2300              		.loc 1 121 0
 2301 003c 0448     		ldr	r0, .L155+4
 2302 003e FFF7FEFF 		bl	UART_PutString
 2303              	.LVL300:
 122:communication.c **** }
 2304              		.loc 1 122 0
 2305 0042 0448     		ldr	r0, .L155+8
 2306 0044 FFF7FEFF 		bl	UART_PutString
 2307              	.LVL301:
 2308 0048 70BD     		pop	{r4, r5, r6, pc}
 2309              	.L156:
 2310 004a 00BF     		.align	2
 2311              	.L155:
 2312 004c 00000000 		.word	bufferOUT
 2313 0050 AC000000 		.word	.LC9
 2314 0054 0C000000 		.word	.LC1
 2315              		.cfi_endproc
 2316              	.LFE68:
 2317              		.size	SendCheckSumResponse, .-SendCheckSumResponse
 2318              		.section	.text.SendEBoxParams,"ax",%progbits
 2319              		.align	2
 2320              		.global	SendEBoxParams
 2321              		.thumb
 2322              		.thumb_func
 2323              		.type	SendEBoxParams, %function
 2324              	SendEBoxParams:
 2325              	.LFB69:
 125:communication.c ****     size = sizeof(struct EBoxParams);
 2326              		.loc 1 125 0
 2327              		.cfi_startproc
 2328              		@ args = 0, pretend = 0, frame = 0
 2329              		@ frame_needed = 0, uses_anonymous_args = 0
 2330              	.LVL302:
 2331 0000 F8B5     		push	{r3, r4, r5, r6, r7, lr}
 2332              		.cfi_def_cfa_offset 24
 2333              		.cfi_offset 3, -24
 2334              		.cfi_offset 4, -20
 2335              		.cfi_offset 5, -16
 2336              		.cfi_offset 6, -12
ARM GAS  C:\Users\Dell\AppData\Local\Temp\ccpe0Dqd.s 			page 56


 2337              		.cfi_offset 7, -8
 2338              		.cfi_offset 14, -4
 2339 0002 0C46     		mov	r4, r1
 126:communication.c ****     msg_length=basicMsgSize+size; 
 2340              		.loc 1 126 0
 2341 0004 2822     		movs	r2, #40
 2342 0006 274B     		ldr	r3, .L163
 2343 0008 1A80     		strh	r2, [r3]	@ movhi
 127:communication.c ****     memcpy(bufferOUT,params,size);
 2344              		.loc 1 127 0
 2345 000a 3222     		movs	r2, #50
 2346 000c 264B     		ldr	r3, .L163+4
 2347 000e 1A80     		strh	r2, [r3]	@ movhi
 128:communication.c ****     CyDelay(1000);
 2348              		.loc 1 128 0
 2349 0010 0346     		mov	r3, r0
 2350 0012 264A     		ldr	r2, .L163+8
 2351 0014 2030     		adds	r0, r0, #32
 2352              	.LVL303:
 2353              	.L158:
 2354 0016 1F68     		ldr	r7, [r3]	@ unaligned
 2355 0018 5E68     		ldr	r6, [r3, #4]	@ unaligned
 2356 001a 9D68     		ldr	r5, [r3, #8]	@ unaligned
 2357 001c D968     		ldr	r1, [r3, #12]	@ unaligned
 2358 001e 1760     		str	r7, [r2]	@ unaligned
 2359 0020 5660     		str	r6, [r2, #4]	@ unaligned
 2360 0022 9560     		str	r5, [r2, #8]	@ unaligned
 2361 0024 D160     		str	r1, [r2, #12]	@ unaligned
 2362 0026 1033     		adds	r3, r3, #16
 2363 0028 1032     		adds	r2, r2, #16
 2364 002a 8342     		cmp	r3, r0
 2365 002c F3D1     		bne	.L158
 2366 002e 1968     		ldr	r1, [r3]	@ unaligned
 2367 0030 5B68     		ldr	r3, [r3, #4]	@ unaligned
 2368 0032 1160     		str	r1, [r2]	@ unaligned
 2369 0034 5360     		str	r3, [r2, #4]	@ unaligned
 129:communication.c ****     for(uint8 i=0; i<size; i++){
 2370              		.loc 1 129 0
 2371 0036 4FF47A70 		mov	r0, #1000
 2372              	.LVL304:
 2373 003a FFF7FEFF 		bl	CyDelay
 2374              	.LVL305:
 2375              	.LBB5:
 130:communication.c ****       bufferOUT[basicMsgSize + size -1 -i] =  bufferOUT[size-1-i];
 2376              		.loc 1 130 0
 2377 003e 0022     		movs	r2, #0
 2378 0040 08E0     		b	.L159
 2379              	.LVL306:
 2380              	.L160:
 131:communication.c ****     }
 2381              		.loc 1 131 0 discriminator 3
 2382 0042 991A     		subs	r1, r3, r2
 2383 0044 0931     		adds	r1, r1, #9
 2384 0046 013B     		subs	r3, r3, #1
 2385 0048 9B1A     		subs	r3, r3, r2
 2386 004a 1848     		ldr	r0, .L163+8
 2387 004c C35C     		ldrb	r3, [r0, r3]	@ zero_extendqisi2
ARM GAS  C:\Users\Dell\AppData\Local\Temp\ccpe0Dqd.s 			page 57


 2388 004e 4354     		strb	r3, [r0, r1]
 130:communication.c ****       bufferOUT[basicMsgSize + size -1 -i] =  bufferOUT[size-1-i];
 2389              		.loc 1 130 0 discriminator 3
 2390 0050 0132     		adds	r2, r2, #1
 2391              	.LVL307:
 2392 0052 D2B2     		uxtb	r2, r2
 2393              	.LVL308:
 2394              	.L159:
 130:communication.c ****       bufferOUT[basicMsgSize + size -1 -i] =  bufferOUT[size-1-i];
 2395              		.loc 1 130 0 is_stmt 0 discriminator 1
 2396 0054 91B2     		uxth	r1, r2
 2397 0056 134B     		ldr	r3, .L163
 2398 0058 1B88     		ldrh	r3, [r3]
 2399 005a 9942     		cmp	r1, r3
 2400 005c F1D3     		bcc	.L160
 2401              	.LBE5:
 133:communication.c ****     bufferOUT[4]=FrameNum(kResponse);  //msg serial number
 2402              		.loc 1 133 0 is_stmt 1
 2403 005e FFF7FEFF 		bl	BuildHeader
 2404              	.LVL309:
 134:communication.c ****     bufferOUT[7]=kResponse; //category
 2405              		.loc 1 134 0
 2406 0062 0220     		movs	r0, #2
 2407 0064 FFF7FEFF 		bl	FrameNum
 2408              	.LVL310:
 2409 0068 104B     		ldr	r3, .L163+8
 2410 006a 1871     		strb	r0, [r3, #4]
 135:communication.c ****     bufferOUT[8]=kGetEBoxParamsResponse;    
 2411              		.loc 1 135 0
 2412 006c 0222     		movs	r2, #2
 2413 006e DA71     		strb	r2, [r3, #7]
 136:communication.c ****     bufferOUT[9]=status;  
 2414              		.loc 1 136 0
 2415 0070 4822     		movs	r2, #72
 2416 0072 1A72     		strb	r2, [r3, #8]
 137:communication.c ****     bufferOUT[5]=msg_length&0x00ff; //msg length LSB
 2417              		.loc 1 137 0
 2418 0074 5C72     		strb	r4, [r3, #9]
 138:communication.c ****     bufferOUT[6]=msg_length>>8; //msg length MSB 
 2419              		.loc 1 138 0
 2420 0076 0C4A     		ldr	r2, .L163+4
 2421 0078 1288     		ldrh	r2, [r2]
 2422 007a 5A71     		strb	r2, [r3, #5]
 139:communication.c ****     /* Wait until component is ready to send data to host. */
 2423              		.loc 1 139 0
 2424 007c 120A     		lsrs	r2, r2, #8
 2425 007e 9A71     		strb	r2, [r3, #6]
 2426              	.L161:
 141:communication.c ****     USBUART_PutData(bufferOUT,msg_length);    
 2427              		.loc 1 141 0 discriminator 1
 2428 0080 FFF7FEFF 		bl	USBUART_CDCIsReady
 2429              	.LVL311:
 2430 0084 0028     		cmp	r0, #0
 2431 0086 FBD0     		beq	.L161
 142:communication.c ****     ClearBufOut();
 2432              		.loc 1 142 0
 2433 0088 074B     		ldr	r3, .L163+4
ARM GAS  C:\Users\Dell\AppData\Local\Temp\ccpe0Dqd.s 			page 58


 2434 008a 1988     		ldrh	r1, [r3]
 2435 008c 0748     		ldr	r0, .L163+8
 2436 008e FFF7FEFF 		bl	USBUART_PutData
 2437              	.LVL312:
 143:communication.c ****     UART_PutString("Send E-Box Params");
 2438              		.loc 1 143 0
 2439 0092 FFF7FEFF 		bl	ClearBufOut
 2440              	.LVL313:
 144:communication.c ****     UART_PutString("\n\r\n\r");
 2441              		.loc 1 144 0
 2442 0096 0648     		ldr	r0, .L163+12
 2443 0098 FFF7FEFF 		bl	UART_PutString
 2444              	.LVL314:
 145:communication.c **** }
 2445              		.loc 1 145 0
 2446 009c 0548     		ldr	r0, .L163+16
 2447 009e FFF7FEFF 		bl	UART_PutString
 2448              	.LVL315:
 2449 00a2 F8BD     		pop	{r3, r4, r5, r6, r7, pc}
 2450              	.L164:
 2451              		.align	2
 2452              	.L163:
 2453 00a4 00000000 		.word	size
 2454 00a8 00000000 		.word	msg_length
 2455 00ac 00000000 		.word	bufferOUT
 2456 00b0 C4000000 		.word	.LC10
 2457 00b4 0C000000 		.word	.LC1
 2458              		.cfi_endproc
 2459              	.LFE69:
 2460              		.size	SendEBoxParams, .-SendEBoxParams
 2461              		.section	.text.SendMatParams,"ax",%progbits
 2462              		.align	2
 2463              		.global	SendMatParams
 2464              		.thumb
 2465              		.thumb_func
 2466              		.type	SendMatParams, %function
 2467              	SendMatParams:
 2468              	.LFB70:
 148:communication.c ****     size = sizeof(struct MatParams);
 2469              		.loc 1 148 0
 2470              		.cfi_startproc
 2471              		@ args = 0, pretend = 0, frame = 0
 2472              		@ frame_needed = 0, uses_anonymous_args = 0
 2473              	.LVL316:
 2474 0000 F8B5     		push	{r3, r4, r5, r6, r7, lr}
 2475              		.cfi_def_cfa_offset 24
 2476              		.cfi_offset 3, -24
 2477              		.cfi_offset 4, -20
 2478              		.cfi_offset 5, -16
 2479              		.cfi_offset 6, -12
 2480              		.cfi_offset 7, -8
 2481              		.cfi_offset 14, -4
 2482 0002 0C46     		mov	r4, r1
 149:communication.c ****     msg_length=basicMsgSize+size; 
 2483              		.loc 1 149 0
 2484 0004 2322     		movs	r2, #35
 2485 0006 274B     		ldr	r3, .L171
ARM GAS  C:\Users\Dell\AppData\Local\Temp\ccpe0Dqd.s 			page 59


 2486 0008 1A80     		strh	r2, [r3]	@ movhi
 150:communication.c ****     memcpy(bufferOUT,params,size);
 2487              		.loc 1 150 0
 2488 000a 2D22     		movs	r2, #45
 2489 000c 264B     		ldr	r3, .L171+4
 2490 000e 1A80     		strh	r2, [r3]	@ movhi
 151:communication.c ****     CyDelay(1000);
 2491              		.loc 1 151 0
 2492 0010 0346     		mov	r3, r0
 2493 0012 264A     		ldr	r2, .L171+8
 2494 0014 2030     		adds	r0, r0, #32
 2495              	.LVL317:
 2496              	.L166:
 2497 0016 1F68     		ldr	r7, [r3]	@ unaligned
 2498 0018 5E68     		ldr	r6, [r3, #4]	@ unaligned
 2499 001a 9D68     		ldr	r5, [r3, #8]	@ unaligned
 2500 001c D968     		ldr	r1, [r3, #12]	@ unaligned
 2501 001e 1760     		str	r7, [r2]	@ unaligned
 2502 0020 5660     		str	r6, [r2, #4]	@ unaligned
 2503 0022 9560     		str	r5, [r2, #8]	@ unaligned
 2504 0024 D160     		str	r1, [r2, #12]	@ unaligned
 2505 0026 1033     		adds	r3, r3, #16
 2506 0028 1032     		adds	r2, r2, #16
 2507 002a 8342     		cmp	r3, r0
 2508 002c F3D1     		bne	.L166
 2509 002e 1988     		ldrh	r1, [r3]	@ unaligned
 2510 0030 9B78     		ldrb	r3, [r3, #2]	@ zero_extendqisi2
 2511 0032 1180     		strh	r1, [r2]	@ unaligned
 2512 0034 9370     		strb	r3, [r2, #2]
 152:communication.c ****     for(uint8 i=0; i<size; i++){
 2513              		.loc 1 152 0
 2514 0036 4FF47A70 		mov	r0, #1000
 2515              	.LVL318:
 2516 003a FFF7FEFF 		bl	CyDelay
 2517              	.LVL319:
 2518              	.LBB6:
 153:communication.c ****       bufferOUT[basicMsgSize + size -1 -i] =  bufferOUT[size-1-i];
 2519              		.loc 1 153 0
 2520 003e 0022     		movs	r2, #0
 2521 0040 08E0     		b	.L167
 2522              	.LVL320:
 2523              	.L168:
 154:communication.c ****     }
 2524              		.loc 1 154 0 discriminator 3
 2525 0042 991A     		subs	r1, r3, r2
 2526 0044 0931     		adds	r1, r1, #9
 2527 0046 013B     		subs	r3, r3, #1
 2528 0048 9B1A     		subs	r3, r3, r2
 2529 004a 1848     		ldr	r0, .L171+8
 2530 004c C35C     		ldrb	r3, [r0, r3]	@ zero_extendqisi2
 2531 004e 4354     		strb	r3, [r0, r1]
 153:communication.c ****       bufferOUT[basicMsgSize + size -1 -i] =  bufferOUT[size-1-i];
 2532              		.loc 1 153 0 discriminator 3
 2533 0050 0132     		adds	r2, r2, #1
 2534              	.LVL321:
 2535 0052 D2B2     		uxtb	r2, r2
 2536              	.LVL322:
ARM GAS  C:\Users\Dell\AppData\Local\Temp\ccpe0Dqd.s 			page 60


 2537              	.L167:
 153:communication.c ****       bufferOUT[basicMsgSize + size -1 -i] =  bufferOUT[size-1-i];
 2538              		.loc 1 153 0 is_stmt 0 discriminator 1
 2539 0054 91B2     		uxth	r1, r2
 2540 0056 134B     		ldr	r3, .L171
 2541 0058 1B88     		ldrh	r3, [r3]
 2542 005a 9942     		cmp	r1, r3
 2543 005c F1D3     		bcc	.L168
 2544              	.LBE6:
 156:communication.c ****     bufferOUT[4]=FrameNum(kResponse);  //msg serial number
 2545              		.loc 1 156 0 is_stmt 1
 2546 005e FFF7FEFF 		bl	BuildHeader
 2547              	.LVL323:
 157:communication.c ****     bufferOUT[7]=kResponse; //category
 2548              		.loc 1 157 0
 2549 0062 0220     		movs	r0, #2
 2550 0064 FFF7FEFF 		bl	FrameNum
 2551              	.LVL324:
 2552 0068 104B     		ldr	r3, .L171+8
 2553 006a 1871     		strb	r0, [r3, #4]
 158:communication.c ****     bufferOUT[8]=kGetMatParamsAtOnceResponse;    
 2554              		.loc 1 158 0
 2555 006c 0222     		movs	r2, #2
 2556 006e DA71     		strb	r2, [r3, #7]
 159:communication.c ****     bufferOUT[9]=status;    
 2557              		.loc 1 159 0
 2558 0070 4A22     		movs	r2, #74
 2559 0072 1A72     		strb	r2, [r3, #8]
 160:communication.c ****     bufferOUT[5]=msg_length&0x00ff; //msg length LSB
 2560              		.loc 1 160 0
 2561 0074 5C72     		strb	r4, [r3, #9]
 161:communication.c ****     bufferOUT[6]=msg_length>>8; //msg length MSB 
 2562              		.loc 1 161 0
 2563 0076 0C4A     		ldr	r2, .L171+4
 2564 0078 1288     		ldrh	r2, [r2]
 2565 007a 5A71     		strb	r2, [r3, #5]
 162:communication.c ****     /* Wait until component is ready to send data to host. */
 2566              		.loc 1 162 0
 2567 007c 120A     		lsrs	r2, r2, #8
 2568 007e 9A71     		strb	r2, [r3, #6]
 2569              	.L169:
 164:communication.c ****     USBUART_PutData(bufferOUT,msg_length);
 2570              		.loc 1 164 0 discriminator 1
 2571 0080 FFF7FEFF 		bl	USBUART_CDCIsReady
 2572              	.LVL325:
 2573 0084 0028     		cmp	r0, #0
 2574 0086 FBD0     		beq	.L169
 165:communication.c ****     ClearBufOut();
 2575              		.loc 1 165 0
 2576 0088 074B     		ldr	r3, .L171+4
 2577 008a 1988     		ldrh	r1, [r3]
 2578 008c 0748     		ldr	r0, .L171+8
 2579 008e FFF7FEFF 		bl	USBUART_PutData
 2580              	.LVL326:
 166:communication.c ****     UART_PutString("Send MAT Params");
 2581              		.loc 1 166 0
 2582 0092 FFF7FEFF 		bl	ClearBufOut
ARM GAS  C:\Users\Dell\AppData\Local\Temp\ccpe0Dqd.s 			page 61


 2583              	.LVL327:
 167:communication.c ****     UART_PutString("\n\r\n\r");  
 2584              		.loc 1 167 0
 2585 0096 0648     		ldr	r0, .L171+12
 2586 0098 FFF7FEFF 		bl	UART_PutString
 2587              	.LVL328:
 168:communication.c **** }
 2588              		.loc 1 168 0
 2589 009c 0548     		ldr	r0, .L171+16
 2590 009e FFF7FEFF 		bl	UART_PutString
 2591              	.LVL329:
 2592 00a2 F8BD     		pop	{r3, r4, r5, r6, r7, pc}
 2593              	.L172:
 2594              		.align	2
 2595              	.L171:
 2596 00a4 00000000 		.word	size
 2597 00a8 00000000 		.word	msg_length
 2598 00ac 00000000 		.word	bufferOUT
 2599 00b0 D8000000 		.word	.LC11
 2600 00b4 0C000000 		.word	.LC1
 2601              		.cfi_endproc
 2602              	.LFE70:
 2603              		.size	SendMatParams, .-SendMatParams
 2604              		.section	.text.SendLutToUSB,"ax",%progbits
 2605              		.align	2
 2606              		.global	SendLutToUSB
 2607              		.thumb
 2608              		.thumb_func
 2609              		.type	SendLutToUSB, %function
 2610              	SendLutToUSB:
 2611              	.LFB71:
 172:communication.c ****     size = lut->numOfCoef*numOfCols*sizeof(float)+sizeof(uint32); //size of num of coef (uint16) an
 2612              		.loc 1 172 0
 2613              		.cfi_startproc
 2614              		@ args = 0, pretend = 0, frame = 0
 2615              		@ frame_needed = 0, uses_anonymous_args = 0
 2616              	.LVL330:
 2617 0000 70B5     		push	{r4, r5, r6, lr}
 2618              		.cfi_def_cfa_offset 16
 2619              		.cfi_offset 4, -16
 2620              		.cfi_offset 5, -12
 2621              		.cfi_offset 6, -8
 2622              		.cfi_offset 14, -4
 2623 0002 1646     		mov	r6, r2
 173:communication.c ****     msg_length=basicMsgSize+size; 
 2624              		.loc 1 173 0
 2625 0004 0388     		ldrh	r3, [r0]	@ unaligned
 2626 0006 01FB03F1 		mul	r1, r1, r3
 2627              	.LVL331:
 2628 000a 4C1C     		adds	r4, r1, #1
 2629 000c A400     		lsls	r4, r4, #2
 2630 000e A4B2     		uxth	r4, r4
 2631 0010 254B     		ldr	r3, .L182
 2632 0012 1C80     		strh	r4, [r3]	@ movhi
 174:communication.c ****     memcpy(bufferOUT,lut,size);
 2633              		.loc 1 174 0
 2634 0014 04F10A02 		add	r2, r4, #10
ARM GAS  C:\Users\Dell\AppData\Local\Temp\ccpe0Dqd.s 			page 62


 2635              	.LVL332:
 2636 0018 244B     		ldr	r3, .L182+4
 2637 001a 1A80     		strh	r2, [r3]	@ movhi
 175:communication.c ****     
 2638              		.loc 1 175 0
 2639 001c 2546     		mov	r5, r4
 2640 001e 2246     		mov	r2, r4
 2641 0020 0146     		mov	r1, r0
 2642 0022 2348     		ldr	r0, .L182+8
 2643              	.LVL333:
 2644 0024 FFF7FEFF 		bl	memcpy
 2645              	.LVL334:
 2646              	.LBB7:
 178:communication.c ****       bufferOUT[basicMsgSize + size -1 -i] =  bufferOUT[size-1-i];
 2647              		.loc 1 178 0
 2648 0028 0023     		movs	r3, #0
 2649 002a 08E0     		b	.L174
 2650              	.LVL335:
 2651              	.L175:
 179:communication.c ****     }
 2652              		.loc 1 179 0 discriminator 3
 2653 002c EA1A     		subs	r2, r5, r3
 2654 002e 0932     		adds	r2, r2, #9
 2655 0030 611E     		subs	r1, r4, #1
 2656 0032 C91A     		subs	r1, r1, r3
 2657 0034 1E48     		ldr	r0, .L182+8
 2658 0036 415C     		ldrb	r1, [r0, r1]	@ zero_extendqisi2
 2659 0038 8154     		strb	r1, [r0, r2]
 178:communication.c ****       bufferOUT[basicMsgSize + size -1 -i] =  bufferOUT[size-1-i];
 2660              		.loc 1 178 0 discriminator 3
 2661 003a 0133     		adds	r3, r3, #1
 2662              	.LVL336:
 2663 003c 9BB2     		uxth	r3, r3
 2664              	.LVL337:
 2665              	.L174:
 178:communication.c ****       bufferOUT[basicMsgSize + size -1 -i] =  bufferOUT[size-1-i];
 2666              		.loc 1 178 0 is_stmt 0 discriminator 1
 2667 003e A342     		cmp	r3, r4
 2668 0040 F4D3     		bcc	.L175
 2669              	.LVL338:
 2670              	.LBE7:
 183:communication.c ****     bufferOUT[4]=FrameNum(kResponse);  //msg serial number
 2671              		.loc 1 183 0 is_stmt 1
 2672 0042 FFF7FEFF 		bl	BuildHeader
 2673              	.LVL339:
 184:communication.c ****     bufferOUT[5]=msg_length&0x00ff; //msg length LSB
 2674              		.loc 1 184 0
 2675 0046 0220     		movs	r0, #2
 2676 0048 FFF7FEFF 		bl	FrameNum
 2677              	.LVL340:
 2678 004c 184B     		ldr	r3, .L182+8
 2679 004e 1871     		strb	r0, [r3, #4]
 185:communication.c ****     bufferOUT[6]=msg_length>>8; //msg length MSB 
 2680              		.loc 1 185 0
 2681 0050 164A     		ldr	r2, .L182+4
 2682 0052 1288     		ldrh	r2, [r2]
 2683 0054 5A71     		strb	r2, [r3, #5]
ARM GAS  C:\Users\Dell\AppData\Local\Temp\ccpe0Dqd.s 			page 63


 186:communication.c ****     bufferOUT[7]=kResponse; //category
 2684              		.loc 1 186 0
 2685 0056 120A     		lsrs	r2, r2, #8
 2686 0058 9A71     		strb	r2, [r3, #6]
 187:communication.c ****     bufferOUT[8]=kGetLutAtOnceResponse;
 2687              		.loc 1 187 0
 2688 005a 0222     		movs	r2, #2
 2689 005c DA71     		strb	r2, [r3, #7]
 188:communication.c ****     bufferOUT[9]=status;         
 2690              		.loc 1 188 0
 2691 005e 4C22     		movs	r2, #76
 2692 0060 1A72     		strb	r2, [r3, #8]
 189:communication.c ****     
 2693              		.loc 1 189 0
 2694 0062 5E72     		strb	r6, [r3, #9]
 181:communication.c ****     uint16 toWrite=0;
 2695              		.loc 1 181 0
 2696 0064 0024     		movs	r4, #0
 191:communication.c ****     	if(msg_length - hasWriten > USBUART_BUFFER_SIZE) {
 2697              		.loc 1 191 0
 2698 0066 11E0     		b	.L176
 2699              	.LVL341:
 2700              	.L179:
 192:communication.c ****     		toWrite = USBUART_BUFFER_SIZE;
 2701              		.loc 1 192 0
 2702 0068 2646     		mov	r6, r4
 2703 006a 1A1B     		subs	r2, r3, r4
 2704 006c 402A     		cmp	r2, #64
 2705 006e 01D8     		bhi	.L180
 196:communication.c ****     	}    
 2706              		.loc 1 196 0
 2707 0070 95B2     		uxth	r5, r2
 2708              	.LVL342:
 2709 0072 00E0     		b	.L178
 2710              	.LVL343:
 2711              	.L180:
 193:communication.c ****     	}
 2712              		.loc 1 193 0
 2713 0074 4025     		movs	r5, #64
 2714              	.L178:
 2715              	.LVL344:
 198:communication.c ****     USBUART_PutData(&bufferOUT[hasWriten],toWrite);    
 2716              		.loc 1 198 0 discriminator 1
 2717 0076 FFF7FEFF 		bl	USBUART_CDCIsReady
 2718              	.LVL345:
 2719 007a 0028     		cmp	r0, #0
 2720 007c FBD0     		beq	.L178
 199:communication.c ****     hasWriten += toWrite;
 2721              		.loc 1 199 0
 2722 007e 2946     		mov	r1, r5
 2723 0080 0B48     		ldr	r0, .L182+8
 2724 0082 3044     		add	r0, r0, r6
 2725 0084 FFF7FEFF 		bl	USBUART_PutData
 2726              	.LVL346:
 200:communication.c ****     }
 2727              		.loc 1 200 0
 2728 0088 2C44     		add	r4, r4, r5
ARM GAS  C:\Users\Dell\AppData\Local\Temp\ccpe0Dqd.s 			page 64


 2729              	.LVL347:
 2730 008a A4B2     		uxth	r4, r4
 2731              	.LVL348:
 2732              	.L176:
 191:communication.c ****     	if(msg_length - hasWriten > USBUART_BUFFER_SIZE) {
 2733              		.loc 1 191 0
 2734 008c 074B     		ldr	r3, .L182+4
 2735 008e 1B88     		ldrh	r3, [r3]
 2736 0090 9C42     		cmp	r4, r3
 2737 0092 E9D3     		bcc	.L179
 202:communication.c ****     UART_PutString("Send Lut To USB Params");
 2738              		.loc 1 202 0
 2739 0094 FFF7FEFF 		bl	ClearBufOut
 2740              	.LVL349:
 203:communication.c ****     UART_PutString("\n\r\n\r"); 
 2741              		.loc 1 203 0
 2742 0098 0648     		ldr	r0, .L182+12
 2743 009a FFF7FEFF 		bl	UART_PutString
 2744              	.LVL350:
 204:communication.c ****     return 1;
 2745              		.loc 1 204 0
 2746 009e 0648     		ldr	r0, .L182+16
 2747 00a0 FFF7FEFF 		bl	UART_PutString
 2748              	.LVL351:
 207:communication.c **** 
 2749              		.loc 1 207 0
 2750 00a4 0120     		movs	r0, #1
 2751 00a6 70BD     		pop	{r4, r5, r6, pc}
 2752              	.LVL352:
 2753              	.L183:
 2754              		.align	2
 2755              	.L182:
 2756 00a8 00000000 		.word	size
 2757 00ac 00000000 		.word	msg_length
 2758 00b0 00000000 		.word	bufferOUT
 2759 00b4 E8000000 		.word	.LC12
 2760 00b8 0C000000 		.word	.LC1
 2761              		.cfi_endproc
 2762              	.LFE71:
 2763              		.size	SendLutToUSB, .-SendLutToUSB
 2764              		.section	.text.SendRowMeas,"ax",%progbits
 2765              		.align	2
 2766              		.global	SendRowMeas
 2767              		.thumb
 2768              		.thumb_func
 2769              		.type	SendRowMeas, %function
 2770              	SendRowMeas:
 2771              	.LFB72:
 209:communication.c ****     msg_length = basicMsgSize + NumOfColsWRef*3 + 1; //TBD
 2772              		.loc 1 209 0
 2773              		.cfi_startproc
 2774              		@ args = 0, pretend = 0, frame = 0
 2775              		@ frame_needed = 0, uses_anonymous_args = 0
 2776              	.LVL353:
 2777 0000 70B5     		push	{r4, r5, r6, lr}
 2778              		.cfi_def_cfa_offset 16
 2779              		.cfi_offset 4, -16
ARM GAS  C:\Users\Dell\AppData\Local\Temp\ccpe0Dqd.s 			page 65


 2780              		.cfi_offset 5, -12
 2781              		.cfi_offset 6, -8
 2782              		.cfi_offset 14, -4
 2783 0002 0646     		mov	r6, r0
 2784 0004 0C46     		mov	r4, r1
 210:communication.c ****     uint8 hasWriten=0;
 2785              		.loc 1 210 0
 2786 0006 194D     		ldr	r5, .L191
 2787 0008 01EB4103 		add	r3, r1, r1, lsl #1
 2788 000c 0B33     		adds	r3, r3, #11
 2789 000e 2B80     		strh	r3, [r5]	@ movhi
 2790              	.LVL354:
 213:communication.c ****     bufferOUT[4]=FrameNum(kEventNoResponse);  //msg serial number
 2791              		.loc 1 213 0
 2792 0010 FFF7FEFF 		bl	BuildHeader
 2793              	.LVL355:
 214:communication.c ****     bufferOUT[5]=msg_length&0x00ff; //msg length LSB
 2794              		.loc 1 214 0
 2795 0014 0420     		movs	r0, #4
 2796 0016 FFF7FEFF 		bl	FrameNum
 2797              	.LVL356:
 2798 001a 154B     		ldr	r3, .L191+4
 2799 001c 1871     		strb	r0, [r3, #4]
 215:communication.c ****     bufferOUT[6]=msg_length>>8; //msg length MSB 
 2800              		.loc 1 215 0
 2801 001e 2A88     		ldrh	r2, [r5]
 2802 0020 5A71     		strb	r2, [r3, #5]
 216:communication.c ****     bufferOUT[7]=kEventNoResponse; //category
 2803              		.loc 1 216 0
 2804 0022 120A     		lsrs	r2, r2, #8
 2805 0024 9A71     		strb	r2, [r3, #6]
 217:communication.c ****     bufferOUT[8]=kReturnRow;
 2806              		.loc 1 217 0
 2807 0026 0422     		movs	r2, #4
 2808 0028 DA71     		strb	r2, [r3, #7]
 218:communication.c ****     bufferOUT[9]=currentRow;
 2809              		.loc 1 218 0
 2810 002a 1922     		movs	r2, #25
 2811 002c 1A72     		strb	r2, [r3, #8]
 219:communication.c ****     bufferOUT[10]=NumOfColsWRef;     
 2812              		.loc 1 219 0
 2813 002e 5E72     		strb	r6, [r3, #9]
 220:communication.c ****     
 2814              		.loc 1 220 0
 2815 0030 9C72     		strb	r4, [r3, #10]
 211:communication.c ****     uint8 toWrite=0;
 2816              		.loc 1 211 0
 2817 0032 0025     		movs	r5, #0
 222:communication.c ****     	if(msg_length - hasWriten > USBUART_BUFFER_SIZE) {
 2818              		.loc 1 222 0
 2819 0034 11E0     		b	.L185
 2820              	.LVL357:
 2821              	.L188:
 223:communication.c ****     		toWrite = USBUART_BUFFER_SIZE;
 2822              		.loc 1 223 0
 2823 0036 2E46     		mov	r6, r5
 2824 0038 5A1B     		subs	r2, r3, r5
ARM GAS  C:\Users\Dell\AppData\Local\Temp\ccpe0Dqd.s 			page 66


 2825 003a 402A     		cmp	r2, #64
 2826 003c 01D8     		bhi	.L189
 227:communication.c ****     	}    
 2827              		.loc 1 227 0
 2828 003e D4B2     		uxtb	r4, r2
 2829              	.LVL358:
 2830 0040 00E0     		b	.L187
 2831              	.LVL359:
 2832              	.L189:
 224:communication.c ****     	}
 2833              		.loc 1 224 0
 2834 0042 4024     		movs	r4, #64
 2835              	.L187:
 2836              	.LVL360:
 229:communication.c ****     USBUART_PutData(&bufferOUT[hasWriten],toWrite);    
 2837              		.loc 1 229 0 discriminator 1
 2838 0044 FFF7FEFF 		bl	USBUART_CDCIsReady
 2839              	.LVL361:
 2840 0048 0028     		cmp	r0, #0
 2841 004a FBD0     		beq	.L187
 230:communication.c ****     hasWriten += toWrite;
 2842              		.loc 1 230 0
 2843 004c 2146     		mov	r1, r4
 2844 004e 0848     		ldr	r0, .L191+4
 2845 0050 3044     		add	r0, r0, r6
 2846 0052 FFF7FEFF 		bl	USBUART_PutData
 2847              	.LVL362:
 231:communication.c ****     }
 2848              		.loc 1 231 0
 2849 0056 2C44     		add	r4, r4, r5
 2850              	.LVL363:
 2851 0058 E5B2     		uxtb	r5, r4
 2852              	.LVL364:
 2853              	.L185:
 222:communication.c ****     	if(msg_length - hasWriten > USBUART_BUFFER_SIZE) {
 2854              		.loc 1 222 0
 2855 005a AAB2     		uxth	r2, r5
 2856 005c 034B     		ldr	r3, .L191
 2857 005e 1B88     		ldrh	r3, [r3]
 2858 0060 9A42     		cmp	r2, r3
 2859 0062 E8D3     		bcc	.L188
 233:communication.c ****   //  UART_PutString(" Send Row Meas Params");
 2860              		.loc 1 233 0
 2861 0064 FFF7FEFF 		bl	ClearBufOut
 2862              	.LVL365:
 2863 0068 70BD     		pop	{r4, r5, r6, pc}
 2864              	.LVL366:
 2865              	.L192:
 2866 006a 00BF     		.align	2
 2867              	.L191:
 2868 006c 00000000 		.word	msg_length
 2869 0070 00000000 		.word	bufferOUT
 2870              		.cfi_endproc
 2871              	.LFE72:
 2872              		.size	SendRowMeas, .-SendRowMeas
 2873              		.section	.text.convert_by_division,"ax",%progbits
 2874              		.align	2
ARM GAS  C:\Users\Dell\AppData\Local\Temp\ccpe0Dqd.s 			page 67


 2875              		.global	convert_by_division
 2876              		.thumb
 2877              		.thumb_func
 2878              		.type	convert_by_division, %function
 2879              	convert_by_division:
 2880              	.LFB97:
 718:communication.c **** 
 719:communication.c **** void convert_by_division(int value, uint8 *temp)
 720:communication.c **** {
 2881              		.loc 1 720 0
 2882              		.cfi_startproc
 2883              		@ args = 0, pretend = 0, frame = 0
 2884              		@ frame_needed = 0, uses_anonymous_args = 0
 2885              		@ link register save eliminated.
 2886              	.LVL367:
 2887 0000 70B4     		push	{r4, r5, r6}
 2888              		.cfi_def_cfa_offset 12
 2889              		.cfi_offset 4, -12
 2890              		.cfi_offset 5, -8
 2891              		.cfi_offset 6, -4
 721:communication.c ****     temp[3] = (value %    10)        + '0';
 2892              		.loc 1 721 0
 2893 0002 1E4D     		ldr	r5, .L195
 2894 0004 85FB0034 		smull	r3, r4, r5, r0
 2895 0008 C217     		asrs	r2, r0, #31
 2896 000a C2EBA404 		rsb	r4, r2, r4, asr #2
 2897 000e 04EB8404 		add	r4, r4, r4, lsl #2
 2898 0012 6300     		lsls	r3, r4, #1
 2899 0014 C41A     		subs	r4, r0, r3
 2900 0016 3034     		adds	r4, r4, #48
 2901 0018 CC70     		strb	r4, [r1, #3]
 722:communication.c ****     temp[2] = (value %   100) /   10 + '0';
 2902              		.loc 1 722 0
 2903 001a 194E     		ldr	r6, .L195+4
 2904 001c 86FB0043 		smull	r4, r3, r6, r0
 2905 0020 C2EB6313 		rsb	r3, r2, r3, asr #5
 2906 0024 6424     		movs	r4, #100
 2907 0026 04FB1303 		mls	r3, r4, r3, r0
 2908 002a 85FB0345 		smull	r4, r5, r5, r3
 2909 002e DB17     		asrs	r3, r3, #31
 2910 0030 C3EBA503 		rsb	r3, r3, r5, asr #2
 2911 0034 3033     		adds	r3, r3, #48
 2912 0036 8B70     		strb	r3, [r1, #2]
 723:communication.c ****     temp[1] = (value %  1000) /  100 + '0';
 2913              		.loc 1 723 0
 2914 0038 124D     		ldr	r5, .L195+8
 2915 003a 85FB0034 		smull	r3, r4, r5, r0
 2916 003e C2EBA414 		rsb	r4, r2, r4, asr #6
 2917 0042 4FF47A73 		mov	r3, #1000
 2918 0046 03FB1404 		mls	r4, r3, r4, r0
 2919 004a 86FB0436 		smull	r3, r6, r6, r4
 2920 004e E417     		asrs	r4, r4, #31
 2921 0050 C4EB6614 		rsb	r4, r4, r6, asr #5
 2922 0054 3034     		adds	r4, r4, #48
 2923 0056 4C70     		strb	r4, [r1, #1]
 724:communication.c ****     temp[0] = (value % 10000) / 1000 + '0';
 2924              		.loc 1 724 0
ARM GAS  C:\Users\Dell\AppData\Local\Temp\ccpe0Dqd.s 			page 68


 2925 0058 0B4B     		ldr	r3, .L195+12
 2926 005a 83FB0043 		smull	r4, r3, r3, r0
 2927 005e C2EB2333 		rsb	r3, r2, r3, asr #12
 2928 0062 42F21072 		movw	r2, #10000
 2929 0066 02FB1303 		mls	r3, r2, r3, r0
 2930 006a 85FB0325 		smull	r2, r5, r5, r3
 2931 006e DB17     		asrs	r3, r3, #31
 2932 0070 C3EBA513 		rsb	r3, r3, r5, asr #6
 2933 0074 3033     		adds	r3, r3, #48
 2934 0076 0B70     		strb	r3, [r1]
 725:communication.c **** }
 2935              		.loc 1 725 0
 2936 0078 70BC     		pop	{r4, r5, r6}
 2937              		.cfi_restore 6
 2938              		.cfi_restore 5
 2939              		.cfi_restore 4
 2940              		.cfi_def_cfa_offset 0
 2941 007a 7047     		bx	lr
 2942              	.L196:
 2943              		.align	2
 2944              	.L195:
 2945 007c 67666666 		.word	1717986919
 2946 0080 1F85EB51 		.word	1374389535
 2947 0084 D34D6210 		.word	274877907
 2948 0088 AD8BDB68 		.word	1759218605
 2949              		.cfi_endproc
 2950              	.LFE97:
 2951              		.size	convert_by_division, .-convert_by_division
 2952              		.comm	SPIMReadBuf_temp,10,4
 2953              		.comm	SPIMCommandBuf,4,4
 2954              		.comm	SPIMReadBuf,256,4
 2955              		.comm	SPIMWriteBuf,256,4
 2956              		.comm	SPIM_status,1,1
 2957              		.comm	I2CBufRead,3,4
 2958              		.comm	I2CBufWrite,3,4
 2959              		.global	ZeroBuf
 2960              		.comm	category,1,1
 2961              		.comm	subtype,1,1
 2962              		.comm	status,1,1
 2963              		.comm	msg_length,2,2
 2964              		.comm	size,2,2
 2965              		.comm	EventNoResponseFrameNum,1,1
 2966              		.comm	requestFrameNum,1,1
 2967              		.comm	eventFrameNum,1,1
 2968              		.comm	responseFrameNum,1,1
 2969              		.comm	bufferOUT,1000,4
 2970              		.comm	bufferIN,64,4
 2971              		.comm	temp1,4,4
 2972              		.section	.rodata.str1.4,"aMS",%progbits,1
 2973              		.align	2
 2974              	.LC0:
 2975 0000 54492072 		.ascii	"TI request\000"
 2975      65717565 
 2975      737400
 2976 000b 00       		.space	1
 2977              	.LC1:
 2978 000c 0A0D0A0D 		.ascii	"\012\015\012\015\000"
ARM GAS  C:\Users\Dell\AppData\Local\Temp\ccpe0Dqd.s 			page 69


 2978      00
 2979 0011 000000   		.space	3
 2980              	.LC2:
 2981 0014 6572726F 		.ascii	"error comm to TI \000"
 2981      7220636F 
 2981      6D6D2074 
 2981      6F205449 
 2981      2000
 2982 0026 0000     		.space	2
 2983              	.LC3:
 2984 0028 49324320 		.ascii	"I2C communication Failed \000"
 2984      636F6D6D 
 2984      756E6963 
 2984      6174696F 
 2984      6E204661 
 2985 0042 0000     		.space	2
 2986              	.LC4:
 2987 0044 6572726F 		.ascii	"error while switching rows \000"
 2987      72207768 
 2987      696C6520 
 2987      73776974 
 2987      6368696E 
 2988              	.LC5:
 2989 0060 6572726F 		.ascii	"error while GetTIFWVversion\000"
 2989      72207768 
 2989      696C6520 
 2989      47657454 
 2989      49465756 
 2990              	.LC6:
 2991 007c 53656E64 		.ascii	"SendNumOfCol \000"
 2991      4E756D4F 
 2991      66436F6C 
 2991      2000
 2992 008a 0000     		.space	2
 2993              	.LC7:
 2994 008c 53656E64 		.ascii	"Send FW Version\000"
 2994      20465720 
 2994      56657273 
 2994      696F6E00 
 2995              	.LC8:
 2996 009c 53656E64 		.ascii	"Send Response\000"
 2996      20526573 
 2996      706F6E73 
 2996      6500
 2997 00aa 0000     		.space	2
 2998              	.LC9:
 2999 00ac 53656E64 		.ascii	"Send check sum Response\000"
 2999      20636865 
 2999      636B2073 
 2999      756D2052 
 2999      6573706F 
 3000              	.LC10:
 3001 00c4 53656E64 		.ascii	"Send E-Box Params\000"
 3001      20452D42 
 3001      6F782050 
 3001      6172616D 
 3001      7300
ARM GAS  C:\Users\Dell\AppData\Local\Temp\ccpe0Dqd.s 			page 70


 3002 00d6 0000     		.space	2
 3003              	.LC11:
 3004 00d8 53656E64 		.ascii	"Send MAT Params\000"
 3004      204D4154 
 3004      20506172 
 3004      616D7300 
 3005              	.LC12:
 3006 00e8 53656E64 		.ascii	"Send Lut To USB Params\000"
 3006      204C7574 
 3006      20546F20 
 3006      55534220 
 3006      50617261 
 3007              		.bss
 3008              		.align	2
 3009              		.set	.LANCHOR0,. + 0
 3010              		.type	ZeroBuf, %object
 3011              		.size	ZeroBuf, 64
 3012              	ZeroBuf:
 3013 0000 00000000 		.space	64
 3013      00000000 
 3013      00000000 
 3013      00000000 
 3013      00000000 
 3014              		.text
 3015              	.Letext0:
 3016              		.file 2 "c:\\program files (x86)\\cypress\\psoc creator\\4.2\\psoc creator\\import\\gnu\\arm\\5.4.
 3017              		.file 3 "c:\\program files (x86)\\cypress\\psoc creator\\4.2\\psoc creator\\import\\gnu\\arm\\5.4.
 3018              		.file 4 "Generated_Source\\PSoC5/cytypes.h"
 3019              		.file 5 "./Details.h"
 3020              		.file 6 "Generated_Source\\PSoC5/core_cm3.h"
 3021              		.file 7 "./Communication.h"
 3022              		.file 8 "Generated_Source\\PSoC5/SPIM.h"
 3023              		.file 9 "Generated_Source\\PSoC5/CyLib.h"
 3024              		.file 10 "Generated_Source\\PSoC5/USBUART_cdc.h"
 3025              		.file 11 "Generated_Source\\PSoC5/Timer_1.h"
 3026              		.file 12 "Generated_Source\\PSoC5/UART.h"
 3027              		.file 13 "Generated_Source\\PSoC5/I2C.h"
