ARM GAS  C:\Users\Dell\AppData\Local\Temp\cc9dCj9c.s 			page 1


   1              		.syntax unified
   2              		.cpu cortex-m3
   3              		.fpu softvfp
   4              		.eabi_attribute 20, 1
   5              		.eabi_attribute 21, 1
   6              		.eabi_attribute 23, 3
   7              		.eabi_attribute 24, 1
   8              		.eabi_attribute 25, 1
   9              		.eabi_attribute 26, 1
  10              		.eabi_attribute 30, 1
  11              		.eabi_attribute 34, 1
  12              		.eabi_attribute 18, 4
  13              		.thumb
  14              		.syntax unified
  15              		.file	"cymetadata.c"
  16              		.text
  17              	.Ltext0:
  18              		.cfi_sections	.debug_frame
  19              		.global	cy_metadata
  20              		.global	cy_meta_flashprotect
  21              		.global	cy_meta_wonvl
  22              		.global	cy_meta_custnvl
  23              		.global	cy_meta_configecc
  24              		.section	.cyconfigecc,"a",%progbits
  25              		.align	2
  26              		.type	cy_meta_configecc, %object
  27              		.size	cy_meta_configecc, 2376
  28              	cy_meta_configecc:
  29 0000 01       		.byte	1
  30 0001 45       		.byte	69
  31 0002 00       		.byte	0
  32 0003 40       		.byte	64
  33 0004 0B       		.byte	11
  34 0005 52       		.byte	82
  35 0006 00       		.byte	0
  36 0007 40       		.byte	64
  37 0008 05       		.byte	5
  38 0009 5A       		.byte	90
  39 000a 00       		.byte	0
  40 000b 40       		.byte	64
  41 000c 02       		.byte	2
  42 000d 64       		.byte	100
  43 000e 00       		.byte	0
  44 000f 40       		.byte	64
  45 0010 38       		.byte	56
  46 0011 00       		.byte	0
  47 0012 01       		.byte	1
  48 0013 40       		.byte	64
  49 0014 30       		.byte	48
  50 0015 01       		.byte	1
  51 0016 01       		.byte	1
  52 0017 40       		.byte	64
  53 0018 41       		.byte	65
  54 0019 02       		.byte	2
  55 001a 01       		.byte	1
  56 001b 40       		.byte	64
  57 001c 3A       		.byte	58
ARM GAS  C:\Users\Dell\AppData\Local\Temp\cc9dCj9c.s 			page 2


  58 001d 03       		.byte	3
  59 001e 01       		.byte	1
  60 001f 40       		.byte	64
  61 0020 47       		.byte	71
  62 0021 04       		.byte	4
  63 0022 01       		.byte	1
  64 0023 40       		.byte	64
  65 0024 45       		.byte	69
  66 0025 05       		.byte	5
  67 0026 01       		.byte	1
  68 0027 40       		.byte	64
  69 0028 41       		.byte	65
  70 0029 06       		.byte	6
  71 002a 01       		.byte	1
  72 002b 40       		.byte	64
  73 002c 43       		.byte	67
  74 002d 07       		.byte	7
  75 002e 01       		.byte	1
  76 002f 40       		.byte	64
  77 0030 02       		.byte	2
  78 0031 09       		.byte	9
  79 0032 01       		.byte	1
  80 0033 40       		.byte	64
  81 0034 03       		.byte	3
  82 0035 0B       		.byte	11
  83 0036 01       		.byte	1
  84 0037 40       		.byte	64
  85 0038 04       		.byte	4
  86 0039 0C       		.byte	12
  87 003a 01       		.byte	1
  88 003b 40       		.byte	64
  89 003c 04       		.byte	4
  90 003d 0D       		.byte	13
  91 003e 01       		.byte	1
  92 003f 40       		.byte	64
  93 0040 01       		.byte	1
  94 0041 0F       		.byte	15
  95 0042 01       		.byte	1
  96 0043 40       		.byte	64
  97 0044 66       		.byte	102
  98 0045 14       		.byte	20
  99 0046 01       		.byte	1
 100 0047 40       		.byte	64
 101 0048 3F       		.byte	63
 102 0049 15       		.byte	21
 103 004a 01       		.byte	1
 104 004b 40       		.byte	64
 105 004c 66       		.byte	102
 106 004d 16       		.byte	22
 107 004e 01       		.byte	1
 108 004f 40       		.byte	64
 109 0050 44       		.byte	68
 110 0051 17       		.byte	23
 111 0052 01       		.byte	1
 112 0053 40       		.byte	64
 113 0054 02       		.byte	2
 114 0055 19       		.byte	25
ARM GAS  C:\Users\Dell\AppData\Local\Temp\cc9dCj9c.s 			page 3


 115 0056 01       		.byte	1
 116 0057 40       		.byte	64
 117 0058 02       		.byte	2
 118 0059 1B       		.byte	27
 119 005a 01       		.byte	1
 120 005b 40       		.byte	64
 121 005c 09       		.byte	9
 122 005d 40       		.byte	64
 123 005e 01       		.byte	1
 124 005f 40       		.byte	64
 125 0060 14       		.byte	20
 126 0061 41       		.byte	65
 127 0062 01       		.byte	1
 128 0063 40       		.byte	64
 129 0064 14       		.byte	20
 130 0065 42       		.byte	66
 131 0066 01       		.byte	1
 132 0067 40       		.byte	64
 133 0068 09       		.byte	9
 134 0069 43       		.byte	67
 135 006a 01       		.byte	1
 136 006b 40       		.byte	64
 137 006c 0E       		.byte	14
 138 006d 44       		.byte	68
 139 006e 01       		.byte	1
 140 006f 40       		.byte	64
 141 0070 14       		.byte	20
 142 0071 45       		.byte	69
 143 0072 01       		.byte	1
 144 0073 40       		.byte	64
 145 0074 11       		.byte	17
 146 0075 46       		.byte	70
 147 0076 01       		.byte	1
 148 0077 40       		.byte	64
 149 0078 0B       		.byte	11
 150 0079 47       		.byte	71
 151 007a 01       		.byte	1
 152 007b 40       		.byte	64
 153 007c 16       		.byte	22
 154 007d 48       		.byte	72
 155 007e 01       		.byte	1
 156 007f 40       		.byte	64
 157 0080 1C       		.byte	28
 158 0081 49       		.byte	73
 159 0082 01       		.byte	1
 160 0083 40       		.byte	64
 161 0084 0E       		.byte	14
 162 0085 4C       		.byte	76
 163 0086 01       		.byte	1
 164 0087 40       		.byte	64
 165 0088 09       		.byte	9
 166 0089 4D       		.byte	77
 167 008a 01       		.byte	1
 168 008b 40       		.byte	64
 169 008c 09       		.byte	9
 170 008d 50       		.byte	80
 171 008e 01       		.byte	1
ARM GAS  C:\Users\Dell\AppData\Local\Temp\cc9dCj9c.s 			page 4


 172 008f 40       		.byte	64
 173 0090 02       		.byte	2
 174 0091 51       		.byte	81
 175 0092 01       		.byte	1
 176 0093 40       		.byte	64
 177 0094 7E       		.byte	126
 178 0095 02       		.byte	2
 179 0096 00       		.byte	0
 180 0097 93       		.byte	-109
 181 0098 01       		.byte	1
 182 0099 5A       		.byte	90
 183 009a 08       		.byte	8
 184 009b 10       		.byte	16
 185 009c 09       		.byte	9
 186 009d 10       		.byte	16
 187 009e 10       		.byte	16
 188 009f 99       		.byte	-103
 189 00a0 11       		.byte	17
 190 00a1 AA       		.byte	-86
 191 00a2 18       		.byte	24
 192 00a3 5A       		.byte	90
 193 00a4 19       		.byte	25
 194 00a5 9C       		.byte	-100
 195 00a6 78       		.byte	120
 196 00a7 2C       		.byte	44
 197 00a8 79       		.byte	121
 198 00a9 09       		.byte	9
 199 00aa 7C       		.byte	124
 200 00ab 40       		.byte	64
 201 00ac 0B       		.byte	11
 202 00ad 04       		.byte	4
 203 00ae 0C       		.byte	12
 204 00af 04       		.byte	4
 205 00b0 2B       		.byte	43
 206 00b1 02       		.byte	2
 207 00b2 2C       		.byte	44
 208 00b3 04       		.byte	4
 209 00b4 C7       		.byte	-57
 210 00b5 01       		.byte	1
 211 00b6 86       		.byte	-122
 212 00b7 0D       		.byte	13
 213 00b8 87       		.byte	-121
 214 00b9 0F       		.byte	15
 215 00ba 05       		.byte	5
 216 00bb 02       		.byte	2
 217 00bc 0A       		.byte	10
 218 00bd 01       		.byte	1
 219 00be 0B       		.byte	11
 220 00bf 01       		.byte	1
 221 00c0 0D       		.byte	13
 222 00c1 02       		.byte	2
 223 00c2 0E       		.byte	14
 224 00c3 01       		.byte	1
 225 00c4 10       		.byte	16
 226 00c5 02       		.byte	2
 227 00c6 16       		.byte	22
 228 00c7 02       		.byte	2
ARM GAS  C:\Users\Dell\AppData\Local\Temp\cc9dCj9c.s 			page 5


 229 00c8 17       		.byte	23
 230 00c9 01       		.byte	1
 231 00ca 18       		.byte	24
 232 00cb 01       		.byte	1
 233 00cc 1E       		.byte	30
 234 00cd 02       		.byte	2
 235 00ce 1F       		.byte	31
 236 00cf 02       		.byte	2
 237 00d0 20       		.byte	32
 238 00d1 01       		.byte	1
 239 00d2 23       		.byte	35
 240 00d3 01       		.byte	1
 241 00d4 2A       		.byte	42
 242 00d5 02       		.byte	2
 243 00d6 2B       		.byte	43
 244 00d7 02       		.byte	2
 245 00d8 2F       		.byte	47
 246 00d9 01       		.byte	1
 247 00da 31       		.byte	49
 248 00db 01       		.byte	1
 249 00dc 32       		.byte	50
 250 00dd 02       		.byte	2
 251 00de 34       		.byte	52
 252 00df 01       		.byte	1
 253 00e0 35       		.byte	53
 254 00e1 02       		.byte	2
 255 00e2 3E       		.byte	62
 256 00e3 14       		.byte	20
 257 00e4 3F       		.byte	63
 258 00e5 11       		.byte	17
 259 00e6 58       		.byte	88
 260 00e7 04       		.byte	4
 261 00e8 59       		.byte	89
 262 00e9 04       		.byte	4
 263 00ea 5F       		.byte	95
 264 00eb 01       		.byte	1
 265 00ec 83       		.byte	-125
 266 00ed 08       		.byte	8
 267 00ee 87       		.byte	-121
 268 00ef 03       		.byte	3
 269 00f0 89       		.byte	-119
 270 00f1 04       		.byte	4
 271 00f2 8A       		.byte	-118
 272 00f3 01       		.byte	1
 273 00f4 8F       		.byte	-113
 274 00f5 04       		.byte	4
 275 00f6 90       		.byte	-112
 276 00f7 02       		.byte	2
 277 00f8 91       		.byte	-111
 278 00f9 01       		.byte	1
 279 00fa 96       		.byte	-106
 280 00fb 02       		.byte	2
 281 00fc 97       		.byte	-105
 282 00fd 02       		.byte	2
 283 00fe 98       		.byte	-104
 284 00ff 02       		.byte	2
 285 0100 9B       		.byte	-101
ARM GAS  C:\Users\Dell\AppData\Local\Temp\cc9dCj9c.s 			page 6


 286 0101 04       		.byte	4
 287 0102 9E       		.byte	-98
 288 0103 02       		.byte	2
 289 0104 9F       		.byte	-97
 290 0105 03       		.byte	3
 291 0106 A3       		.byte	-93
 292 0107 04       		.byte	4
 293 0108 A4       		.byte	-92
 294 0109 01       		.byte	1
 295 010a A5       		.byte	-91
 296 010b 08       		.byte	8
 297 010c A9       		.byte	-87
 298 010d 08       		.byte	8
 299 010e AA       		.byte	-86
 300 010f 01       		.byte	1
 301 0110 AC       		.byte	-84
 302 0111 01       		.byte	1
 303 0112 AF       		.byte	-81
 304 0113 08       		.byte	8
 305 0114 B0       		.byte	-80
 306 0115 02       		.byte	2
 307 0116 B1       		.byte	-79
 308 0117 04       		.byte	4
 309 0118 B4       		.byte	-76
 310 0119 01       		.byte	1
 311 011a B5       		.byte	-75
 312 011b 03       		.byte	3
 313 011c B7       		.byte	-73
 314 011d 08       		.byte	8
 315 011e BE       		.byte	-66
 316 011f 11       		.byte	17
 317 0120 BF       		.byte	-65
 318 0121 41       		.byte	65
 319 0122 D8       		.byte	-40
 320 0123 04       		.byte	4
 321 0124 D9       		.byte	-39
 322 0125 04       		.byte	4
 323 0126 DC       		.byte	-36
 324 0127 10       		.byte	16
 325 0128 DF       		.byte	-33
 326 0129 01       		.byte	1
 327 012a 01       		.byte	1
 328 012b 40       		.byte	64
 329 012c 03       		.byte	3
 330 012d 0C       		.byte	12
 331 012e 04       		.byte	4
 332 012f 10       		.byte	16
 333 0130 08       		.byte	8
 334 0131 01       		.byte	1
 335 0132 0A       		.byte	10
 336 0133 49       		.byte	73
 337 0134 0B       		.byte	11
 338 0135 24       		.byte	36
 339 0136 0C       		.byte	12
 340 0137 04       		.byte	4
 341 0138 0E       		.byte	14
 342 0139 45       		.byte	69
ARM GAS  C:\Users\Dell\AppData\Local\Temp\cc9dCj9c.s 			page 7


 343 013a 10       		.byte	16
 344 013b 84       		.byte	-124
 345 013c 15       		.byte	21
 346 013d 40       		.byte	64
 347 013e 16       		.byte	22
 348 013f 28       		.byte	40
 349 0140 17       		.byte	23
 350 0141 04       		.byte	4
 351 0142 18       		.byte	24
 352 0143 08       		.byte	8
 353 0144 19       		.byte	25
 354 0145 08       		.byte	8
 355 0146 1F       		.byte	31
 356 0147 22       		.byte	34
 357 0148 21       		.byte	33
 358 0149 21       		.byte	33
 359 014a 25       		.byte	37
 360 014b 02       		.byte	2
 361 014c 26       		.byte	38
 362 014d 80       		.byte	-128
 363 014e 27       		.byte	39
 364 014f 08       		.byte	8
 365 0150 28       		.byte	40
 366 0151 01       		.byte	1
 367 0152 2A       		.byte	42
 368 0153 02       		.byte	2
 369 0154 2B       		.byte	43
 370 0155 08       		.byte	8
 371 0156 2C       		.byte	44
 372 0157 84       		.byte	-124
 373 0158 2E       		.byte	46
 374 0159 44       		.byte	68
 375 015a 2F       		.byte	47
 376 015b 10       		.byte	16
 377 015c 30       		.byte	48
 378 015d 84       		.byte	-124
 379 015e 34       		.byte	52
 380 015f 10       		.byte	16
 381 0160 35       		.byte	53
 382 0161 40       		.byte	64
 383 0162 37       		.byte	55
 384 0163 09       		.byte	9
 385 0164 39       		.byte	57
 386 0165 40       		.byte	64
 387 0166 3A       		.byte	58
 388 0167 08       		.byte	8
 389 0168 3B       		.byte	59
 390 0169 24       		.byte	36
 391 016a 3C       		.byte	60
 392 016b 04       		.byte	4
 393 016c 3D       		.byte	61
 394 016d 40       		.byte	64
 395 016e 3E       		.byte	62
 396 016f 23       		.byte	35
 397 0170 81       		.byte	-127
 398 0171 20       		.byte	32
 399 0172 87       		.byte	-121
ARM GAS  C:\Users\Dell\AppData\Local\Temp\cc9dCj9c.s 			page 8


 400 0173 22       		.byte	34
 401 0174 89       		.byte	-119
 402 0175 03       		.byte	3
 403 0176 8C       		.byte	-116
 404 0177 04       		.byte	4
 405 0178 8D       		.byte	-115
 406 0179 08       		.byte	8
 407 017a C0       		.byte	-64
 408 017b 43       		.byte	67
 409 017c C2       		.byte	-62
 410 017d FF       		.byte	-1
 411 017e C4       		.byte	-60
 412 017f EA       		.byte	-22
 413 0180 CA       		.byte	-54
 414 0181 FD       		.byte	-3
 415 0182 CC       		.byte	-52
 416 0183 FA       		.byte	-6
 417 0184 CE       		.byte	-50
 418 0185 FE       		.byte	-2
 419 0186 E0       		.byte	-32
 420 0187 04       		.byte	4
 421 0188 E6       		.byte	-26
 422 0189 20       		.byte	32
 423 018a 03       		.byte	3
 424 018b 02       		.byte	2
 425 018c 05       		.byte	5
 426 018d 02       		.byte	2
 427 018e 0A       		.byte	10
 428 018f 01       		.byte	1
 429 0190 0B       		.byte	11
 430 0191 02       		.byte	2
 431 0192 0F       		.byte	15
 432 0193 01       		.byte	1
 433 0194 12       		.byte	18
 434 0195 02       		.byte	2
 435 0196 14       		.byte	20
 436 0197 02       		.byte	2
 437 0198 17       		.byte	23
 438 0199 01       		.byte	1
 439 019a 18       		.byte	24
 440 019b 02       		.byte	2
 441 019c 1B       		.byte	27
 442 019d 01       		.byte	1
 443 019e 1C       		.byte	28
 444 019f 02       		.byte	2
 445 01a0 23       		.byte	35
 446 01a1 01       		.byte	1
 447 01a2 26       		.byte	38
 448 01a3 01       		.byte	1
 449 01a4 2A       		.byte	42
 450 01a5 01       		.byte	1
 451 01a6 2C       		.byte	44
 452 01a7 01       		.byte	1
 453 01a8 2F       		.byte	47
 454 01a9 02       		.byte	2
 455 01aa 31       		.byte	49
 456 01ab 02       		.byte	2
ARM GAS  C:\Users\Dell\AppData\Local\Temp\cc9dCj9c.s 			page 9


 457 01ac 34       		.byte	52
 458 01ad 01       		.byte	1
 459 01ae 35       		.byte	53
 460 01af 01       		.byte	1
 461 01b0 36       		.byte	54
 462 01b1 02       		.byte	2
 463 01b2 3E       		.byte	62
 464 01b3 50       		.byte	80
 465 01b4 3F       		.byte	63
 466 01b5 11       		.byte	17
 467 01b6 58       		.byte	88
 468 01b7 04       		.byte	4
 469 01b8 59       		.byte	89
 470 01b9 04       		.byte	4
 471 01ba 5F       		.byte	95
 472 01bb 01       		.byte	1
 473 01bc 80       		.byte	-128
 474 01bd 02       		.byte	2
 475 01be 81       		.byte	-127
 476 01bf 04       		.byte	4
 477 01c0 82       		.byte	-126
 478 01c1 0D       		.byte	13
 479 01c2 84       		.byte	-124
 480 01c3 05       		.byte	5
 481 01c4 85       		.byte	-123
 482 01c5 04       		.byte	4
 483 01c6 86       		.byte	-122
 484 01c7 0A       		.byte	10
 485 01c8 88       		.byte	-120
 486 01c9 20       		.byte	32
 487 01ca 8B       		.byte	-117
 488 01cb 01       		.byte	1
 489 01cc 8C       		.byte	-116
 490 01cd 03       		.byte	3
 491 01ce 8E       		.byte	-114
 492 01cf 0C       		.byte	12
 493 01d0 8F       		.byte	-113
 494 01d1 01       		.byte	1
 495 01d2 90       		.byte	-112
 496 01d3 10       		.byte	16
 497 01d4 94       		.byte	-108
 498 01d5 09       		.byte	9
 499 01d6 96       		.byte	-106
 500 01d7 06       		.byte	6
 501 01d8 97       		.byte	-105
 502 01d9 01       		.byte	1
 503 01da 98       		.byte	-104
 504 01db 20       		.byte	32
 505 01dc 99       		.byte	-103
 506 01dd 02       		.byte	2
 507 01de 9C       		.byte	-100
 508 01df 10       		.byte	16
 509 01e0 9D       		.byte	-99
 510 01e1 02       		.byte	2
 511 01e2 A0       		.byte	-96
 512 01e3 20       		.byte	32
 513 01e4 A3       		.byte	-93
ARM GAS  C:\Users\Dell\AppData\Local\Temp\cc9dCj9c.s 			page 10


 514 01e5 02       		.byte	2
 515 01e6 A5       		.byte	-91
 516 01e7 01       		.byte	1
 517 01e8 A6       		.byte	-90
 518 01e9 10       		.byte	16
 519 01ea A8       		.byte	-88
 520 01eb 10       		.byte	16
 521 01ec AB       		.byte	-85
 522 01ed 02       		.byte	2
 523 01ee AD       		.byte	-83
 524 01ef 04       		.byte	4
 525 01f0 AE       		.byte	-82
 526 01f1 20       		.byte	32
 527 01f2 B0       		.byte	-80
 528 01f3 0F       		.byte	15
 529 01f4 B1       		.byte	-79
 530 01f5 02       		.byte	2
 531 01f6 B2       		.byte	-78
 532 01f7 10       		.byte	16
 533 01f8 B3       		.byte	-77
 534 01f9 01       		.byte	1
 535 01fa B4       		.byte	-76
 536 01fb 20       		.byte	32
 537 01fc B7       		.byte	-73
 538 01fd 04       		.byte	4
 539 01fe BA       		.byte	-70
 540 01ff 02       		.byte	2
 541 0200 BE       		.byte	-66
 542 0201 14       		.byte	20
 543 0202 BF       		.byte	-65
 544 0203 45       		.byte	69
 545 0204 D8       		.byte	-40
 546 0205 04       		.byte	4
 547 0206 D9       		.byte	-39
 548 0207 04       		.byte	4
 549 0208 DC       		.byte	-36
 550 0209 01       		.byte	1
 551 020a DF       		.byte	-33
 552 020b 01       		.byte	1
 553 020c 01       		.byte	1
 554 020d 0A       		.byte	10
 555 020e 02       		.byte	2
 556 020f 01       		.byte	1
 557 0210 03       		.byte	3
 558 0211 05       		.byte	5
 559 0212 04       		.byte	4
 560 0213 10       		.byte	16
 561 0214 0A       		.byte	10
 562 0215 69       		.byte	105
 563 0216 0C       		.byte	12
 564 0217 44       		.byte	68
 565 0218 0D       		.byte	13
 566 0219 20       		.byte	32
 567 021a 0E       		.byte	14
 568 021b 55       		.byte	85
 569 021c 0F       		.byte	15
 570 021d 84       		.byte	-124
ARM GAS  C:\Users\Dell\AppData\Local\Temp\cc9dCj9c.s 			page 11


 571 021e 10       		.byte	16
 572 021f 84       		.byte	-124
 573 0220 11       		.byte	17
 574 0221 40       		.byte	64
 575 0222 13       		.byte	19
 576 0223 04       		.byte	4
 577 0224 15       		.byte	21
 578 0225 40       		.byte	64
 579 0226 16       		.byte	22
 580 0227 08       		.byte	8
 581 0228 17       		.byte	23
 582 0229 04       		.byte	4
 583 022a 18       		.byte	24
 584 022b 20       		.byte	32
 585 022c 19       		.byte	25
 586 022d 13       		.byte	19
 587 022e 1F       		.byte	31
 588 022f 90       		.byte	-112
 589 0230 21       		.byte	33
 590 0231 01       		.byte	1
 591 0232 23       		.byte	35
 592 0233 11       		.byte	17
 593 0234 25       		.byte	37
 594 0235 01       		.byte	1
 595 0236 26       		.byte	38
 596 0237 10       		.byte	16
 597 0238 28       		.byte	40
 598 0239 14       		.byte	20
 599 023a 29       		.byte	41
 600 023b 40       		.byte	64
 601 023c 2A       		.byte	42
 602 023d 08       		.byte	8
 603 023e 2B       		.byte	43
 604 023f 40       		.byte	64
 605 0240 2C       		.byte	44
 606 0241 80       		.byte	-128
 607 0242 2E       		.byte	46
 608 0243 40       		.byte	64
 609 0244 30       		.byte	48
 610 0245 40       		.byte	64
 611 0246 31       		.byte	49
 612 0247 20       		.byte	32
 613 0248 33       		.byte	51
 614 0249 04       		.byte	4
 615 024a 34       		.byte	52
 616 024b 10       		.byte	16
 617 024c 37       		.byte	55
 618 024d 04       		.byte	4
 619 024e 38       		.byte	56
 620 024f 14       		.byte	20
 621 0250 39       		.byte	57
 622 0251 40       		.byte	64
 623 0252 3A       		.byte	58
 624 0253 01       		.byte	1
 625 0254 3D       		.byte	61
 626 0255 40       		.byte	64
 627 0256 3E       		.byte	62
ARM GAS  C:\Users\Dell\AppData\Local\Temp\cc9dCj9c.s 			page 12


 628 0257 15       		.byte	21
 629 0258 83       		.byte	-125
 630 0259 08       		.byte	8
 631 025a 85       		.byte	-123
 632 025b 01       		.byte	1
 633 025c 86       		.byte	-122
 634 025d 10       		.byte	16
 635 025e 8D       		.byte	-115
 636 025f 10       		.byte	16
 637 0260 94       		.byte	-108
 638 0261 14       		.byte	20
 639 0262 95       		.byte	-107
 640 0263 40       		.byte	64
 641 0264 96       		.byte	-106
 642 0265 4D       		.byte	77
 643 0266 9B       		.byte	-101
 644 0267 08       		.byte	8
 645 0268 9C       		.byte	-100
 646 0269 14       		.byte	20
 647 026a 9D       		.byte	-99
 648 026b 40       		.byte	64
 649 026c 9F       		.byte	-97
 650 026d 05       		.byte	5
 651 026e A2       		.byte	-94
 652 026f 80       		.byte	-128
 653 0270 A4       		.byte	-92
 654 0271 80       		.byte	-128
 655 0272 C0       		.byte	-64
 656 0273 4F       		.byte	79
 657 0274 C2       		.byte	-62
 658 0275 FF       		.byte	-1
 659 0276 C4       		.byte	-60
 660 0277 EF       		.byte	-17
 661 0278 CA       		.byte	-54
 662 0279 9F       		.byte	-97
 663 027a CC       		.byte	-52
 664 027b 6E       		.byte	110
 665 027c CE       		.byte	-50
 666 027d FF       		.byte	-1
 667 027e E4       		.byte	-28
 668 027f 02       		.byte	2
 669 0280 0A       		.byte	10
 670 0281 01       		.byte	1
 671 0282 0F       		.byte	15
 672 0283 01       		.byte	1
 673 0284 15       		.byte	21
 674 0285 01       		.byte	1
 675 0286 18       		.byte	24
 676 0287 01       		.byte	1
 677 0288 19       		.byte	25
 678 0289 01       		.byte	1
 679 028a 1F       		.byte	31
 680 028b 01       		.byte	1
 681 028c 20       		.byte	32
 682 028d 01       		.byte	1
 683 028e 2C       		.byte	44
 684 028f 01       		.byte	1
ARM GAS  C:\Users\Dell\AppData\Local\Temp\cc9dCj9c.s 			page 13


 685 0290 32       		.byte	50
 686 0291 01       		.byte	1
 687 0292 33       		.byte	51
 688 0293 01       		.byte	1
 689 0294 3E       		.byte	62
 690 0295 04       		.byte	4
 691 0296 3F       		.byte	63
 692 0297 04       		.byte	4
 693 0298 40       		.byte	64
 694 0299 52       		.byte	82
 695 029a 41       		.byte	65
 696 029b 04       		.byte	4
 697 029c 42       		.byte	66
 698 029d 30       		.byte	48
 699 029e 44       		.byte	68
 700 029f 06       		.byte	6
 701 02a0 45       		.byte	69
 702 02a1 CE       		.byte	-50
 703 02a2 46       		.byte	70
 704 02a3 FD       		.byte	-3
 705 02a4 47       		.byte	71
 706 02a5 0B       		.byte	11
 707 02a6 48       		.byte	72
 708 02a7 1F       		.byte	31
 709 02a8 49       		.byte	73
 710 02a9 FF       		.byte	-1
 711 02aa 4A       		.byte	74
 712 02ab FF       		.byte	-1
 713 02ac 4B       		.byte	75
 714 02ad FF       		.byte	-1
 715 02ae 4C       		.byte	76
 716 02af 22       		.byte	34
 717 02b0 4E       		.byte	78
 718 02b1 F0       		.byte	-16
 719 02b2 4F       		.byte	79
 720 02b3 08       		.byte	8
 721 02b4 50       		.byte	80
 722 02b5 04       		.byte	4
 723 02b6 54       		.byte	84
 724 02b7 09       		.byte	9
 725 02b8 58       		.byte	88
 726 02b9 04       		.byte	4
 727 02ba 59       		.byte	89
 728 02bb 04       		.byte	4
 729 02bc 5A       		.byte	90
 730 02bd 04       		.byte	4
 731 02be 5B       		.byte	91
 732 02bf 04       		.byte	4
 733 02c0 5D       		.byte	93
 734 02c1 11       		.byte	17
 735 02c2 5F       		.byte	95
 736 02c3 01       		.byte	1
 737 02c4 62       		.byte	98
 738 02c5 C0       		.byte	-64
 739 02c6 64       		.byte	100
 740 02c7 40       		.byte	64
 741 02c8 65       		.byte	101
ARM GAS  C:\Users\Dell\AppData\Local\Temp\cc9dCj9c.s 			page 14


 742 02c9 01       		.byte	1
 743 02ca 66       		.byte	102
 744 02cb 10       		.byte	16
 745 02cc 67       		.byte	103
 746 02cd 11       		.byte	17
 747 02ce 68       		.byte	104
 748 02cf C0       		.byte	-64
 749 02d0 69       		.byte	105
 750 02d1 01       		.byte	1
 751 02d2 6B       		.byte	107
 752 02d3 11       		.byte	17
 753 02d4 6C       		.byte	108
 754 02d5 40       		.byte	64
 755 02d6 6D       		.byte	109
 756 02d7 01       		.byte	1
 757 02d8 6E       		.byte	110
 758 02d9 40       		.byte	64
 759 02da 6F       		.byte	111
 760 02db 01       		.byte	1
 761 02dc 80       		.byte	-128
 762 02dd 02       		.byte	2
 763 02de 81       		.byte	-127
 764 02df 02       		.byte	2
 765 02e0 85       		.byte	-123
 766 02e1 02       		.byte	2
 767 02e2 8A       		.byte	-118
 768 02e3 02       		.byte	2
 769 02e4 90       		.byte	-112
 770 02e5 01       		.byte	1
 771 02e6 91       		.byte	-111
 772 02e7 01       		.byte	1
 773 02e8 95       		.byte	-107
 774 02e9 01       		.byte	1
 775 02ea 96       		.byte	-106
 776 02eb 01       		.byte	1
 777 02ec 99       		.byte	-103
 778 02ed 01       		.byte	1
 779 02ee 9A       		.byte	-102
 780 02ef 01       		.byte	1
 781 02f0 9C       		.byte	-100
 782 02f1 01       		.byte	1
 783 02f2 A2       		.byte	-94
 784 02f3 02       		.byte	2
 785 02f4 A3       		.byte	-93
 786 02f5 01       		.byte	1
 787 02f6 A6       		.byte	-90
 788 02f7 02       		.byte	2
 789 02f8 AB       		.byte	-85
 790 02f9 02       		.byte	2
 791 02fa AD       		.byte	-83
 792 02fb 02       		.byte	2
 793 02fc B1       		.byte	-79
 794 02fd 01       		.byte	1
 795 02fe B2       		.byte	-78
 796 02ff 02       		.byte	2
 797 0300 B4       		.byte	-76
 798 0301 01       		.byte	1
ARM GAS  C:\Users\Dell\AppData\Local\Temp\cc9dCj9c.s 			page 15


 799 0302 B5       		.byte	-75
 800 0303 02       		.byte	2
 801 0304 BE       		.byte	-66
 802 0305 14       		.byte	20
 803 0306 BF       		.byte	-65
 804 0307 11       		.byte	17
 805 0308 D8       		.byte	-40
 806 0309 04       		.byte	4
 807 030a D9       		.byte	-39
 808 030b 04       		.byte	4
 809 030c DF       		.byte	-33
 810 030d 01       		.byte	1
 811 030e 03       		.byte	3
 812 030f 04       		.byte	4
 813 0310 07       		.byte	7
 814 0311 44       		.byte	68
 815 0312 08       		.byte	8
 816 0313 10       		.byte	16
 817 0314 0A       		.byte	10
 818 0315 08       		.byte	8
 819 0316 0E       		.byte	14
 820 0317 55       		.byte	85
 821 0318 10       		.byte	16
 822 0319 80       		.byte	-128
 823 031a 11       		.byte	17
 824 031b 40       		.byte	64
 825 031c 14       		.byte	20
 826 031d 10       		.byte	16
 827 031e 17       		.byte	23
 828 031f 02       		.byte	2
 829 0320 18       		.byte	24
 830 0321 20       		.byte	32
 831 0322 1E       		.byte	30
 832 0323 28       		.byte	40
 833 0324 23       		.byte	35
 834 0325 10       		.byte	16
 835 0326 24       		.byte	36
 836 0327 08       		.byte	8
 837 0328 25       		.byte	37
 838 0329 01       		.byte	1
 839 032a 2C       		.byte	44
 840 032b 80       		.byte	-128
 841 032c 2E       		.byte	46
 842 032d 50       		.byte	80
 843 032e 30       		.byte	48
 844 032f 90       		.byte	-112
 845 0330 33       		.byte	51
 846 0331 04       		.byte	4
 847 0332 34       		.byte	52
 848 0333 10       		.byte	16
 849 0334 37       		.byte	55
 850 0335 06       		.byte	6
 851 0336 39       		.byte	57
 852 0337 40       		.byte	64
 853 0338 3E       		.byte	62
 854 0339 05       		.byte	5
 855 033a 40       		.byte	64
ARM GAS  C:\Users\Dell\AppData\Local\Temp\cc9dCj9c.s 			page 16


 856 033b 04       		.byte	4
 857 033c 41       		.byte	65
 858 033d 08       		.byte	8
 859 033e 43       		.byte	67
 860 033f 01       		.byte	1
 861 0340 49       		.byte	73
 862 0341 64       		.byte	100
 863 0342 4A       		.byte	74
 864 0343 80       		.byte	-128
 865 0344 50       		.byte	80
 866 0345 40       		.byte	64
 867 0346 52       		.byte	82
 868 0347 18       		.byte	24
 869 0348 58       		.byte	88
 870 0349 41       		.byte	65
 871 034a 59       		.byte	89
 872 034b 14       		.byte	20
 873 034c 63       		.byte	99
 874 034d 01       		.byte	1
 875 034e 68       		.byte	104
 876 034f 80       		.byte	-128
 877 0350 69       		.byte	105
 878 0351 40       		.byte	64
 879 0352 6A       		.byte	106
 880 0353 08       		.byte	8
 881 0354 6B       		.byte	107
 882 0355 46       		.byte	70
 883 0356 84       		.byte	-124
 884 0357 01       		.byte	1
 885 0358 85       		.byte	-123
 886 0359 08       		.byte	8
 887 035a 8A       		.byte	-118
 888 035b 10       		.byte	16
 889 035c 8D       		.byte	-115
 890 035d 01       		.byte	1
 891 035e 93       		.byte	-109
 892 035f 01       		.byte	1
 893 0360 94       		.byte	-108
 894 0361 14       		.byte	20
 895 0362 95       		.byte	-107
 896 0363 40       		.byte	64
 897 0364 96       		.byte	-106
 898 0365 7D       		.byte	125
 899 0366 99       		.byte	-103
 900 0367 01       		.byte	1
 901 0368 9C       		.byte	-100
 902 0369 10       		.byte	16
 903 036a 9D       		.byte	-99
 904 036b 48       		.byte	72
 905 036c 9F       		.byte	-97
 906 036d 05       		.byte	5
 907 036e A4       		.byte	-92
 908 036f 80       		.byte	-128
 909 0370 AA       		.byte	-86
 910 0371 80       		.byte	-128
 911 0372 AF       		.byte	-81
 912 0373 10       		.byte	16
ARM GAS  C:\Users\Dell\AppData\Local\Temp\cc9dCj9c.s 			page 17


 913 0374 B3       		.byte	-77
 914 0375 10       		.byte	16
 915 0376 B4       		.byte	-76
 916 0377 10       		.byte	16
 917 0378 B5       		.byte	-75
 918 0379 01       		.byte	1
 919 037a B7       		.byte	-73
 920 037b 80       		.byte	-128
 921 037c C0       		.byte	-64
 922 037d 52       		.byte	82
 923 037e C2       		.byte	-62
 924 037f F2       		.byte	-14
 925 0380 C4       		.byte	-60
 926 0381 39       		.byte	57
 927 0382 CA       		.byte	-54
 928 0383 B0       		.byte	-80
 929 0384 CC       		.byte	-52
 930 0385 EE       		.byte	-18
 931 0386 CE       		.byte	-50
 932 0387 C8       		.byte	-56
 933 0388 D0       		.byte	-48
 934 0389 07       		.byte	7
 935 038a D2       		.byte	-46
 936 038b 0C       		.byte	12
 937 038c D6       		.byte	-42
 938 038d 0F       		.byte	15
 939 038e D8       		.byte	-40
 940 038f 08       		.byte	8
 941 0390 E2       		.byte	-30
 942 0391 90       		.byte	-112
 943 0392 E6       		.byte	-26
 944 0393 08       		.byte	8
 945 0394 E8       		.byte	-24
 946 0395 08       		.byte	8
 947 0396 EA       		.byte	-22
 948 0397 70       		.byte	112
 949 0398 00       		.byte	0
 950 0399 01       		.byte	1
 951 039a 01       		.byte	1
 952 039b 01       		.byte	1
 953 039c 07       		.byte	7
 954 039d 01       		.byte	1
 955 039e 08       		.byte	8
 956 039f 01       		.byte	1
 957 03a0 0B       		.byte	11
 958 03a1 01       		.byte	1
 959 03a2 0E       		.byte	14
 960 03a3 01       		.byte	1
 961 03a4 0F       		.byte	15
 962 03a5 02       		.byte	2
 963 03a6 10       		.byte	16
 964 03a7 02       		.byte	2
 965 03a8 13       		.byte	19
 966 03a9 02       		.byte	2
 967 03aa 14       		.byte	20
 968 03ab 02       		.byte	2
 969 03ac 1A       		.byte	26
ARM GAS  C:\Users\Dell\AppData\Local\Temp\cc9dCj9c.s 			page 18


 970 03ad 02       		.byte	2
 971 03ae 1E       		.byte	30
 972 03af 02       		.byte	2
 973 03b0 26       		.byte	38
 974 03b1 01       		.byte	1
 975 03b2 2F       		.byte	47
 976 03b3 01       		.byte	1
 977 03b4 30       		.byte	48
 978 03b5 02       		.byte	2
 979 03b6 32       		.byte	50
 980 03b7 01       		.byte	1
 981 03b8 35       		.byte	53
 982 03b9 01       		.byte	1
 983 03ba 37       		.byte	55
 984 03bb 02       		.byte	2
 985 03bc 3E       		.byte	62
 986 03bd 05       		.byte	5
 987 03be 3F       		.byte	63
 988 03bf 50       		.byte	80
 989 03c0 54       		.byte	84
 990 03c1 01       		.byte	1
 991 03c2 56       		.byte	86
 992 03c3 04       		.byte	4
 993 03c4 58       		.byte	88
 994 03c5 04       		.byte	4
 995 03c6 59       		.byte	89
 996 03c7 04       		.byte	4
 997 03c8 5B       		.byte	91
 998 03c9 04       		.byte	4
 999 03ca 5D       		.byte	93
 1000 03cb 90       		.byte	-112
 1001 03cc 5F       		.byte	95
 1002 03cd 01       		.byte	1
 1003 03ce 81       		.byte	-127
 1004 03cf 08       		.byte	8
 1005 03d0 84       		.byte	-124
 1006 03d1 0D       		.byte	13
 1007 03d2 85       		.byte	-123
 1008 03d3 08       		.byte	8
 1009 03d4 88       		.byte	-120
 1010 03d5 02       		.byte	2
 1011 03d6 89       		.byte	-119
 1012 03d7 08       		.byte	8
 1013 03d8 8A       		.byte	-118
 1014 03d9 0D       		.byte	13
 1015 03da 8C       		.byte	-116
 1016 03db 0D       		.byte	13
 1017 03dc 8F       		.byte	-113
 1018 03dd 08       		.byte	8
 1019 03de 90       		.byte	-112
 1020 03df 01       		.byte	1
 1021 03e0 91       		.byte	-111
 1022 03e1 01       		.byte	1
 1023 03e2 92       		.byte	-110
 1024 03e3 02       		.byte	2
 1025 03e4 93       		.byte	-109
 1026 03e5 02       		.byte	2
ARM GAS  C:\Users\Dell\AppData\Local\Temp\cc9dCj9c.s 			page 19


 1027 03e6 94       		.byte	-108
 1028 03e7 02       		.byte	2
 1029 03e8 96       		.byte	-106
 1030 03e9 08       		.byte	8
 1031 03ea 98       		.byte	-104
 1032 03eb 02       		.byte	2
 1033 03ec 99       		.byte	-103
 1034 03ed 04       		.byte	4
 1035 03ee 9A       		.byte	-102
 1036 03ef 04       		.byte	4
 1037 03f0 9C       		.byte	-100
 1038 03f1 0D       		.byte	13
 1039 03f2 9D       		.byte	-99
 1040 03f3 04       		.byte	4
 1041 03f4 A1       		.byte	-95
 1042 03f5 08       		.byte	8
 1043 03f6 A5       		.byte	-91
 1044 03f7 06       		.byte	6
 1045 03f8 A7       		.byte	-89
 1046 03f9 01       		.byte	1
 1047 03fa A8       		.byte	-88
 1048 03fb 0D       		.byte	13
 1049 03fc AC       		.byte	-84
 1050 03fd 0D       		.byte	13
 1051 03fe B2       		.byte	-78
 1052 03ff 0F       		.byte	15
 1053 0400 B3       		.byte	-77
 1054 0401 08       		.byte	8
 1055 0402 B5       		.byte	-75
 1056 0403 07       		.byte	7
 1057 0404 BA       		.byte	-70
 1058 0405 08       		.byte	8
 1059 0406 BB       		.byte	-69
 1060 0407 20       		.byte	32
 1061 0408 BF       		.byte	-65
 1062 0409 04       		.byte	4
 1063 040a D6       		.byte	-42
 1064 040b 02       		.byte	2
 1065 040c D7       		.byte	-41
 1066 040d 2C       		.byte	44
 1067 040e D8       		.byte	-40
 1068 040f 04       		.byte	4
 1069 0410 D9       		.byte	-39
 1070 0411 04       		.byte	4
 1071 0412 DB       		.byte	-37
 1072 0413 04       		.byte	4
 1073 0414 DC       		.byte	-36
 1074 0415 11       		.byte	17
 1075 0416 DD       		.byte	-35
 1076 0417 10       		.byte	16
 1077 0418 DF       		.byte	-33
 1078 0419 01       		.byte	1
 1079 041a 00       		.byte	0
 1080 041b 10       		.byte	16
 1081 041c 02       		.byte	2
 1082 041d 01       		.byte	1
 1083 041e 03       		.byte	3
ARM GAS  C:\Users\Dell\AppData\Local\Temp\cc9dCj9c.s 			page 20


 1084 041f 10       		.byte	16
 1085 0420 07       		.byte	7
 1086 0421 46       		.byte	70
 1087 0422 08       		.byte	8
 1088 0423 20       		.byte	32
 1089 0424 09       		.byte	9
 1090 0425 80       		.byte	-128
 1091 0426 0A       		.byte	10
 1092 0427 A0       		.byte	-96
 1093 0428 0E       		.byte	14
 1094 0429 55       		.byte	85
 1095 042a 11       		.byte	17
 1096 042b 50       		.byte	80
 1097 042c 14       		.byte	20
 1098 042d 10       		.byte	16
 1099 042e 18       		.byte	24
 1100 042f 10       		.byte	16
 1101 0430 1C       		.byte	28
 1102 0431 80       		.byte	-128
 1103 0432 1D       		.byte	29
 1104 0433 04       		.byte	4
 1105 0434 20       		.byte	32
 1106 0435 04       		.byte	4
 1107 0436 21       		.byte	33
 1108 0437 08       		.byte	8
 1109 0438 22       		.byte	34
 1110 0439 10       		.byte	16
 1111 043a 26       		.byte	38
 1112 043b 50       		.byte	80
 1113 043c 29       		.byte	41
 1114 043d 08       		.byte	8
 1115 043e 2A       		.byte	42
 1116 043f 02       		.byte	2
 1117 0440 2E       		.byte	46
 1118 0441 40       		.byte	64
 1119 0442 32       		.byte	50
 1120 0443 90       		.byte	-112
 1121 0444 33       		.byte	51
 1122 0445 01       		.byte	1
 1123 0446 36       		.byte	54
 1124 0447 02       		.byte	2
 1125 0448 39       		.byte	57
 1126 0449 5A       		.byte	90
 1127 044a 3A       		.byte	58
 1128 044b 01       		.byte	1
 1129 044c 3E       		.byte	62
 1130 044d 95       		.byte	-107
 1131 044e 4D       		.byte	77
 1132 044f C0       		.byte	-64
 1133 0450 5E       		.byte	94
 1134 0451 80       		.byte	-128
 1135 0452 5F       		.byte	95
 1136 0453 05       		.byte	5
 1137 0454 61       		.byte	97
 1138 0455 01       		.byte	1
 1139 0456 67       		.byte	103
 1140 0457 80       		.byte	-128
ARM GAS  C:\Users\Dell\AppData\Local\Temp\cc9dCj9c.s 			page 21


 1141 0458 69       		.byte	105
 1142 0459 5A       		.byte	90
 1143 045a 6B       		.byte	107
 1144 045b 10       		.byte	16
 1145 045c 71       		.byte	113
 1146 045d 80       		.byte	-128
 1147 045e 72       		.byte	114
 1148 045f 02       		.byte	2
 1149 0460 87       		.byte	-121
 1150 0461 40       		.byte	64
 1151 0462 8E       		.byte	-114
 1152 0463 04       		.byte	4
 1153 0464 90       		.byte	-112
 1154 0465 88       		.byte	-120
 1155 0466 94       		.byte	-108
 1156 0467 04       		.byte	4
 1157 0468 96       		.byte	-106
 1158 0469 75       		.byte	117
 1159 046a 98       		.byte	-104
 1160 046b 10       		.byte	16
 1161 046c 99       		.byte	-103
 1162 046d 01       		.byte	1
 1163 046e 9A       		.byte	-102
 1164 046f 10       		.byte	16
 1165 0470 9B       		.byte	-101
 1166 0471 46       		.byte	70
 1167 0472 9C       		.byte	-100
 1168 0473 40       		.byte	64
 1169 0474 9D       		.byte	-99
 1170 0475 08       		.byte	8
 1171 0476 9F       		.byte	-97
 1172 0477 01       		.byte	1
 1173 0478 A2       		.byte	-94
 1174 0479 8C       		.byte	-116
 1175 047a A5       		.byte	-91
 1176 047b 08       		.byte	8
 1177 047c A8       		.byte	-88
 1178 047d 10       		.byte	16
 1179 047e A9       		.byte	-87
 1180 047f 20       		.byte	32
 1181 0480 AD       		.byte	-83
 1182 0481 48       		.byte	72
 1183 0482 B3       		.byte	-77
 1184 0483 10       		.byte	16
 1185 0484 B4       		.byte	-76
 1186 0485 10       		.byte	16
 1187 0486 B5       		.byte	-75
 1188 0487 10       		.byte	16
 1189 0488 B6       		.byte	-74
 1190 0489 80       		.byte	-128
 1191 048a B7       		.byte	-73
 1192 048b 40       		.byte	64
 1193 048c C0       		.byte	-64
 1194 048d D7       		.byte	-41
 1195 048e C2       		.byte	-62
 1196 048f FF       		.byte	-1
 1197 0490 C4       		.byte	-60
ARM GAS  C:\Users\Dell\AppData\Local\Temp\cc9dCj9c.s 			page 22


 1198 0491 23       		.byte	35
 1199 0492 CA       		.byte	-54
 1200 0493 13       		.byte	19
 1201 0494 CC       		.byte	-52
 1202 0495 8D       		.byte	-115
 1203 0496 CE       		.byte	-50
 1204 0497 FF       		.byte	-1
 1205 0498 D6       		.byte	-42
 1206 0499 D0       		.byte	-48
 1207 049a D8       		.byte	-40
 1208 049b 81       		.byte	-127
 1209 049c E2       		.byte	-30
 1210 049d 40       		.byte	64
 1211 049e E8       		.byte	-24
 1212 049f 04       		.byte	4
 1213 04a0 E8       		.byte	-24
 1214 04a1 04       		.byte	4
 1215 04a2 EC       		.byte	-20
 1216 04a3 80       		.byte	-128
 1217 04a4 E6       		.byte	-26
 1218 04a5 08       		.byte	8
 1219 04a6 E8       		.byte	-24
 1220 04a7 08       		.byte	8
 1221 04a8 EC       		.byte	-20
 1222 04a9 40       		.byte	64
 1223 04aa 38       		.byte	56
 1224 04ab 02       		.byte	2
 1225 04ac 3E       		.byte	62
 1226 04ad 01       		.byte	1
 1227 04ae 58       		.byte	88
 1228 04af 04       		.byte	4
 1229 04b0 5F       		.byte	95
 1230 04b1 01       		.byte	1
 1231 04b2 1E       		.byte	30
 1232 04b3 80       		.byte	-128
 1233 04b4 8A       		.byte	-118
 1234 04b5 40       		.byte	64
 1235 04b6 E0       		.byte	-32
 1236 04b7 40       		.byte	64
 1237 04b8 E4       		.byte	-28
 1238 04b9 02       		.byte	2
 1239 04ba E0       		.byte	-32
 1240 04bb 74       		.byte	116
 1241 04bc 00       		.byte	0
 1242 04bd 0A       		.byte	10
 1243 04be 01       		.byte	1
 1244 04bf 84       		.byte	-124
 1245 04c0 04       		.byte	4
 1246 04c1 08       		.byte	8
 1247 04c2 05       		.byte	5
 1248 04c3 84       		.byte	-124
 1249 04c4 06       		.byte	6
 1250 04c5 02       		.byte	2
 1251 04c6 08       		.byte	8
 1252 04c7 08       		.byte	8
 1253 04c8 09       		.byte	9
 1254 04c9 80       		.byte	-128
ARM GAS  C:\Users\Dell\AppData\Local\Temp\cc9dCj9c.s 			page 23


 1255 04ca 0B       		.byte	11
 1256 04cb 04       		.byte	4
 1257 04cc 0C       		.byte	12
 1258 04cd 08       		.byte	8
 1259 04ce 0E       		.byte	14
 1260 04cf 02       		.byte	2
 1261 04d0 0F       		.byte	15
 1262 04d1 80       		.byte	-128
 1263 04d2 10       		.byte	16
 1264 04d3 03       		.byte	3
 1265 04d4 11       		.byte	17
 1266 04d5 01       		.byte	1
 1267 04d6 12       		.byte	18
 1268 04d7 04       		.byte	4
 1269 04d8 14       		.byte	20
 1270 04d9 0C       		.byte	12
 1271 04da 15       		.byte	21
 1272 04db 60       		.byte	96
 1273 04dc 16       		.byte	22
 1274 04dd 03       		.byte	3
 1275 04de 18       		.byte	24
 1276 04df 01       		.byte	1
 1277 04e0 19       		.byte	25
 1278 04e1 56       		.byte	86
 1279 04e2 1A       		.byte	26
 1280 04e3 08       		.byte	8
 1281 04e4 1B       		.byte	27
 1282 04e5 09       		.byte	9
 1283 04e6 1C       		.byte	28
 1284 04e7 0A       		.byte	10
 1285 04e8 1D       		.byte	29
 1286 04e9 07       		.byte	7
 1287 04ea 1F       		.byte	31
 1288 04eb 38       		.byte	56
 1289 04ec 20       		.byte	32
 1290 04ed 02       		.byte	2
 1291 04ee 21       		.byte	33
 1292 04ef 84       		.byte	-124
 1293 04f0 25       		.byte	37
 1294 04f1 0A       		.byte	10
 1295 04f2 27       		.byte	39
 1296 04f3 10       		.byte	16
 1297 04f4 28       		.byte	40
 1298 04f5 02       		.byte	2
 1299 04f6 29       		.byte	41
 1300 04f7 04       		.byte	4
 1301 04f8 2A       		.byte	42
 1302 04f9 08       		.byte	8
 1303 04fa 2D       		.byte	45
 1304 04fb 04       		.byte	4
 1305 04fc 2F       		.byte	47
 1306 04fd 80       		.byte	-128
 1307 04fe 31       		.byte	49
 1308 04ff 7F       		.byte	127
 1309 0500 32       		.byte	50
 1310 0501 0F       		.byte	15
 1311 0502 33       		.byte	51
ARM GAS  C:\Users\Dell\AppData\Local\Temp\cc9dCj9c.s 			page 24


 1312 0503 80       		.byte	-128
 1313 0504 39       		.byte	57
 1314 0505 02       		.byte	2
 1315 0506 3A       		.byte	58
 1316 0507 08       		.byte	8
 1317 0508 3F       		.byte	63
 1318 0509 04       		.byte	4
 1319 050a 40       		.byte	64
 1320 050b 45       		.byte	69
 1321 050c 49       		.byte	73
 1322 050d FF       		.byte	-1
 1323 050e 4A       		.byte	74
 1324 050f FF       		.byte	-1
 1325 0510 4B       		.byte	75
 1326 0511 FF       		.byte	-1
 1327 0512 4F       		.byte	79
 1328 0513 01       		.byte	1
 1329 0514 50       		.byte	80
 1330 0515 18       		.byte	24
 1331 0516 54       		.byte	84
 1332 0517 40       		.byte	64
 1333 0518 58       		.byte	88
 1334 0519 04       		.byte	4
 1335 051a 59       		.byte	89
 1336 051b 04       		.byte	4
 1337 051c 5A       		.byte	90
 1338 051d 04       		.byte	4
 1339 051e 5B       		.byte	91
 1340 051f 04       		.byte	4
 1341 0520 5C       		.byte	92
 1342 0521 11       		.byte	17
 1343 0522 5D       		.byte	93
 1344 0523 19       		.byte	25
 1345 0524 5F       		.byte	95
 1346 0525 01       		.byte	1
 1347 0526 60       		.byte	96
 1348 0527 40       		.byte	64
 1349 0528 62       		.byte	98
 1350 0529 40       		.byte	64
 1351 052a 64       		.byte	100
 1352 052b 40       		.byte	64
 1353 052c 65       		.byte	101
 1354 052d 40       		.byte	64
 1355 052e 66       		.byte	102
 1356 052f 80       		.byte	-128
 1357 0530 68       		.byte	104
 1358 0531 80       		.byte	-128
 1359 0532 6A       		.byte	106
 1360 0533 80       		.byte	-128
 1361 0534 6C       		.byte	108
 1362 0535 80       		.byte	-128
 1363 0536 6E       		.byte	110
 1364 0537 80       		.byte	-128
 1365 0538 91       		.byte	-111
 1366 0539 03       		.byte	3
 1367 053a 92       		.byte	-110
 1368 053b 01       		.byte	1
ARM GAS  C:\Users\Dell\AppData\Local\Temp\cc9dCj9c.s 			page 25


 1369 053c 93       		.byte	-109
 1370 053d 04       		.byte	4
 1371 053e 94       		.byte	-108
 1372 053f 01       		.byte	1
 1373 0540 95       		.byte	-107
 1374 0541 05       		.byte	5
 1375 0542 97       		.byte	-105
 1376 0543 0A       		.byte	10
 1377 0544 99       		.byte	-103
 1378 0545 04       		.byte	4
 1379 0546 9A       		.byte	-102
 1380 0547 01       		.byte	1
 1381 0548 9B       		.byte	-101
 1382 0549 09       		.byte	9
 1383 054a 9C       		.byte	-100
 1384 054b 01       		.byte	1
 1385 054c 9D       		.byte	-99
 1386 054d 0E       		.byte	14
 1387 054e B0       		.byte	-80
 1388 054f 01       		.byte	1
 1389 0550 B1       		.byte	-79
 1390 0551 0F       		.byte	15
 1391 0552 B9       		.byte	-71
 1392 0553 02       		.byte	2
 1393 0554 BE       		.byte	-66
 1394 0555 01       		.byte	1
 1395 0556 C0       		.byte	-64
 1396 0557 45       		.byte	69
 1397 0558 C9       		.byte	-55
 1398 0559 FF       		.byte	-1
 1399 055a CA       		.byte	-54
 1400 055b FF       		.byte	-1
 1401 055c CB       		.byte	-53
 1402 055d FF       		.byte	-1
 1403 055e CD       		.byte	-51
 1404 055f 83       		.byte	-125
 1405 0560 CE       		.byte	-50
 1406 0561 03       		.byte	3
 1407 0562 CF       		.byte	-49
 1408 0563 01       		.byte	1
 1409 0564 D0       		.byte	-48
 1410 0565 18       		.byte	24
 1411 0566 D2       		.byte	-46
 1412 0567 80       		.byte	-128
 1413 0568 D8       		.byte	-40
 1414 0569 04       		.byte	4
 1415 056a D9       		.byte	-39
 1416 056b 04       		.byte	4
 1417 056c DA       		.byte	-38
 1418 056d 04       		.byte	4
 1419 056e DB       		.byte	-37
 1420 056f 04       		.byte	4
 1421 0570 DC       		.byte	-36
 1422 0571 10       		.byte	16
 1423 0572 DD       		.byte	-35
 1424 0573 99       		.byte	-103
 1425 0574 DF       		.byte	-33
ARM GAS  C:\Users\Dell\AppData\Local\Temp\cc9dCj9c.s 			page 26


 1426 0575 01       		.byte	1
 1427 0576 E0       		.byte	-32
 1428 0577 40       		.byte	64
 1429 0578 E2       		.byte	-30
 1430 0579 40       		.byte	64
 1431 057a E4       		.byte	-28
 1432 057b 40       		.byte	64
 1433 057c E5       		.byte	-27
 1434 057d 40       		.byte	64
 1435 057e E6       		.byte	-26
 1436 057f 80       		.byte	-128
 1437 0580 E8       		.byte	-24
 1438 0581 80       		.byte	-128
 1439 0582 EA       		.byte	-22
 1440 0583 80       		.byte	-128
 1441 0584 EC       		.byte	-20
 1442 0585 80       		.byte	-128
 1443 0586 EE       		.byte	-18
 1444 0587 80       		.byte	-128
 1445 0588 00       		.byte	0
 1446 0589 04       		.byte	4
 1447 058a 01       		.byte	1
 1448 058b A2       		.byte	-94
 1449 058c 08       		.byte	8
 1450 058d 20       		.byte	32
 1451 058e 0A       		.byte	10
 1452 058f A0       		.byte	-96
 1453 0590 0B       		.byte	11
 1454 0591 02       		.byte	2
 1455 0592 0E       		.byte	14
 1456 0593 55       		.byte	85
 1457 0594 11       		.byte	17
 1458 0595 10       		.byte	16
 1459 0596 12       		.byte	18
 1460 0597 80       		.byte	-128
 1461 0598 19       		.byte	25
 1462 0599 08       		.byte	8
 1463 059a 1E       		.byte	30
 1464 059b 80       		.byte	-128
 1465 059c 21       		.byte	33
 1466 059d 0A       		.byte	10
 1467 059e 27       		.byte	39
 1468 059f 40       		.byte	64
 1469 05a0 29       		.byte	41
 1470 05a1 AA       		.byte	-86
 1471 05a2 2A       		.byte	42
 1472 05a3 01       		.byte	1
 1473 05a4 31       		.byte	49
 1474 05a5 02       		.byte	2
 1475 05a6 32       		.byte	50
 1476 05a7 58       		.byte	88
 1477 05a8 33       		.byte	51
 1478 05a9 10       		.byte	16
 1479 05aa 35       		.byte	53
 1480 05ab 08       		.byte	8
 1481 05ac 37       		.byte	55
 1482 05ad 51       		.byte	81
ARM GAS  C:\Users\Dell\AppData\Local\Temp\cc9dCj9c.s 			page 27


 1483 05ae 38       		.byte	56
 1484 05af 84       		.byte	-124
 1485 05b0 39       		.byte	57
 1486 05b1 18       		.byte	24
 1487 05b2 3A       		.byte	58
 1488 05b3 42       		.byte	66
 1489 05b4 3B       		.byte	59
 1490 05b5 02       		.byte	2
 1491 05b6 42       		.byte	66
 1492 05b7 80       		.byte	-128
 1493 05b8 46       		.byte	70
 1494 05b9 80       		.byte	-128
 1495 05ba 48       		.byte	72
 1496 05bb 02       		.byte	2
 1497 05bc 4C       		.byte	76
 1498 05bd 02       		.byte	2
 1499 05be 61       		.byte	97
 1500 05bf 08       		.byte	8
 1501 05c0 62       		.byte	98
 1502 05c1 50       		.byte	80
 1503 05c2 6A       		.byte	106
 1504 05c3 55       		.byte	85
 1505 05c4 76       		.byte	118
 1506 05c5 80       		.byte	-128
 1507 05c6 85       		.byte	-123
 1508 05c7 02       		.byte	2
 1509 05c8 86       		.byte	-122
 1510 05c9 50       		.byte	80
 1511 05ca 8E       		.byte	-114
 1512 05cb 04       		.byte	4
 1513 05cc 8F       		.byte	-113
 1514 05cd 40       		.byte	64
 1515 05ce 90       		.byte	-112
 1516 05cf 80       		.byte	-128
 1517 05d0 91       		.byte	-111
 1518 05d1 18       		.byte	24
 1519 05d2 92       		.byte	-110
 1520 05d3 A0       		.byte	-96
 1521 05d4 94       		.byte	-108
 1522 05d5 04       		.byte	4
 1523 05d6 96       		.byte	-106
 1524 05d7 55       		.byte	85
 1525 05d8 97       		.byte	-105
 1526 05d9 02       		.byte	2
 1527 05da 98       		.byte	-104
 1528 05db 20       		.byte	32
 1529 05dc 99       		.byte	-103
 1530 05dd A0       		.byte	-96
 1531 05de 9A       		.byte	-102
 1532 05df 13       		.byte	19
 1533 05e0 9B       		.byte	-101
 1534 05e1 01       		.byte	1
 1535 05e2 9D       		.byte	-99
 1536 05e3 08       		.byte	8
 1537 05e4 9E       		.byte	-98
 1538 05e5 80       		.byte	-128
 1539 05e6 A0       		.byte	-96
ARM GAS  C:\Users\Dell\AppData\Local\Temp\cc9dCj9c.s 			page 28


 1540 05e7 02       		.byte	2
 1541 05e8 A2       		.byte	-94
 1542 05e9 9C       		.byte	-100
 1543 05ea B5       		.byte	-75
 1544 05eb 04       		.byte	4
 1545 05ec B7       		.byte	-73
 1546 05ed 20       		.byte	32
 1547 05ee C0       		.byte	-64
 1548 05ef 0F       		.byte	15
 1549 05f0 C2       		.byte	-62
 1550 05f1 FF       		.byte	-1
 1551 05f2 C4       		.byte	-60
 1552 05f3 0A       		.byte	10
 1553 05f4 CA       		.byte	-54
 1554 05f5 0F       		.byte	15
 1555 05f6 CC       		.byte	-52
 1556 05f7 FF       		.byte	-1
 1557 05f8 CE       		.byte	-50
 1558 05f9 0F       		.byte	15
 1559 05fa D0       		.byte	-48
 1560 05fb 81       		.byte	-127
 1561 05fc D2       		.byte	-46
 1562 05fd 18       		.byte	24
 1563 05fe D8       		.byte	-40
 1564 05ff 0E       		.byte	14
 1565 0600 E2       		.byte	-30
 1566 0601 50       		.byte	80
 1567 0602 EA       		.byte	-22
 1568 0603 51       		.byte	81
 1569 0604 EC       		.byte	-20
 1570 0605 30       		.byte	48
 1571 0606 00       		.byte	0
 1572 0607 02       		.byte	2
 1573 0608 03       		.byte	3
 1574 0609 02       		.byte	2
 1575 060a 07       		.byte	7
 1576 060b 02       		.byte	2
 1577 060c 08       		.byte	8
 1578 060d 02       		.byte	2
 1579 060e 09       		.byte	9
 1580 060f 02       		.byte	2
 1581 0610 0C       		.byte	12
 1582 0611 02       		.byte	2
 1583 0612 10       		.byte	16
 1584 0613 01       		.byte	1
 1585 0614 11       		.byte	17
 1586 0615 01       		.byte	1
 1587 0616 14       		.byte	20
 1588 0617 01       		.byte	1
 1589 0618 17       		.byte	23
 1590 0619 01       		.byte	1
 1591 061a 18       		.byte	24
 1592 061b 01       		.byte	1
 1593 061c 1D       		.byte	29
 1594 061d 01       		.byte	1
 1595 061e 1E       		.byte	30
 1596 061f 01       		.byte	1
ARM GAS  C:\Users\Dell\AppData\Local\Temp\cc9dCj9c.s 			page 29


 1597 0620 26       		.byte	38
 1598 0621 02       		.byte	2
 1599 0622 27       		.byte	39
 1600 0623 01       		.byte	1
 1601 0624 2F       		.byte	47
 1602 0625 02       		.byte	2
 1603 0626 32       		.byte	50
 1604 0627 01       		.byte	1
 1605 0628 33       		.byte	51
 1606 0629 01       		.byte	1
 1607 062a 34       		.byte	52
 1608 062b 02       		.byte	2
 1609 062c 35       		.byte	53
 1610 062d 02       		.byte	2
 1611 062e 3E       		.byte	62
 1612 062f 14       		.byte	20
 1613 0630 3F       		.byte	63
 1614 0631 14       		.byte	20
 1615 0632 40       		.byte	64
 1616 0633 45       		.byte	69
 1617 0634 49       		.byte	73
 1618 0635 FF       		.byte	-1
 1619 0636 4A       		.byte	74
 1620 0637 FF       		.byte	-1
 1621 0638 4B       		.byte	75
 1622 0639 FF       		.byte	-1
 1623 063a 4D       		.byte	77
 1624 063b 83       		.byte	-125
 1625 063c 4E       		.byte	78
 1626 063d 03       		.byte	3
 1627 063e 4F       		.byte	79
 1628 063f 01       		.byte	1
 1629 0640 50       		.byte	80
 1630 0641 18       		.byte	24
 1631 0642 58       		.byte	88
 1632 0643 04       		.byte	4
 1633 0644 59       		.byte	89
 1634 0645 04       		.byte	4
 1635 0646 5A       		.byte	90
 1636 0647 04       		.byte	4
 1637 0648 5D       		.byte	93
 1638 0649 09       		.byte	9
 1639 064a 5F       		.byte	95
 1640 064b 01       		.byte	1
 1641 064c 60       		.byte	96
 1642 064d 40       		.byte	64
 1643 064e 62       		.byte	98
 1644 064f 40       		.byte	64
 1645 0650 64       		.byte	100
 1646 0651 40       		.byte	64
 1647 0652 65       		.byte	101
 1648 0653 40       		.byte	64
 1649 0654 66       		.byte	102
 1650 0655 80       		.byte	-128
 1651 0656 68       		.byte	104
 1652 0657 80       		.byte	-128
 1653 0658 6A       		.byte	106
ARM GAS  C:\Users\Dell\AppData\Local\Temp\cc9dCj9c.s 			page 30


 1654 0659 80       		.byte	-128
 1655 065a 6C       		.byte	108
 1656 065b 80       		.byte	-128
 1657 065c 6E       		.byte	110
 1658 065d 80       		.byte	-128
 1659 065e 81       		.byte	-127
 1660 065f 0C       		.byte	12
 1661 0660 84       		.byte	-124
 1662 0661 04       		.byte	4
 1663 0662 85       		.byte	-123
 1664 0663 04       		.byte	4
 1665 0664 87       		.byte	-121
 1666 0665 08       		.byte	8
 1667 0666 88       		.byte	-120
 1668 0667 01       		.byte	1
 1669 0668 89       		.byte	-119
 1670 0669 08       		.byte	8
 1671 066a 8A       		.byte	-118
 1672 066b 06       		.byte	6
 1673 066c 8B       		.byte	-117
 1674 066d 04       		.byte	4
 1675 066e 8C       		.byte	-116
 1676 066f 04       		.byte	4
 1677 0670 91       		.byte	-111
 1678 0671 0E       		.byte	14
 1679 0672 92       		.byte	-110
 1680 0673 03       		.byte	3
 1681 0674 93       		.byte	-109
 1682 0675 01       		.byte	1
 1683 0676 94       		.byte	-108
 1684 0677 07       		.byte	7
 1685 0678 98       		.byte	-104
 1686 0679 01       		.byte	1
 1687 067a 99       		.byte	-103
 1688 067b 04       		.byte	4
 1689 067c 9A       		.byte	-102
 1690 067d 06       		.byte	6
 1691 067e 9B       		.byte	-101
 1692 067f 0B       		.byte	11
 1693 0680 9C       		.byte	-100
 1694 0681 04       		.byte	4
 1695 0682 9D       		.byte	-99
 1696 0683 08       		.byte	8
 1697 0684 A1       		.byte	-95
 1698 0685 0C       		.byte	12
 1699 0686 A5       		.byte	-91
 1700 0687 03       		.byte	3
 1701 0688 A7       		.byte	-89
 1702 0689 04       		.byte	4
 1703 068a A9       		.byte	-87
 1704 068b 04       		.byte	4
 1705 068c AA       		.byte	-86
 1706 068d 04       		.byte	4
 1707 068e AC       		.byte	-84
 1708 068f 04       		.byte	4
 1709 0690 AD       		.byte	-83
 1710 0691 04       		.byte	4
ARM GAS  C:\Users\Dell\AppData\Local\Temp\cc9dCj9c.s 			page 31


 1711 0692 AF       		.byte	-81
 1712 0693 08       		.byte	8
 1713 0694 B1       		.byte	-79
 1714 0695 0E       		.byte	14
 1715 0696 B3       		.byte	-77
 1716 0697 01       		.byte	1
 1717 0698 B4       		.byte	-76
 1718 0699 07       		.byte	7
 1719 069a BA       		.byte	-70
 1720 069b 20       		.byte	32
 1721 069c BF       		.byte	-65
 1722 069d 04       		.byte	4
 1723 069e C0       		.byte	-64
 1724 069f 45       		.byte	69
 1725 06a0 C5       		.byte	-59
 1726 06a1 EC       		.byte	-20
 1727 06a2 C7       		.byte	-57
 1728 06a3 20       		.byte	32
 1729 06a4 C8       		.byte	-56
 1730 06a5 23       		.byte	35
 1731 06a6 C9       		.byte	-55
 1732 06a7 FF       		.byte	-1
 1733 06a8 CA       		.byte	-54
 1734 06a9 FF       		.byte	-1
 1735 06aa CB       		.byte	-53
 1736 06ab FF       		.byte	-1
 1737 06ac CD       		.byte	-51
 1738 06ad 83       		.byte	-125
 1739 06ae CE       		.byte	-50
 1740 06af 03       		.byte	3
 1741 06b0 CF       		.byte	-49
 1742 06b1 01       		.byte	1
 1743 06b2 D0       		.byte	-48
 1744 06b3 18       		.byte	24
 1745 06b4 D8       		.byte	-40
 1746 06b5 04       		.byte	4
 1747 06b6 D9       		.byte	-39
 1748 06b7 04       		.byte	4
 1749 06b8 DA       		.byte	-38
 1750 06b9 04       		.byte	4
 1751 06ba DC       		.byte	-36
 1752 06bb 11       		.byte	17
 1753 06bc DD       		.byte	-35
 1754 06bd 09       		.byte	9
 1755 06be DF       		.byte	-33
 1756 06bf 01       		.byte	1
 1757 06c0 E0       		.byte	-32
 1758 06c1 40       		.byte	64
 1759 06c2 E2       		.byte	-30
 1760 06c3 40       		.byte	64
 1761 06c4 E4       		.byte	-28
 1762 06c5 40       		.byte	64
 1763 06c6 E5       		.byte	-27
 1764 06c7 40       		.byte	64
 1765 06c8 E6       		.byte	-26
 1766 06c9 80       		.byte	-128
 1767 06ca E8       		.byte	-24
ARM GAS  C:\Users\Dell\AppData\Local\Temp\cc9dCj9c.s 			page 32


 1768 06cb 80       		.byte	-128
 1769 06cc EA       		.byte	-22
 1770 06cd 80       		.byte	-128
 1771 06ce EC       		.byte	-20
 1772 06cf 80       		.byte	-128
 1773 06d0 EE       		.byte	-18
 1774 06d1 80       		.byte	-128
 1775 06d2 00       		.byte	0
 1776 06d3 04       		.byte	4
 1777 06d4 01       		.byte	1
 1778 06d5 A0       		.byte	-96
 1779 06d6 07       		.byte	7
 1780 06d7 46       		.byte	70
 1781 06d8 08       		.byte	8
 1782 06d9 20       		.byte	32
 1783 06da 09       		.byte	9
 1784 06db 02       		.byte	2
 1785 06dc 0A       		.byte	10
 1786 06dd A0       		.byte	-96
 1787 06de 0B       		.byte	11
 1788 06df 02       		.byte	2
 1789 06e0 0E       		.byte	14
 1790 06e1 55       		.byte	85
 1791 06e2 11       		.byte	17
 1792 06e3 10       		.byte	16
 1793 06e4 12       		.byte	18
 1794 06e5 01       		.byte	1
 1795 06e6 14       		.byte	20
 1796 06e7 10       		.byte	16
 1797 06e8 19       		.byte	25
 1798 06e9 20       		.byte	32
 1799 06ea 1F       		.byte	31
 1800 06eb 24       		.byte	36
 1801 06ec 21       		.byte	33
 1802 06ed 02       		.byte	2
 1803 06ee 22       		.byte	34
 1804 06ef 04       		.byte	4
 1805 06f0 24       		.byte	36
 1806 06f1 08       		.byte	8
 1807 06f2 26       		.byte	38
 1808 06f3 04       		.byte	4
 1809 06f4 28       		.byte	40
 1810 06f5 20       		.byte	32
 1811 06f6 29       		.byte	41
 1812 06f7 A8       		.byte	-88
 1813 06f8 2A       		.byte	42
 1814 06f9 01       		.byte	1
 1815 06fa 2C       		.byte	44
 1816 06fb 10       		.byte	16
 1817 06fc 2E       		.byte	46
 1818 06fd 40       		.byte	64
 1819 06fe 31       		.byte	49
 1820 06ff 02       		.byte	2
 1821 0700 32       		.byte	50
 1822 0701 90       		.byte	-112
 1823 0702 33       		.byte	51
 1824 0703 01       		.byte	1
ARM GAS  C:\Users\Dell\AppData\Local\Temp\cc9dCj9c.s 			page 33


 1825 0704 37       		.byte	55
 1826 0705 46       		.byte	70
 1827 0706 39       		.byte	57
 1828 0707 18       		.byte	24
 1829 0708 3A       		.byte	58
 1830 0709 02       		.byte	2
 1831 070a 3E       		.byte	62
 1832 070b 15       		.byte	21
 1833 070c 42       		.byte	66
 1834 070d 80       		.byte	-128
 1835 070e 46       		.byte	70
 1836 070f 80       		.byte	-128
 1837 0710 48       		.byte	72
 1838 0711 02       		.byte	2
 1839 0712 4B       		.byte	75
 1840 0713 05       		.byte	5
 1841 0714 4C       		.byte	76
 1842 0715 02       		.byte	2
 1843 0716 50       		.byte	80
 1844 0717 02       		.byte	2
 1845 0718 52       		.byte	82
 1846 0719 02       		.byte	2
 1847 071a 84       		.byte	-124
 1848 071b 40       		.byte	64
 1849 071c 86       		.byte	-122
 1850 071d 04       		.byte	4
 1851 071e 8B       		.byte	-117
 1852 071f 04       		.byte	4
 1853 0720 8C       		.byte	-116
 1854 0721 04       		.byte	4
 1855 0722 90       		.byte	-112
 1856 0723 80       		.byte	-128
 1857 0724 91       		.byte	-111
 1858 0725 18       		.byte	24
 1859 0726 92       		.byte	-110
 1860 0727 20       		.byte	32
 1861 0728 96       		.byte	-106
 1862 0729 D5       		.byte	-43
 1863 072a 97       		.byte	-105
 1864 072b 05       		.byte	5
 1865 072c 98       		.byte	-104
 1866 072d 10       		.byte	16
 1867 072e 99       		.byte	-103
 1868 072f 84       		.byte	-124
 1869 0730 9A       		.byte	-102
 1870 0731 13       		.byte	19
 1871 0732 9B       		.byte	-101
 1872 0733 46       		.byte	70
 1873 0734 9C       		.byte	-100
 1874 0735 60       		.byte	96
 1875 0736 9D       		.byte	-99
 1876 0737 08       		.byte	8
 1877 0738 9E       		.byte	-98
 1878 0739 80       		.byte	-128
 1879 073a 9F       		.byte	-97
 1880 073b 01       		.byte	1
 1881 073c A2       		.byte	-94
ARM GAS  C:\Users\Dell\AppData\Local\Temp\cc9dCj9c.s 			page 34


 1882 073d 98       		.byte	-104
 1883 073e A6       		.byte	-90
 1884 073f 02       		.byte	2
 1885 0740 B0       		.byte	-80
 1886 0741 40       		.byte	64
 1887 0742 B4       		.byte	-76
 1888 0743 04       		.byte	4
 1889 0744 C0       		.byte	-64
 1890 0745 D7       		.byte	-41
 1891 0746 C2       		.byte	-62
 1892 0747 FF       		.byte	-1
 1893 0748 C4       		.byte	-60
 1894 0749 23       		.byte	35
 1895 074a CA       		.byte	-54
 1896 074b 5F       		.byte	95
 1897 074c CC       		.byte	-52
 1898 074d DD       		.byte	-35
 1899 074e CE       		.byte	-50
 1900 074f E7       		.byte	-25
 1901 0750 D0       		.byte	-48
 1902 0751 81       		.byte	-127
 1903 0752 D2       		.byte	-46
 1904 0753 18       		.byte	24
 1905 0754 E2       		.byte	-30
 1906 0755 90       		.byte	-112
 1907 0756 EA       		.byte	-22
 1908 0757 12       		.byte	18
 1909 0758 EE       		.byte	-18
 1910 0759 22       		.byte	34
 1911 075a EA       		.byte	-22
 1912 075b 02       		.byte	2
 1913 075c EE       		.byte	-18
 1914 075d 02       		.byte	2
 1915 075e EA       		.byte	-22
 1916 075f 01       		.byte	1
 1917 0760 EC       		.byte	-20
 1918 0761 30       		.byte	48
 1919 0762 31       		.byte	49
 1920 0763 40       		.byte	64
 1921 0764 33       		.byte	51
 1922 0765 01       		.byte	1
 1923 0766 36       		.byte	54
 1924 0767 48       		.byte	72
 1925 0768 84       		.byte	-124
 1926 0769 20       		.byte	32
 1927 076a 87       		.byte	-121
 1928 076b 08       		.byte	8
 1929 076c 8A       		.byte	-118
 1930 076d 10       		.byte	16
 1931 076e CC       		.byte	-52
 1932 076f F0       		.byte	-16
 1933 0770 E2       		.byte	-30
 1934 0771 10       		.byte	16
 1935 0772 E6       		.byte	-26
 1936 0773 10       		.byte	16
 1937 0774 52       		.byte	82
 1938 0775 10       		.byte	16
ARM GAS  C:\Users\Dell\AppData\Local\Temp\cc9dCj9c.s 			page 35


 1939 0776 57       		.byte	87
 1940 0777 09       		.byte	9
 1941 0778 58       		.byte	88
 1942 0779 20       		.byte	32
 1943 077a 5B       		.byte	91
 1944 077b 08       		.byte	8
 1945 077c 5E       		.byte	94
 1946 077d 02       		.byte	2
 1947 077e 60       		.byte	96
 1948 077f 08       		.byte	8
 1949 0780 65       		.byte	101
 1950 0781 04       		.byte	4
 1951 0782 80       		.byte	-128
 1952 0783 80       		.byte	-128
 1953 0784 87       		.byte	-121
 1954 0785 01       		.byte	1
 1955 0786 98       		.byte	-104
 1956 0787 20       		.byte	32
 1957 0788 9A       		.byte	-102
 1958 0789 10       		.byte	16
 1959 078a 9B       		.byte	-101
 1960 078b 08       		.byte	8
 1961 078c 9D       		.byte	-99
 1962 078d 40       		.byte	64
 1963 078e 9F       		.byte	-97
 1964 078f 01       		.byte	1
 1965 0790 A6       		.byte	-90
 1966 0791 48       		.byte	72
 1967 0792 D4       		.byte	-44
 1968 0793 E0       		.byte	-32
 1969 0794 D6       		.byte	-42
 1970 0795 E0       		.byte	-32
 1971 0796 D8       		.byte	-40
 1972 0797 C0       		.byte	-64
 1973 0798 E2       		.byte	-30
 1974 0799 20       		.byte	32
 1975 079a E6       		.byte	-26
 1976 079b 10       		.byte	16
 1977 079c 03       		.byte	3
 1978 079d 40       		.byte	64
 1979 079e 3E       		.byte	62
 1980 079f 10       		.byte	16
 1981 07a0 50       		.byte	80
 1982 07a1 80       		.byte	-128
 1983 07a2 85       		.byte	-123
 1984 07a3 40       		.byte	64
 1985 07a4 8B       		.byte	-117
 1986 07a5 20       		.byte	32
 1987 07a6 8E       		.byte	-114
 1988 07a7 01       		.byte	1
 1989 07a8 9D       		.byte	-99
 1990 07a9 40       		.byte	64
 1991 07aa 9F       		.byte	-97
 1992 07ab 01       		.byte	1
 1993 07ac A0       		.byte	-96
 1994 07ad 80       		.byte	-128
 1995 07ae A3       		.byte	-93
ARM GAS  C:\Users\Dell\AppData\Local\Temp\cc9dCj9c.s 			page 36


 1996 07af 04       		.byte	4
 1997 07b0 A6       		.byte	-90
 1998 07b1 49       		.byte	73
 1999 07b2 AB       		.byte	-85
 2000 07b3 04       		.byte	4
 2001 07b4 B3       		.byte	-77
 2002 07b5 08       		.byte	8
 2003 07b6 B4       		.byte	-76
 2004 07b7 08       		.byte	8
 2005 07b8 B5       		.byte	-75
 2006 07b9 04       		.byte	4
 2007 07ba C0       		.byte	-64
 2008 07bb 10       		.byte	16
 2009 07bc CE       		.byte	-50
 2010 07bd 20       		.byte	32
 2011 07be D4       		.byte	-44
 2012 07bf 20       		.byte	32
 2013 07c0 E6       		.byte	-26
 2014 07c1 10       		.byte	16
 2015 07c2 EE       		.byte	-18
 2016 07c3 20       		.byte	32
 2017 07c4 86       		.byte	-122
 2018 07c5 08       		.byte	8
 2019 07c6 8D       		.byte	-115
 2020 07c7 40       		.byte	64
 2021 07c8 96       		.byte	-106
 2022 07c9 10       		.byte	16
 2023 07ca 9F       		.byte	-97
 2024 07cb 01       		.byte	1
 2025 07cc A3       		.byte	-93
 2026 07cd 24       		.byte	36
 2027 07ce A6       		.byte	-90
 2028 07cf 48       		.byte	72
 2029 07d0 AB       		.byte	-85
 2030 07d1 40       		.byte	64
 2031 07d2 E2       		.byte	-30
 2032 07d3 10       		.byte	16
 2033 07d4 EC       		.byte	-20
 2034 07d5 80       		.byte	-128
 2035 07d6 10       		.byte	16
 2036 07d7 10       		.byte	16
 2037 07d8 15       		.byte	21
 2038 07d9 01       		.byte	1
 2039 07da 28       		.byte	40
 2040 07db 05       		.byte	5
 2041 07dc 30       		.byte	48
 2042 07dd 01       		.byte	1
 2043 07de 7F       		.byte	127
 2044 07df 08       		.byte	8
 2045 07e0 81       		.byte	-127
 2046 07e1 20       		.byte	32
 2047 07e2 88       		.byte	-120
 2048 07e3 04       		.byte	4
 2049 07e4 8E       		.byte	-114
 2050 07e5 02       		.byte	2
 2051 07e6 8F       		.byte	-113
 2052 07e7 10       		.byte	16
ARM GAS  C:\Users\Dell\AppData\Local\Temp\cc9dCj9c.s 			page 37


 2053 07e8 C4       		.byte	-60
 2054 07e9 0C       		.byte	12
 2055 07ea CA       		.byte	-54
 2056 07eb 08       		.byte	8
 2057 07ec CC       		.byte	-52
 2058 07ed 02       		.byte	2
 2059 07ee DE       		.byte	-34
 2060 07ef 01       		.byte	1
 2061 07f0 E0       		.byte	-32
 2062 07f1 0E       		.byte	14
 2063 07f2 50       		.byte	80
 2064 07f3 82       		.byte	-126
 2065 07f4 56       		.byte	86
 2066 07f5 0A       		.byte	10
 2067 07f6 5B       		.byte	91
 2068 07f7 08       		.byte	8
 2069 07f8 63       		.byte	99
 2070 07f9 20       		.byte	32
 2071 07fa 64       		.byte	100
 2072 07fb 08       		.byte	8
 2073 07fc 66       		.byte	102
 2074 07fd 40       		.byte	64
 2075 07fe 86       		.byte	-122
 2076 07ff 08       		.byte	8
 2077 0800 8B       		.byte	-117
 2078 0801 08       		.byte	8
 2079 0802 8C       		.byte	-116
 2080 0803 08       		.byte	8
 2081 0804 91       		.byte	-111
 2082 0805 01       		.byte	1
 2083 0806 98       		.byte	-104
 2084 0807 14       		.byte	20
 2085 0808 9A       		.byte	-102
 2086 0809 02       		.byte	2
 2087 080a A0       		.byte	-96
 2088 080b 04       		.byte	4
 2089 080c A1       		.byte	-95
 2090 080d 20       		.byte	32
 2091 080e A3       		.byte	-93
 2092 080f 10       		.byte	16
 2093 0810 A7       		.byte	-89
 2094 0811 08       		.byte	8
 2095 0812 D4       		.byte	-44
 2096 0813 07       		.byte	7
 2097 0814 D6       		.byte	-42
 2098 0815 07       		.byte	7
 2099 0816 D8       		.byte	-40
 2100 0817 03       		.byte	3
 2101 0818 E0       		.byte	-32
 2102 0819 06       		.byte	6
 2103 081a 30       		.byte	48
 2104 081b 01       		.byte	1
 2105 081c 45       		.byte	69
 2106 081d 08       		.byte	8
 2107 081e 51       		.byte	81
 2108 081f 20       		.byte	32
 2109 0820 54       		.byte	84
ARM GAS  C:\Users\Dell\AppData\Local\Temp\cc9dCj9c.s 			page 38


 2110 0821 04       		.byte	4
 2111 0822 84       		.byte	-124
 2112 0823 08       		.byte	8
 2113 0824 91       		.byte	-111
 2114 0825 01       		.byte	1
 2115 0826 98       		.byte	-104
 2116 0827 14       		.byte	20
 2117 0828 9E       		.byte	-98
 2118 0829 40       		.byte	64
 2119 082a 9F       		.byte	-97
 2120 082b 08       		.byte	8
 2121 082c A0       		.byte	-96
 2122 082d 04       		.byte	4
 2123 082e A1       		.byte	-95
 2124 082f 20       		.byte	32
 2125 0830 AC       		.byte	-84
 2126 0831 80       		.byte	-128
 2127 0832 B4       		.byte	-76
 2128 0833 02       		.byte	2
 2129 0834 CC       		.byte	-52
 2130 0835 02       		.byte	2
 2131 0836 D0       		.byte	-48
 2132 0837 01       		.byte	1
 2133 0838 D4       		.byte	-44
 2134 0839 06       		.byte	6
 2135 083a EC       		.byte	-20
 2136 083b 02       		.byte	2
 2137 083c 08       		.byte	8
 2138 083d 08       		.byte	8
 2139 083e 0B       		.byte	11
 2140 083f 04       		.byte	4
 2141 0840 0F       		.byte	15
 2142 0841 40       		.byte	64
 2143 0842 91       		.byte	-111
 2144 0843 01       		.byte	1
 2145 0844 98       		.byte	-104
 2146 0845 14       		.byte	20
 2147 0846 9C       		.byte	-100
 2148 0847 09       		.byte	9
 2149 0848 A5       		.byte	-91
 2150 0849 08       		.byte	8
 2151 084a AB       		.byte	-85
 2152 084b 08       		.byte	8
 2153 084c B2       		.byte	-78
 2154 084d 40       		.byte	64
 2155 084e C2       		.byte	-62
 2156 084f 0E       		.byte	14
 2157 0850 EC       		.byte	-20
 2158 0851 01       		.byte	1
 2159 0852 15       		.byte	21
 2160 0853 20       		.byte	32
 2161 0854 25       		.byte	37
 2162 0855 10       		.byte	16
 2163 0856 50       		.byte	80
 2164 0857 05       		.byte	5
 2165 0858 56       		.byte	86
 2166 0859 10       		.byte	16
ARM GAS  C:\Users\Dell\AppData\Local\Temp\cc9dCj9c.s 			page 39


 2167 085a 5C       		.byte	92
 2168 085b 10       		.byte	16
 2169 085c 89       		.byte	-119
 2170 085d 02       		.byte	2
 2171 085e 8C       		.byte	-116
 2172 085f 10       		.byte	16
 2173 0860 91       		.byte	-111
 2174 0861 40       		.byte	64
 2175 0862 96       		.byte	-106
 2176 0863 10       		.byte	16
 2177 0864 9A       		.byte	-102
 2178 0865 10       		.byte	16
 2179 0866 A1       		.byte	-95
 2180 0867 80       		.byte	-128
 2181 0868 A3       		.byte	-93
 2182 0869 24       		.byte	36
 2183 086a AE       		.byte	-82
 2184 086b 40       		.byte	64
 2185 086c AF       		.byte	-81
 2186 086d 01       		.byte	1
 2187 086e B2       		.byte	-78
 2188 086f 10       		.byte	16
 2189 0870 B5       		.byte	-75
 2190 0871 80       		.byte	-128
 2191 0872 C4       		.byte	-60
 2192 0873 80       		.byte	-128
 2193 0874 C8       		.byte	-56
 2194 0875 20       		.byte	32
 2195 0876 D4       		.byte	-44
 2196 0877 E0       		.byte	-32
 2197 0878 D6       		.byte	-42
 2198 0879 20       		.byte	32
 2199 087a EA       		.byte	-22
 2200 087b 40       		.byte	64
 2201 087c EE       		.byte	-18
 2202 087d 40       		.byte	64
 2203 087e 50       		.byte	80
 2204 087f 01       		.byte	1
 2205 0880 51       		.byte	81
 2206 0881 80       		.byte	-128
 2207 0882 57       		.byte	87
 2208 0883 20       		.byte	32
 2209 0884 58       		.byte	88
 2210 0885 08       		.byte	8
 2211 0886 5D       		.byte	93
 2212 0887 42       		.byte	66
 2213 0888 63       		.byte	99
 2214 0889 08       		.byte	8
 2215 088a 64       		.byte	100
 2216 088b 10       		.byte	16
 2217 088c 7A       		.byte	122
 2218 088d 02       		.byte	2
 2219 088e 7C       		.byte	124
 2220 088f 80       		.byte	-128
 2221 0890 84       		.byte	-124
 2222 0891 18       		.byte	24
 2223 0892 86       		.byte	-122
ARM GAS  C:\Users\Dell\AppData\Local\Temp\cc9dCj9c.s 			page 40


 2224 0893 02       		.byte	2
 2225 0894 8C       		.byte	-116
 2226 0895 81       		.byte	-127
 2227 0896 91       		.byte	-111
 2228 0897 40       		.byte	64
 2229 0898 99       		.byte	-103
 2230 0899 02       		.byte	2
 2231 089a A1       		.byte	-95
 2232 089b 80       		.byte	-128
 2233 089c A3       		.byte	-93
 2234 089d 24       		.byte	36
 2235 089e AA       		.byte	-86
 2236 089f 10       		.byte	16
 2237 08a0 B1       		.byte	-79
 2238 08a1 10       		.byte	16
 2239 08a2 B4       		.byte	-76
 2240 08a3 05       		.byte	5
 2241 08a4 B5       		.byte	-75
 2242 08a5 10       		.byte	16
 2243 08a6 D4       		.byte	-44
 2244 08a7 E0       		.byte	-32
 2245 08a8 D6       		.byte	-42
 2246 08a9 E0       		.byte	-32
 2247 08aa D8       		.byte	-40
 2248 08ab C0       		.byte	-64
 2249 08ac DC       		.byte	-36
 2250 08ad 80       		.byte	-128
 2251 08ae DE       		.byte	-34
 2252 08af 20       		.byte	32
 2253 08b0 E2       		.byte	-30
 2254 08b1 40       		.byte	64
 2255 08b2 E6       		.byte	-26
 2256 08b3 50       		.byte	80
 2257 08b4 EA       		.byte	-22
 2258 08b5 80       		.byte	-128
 2259 08b6 10       		.byte	16
 2260 08b7 40       		.byte	64
 2261 08b8 13       		.byte	19
 2262 08b9 20       		.byte	32
 2263 08ba 14       		.byte	20
 2264 08bb 80       		.byte	-128
 2265 08bc 64       		.byte	100
 2266 08bd 04       		.byte	4
 2267 08be 78       		.byte	120
 2268 08bf 10       		.byte	16
 2269 08c0 7D       		.byte	125
 2270 08c1 01       		.byte	1
 2271 08c2 91       		.byte	-111
 2272 08c3 01       		.byte	1
 2273 08c4 98       		.byte	-104
 2274 08c5 14       		.byte	20
 2275 08c6 9C       		.byte	-100
 2276 08c7 01       		.byte	1
 2277 08c8 A5       		.byte	-91
 2278 08c9 08       		.byte	8
 2279 08ca AF       		.byte	-81
 2280 08cb 44       		.byte	68
ARM GAS  C:\Users\Dell\AppData\Local\Temp\cc9dCj9c.s 			page 41


 2281 08cc C4       		.byte	-60
 2282 08cd 0E       		.byte	14
 2283 08ce D8       		.byte	-40
 2284 08cf 01       		.byte	1
 2285 08d0 DE       		.byte	-34
 2286 08d1 03       		.byte	3
 2287 08d2 78       		.byte	120
 2288 08d3 40       		.byte	64
 2289 08d4 7C       		.byte	124
 2290 08d5 80       		.byte	-128
 2291 08d6 98       		.byte	-104
 2292 08d7 C0       		.byte	-64
 2293 08d8 AB       		.byte	-85
 2294 08d9 20       		.byte	32
 2295 08da B0       		.byte	-80
 2296 08db 01       		.byte	1
 2297 08dc B5       		.byte	-75
 2298 08dd 08       		.byte	8
 2299 08de DC       		.byte	-36
 2300 08df 01       		.byte	1
 2301 08e0 DE       		.byte	-34
 2302 08e1 04       		.byte	4
 2303 08e2 EC       		.byte	-20
 2304 08e3 0C       		.byte	12
 2305 08e4 00       		.byte	0
 2306 08e5 02       		.byte	2
 2307 08e6 01       		.byte	1
 2308 08e7 01       		.byte	1
 2309 08e8 08       		.byte	8
 2310 08e9 02       		.byte	2
 2311 08ea 0A       		.byte	10
 2312 08eb 02       		.byte	2
 2313 08ec 0B       		.byte	11
 2314 08ed 01       		.byte	1
 2315 08ee 10       		.byte	16
 2316 08ef 02       		.byte	2
 2317 08f0 11       		.byte	17
 2318 08f1 01       		.byte	1
 2319 08f2 1A       		.byte	26
 2320 08f3 02       		.byte	2
 2321 08f4 1B       		.byte	27
 2322 08f5 01       		.byte	1
 2323 08f6 00       		.byte	0
 2324 08f7 EA       		.byte	-22
 2325 08f8 03       		.byte	3
 2326 08f9 C0       		.byte	-64
 2327 08fa 00       		.byte	0
 2328 08fb 00       		.byte	0
 2329 08fc 21       		.byte	33
 2330 08fd 38       		.byte	56
 2331 08fe 00       		.byte	0
 2332 08ff 00       		.byte	0
 2333 0900 30       		.byte	48
 2334 0901 00       		.byte	0
 2335 0902 00       		.byte	0
 2336 0903 00       		.byte	0
 2337 0904 00       		.byte	0
ARM GAS  C:\Users\Dell\AppData\Local\Temp\cc9dCj9c.s 			page 42


 2338 0905 FF       		.byte	-1
 2339 0906 FF       		.byte	-1
 2340 0907 00       		.byte	0
 2341 0908 FF       		.byte	-1
 2342 0909 00       		.byte	0
 2343 090a 00       		.byte	0
 2344 090b 00       		.byte	0
 2345 090c 70       		.byte	112
 2346 090d 00       		.byte	0
 2347 090e 04       		.byte	4
 2348 090f CB       		.byte	-53
 2349 0910 FB       		.byte	-5
 2350 0911 00       		.byte	0
 2351 0912 3B       		.byte	59
 2352 0913 00       		.byte	0
 2353 0914 00       		.byte	0
 2354 0915 00       		.byte	0
 2355 0916 00       		.byte	0
 2356 0917 00       		.byte	0
 2357 0918 40       		.byte	64
 2358 0919 00       		.byte	0
 2359 091a 00       		.byte	0
 2360 091b 3F       		.byte	63
 2361 091c 3F       		.byte	63
 2362 091d 00       		.byte	0
 2363 091e 3F       		.byte	63
 2364 091f 00       		.byte	0
 2365 0920 C0       		.byte	-64
 2366 0921 00       		.byte	0
 2367 0922 00       		.byte	0
 2368 0923 00       		.byte	0
 2369 0924 40       		.byte	64
 2370 0925 13       		.byte	19
 2371 0926 13       		.byte	19
 2372 0927 00       		.byte	0
 2373 0928 10       		.byte	16
 2374 0929 00       		.byte	0
 2375 092a AC       		.byte	-84
 2376 092b 00       		.byte	0
 2377 092c 00       		.byte	0
 2378 092d FF       		.byte	-1
 2379 092e FF       		.byte	-1
 2380 092f 00       		.byte	0
 2381 0930 FF       		.byte	-1
 2382 0931 00       		.byte	0
 2383 0932 00       		.byte	0
 2384 0933 00       		.byte	0
 2385 0934 00       		.byte	0
 2386 0935 FF       		.byte	-1
 2387 0936 FF       		.byte	-1
 2388 0937 00       		.byte	0
 2389 0938 FF       		.byte	-1
 2390 0939 00       		.byte	0
 2391 093a 00       		.byte	0
 2392 093b 00       		.byte	0
 2393 093c 03       		.byte	3
 2394 093d 00       		.byte	0
ARM GAS  C:\Users\Dell\AppData\Local\Temp\cc9dCj9c.s 			page 43


 2395 093e 18       		.byte	24
 2396 093f 01       		.byte	1
 2397 0940 04       		.byte	4
 2398 0941 00       		.byte	0
 2399 0942 18       		.byte	24
 2400 0943 01       		.byte	1
 2401 0944 05       		.byte	5
 2402 0945 00       		.byte	0
 2403 0946 18       		.byte	24
 2404 0947 01       		.byte	1
 2405              		.section	.cywolatch,"a",%progbits
 2406              		.align	2
 2407              		.type	cy_meta_wonvl, %object
 2408              		.size	cy_meta_wonvl, 4
 2409              	cy_meta_wonvl:
 2410 0000 BC       		.byte	-68
 2411 0001 90       		.byte	-112
 2412 0002 AC       		.byte	-84
 2413 0003 AF       		.byte	-81
 2414              		.section	.cycustnvl,"a",%progbits
 2415              		.align	2
 2416              		.type	cy_meta_custnvl, %object
 2417              		.size	cy_meta_custnvl, 4
 2418              	cy_meta_custnvl:
 2419 0000 00       		.byte	0
 2420 0001 00       		.byte	0
 2421 0002 40       		.byte	64
 2422 0003 05       		.byte	5
 2423              		.section	.cymeta,"a",%progbits
 2424              		.align	2
 2425              		.type	cy_metadata, %object
 2426              		.size	cy_metadata, 12
 2427              	cy_metadata:
 2428 0000 00       		.byte	0
 2429 0001 01       		.byte	1
 2430 0002 2E       		.byte	46
 2431 0003 16       		.byte	22
 2432 0004 10       		.byte	16
 2433 0005 69       		.byte	105
 2434 0006 00       		.byte	0
 2435 0007 01       		.byte	1
 2436 0008 00       		.byte	0
 2437 0009 00       		.byte	0
 2438 000a 00       		.byte	0
 2439 000b 00       		.byte	0
 2440              		.section	.cyflashprotect,"a",%progbits
 2441              		.align	2
 2442              		.type	cy_meta_flashprotect, %object
 2443              		.size	cy_meta_flashprotect, 256
 2444              	cy_meta_flashprotect:
 2445 0000 00000000 		.space	256
 2445      00000000 
 2445      00000000 
 2445      00000000 
 2445      00000000 
 2446              		.text
 2447              	.Letext0:
ARM GAS  C:\Users\Dell\AppData\Local\Temp\cc9dCj9c.s 			page 44


 2448              		.file 1 "c:\\program files (x86)\\cypress\\psoc creator\\4.2\\psoc creator\\import\\gnu\\arm\\5.4.
 2449              		.file 2 "c:\\program files (x86)\\cypress\\psoc creator\\4.2\\psoc creator\\import\\gnu\\arm\\5.4.
 2450              		.file 3 "Generated_Source\\PSoC5\\cymetadata.c"
