ARM GAS  C:\Users\Dell\AppData\Local\Temp\ccpYsGDa.s 			page 1


   1              		.syntax unified
   2              		.cpu cortex-m3
   3              		.fpu softvfp
   4              		.eabi_attribute 20, 1
   5              		.eabi_attribute 21, 1
   6              		.eabi_attribute 23, 3
   7              		.eabi_attribute 24, 1
   8              		.eabi_attribute 25, 1
   9              		.eabi_attribute 26, 1
  10              		.eabi_attribute 30, 1
  11              		.eabi_attribute 34, 1
  12              		.eabi_attribute 18, 4
  13              		.thumb
  14              		.syntax unified
  15              		.file	"I2C_MASTER.c"
  16              		.text
  17              	.Ltext0:
  18              		.cfi_sections	.debug_frame
  19              		.section	.text.I2C_MasterWriteBuf,"ax",%progbits
  20              		.align	2
  21              		.global	I2C_MasterWriteBuf
  22              		.thumb
  23              		.thumb_func
  24              		.type	I2C_MasterWriteBuf, %function
  25              	I2C_MasterWriteBuf:
  26              	.LFB0:
  27              		.file 1 "Generated_Source\\PSoC5\\I2C_MASTER.c"
   1:Generated_Source\PSoC5/I2C_MASTER.c **** /*******************************************************************************
   2:Generated_Source\PSoC5/I2C_MASTER.c **** * File Name: I2C_MASTER.c
   3:Generated_Source\PSoC5/I2C_MASTER.c **** * Version 3.50
   4:Generated_Source\PSoC5/I2C_MASTER.c **** *
   5:Generated_Source\PSoC5/I2C_MASTER.c **** * Description:
   6:Generated_Source\PSoC5/I2C_MASTER.c **** *  This file provides the source code of APIs for the I2C component master mode.
   7:Generated_Source\PSoC5/I2C_MASTER.c **** *
   8:Generated_Source\PSoC5/I2C_MASTER.c **** *******************************************************************************
   9:Generated_Source\PSoC5/I2C_MASTER.c **** * Copyright 2012-2015, Cypress Semiconductor Corporation. All rights reserved.
  10:Generated_Source\PSoC5/I2C_MASTER.c **** * You may use this file only in accordance with the license, terms, conditions,
  11:Generated_Source\PSoC5/I2C_MASTER.c **** * disclaimers, and limitations in the end user license agreement accompanying
  12:Generated_Source\PSoC5/I2C_MASTER.c **** * the software package with which this file was provided.
  13:Generated_Source\PSoC5/I2C_MASTER.c **** *******************************************************************************/
  14:Generated_Source\PSoC5/I2C_MASTER.c **** 
  15:Generated_Source\PSoC5/I2C_MASTER.c **** #include "I2C_PVT.h"
  16:Generated_Source\PSoC5/I2C_MASTER.c **** 
  17:Generated_Source\PSoC5/I2C_MASTER.c **** #if(I2C_MODE_MASTER_ENABLED)
  18:Generated_Source\PSoC5/I2C_MASTER.c **** 
  19:Generated_Source\PSoC5/I2C_MASTER.c **** /**********************************
  20:Generated_Source\PSoC5/I2C_MASTER.c **** *      System variables
  21:Generated_Source\PSoC5/I2C_MASTER.c **** **********************************/
  22:Generated_Source\PSoC5/I2C_MASTER.c **** 
  23:Generated_Source\PSoC5/I2C_MASTER.c **** volatile uint8 I2C_mstrStatus;     /* Master Status byte  */
  24:Generated_Source\PSoC5/I2C_MASTER.c **** volatile uint8 I2C_mstrControl;    /* Master Control byte */
  25:Generated_Source\PSoC5/I2C_MASTER.c **** 
  26:Generated_Source\PSoC5/I2C_MASTER.c **** /* Transmit buffer variables */
  27:Generated_Source\PSoC5/I2C_MASTER.c **** volatile uint8 * I2C_mstrRdBufPtr;     /* Pointer to Master Read buffer */
  28:Generated_Source\PSoC5/I2C_MASTER.c **** volatile uint8   I2C_mstrRdBufSize;    /* Master Read buffer size       */
  29:Generated_Source\PSoC5/I2C_MASTER.c **** volatile uint8   I2C_mstrRdBufIndex;   /* Master Read buffer Index      */
  30:Generated_Source\PSoC5/I2C_MASTER.c **** 
ARM GAS  C:\Users\Dell\AppData\Local\Temp\ccpYsGDa.s 			page 2


  31:Generated_Source\PSoC5/I2C_MASTER.c **** /* Receive buffer variables */
  32:Generated_Source\PSoC5/I2C_MASTER.c **** volatile uint8 * I2C_mstrWrBufPtr;     /* Pointer to Master Write buffer */
  33:Generated_Source\PSoC5/I2C_MASTER.c **** volatile uint8   I2C_mstrWrBufSize;    /* Master Write buffer size       */
  34:Generated_Source\PSoC5/I2C_MASTER.c **** volatile uint8   I2C_mstrWrBufIndex;   /* Master Write buffer Index      */
  35:Generated_Source\PSoC5/I2C_MASTER.c **** 
  36:Generated_Source\PSoC5/I2C_MASTER.c **** 
  37:Generated_Source\PSoC5/I2C_MASTER.c **** /*******************************************************************************
  38:Generated_Source\PSoC5/I2C_MASTER.c **** * Function Name: I2C_MasterWriteBuf
  39:Generated_Source\PSoC5/I2C_MASTER.c **** ********************************************************************************
  40:Generated_Source\PSoC5/I2C_MASTER.c **** *
  41:Generated_Source\PSoC5/I2C_MASTER.c **** * Summary:
  42:Generated_Source\PSoC5/I2C_MASTER.c **** *  Automatically writes an entire buffer of data to a slave device. Once the
  43:Generated_Source\PSoC5/I2C_MASTER.c **** *  data transfer is initiated by this function, further data transfer is handled
  44:Generated_Source\PSoC5/I2C_MASTER.c **** *  by the included ISR in byte by byte mode.
  45:Generated_Source\PSoC5/I2C_MASTER.c **** *
  46:Generated_Source\PSoC5/I2C_MASTER.c **** * Parameters:
  47:Generated_Source\PSoC5/I2C_MASTER.c **** *  slaveAddr: 7-bit slave address.
  48:Generated_Source\PSoC5/I2C_MASTER.c **** *  xferData:  Pointer to buffer of data to be sent.
  49:Generated_Source\PSoC5/I2C_MASTER.c **** *  cnt:       Size of buffer to send.
  50:Generated_Source\PSoC5/I2C_MASTER.c **** *  mode:      Transfer mode defines: start or restart condition generation at
  51:Generated_Source\PSoC5/I2C_MASTER.c **** *             begin of the transfer and complete the transfer or halt before
  52:Generated_Source\PSoC5/I2C_MASTER.c **** *             generating a stop.
  53:Generated_Source\PSoC5/I2C_MASTER.c **** *
  54:Generated_Source\PSoC5/I2C_MASTER.c **** * Return:
  55:Generated_Source\PSoC5/I2C_MASTER.c **** *  Status error - Zero means no errors.
  56:Generated_Source\PSoC5/I2C_MASTER.c **** *
  57:Generated_Source\PSoC5/I2C_MASTER.c **** * Side Effects:
  58:Generated_Source\PSoC5/I2C_MASTER.c **** *  The included ISR will start a transfer after a start or restart condition is
  59:Generated_Source\PSoC5/I2C_MASTER.c **** *  generated.
  60:Generated_Source\PSoC5/I2C_MASTER.c **** *
  61:Generated_Source\PSoC5/I2C_MASTER.c **** * Global variables:
  62:Generated_Source\PSoC5/I2C_MASTER.c **** *  I2C_mstrStatus  - The global variable used to store a current
  63:Generated_Source\PSoC5/I2C_MASTER.c **** *                                 status of the I2C Master.
  64:Generated_Source\PSoC5/I2C_MASTER.c **** *  I2C_state       - The global variable used to store a current
  65:Generated_Source\PSoC5/I2C_MASTER.c **** *                                 state of the software FSM.
  66:Generated_Source\PSoC5/I2C_MASTER.c **** *  I2C_mstrControl - The global variable used to control the master
  67:Generated_Source\PSoC5/I2C_MASTER.c **** *                                 end of a transaction with or without Stop
  68:Generated_Source\PSoC5/I2C_MASTER.c **** *                                 generation.
  69:Generated_Source\PSoC5/I2C_MASTER.c **** *  I2C_mstrWrBufPtr - The global variable used to store a pointer
  70:Generated_Source\PSoC5/I2C_MASTER.c **** *                                  to the master write buffer.
  71:Generated_Source\PSoC5/I2C_MASTER.c **** *  I2C_mstrWrBufIndex - The global variable used to store current
  72:Generated_Source\PSoC5/I2C_MASTER.c **** *                                    index within the master write buffer.
  73:Generated_Source\PSoC5/I2C_MASTER.c **** *  I2C_mstrWrBufSize - The global variable used to store a master
  74:Generated_Source\PSoC5/I2C_MASTER.c **** *                                   write buffer size.
  75:Generated_Source\PSoC5/I2C_MASTER.c **** *
  76:Generated_Source\PSoC5/I2C_MASTER.c **** * Reentrant:
  77:Generated_Source\PSoC5/I2C_MASTER.c **** *  No
  78:Generated_Source\PSoC5/I2C_MASTER.c **** *
  79:Generated_Source\PSoC5/I2C_MASTER.c **** *******************************************************************************/
  80:Generated_Source\PSoC5/I2C_MASTER.c **** uint8 I2C_MasterWriteBuf(uint8 slaveAddress, uint8 * wrData, uint8 cnt, uint8 mode)
  81:Generated_Source\PSoC5/I2C_MASTER.c ****       
  82:Generated_Source\PSoC5/I2C_MASTER.c **** {
  28              		.loc 1 82 0
  29              		.cfi_startproc
  30              		@ args = 0, pretend = 0, frame = 0
  31              		@ frame_needed = 0, uses_anonymous_args = 0
  32              		@ link register save eliminated.
ARM GAS  C:\Users\Dell\AppData\Local\Temp\ccpYsGDa.s 			page 3


  33              	.LVL0:
  83:Generated_Source\PSoC5/I2C_MASTER.c ****     uint8 errStatus;
  84:Generated_Source\PSoC5/I2C_MASTER.c **** 
  85:Generated_Source\PSoC5/I2C_MASTER.c ****     errStatus = I2C_MSTR_NOT_READY;
  86:Generated_Source\PSoC5/I2C_MASTER.c **** 
  87:Generated_Source\PSoC5/I2C_MASTER.c ****     if(NULL != wrData)
  34              		.loc 1 87 0
  35 0000 0029     		cmp	r1, #0
  36 0002 48D0     		beq	.L7
  82:Generated_Source\PSoC5/I2C_MASTER.c ****     uint8 errStatus;
  37              		.loc 1 82 0
  38 0004 70B4     		push	{r4, r5, r6}
  39              		.cfi_def_cfa_offset 12
  40              		.cfi_offset 4, -12
  41              		.cfi_offset 5, -8
  42              		.cfi_offset 6, -4
  43 0006 0C46     		mov	r4, r1
  88:Generated_Source\PSoC5/I2C_MASTER.c ****     {
  89:Generated_Source\PSoC5/I2C_MASTER.c ****         /* Check I2C state to allow transfer: valid states are IDLE or HALT */
  90:Generated_Source\PSoC5/I2C_MASTER.c ****         if(I2C_SM_IDLE == I2C_state)
  44              		.loc 1 90 0
  45 0008 2649     		ldr	r1, .L12
  46              	.LVL1:
  47 000a 0978     		ldrb	r1, [r1]	@ zero_extendqisi2
  48 000c C9B2     		uxtb	r1, r1
  49 000e 1029     		cmp	r1, #16
  50 0010 06D1     		bne	.L3
  91:Generated_Source\PSoC5/I2C_MASTER.c ****         {
  92:Generated_Source\PSoC5/I2C_MASTER.c ****             /* Master is ready for transaction: check if bus is free */
  93:Generated_Source\PSoC5/I2C_MASTER.c ****             if(I2C_CHECK_BUS_FREE(I2C_MCSR_REG))
  51              		.loc 1 93 0
  52 0012 2549     		ldr	r1, .L12+4
  53 0014 0978     		ldrb	r1, [r1]	@ zero_extendqisi2
  54 0016 11F0080F 		tst	r1, #8
  55 001a 11D1     		bne	.L8
  94:Generated_Source\PSoC5/I2C_MASTER.c ****             {
  95:Generated_Source\PSoC5/I2C_MASTER.c ****                 errStatus = I2C_MSTR_NO_ERROR;
  56              		.loc 1 95 0
  57 001c 0021     		movs	r1, #0
  58 001e 12E0     		b	.L4
  59              	.L3:
  96:Generated_Source\PSoC5/I2C_MASTER.c ****             }
  97:Generated_Source\PSoC5/I2C_MASTER.c ****             else
  98:Generated_Source\PSoC5/I2C_MASTER.c ****             {
  99:Generated_Source\PSoC5/I2C_MASTER.c ****                 errStatus = I2C_MSTR_BUS_BUSY;
 100:Generated_Source\PSoC5/I2C_MASTER.c ****             }
 101:Generated_Source\PSoC5/I2C_MASTER.c ****         }
 102:Generated_Source\PSoC5/I2C_MASTER.c ****         else if(I2C_SM_MSTR_HALT == I2C_state)
  60              		.loc 1 102 0
  61 0020 2049     		ldr	r1, .L12
  62 0022 0978     		ldrb	r1, [r1]	@ zero_extendqisi2
  63 0024 C9B2     		uxtb	r1, r1
  64 0026 6029     		cmp	r1, #96
  65 0028 0CD1     		bne	.L9
  66              	.LVL2:
 103:Generated_Source\PSoC5/I2C_MASTER.c ****         {
 104:Generated_Source\PSoC5/I2C_MASTER.c ****             /* Master is ready and waiting for ReStart */
ARM GAS  C:\Users\Dell\AppData\Local\Temp\ccpYsGDa.s 			page 4


 105:Generated_Source\PSoC5/I2C_MASTER.c ****             errStatus = I2C_MSTR_NO_ERROR;
 106:Generated_Source\PSoC5/I2C_MASTER.c **** 
 107:Generated_Source\PSoC5/I2C_MASTER.c ****             I2C_ClearPendingInt();
  67              		.loc 1 107 0
  68 002a 4FF40045 		mov	r5, #32768
  69 002e 1F49     		ldr	r1, .L12+8
  70 0030 0D60     		str	r5, [r1]
 108:Generated_Source\PSoC5/I2C_MASTER.c ****             I2C_mstrStatus &= (uint8) ~I2C_MSTAT_XFER_HALT;
  71              		.loc 1 108 0
  72 0032 1F4D     		ldr	r5, .L12+12
  73 0034 2978     		ldrb	r1, [r5]	@ zero_extendqisi2
  74 0036 01F0F701 		and	r1, r1, #247
  75 003a 2970     		strb	r1, [r5]
 105:Generated_Source\PSoC5/I2C_MASTER.c **** 
  76              		.loc 1 105 0
  77 003c 0021     		movs	r1, #0
  78 003e 02E0     		b	.L4
  79              	.LVL3:
  80              	.L8:
  99:Generated_Source\PSoC5/I2C_MASTER.c ****             }
  81              		.loc 1 99 0
  82 0040 0121     		movs	r1, #1
  83 0042 00E0     		b	.L4
  84              	.L9:
  85:Generated_Source\PSoC5/I2C_MASTER.c **** 
  85              		.loc 1 85 0
  86 0044 0221     		movs	r1, #2
  87              	.LVL4:
  88              	.L4:
 109:Generated_Source\PSoC5/I2C_MASTER.c ****         }
 110:Generated_Source\PSoC5/I2C_MASTER.c ****         else
 111:Generated_Source\PSoC5/I2C_MASTER.c ****         {
 112:Generated_Source\PSoC5/I2C_MASTER.c ****             /* errStatus = I2C_MSTR_NOT_READY was send before */
 113:Generated_Source\PSoC5/I2C_MASTER.c ****         }
 114:Generated_Source\PSoC5/I2C_MASTER.c **** 
 115:Generated_Source\PSoC5/I2C_MASTER.c ****         if(I2C_MSTR_NO_ERROR == errStatus)
  89              		.loc 1 115 0
  90 0046 49BB     		cbnz	r1, .L2
 116:Generated_Source\PSoC5/I2C_MASTER.c ****         {
 117:Generated_Source\PSoC5/I2C_MASTER.c ****             /* Set state to start write transaction */
 118:Generated_Source\PSoC5/I2C_MASTER.c ****             I2C_state = I2C_SM_MSTR_WR_ADDR;
  91              		.loc 1 118 0
  92 0048 4526     		movs	r6, #69
  93 004a 164D     		ldr	r5, .L12
  94 004c 2E70     		strb	r6, [r5]
 119:Generated_Source\PSoC5/I2C_MASTER.c **** 
 120:Generated_Source\PSoC5/I2C_MASTER.c ****             /* Prepare write buffer */
 121:Generated_Source\PSoC5/I2C_MASTER.c ****             I2C_mstrWrBufIndex = 0u;
  95              		.loc 1 121 0
  96 004e 0026     		movs	r6, #0
  97 0050 184D     		ldr	r5, .L12+16
  98 0052 2E70     		strb	r6, [r5]
 122:Generated_Source\PSoC5/I2C_MASTER.c ****             I2C_mstrWrBufSize  = cnt;
  99              		.loc 1 122 0
 100 0054 184D     		ldr	r5, .L12+20
 101 0056 2A70     		strb	r2, [r5]
 123:Generated_Source\PSoC5/I2C_MASTER.c ****             I2C_mstrWrBufPtr   = (volatile uint8 *) wrData;
ARM GAS  C:\Users\Dell\AppData\Local\Temp\ccpYsGDa.s 			page 5


 102              		.loc 1 123 0
 103 0058 184A     		ldr	r2, .L12+24
 104              	.LVL5:
 105 005a 1460     		str	r4, [r2]
 124:Generated_Source\PSoC5/I2C_MASTER.c **** 
 125:Generated_Source\PSoC5/I2C_MASTER.c ****             /* Set end of transaction flag: Stop or Halt (following ReStart) */
 126:Generated_Source\PSoC5/I2C_MASTER.c ****             I2C_mstrControl = mode;
 106              		.loc 1 126 0
 107 005c 184A     		ldr	r2, .L12+28
 108 005e 1370     		strb	r3, [r2]
 109              	.LVL6:
 127:Generated_Source\PSoC5/I2C_MASTER.c **** 
 128:Generated_Source\PSoC5/I2C_MASTER.c ****             /* Clear write status history */
 129:Generated_Source\PSoC5/I2C_MASTER.c ****             I2C_mstrStatus &= (uint8) ~I2C_MSTAT_WR_CMPLT;
 110              		.loc 1 129 0
 111 0060 134C     		ldr	r4, .L12+12
 112              	.LVL7:
 113 0062 2278     		ldrb	r2, [r4]	@ zero_extendqisi2
 114 0064 02F0FD02 		and	r2, r2, #253
 115 0068 2270     		strb	r2, [r4]
 130:Generated_Source\PSoC5/I2C_MASTER.c **** 
 131:Generated_Source\PSoC5/I2C_MASTER.c ****             /* Hardware actions: write address and generate Start or ReStart */
 132:Generated_Source\PSoC5/I2C_MASTER.c ****             I2C_DATA_REG = (uint8) (slaveAddress << I2C_SLAVE_ADDR_SHIFT);
 116              		.loc 1 132 0
 117 006a 4200     		lsls	r2, r0, #1
 118 006c D2B2     		uxtb	r2, r2
 119 006e 1548     		ldr	r0, .L12+32
 120              	.LVL8:
 121 0070 0270     		strb	r2, [r0]
 122              	.LVL9:
 133:Generated_Source\PSoC5/I2C_MASTER.c **** 
 134:Generated_Source\PSoC5/I2C_MASTER.c ****             if(I2C_CHECK_RESTART(mode))
 123              		.loc 1 134 0
 124 0072 13F0010F 		tst	r3, #1
 125 0076 06D0     		beq	.L5
 135:Generated_Source\PSoC5/I2C_MASTER.c ****             {
 136:Generated_Source\PSoC5/I2C_MASTER.c ****                 I2C_GENERATE_RESTART;
 126              		.loc 1 136 0
 127 0078 1222     		movs	r2, #18
 128 007a 0B4B     		ldr	r3, .L12+4
 129              	.LVL10:
 130 007c 1A70     		strb	r2, [r3]
 131 007e 0422     		movs	r2, #4
 132 0080 023B     		subs	r3, r3, #2
 133 0082 1A70     		strb	r2, [r3]
 134 0084 02E0     		b	.L6
 135              	.LVL11:
 136              	.L5:
 137:Generated_Source\PSoC5/I2C_MASTER.c ****             }
 138:Generated_Source\PSoC5/I2C_MASTER.c ****             else
 139:Generated_Source\PSoC5/I2C_MASTER.c ****             {
 140:Generated_Source\PSoC5/I2C_MASTER.c ****                 I2C_GENERATE_START;
 137              		.loc 1 140 0
 138 0086 0122     		movs	r2, #1
 139 0088 074B     		ldr	r3, .L12+4
 140              	.LVL12:
 141 008a 1A70     		strb	r2, [r3]
ARM GAS  C:\Users\Dell\AppData\Local\Temp\ccpYsGDa.s 			page 6


 142              	.L6:
 141:Generated_Source\PSoC5/I2C_MASTER.c ****             }
 142:Generated_Source\PSoC5/I2C_MASTER.c **** 
 143:Generated_Source\PSoC5/I2C_MASTER.c ****             /* Enable interrupt to complete transfer */
 144:Generated_Source\PSoC5/I2C_MASTER.c ****             I2C_EnableInt();
 143              		.loc 1 144 0
 144 008c 4FF40042 		mov	r2, #32768
 145 0090 0D4B     		ldr	r3, .L12+36
 146 0092 1A60     		str	r2, [r3]
 147 0094 02E0     		b	.L2
 148              	.LVL13:
 149              	.L7:
 150              		.cfi_def_cfa_offset 0
 151              		.cfi_restore 4
 152              		.cfi_restore 5
 153              		.cfi_restore 6
  85:Generated_Source\PSoC5/I2C_MASTER.c **** 
 154              		.loc 1 85 0
 155 0096 0221     		movs	r1, #2
 156              	.LVL14:
 145:Generated_Source\PSoC5/I2C_MASTER.c ****         }
 146:Generated_Source\PSoC5/I2C_MASTER.c ****     }
 147:Generated_Source\PSoC5/I2C_MASTER.c **** 
 148:Generated_Source\PSoC5/I2C_MASTER.c ****     return(errStatus);
 149:Generated_Source\PSoC5/I2C_MASTER.c **** }
 157              		.loc 1 149 0
 158 0098 0846     		mov	r0, r1
 159              	.LVL15:
 160 009a 7047     		bx	lr
 161              	.LVL16:
 162              	.L2:
 163              		.cfi_def_cfa_offset 12
 164              		.cfi_offset 4, -12
 165              		.cfi_offset 5, -8
 166              		.cfi_offset 6, -4
 167 009c 0846     		mov	r0, r1
 168 009e 70BC     		pop	{r4, r5, r6}
 169              		.cfi_restore 6
 170              		.cfi_restore 5
 171              		.cfi_restore 4
 172              		.cfi_def_cfa_offset 0
 173 00a0 7047     		bx	lr
 174              	.L13:
 175 00a2 00BF     		.align	2
 176              	.L12:
 177 00a4 00000000 		.word	I2C_state
 178 00a8 D9490040 		.word	1073760729
 179 00ac 80E200E0 		.word	-536812928
 180 00b0 00000000 		.word	I2C_mstrStatus
 181 00b4 00000000 		.word	I2C_mstrWrBufIndex
 182 00b8 00000000 		.word	I2C_mstrWrBufSize
 183 00bc 00000000 		.word	I2C_mstrWrBufPtr
 184 00c0 00000000 		.word	I2C_mstrControl
 185 00c4 D8490040 		.word	1073760728
 186 00c8 00E100E0 		.word	-536813312
 187              		.cfi_endproc
 188              	.LFE0:
ARM GAS  C:\Users\Dell\AppData\Local\Temp\ccpYsGDa.s 			page 7


 189              		.size	I2C_MasterWriteBuf, .-I2C_MasterWriteBuf
 190              		.section	.text.I2C_MasterReadBuf,"ax",%progbits
 191              		.align	2
 192              		.global	I2C_MasterReadBuf
 193              		.thumb
 194              		.thumb_func
 195              		.type	I2C_MasterReadBuf, %function
 196              	I2C_MasterReadBuf:
 197              	.LFB1:
 150:Generated_Source\PSoC5/I2C_MASTER.c **** 
 151:Generated_Source\PSoC5/I2C_MASTER.c **** 
 152:Generated_Source\PSoC5/I2C_MASTER.c **** /*******************************************************************************
 153:Generated_Source\PSoC5/I2C_MASTER.c **** * Function Name: I2C_MasterReadBuf
 154:Generated_Source\PSoC5/I2C_MASTER.c **** ********************************************************************************
 155:Generated_Source\PSoC5/I2C_MASTER.c **** *
 156:Generated_Source\PSoC5/I2C_MASTER.c **** * Summary:
 157:Generated_Source\PSoC5/I2C_MASTER.c **** *  Automatically writes an entire buffer of data to a slave device. Once the
 158:Generated_Source\PSoC5/I2C_MASTER.c **** *  data transfer is initiated by this function, further data transfer is handled
 159:Generated_Source\PSoC5/I2C_MASTER.c **** *  by the included ISR in byte by byte mode.
 160:Generated_Source\PSoC5/I2C_MASTER.c **** *
 161:Generated_Source\PSoC5/I2C_MASTER.c **** * Parameters:
 162:Generated_Source\PSoC5/I2C_MASTER.c **** *  slaveAddr: 7-bit slave address.
 163:Generated_Source\PSoC5/I2C_MASTER.c **** *  xferData:  Pointer to buffer where to put data from slave.
 164:Generated_Source\PSoC5/I2C_MASTER.c **** *  cnt:       Size of buffer to read.
 165:Generated_Source\PSoC5/I2C_MASTER.c **** *  mode:      Transfer mode defines: start or restart condition generation at
 166:Generated_Source\PSoC5/I2C_MASTER.c **** *             begin of the transfer and complete the transfer or halt before
 167:Generated_Source\PSoC5/I2C_MASTER.c **** *             generating a stop.
 168:Generated_Source\PSoC5/I2C_MASTER.c **** *
 169:Generated_Source\PSoC5/I2C_MASTER.c **** * Return:
 170:Generated_Source\PSoC5/I2C_MASTER.c **** *  Status error - Zero means no errors.
 171:Generated_Source\PSoC5/I2C_MASTER.c **** *
 172:Generated_Source\PSoC5/I2C_MASTER.c **** * Side Effects:
 173:Generated_Source\PSoC5/I2C_MASTER.c **** *  The included ISR will start a transfer after start or restart condition is
 174:Generated_Source\PSoC5/I2C_MASTER.c **** *  generated.
 175:Generated_Source\PSoC5/I2C_MASTER.c **** *
 176:Generated_Source\PSoC5/I2C_MASTER.c **** * Global variables:
 177:Generated_Source\PSoC5/I2C_MASTER.c **** *  I2C_mstrStatus  - The global variable used to store a current
 178:Generated_Source\PSoC5/I2C_MASTER.c **** *                                 status of the I2C Master.
 179:Generated_Source\PSoC5/I2C_MASTER.c **** *  I2C_state       - The global variable used to store a current
 180:Generated_Source\PSoC5/I2C_MASTER.c **** *                                 state of the software FSM.
 181:Generated_Source\PSoC5/I2C_MASTER.c **** *  I2C_mstrControl - The global variable used to control the master
 182:Generated_Source\PSoC5/I2C_MASTER.c **** *                                 end of a transaction with or without
 183:Generated_Source\PSoC5/I2C_MASTER.c **** *                                 Stop generation.
 184:Generated_Source\PSoC5/I2C_MASTER.c **** *  I2C_mstrRdBufPtr - The global variable used to store a pointer
 185:Generated_Source\PSoC5/I2C_MASTER.c **** *                                  to the master write buffer.
 186:Generated_Source\PSoC5/I2C_MASTER.c **** *  I2C_mstrRdBufIndex - The global variable  used to store a
 187:Generated_Source\PSoC5/I2C_MASTER.c **** *                                    current index within the master
 188:Generated_Source\PSoC5/I2C_MASTER.c **** *                                    write buffer.
 189:Generated_Source\PSoC5/I2C_MASTER.c **** *  I2C_mstrRdBufSize - The global variable used to store a master
 190:Generated_Source\PSoC5/I2C_MASTER.c **** *                                   write buffer size.
 191:Generated_Source\PSoC5/I2C_MASTER.c **** *
 192:Generated_Source\PSoC5/I2C_MASTER.c **** * Reentrant:
 193:Generated_Source\PSoC5/I2C_MASTER.c **** *  No.
 194:Generated_Source\PSoC5/I2C_MASTER.c **** *
 195:Generated_Source\PSoC5/I2C_MASTER.c **** *******************************************************************************/
 196:Generated_Source\PSoC5/I2C_MASTER.c **** uint8 I2C_MasterReadBuf(uint8 slaveAddress, uint8 * rdData, uint8 cnt, uint8 mode)
 197:Generated_Source\PSoC5/I2C_MASTER.c ****       
ARM GAS  C:\Users\Dell\AppData\Local\Temp\ccpYsGDa.s 			page 8


 198:Generated_Source\PSoC5/I2C_MASTER.c **** {
 198              		.loc 1 198 0
 199              		.cfi_startproc
 200              		@ args = 0, pretend = 0, frame = 0
 201              		@ frame_needed = 0, uses_anonymous_args = 0
 202              		@ link register save eliminated.
 203              	.LVL17:
 199:Generated_Source\PSoC5/I2C_MASTER.c ****     uint8 errStatus;
 200:Generated_Source\PSoC5/I2C_MASTER.c **** 
 201:Generated_Source\PSoC5/I2C_MASTER.c ****     errStatus = I2C_MSTR_NOT_READY;
 202:Generated_Source\PSoC5/I2C_MASTER.c **** 
 203:Generated_Source\PSoC5/I2C_MASTER.c ****     if(NULL != rdData)
 204              		.loc 1 203 0
 205 0000 0029     		cmp	r1, #0
 206 0002 4AD0     		beq	.L20
 198:Generated_Source\PSoC5/I2C_MASTER.c ****     uint8 errStatus;
 207              		.loc 1 198 0
 208 0004 70B4     		push	{r4, r5, r6}
 209              		.cfi_def_cfa_offset 12
 210              		.cfi_offset 4, -12
 211              		.cfi_offset 5, -8
 212              		.cfi_offset 6, -4
 213 0006 0C46     		mov	r4, r1
 204:Generated_Source\PSoC5/I2C_MASTER.c ****     {
 205:Generated_Source\PSoC5/I2C_MASTER.c ****         /* Check I2C state to allow transfer: valid states are IDLE or HALT */
 206:Generated_Source\PSoC5/I2C_MASTER.c ****         if(I2C_SM_IDLE == I2C_state)
 214              		.loc 1 206 0
 215 0008 2749     		ldr	r1, .L25
 216              	.LVL18:
 217 000a 0978     		ldrb	r1, [r1]	@ zero_extendqisi2
 218 000c C9B2     		uxtb	r1, r1
 219 000e 1029     		cmp	r1, #16
 220 0010 06D1     		bne	.L16
 207:Generated_Source\PSoC5/I2C_MASTER.c ****         {
 208:Generated_Source\PSoC5/I2C_MASTER.c ****             /* Master is ready to transaction: check if bus is free */
 209:Generated_Source\PSoC5/I2C_MASTER.c ****             if(I2C_CHECK_BUS_FREE(I2C_MCSR_REG))
 221              		.loc 1 209 0
 222 0012 2649     		ldr	r1, .L25+4
 223 0014 0978     		ldrb	r1, [r1]	@ zero_extendqisi2
 224 0016 11F0080F 		tst	r1, #8
 225 001a 11D1     		bne	.L21
 210:Generated_Source\PSoC5/I2C_MASTER.c ****             {
 211:Generated_Source\PSoC5/I2C_MASTER.c ****                 errStatus = I2C_MSTR_NO_ERROR;
 226              		.loc 1 211 0
 227 001c 0021     		movs	r1, #0
 228 001e 12E0     		b	.L17
 229              	.L16:
 212:Generated_Source\PSoC5/I2C_MASTER.c ****             }
 213:Generated_Source\PSoC5/I2C_MASTER.c ****             else
 214:Generated_Source\PSoC5/I2C_MASTER.c ****             {
 215:Generated_Source\PSoC5/I2C_MASTER.c ****                 errStatus = I2C_MSTR_BUS_BUSY;
 216:Generated_Source\PSoC5/I2C_MASTER.c ****             }
 217:Generated_Source\PSoC5/I2C_MASTER.c ****         }
 218:Generated_Source\PSoC5/I2C_MASTER.c ****         else if(I2C_SM_MSTR_HALT == I2C_state)
 230              		.loc 1 218 0
 231 0020 2149     		ldr	r1, .L25
 232 0022 0978     		ldrb	r1, [r1]	@ zero_extendqisi2
ARM GAS  C:\Users\Dell\AppData\Local\Temp\ccpYsGDa.s 			page 9


 233 0024 C9B2     		uxtb	r1, r1
 234 0026 6029     		cmp	r1, #96
 235 0028 0CD1     		bne	.L22
 236              	.LVL19:
 219:Generated_Source\PSoC5/I2C_MASTER.c ****         {
 220:Generated_Source\PSoC5/I2C_MASTER.c ****             /* Master is ready and waiting for ReStart */
 221:Generated_Source\PSoC5/I2C_MASTER.c ****             errStatus = I2C_MSTR_NO_ERROR;
 222:Generated_Source\PSoC5/I2C_MASTER.c **** 
 223:Generated_Source\PSoC5/I2C_MASTER.c ****             I2C_ClearPendingInt();
 237              		.loc 1 223 0
 238 002a 4FF40045 		mov	r5, #32768
 239 002e 2049     		ldr	r1, .L25+8
 240 0030 0D60     		str	r5, [r1]
 224:Generated_Source\PSoC5/I2C_MASTER.c ****             I2C_mstrStatus &= (uint8) ~I2C_MSTAT_XFER_HALT;
 241              		.loc 1 224 0
 242 0032 204D     		ldr	r5, .L25+12
 243 0034 2978     		ldrb	r1, [r5]	@ zero_extendqisi2
 244 0036 01F0F701 		and	r1, r1, #247
 245 003a 2970     		strb	r1, [r5]
 221:Generated_Source\PSoC5/I2C_MASTER.c **** 
 246              		.loc 1 221 0
 247 003c 0021     		movs	r1, #0
 248 003e 02E0     		b	.L17
 249              	.LVL20:
 250              	.L21:
 215:Generated_Source\PSoC5/I2C_MASTER.c ****             }
 251              		.loc 1 215 0
 252 0040 0121     		movs	r1, #1
 253 0042 00E0     		b	.L17
 254              	.L22:
 201:Generated_Source\PSoC5/I2C_MASTER.c **** 
 255              		.loc 1 201 0
 256 0044 0221     		movs	r1, #2
 257              	.LVL21:
 258              	.L17:
 225:Generated_Source\PSoC5/I2C_MASTER.c ****         }
 226:Generated_Source\PSoC5/I2C_MASTER.c ****         else
 227:Generated_Source\PSoC5/I2C_MASTER.c ****         {
 228:Generated_Source\PSoC5/I2C_MASTER.c ****             /* errStatus = I2C_MSTR_NOT_READY was set before */
 229:Generated_Source\PSoC5/I2C_MASTER.c ****         }
 230:Generated_Source\PSoC5/I2C_MASTER.c **** 
 231:Generated_Source\PSoC5/I2C_MASTER.c ****         if(I2C_MSTR_NO_ERROR == errStatus)
 259              		.loc 1 231 0
 260 0046 59BB     		cbnz	r1, .L15
 232:Generated_Source\PSoC5/I2C_MASTER.c ****         {
 233:Generated_Source\PSoC5/I2C_MASTER.c ****             /* Set state to start write transaction */
 234:Generated_Source\PSoC5/I2C_MASTER.c ****             I2C_state = I2C_SM_MSTR_RD_ADDR;
 261              		.loc 1 234 0
 262 0048 4926     		movs	r6, #73
 263 004a 174D     		ldr	r5, .L25
 264 004c 2E70     		strb	r6, [r5]
 235:Generated_Source\PSoC5/I2C_MASTER.c **** 
 236:Generated_Source\PSoC5/I2C_MASTER.c ****             /* Prepare read buffer */
 237:Generated_Source\PSoC5/I2C_MASTER.c ****             I2C_mstrRdBufIndex  = 0u;
 265              		.loc 1 237 0
 266 004e 0026     		movs	r6, #0
 267 0050 194D     		ldr	r5, .L25+16
ARM GAS  C:\Users\Dell\AppData\Local\Temp\ccpYsGDa.s 			page 10


 268 0052 2E70     		strb	r6, [r5]
 238:Generated_Source\PSoC5/I2C_MASTER.c ****             I2C_mstrRdBufSize   = cnt;
 269              		.loc 1 238 0
 270 0054 194D     		ldr	r5, .L25+20
 271 0056 2A70     		strb	r2, [r5]
 239:Generated_Source\PSoC5/I2C_MASTER.c ****             I2C_mstrRdBufPtr    = (volatile uint8 *) rdData;
 272              		.loc 1 239 0
 273 0058 194A     		ldr	r2, .L25+24
 274              	.LVL22:
 275 005a 1460     		str	r4, [r2]
 240:Generated_Source\PSoC5/I2C_MASTER.c **** 
 241:Generated_Source\PSoC5/I2C_MASTER.c ****             /* Set end of transaction flag: Stop or Halt (following ReStart) */
 242:Generated_Source\PSoC5/I2C_MASTER.c ****             I2C_mstrControl = mode;
 276              		.loc 1 242 0
 277 005c 194A     		ldr	r2, .L25+28
 278 005e 1370     		strb	r3, [r2]
 279              	.LVL23:
 243:Generated_Source\PSoC5/I2C_MASTER.c **** 
 244:Generated_Source\PSoC5/I2C_MASTER.c ****             /* Clear read status history */
 245:Generated_Source\PSoC5/I2C_MASTER.c ****             I2C_mstrStatus &= (uint8) ~I2C_MSTAT_RD_CMPLT;
 280              		.loc 1 245 0
 281 0060 144C     		ldr	r4, .L25+12
 282              	.LVL24:
 283 0062 2278     		ldrb	r2, [r4]	@ zero_extendqisi2
 284 0064 02F0FE02 		and	r2, r2, #254
 285 0068 2270     		strb	r2, [r4]
 246:Generated_Source\PSoC5/I2C_MASTER.c **** 
 247:Generated_Source\PSoC5/I2C_MASTER.c ****             /* Hardware actions: write address and generate Start or ReStart */
 248:Generated_Source\PSoC5/I2C_MASTER.c ****             I2C_DATA_REG = ((uint8) (slaveAddress << I2C_SLAVE_ADDR_SHIFT) |
 286              		.loc 1 248 0
 287 006a 4200     		lsls	r2, r0, #1
 288 006c D2B2     		uxtb	r2, r2
 289 006e 42F00102 		orr	r2, r2, #1
 290 0072 1548     		ldr	r0, .L25+32
 291              	.LVL25:
 292 0074 0270     		strb	r2, [r0]
 293              	.LVL26:
 249:Generated_Source\PSoC5/I2C_MASTER.c ****                                                   I2C_READ_FLAG);
 250:Generated_Source\PSoC5/I2C_MASTER.c **** 
 251:Generated_Source\PSoC5/I2C_MASTER.c ****             if(I2C_CHECK_RESTART(mode))
 294              		.loc 1 251 0
 295 0076 13F0010F 		tst	r3, #1
 296 007a 06D0     		beq	.L18
 252:Generated_Source\PSoC5/I2C_MASTER.c ****             {
 253:Generated_Source\PSoC5/I2C_MASTER.c ****                 I2C_GENERATE_RESTART;
 297              		.loc 1 253 0
 298 007c 1222     		movs	r2, #18
 299 007e 0B4B     		ldr	r3, .L25+4
 300              	.LVL27:
 301 0080 1A70     		strb	r2, [r3]
 302 0082 0422     		movs	r2, #4
 303 0084 023B     		subs	r3, r3, #2
 304 0086 1A70     		strb	r2, [r3]
 305 0088 02E0     		b	.L19
 306              	.LVL28:
 307              	.L18:
 254:Generated_Source\PSoC5/I2C_MASTER.c ****             }
ARM GAS  C:\Users\Dell\AppData\Local\Temp\ccpYsGDa.s 			page 11


 255:Generated_Source\PSoC5/I2C_MASTER.c ****             else
 256:Generated_Source\PSoC5/I2C_MASTER.c ****             {
 257:Generated_Source\PSoC5/I2C_MASTER.c ****                 I2C_GENERATE_START;
 308              		.loc 1 257 0
 309 008a 0122     		movs	r2, #1
 310 008c 074B     		ldr	r3, .L25+4
 311              	.LVL29:
 312 008e 1A70     		strb	r2, [r3]
 313              	.L19:
 258:Generated_Source\PSoC5/I2C_MASTER.c ****             }
 259:Generated_Source\PSoC5/I2C_MASTER.c **** 
 260:Generated_Source\PSoC5/I2C_MASTER.c ****             /* Enable interrupt to complete transfer */
 261:Generated_Source\PSoC5/I2C_MASTER.c ****             I2C_EnableInt();
 314              		.loc 1 261 0
 315 0090 4FF40042 		mov	r2, #32768
 316 0094 0D4B     		ldr	r3, .L25+36
 317 0096 1A60     		str	r2, [r3]
 318 0098 02E0     		b	.L15
 319              	.LVL30:
 320              	.L20:
 321              		.cfi_def_cfa_offset 0
 322              		.cfi_restore 4
 323              		.cfi_restore 5
 324              		.cfi_restore 6
 201:Generated_Source\PSoC5/I2C_MASTER.c **** 
 325              		.loc 1 201 0
 326 009a 0221     		movs	r1, #2
 327              	.LVL31:
 262:Generated_Source\PSoC5/I2C_MASTER.c ****         }
 263:Generated_Source\PSoC5/I2C_MASTER.c ****     }
 264:Generated_Source\PSoC5/I2C_MASTER.c **** 
 265:Generated_Source\PSoC5/I2C_MASTER.c ****     return(errStatus);
 266:Generated_Source\PSoC5/I2C_MASTER.c **** }
 328              		.loc 1 266 0
 329 009c 0846     		mov	r0, r1
 330              	.LVL32:
 331 009e 7047     		bx	lr
 332              	.LVL33:
 333              	.L15:
 334              		.cfi_def_cfa_offset 12
 335              		.cfi_offset 4, -12
 336              		.cfi_offset 5, -8
 337              		.cfi_offset 6, -4
 338 00a0 0846     		mov	r0, r1
 339 00a2 70BC     		pop	{r4, r5, r6}
 340              		.cfi_restore 6
 341              		.cfi_restore 5
 342              		.cfi_restore 4
 343              		.cfi_def_cfa_offset 0
 344 00a4 7047     		bx	lr
 345              	.L26:
 346 00a6 00BF     		.align	2
 347              	.L25:
 348 00a8 00000000 		.word	I2C_state
 349 00ac D9490040 		.word	1073760729
 350 00b0 80E200E0 		.word	-536812928
 351 00b4 00000000 		.word	I2C_mstrStatus
ARM GAS  C:\Users\Dell\AppData\Local\Temp\ccpYsGDa.s 			page 12


 352 00b8 00000000 		.word	I2C_mstrRdBufIndex
 353 00bc 00000000 		.word	I2C_mstrRdBufSize
 354 00c0 00000000 		.word	I2C_mstrRdBufPtr
 355 00c4 00000000 		.word	I2C_mstrControl
 356 00c8 D8490040 		.word	1073760728
 357 00cc 00E100E0 		.word	-536813312
 358              		.cfi_endproc
 359              	.LFE1:
 360              		.size	I2C_MasterReadBuf, .-I2C_MasterReadBuf
 361              		.section	.text.I2C_MasterSendStart,"ax",%progbits
 362              		.align	2
 363              		.global	I2C_MasterSendStart
 364              		.thumb
 365              		.thumb_func
 366              		.type	I2C_MasterSendStart, %function
 367              	I2C_MasterSendStart:
 368              	.LFB2:
 267:Generated_Source\PSoC5/I2C_MASTER.c **** 
 268:Generated_Source\PSoC5/I2C_MASTER.c **** 
 269:Generated_Source\PSoC5/I2C_MASTER.c **** /*******************************************************************************
 270:Generated_Source\PSoC5/I2C_MASTER.c **** * Function Name: I2C_MasterSendStart
 271:Generated_Source\PSoC5/I2C_MASTER.c **** ********************************************************************************
 272:Generated_Source\PSoC5/I2C_MASTER.c **** *
 273:Generated_Source\PSoC5/I2C_MASTER.c **** * Summary:
 274:Generated_Source\PSoC5/I2C_MASTER.c **** *  Generates Start condition and sends slave address with read/write bit.
 275:Generated_Source\PSoC5/I2C_MASTER.c **** *
 276:Generated_Source\PSoC5/I2C_MASTER.c **** * Parameters:
 277:Generated_Source\PSoC5/I2C_MASTER.c **** *  slaveAddress:  7-bit slave address.
 278:Generated_Source\PSoC5/I2C_MASTER.c **** *  R_nW:          Zero, send write command, non-zero send read command.
 279:Generated_Source\PSoC5/I2C_MASTER.c **** *
 280:Generated_Source\PSoC5/I2C_MASTER.c **** * Return:
 281:Generated_Source\PSoC5/I2C_MASTER.c **** *  Status error - Zero means no errors.
 282:Generated_Source\PSoC5/I2C_MASTER.c **** *
 283:Generated_Source\PSoC5/I2C_MASTER.c **** * Side Effects:
 284:Generated_Source\PSoC5/I2C_MASTER.c **** *  This function is entered without a "byte complete" bit set in the I2C_CSR
 285:Generated_Source\PSoC5/I2C_MASTER.c **** *  register. It does not exit until it is set.
 286:Generated_Source\PSoC5/I2C_MASTER.c **** *
 287:Generated_Source\PSoC5/I2C_MASTER.c **** * Global variables:
 288:Generated_Source\PSoC5/I2C_MASTER.c **** *  I2C_state - The global variable used to store a current state of
 289:Generated_Source\PSoC5/I2C_MASTER.c **** *                           the software FSM.
 290:Generated_Source\PSoC5/I2C_MASTER.c **** *
 291:Generated_Source\PSoC5/I2C_MASTER.c **** * Reentrant:
 292:Generated_Source\PSoC5/I2C_MASTER.c **** *  No.
 293:Generated_Source\PSoC5/I2C_MASTER.c **** *
 294:Generated_Source\PSoC5/I2C_MASTER.c **** *******************************************************************************/
 295:Generated_Source\PSoC5/I2C_MASTER.c **** uint8 I2C_MasterSendStart(uint8 slaveAddress, uint8 R_nW)
 296:Generated_Source\PSoC5/I2C_MASTER.c ****       
 297:Generated_Source\PSoC5/I2C_MASTER.c **** {
 369              		.loc 1 297 0
 370              		.cfi_startproc
 371              		@ args = 0, pretend = 0, frame = 0
 372              		@ frame_needed = 0, uses_anonymous_args = 0
 373              		@ link register save eliminated.
 374              	.LVL34:
 298:Generated_Source\PSoC5/I2C_MASTER.c ****     uint8 errStatus;
 299:Generated_Source\PSoC5/I2C_MASTER.c **** 
 300:Generated_Source\PSoC5/I2C_MASTER.c ****     errStatus = I2C_MSTR_NOT_READY;
ARM GAS  C:\Users\Dell\AppData\Local\Temp\ccpYsGDa.s 			page 13


 301:Generated_Source\PSoC5/I2C_MASTER.c **** 
 302:Generated_Source\PSoC5/I2C_MASTER.c ****     /* If IDLE, check if bus is free */
 303:Generated_Source\PSoC5/I2C_MASTER.c ****     if(I2C_SM_IDLE == I2C_state)
 375              		.loc 1 303 0
 376 0000 1A4B     		ldr	r3, .L35
 377 0002 1B78     		ldrb	r3, [r3]	@ zero_extendqisi2
 378 0004 DBB2     		uxtb	r3, r3
 379 0006 102B     		cmp	r3, #16
 380 0008 29D1     		bne	.L32
 304:Generated_Source\PSoC5/I2C_MASTER.c ****     {
 305:Generated_Source\PSoC5/I2C_MASTER.c ****         /* If bus is free, generate Start condition */
 306:Generated_Source\PSoC5/I2C_MASTER.c ****         if(I2C_CHECK_BUS_FREE(I2C_MCSR_REG))
 381              		.loc 1 306 0
 382 000a 194B     		ldr	r3, .L35+4
 383 000c 1B78     		ldrb	r3, [r3]	@ zero_extendqisi2
 384 000e 13F0080F 		tst	r3, #8
 385 0012 26D1     		bne	.L33
 307:Generated_Source\PSoC5/I2C_MASTER.c ****         {
 308:Generated_Source\PSoC5/I2C_MASTER.c ****             /* Disable interrupt for manual master operation */
 309:Generated_Source\PSoC5/I2C_MASTER.c ****             I2C_DisableInt();
 386              		.loc 1 309 0
 387 0014 4FF40042 		mov	r2, #32768
 388 0018 164B     		ldr	r3, .L35+8
 389 001a 1A60     		str	r2, [r3]
 310:Generated_Source\PSoC5/I2C_MASTER.c **** 
 311:Generated_Source\PSoC5/I2C_MASTER.c ****             /* Set address and read/write flag */
 312:Generated_Source\PSoC5/I2C_MASTER.c ****             slaveAddress = (uint8) (slaveAddress << I2C_SLAVE_ADDR_SHIFT);
 390              		.loc 1 312 0
 391 001c 4000     		lsls	r0, r0, #1
 392              	.LVL35:
 393 001e C0B2     		uxtb	r0, r0
 394              	.LVL36:
 313:Generated_Source\PSoC5/I2C_MASTER.c ****             if(0u != R_nW)
 395              		.loc 1 313 0
 396 0020 29B1     		cbz	r1, .L29
 314:Generated_Source\PSoC5/I2C_MASTER.c ****             {
 315:Generated_Source\PSoC5/I2C_MASTER.c ****                 slaveAddress |= I2C_READ_FLAG;
 397              		.loc 1 315 0
 398 0022 40F00100 		orr	r0, r0, #1
 399              	.LVL37:
 316:Generated_Source\PSoC5/I2C_MASTER.c ****                 I2C_state = I2C_SM_MSTR_RD_ADDR;
 400              		.loc 1 316 0
 401 0026 4922     		movs	r2, #73
 402 0028 104B     		ldr	r3, .L35
 403 002a 1A70     		strb	r2, [r3]
 404 002c 02E0     		b	.L30
 405              	.L29:
 317:Generated_Source\PSoC5/I2C_MASTER.c ****             }
 318:Generated_Source\PSoC5/I2C_MASTER.c ****             else
 319:Generated_Source\PSoC5/I2C_MASTER.c ****             {
 320:Generated_Source\PSoC5/I2C_MASTER.c ****                 I2C_state = I2C_SM_MSTR_WR_ADDR;
 406              		.loc 1 320 0
 407 002e 4522     		movs	r2, #69
 408 0030 0E4B     		ldr	r3, .L35
 409 0032 1A70     		strb	r2, [r3]
 410              	.L30:
 321:Generated_Source\PSoC5/I2C_MASTER.c ****             }
ARM GAS  C:\Users\Dell\AppData\Local\Temp\ccpYsGDa.s 			page 14


 322:Generated_Source\PSoC5/I2C_MASTER.c **** 
 323:Generated_Source\PSoC5/I2C_MASTER.c ****             /* Hardware actions: write address and generate Start */
 324:Generated_Source\PSoC5/I2C_MASTER.c ****             I2C_DATA_REG = slaveAddress;
 411              		.loc 1 324 0
 412 0034 104B     		ldr	r3, .L35+12
 413 0036 1870     		strb	r0, [r3]
 325:Generated_Source\PSoC5/I2C_MASTER.c ****             I2C_GENERATE_START_MANUAL;
 414              		.loc 1 325 0
 415 0038 0122     		movs	r2, #1
 416 003a 0133     		adds	r3, r3, #1
 417 003c 1A70     		strb	r2, [r3]
 418              	.L31:
 326:Generated_Source\PSoC5/I2C_MASTER.c **** 
 327:Generated_Source\PSoC5/I2C_MASTER.c ****             /* Wait until address is transferred */
 328:Generated_Source\PSoC5/I2C_MASTER.c ****             while(I2C_WAIT_BYTE_COMPLETE(I2C_CSR_REG))
 419              		.loc 1 328 0 discriminator 1
 420 003e 0F4B     		ldr	r3, .L35+16
 421 0040 1B78     		ldrb	r3, [r3]	@ zero_extendqisi2
 422 0042 13F0010F 		tst	r3, #1
 423 0046 FAD0     		beq	.L31
 329:Generated_Source\PSoC5/I2C_MASTER.c ****             {
 330:Generated_Source\PSoC5/I2C_MASTER.c ****             }
 331:Generated_Source\PSoC5/I2C_MASTER.c **** 
 332:Generated_Source\PSoC5/I2C_MASTER.c ****         #if(I2C_MODE_MULTI_MASTER_SLAVE_ENABLED)
 333:Generated_Source\PSoC5/I2C_MASTER.c ****             if(I2C_CHECK_START_GEN(I2C_MCSR_REG))
 334:Generated_Source\PSoC5/I2C_MASTER.c ****             {
 335:Generated_Source\PSoC5/I2C_MASTER.c ****                 I2C_CLEAR_START_GEN;
 336:Generated_Source\PSoC5/I2C_MASTER.c **** 
 337:Generated_Source\PSoC5/I2C_MASTER.c ****                 /* Start condition was not generated: reset FSM to IDLE */
 338:Generated_Source\PSoC5/I2C_MASTER.c ****                 I2C_state = I2C_SM_IDLE;
 339:Generated_Source\PSoC5/I2C_MASTER.c ****                 errStatus = I2C_MSTR_ERR_ABORT_START_GEN;
 340:Generated_Source\PSoC5/I2C_MASTER.c ****             }
 341:Generated_Source\PSoC5/I2C_MASTER.c ****             else
 342:Generated_Source\PSoC5/I2C_MASTER.c ****         #endif /* (I2C_MODE_MULTI_MASTER_SLAVE_ENABLED) */
 343:Generated_Source\PSoC5/I2C_MASTER.c **** 
 344:Generated_Source\PSoC5/I2C_MASTER.c ****         #if(I2C_MODE_MULTI_MASTER_ENABLED)
 345:Generated_Source\PSoC5/I2C_MASTER.c ****             if(I2C_CHECK_LOST_ARB(I2C_CSR_REG))
 346:Generated_Source\PSoC5/I2C_MASTER.c ****             {
 347:Generated_Source\PSoC5/I2C_MASTER.c ****                 I2C_BUS_RELEASE_MANUAL;
 348:Generated_Source\PSoC5/I2C_MASTER.c **** 
 349:Generated_Source\PSoC5/I2C_MASTER.c ****                 /* Master lost arbitrage: reset FSM to IDLE */
 350:Generated_Source\PSoC5/I2C_MASTER.c ****                 I2C_state = I2C_SM_IDLE;
 351:Generated_Source\PSoC5/I2C_MASTER.c ****                 errStatus = I2C_MSTR_ERR_ARB_LOST;
 352:Generated_Source\PSoC5/I2C_MASTER.c ****             }
 353:Generated_Source\PSoC5/I2C_MASTER.c ****             else
 354:Generated_Source\PSoC5/I2C_MASTER.c ****         #endif /* (I2C_MODE_MULTI_MASTER_ENABLED) */
 355:Generated_Source\PSoC5/I2C_MASTER.c **** 
 356:Generated_Source\PSoC5/I2C_MASTER.c ****             if(I2C_CHECK_ADDR_NAK(I2C_CSR_REG))
 424              		.loc 1 356 0
 425 0048 0C4B     		ldr	r3, .L35+16
 426 004a 1B78     		ldrb	r3, [r3]	@ zero_extendqisi2
 427 004c 03F00A03 		and	r3, r3, #10
 428 0050 0A2B     		cmp	r3, #10
 429 0052 08D1     		bne	.L34
 357:Generated_Source\PSoC5/I2C_MASTER.c ****             {
 358:Generated_Source\PSoC5/I2C_MASTER.c ****                 /* Address has been NACKed: reset FSM to IDLE */
 359:Generated_Source\PSoC5/I2C_MASTER.c ****                 I2C_state = I2C_SM_IDLE;
ARM GAS  C:\Users\Dell\AppData\Local\Temp\ccpYsGDa.s 			page 15


 430              		.loc 1 359 0
 431 0054 1022     		movs	r2, #16
 432 0056 054B     		ldr	r3, .L35
 433 0058 1A70     		strb	r2, [r3]
 434              	.LVL38:
 360:Generated_Source\PSoC5/I2C_MASTER.c ****                 errStatus = I2C_MSTR_ERR_LB_NAK;
 435              		.loc 1 360 0
 436 005a 0320     		movs	r0, #3
 437              	.LVL39:
 438 005c 7047     		bx	lr
 439              	.LVL40:
 440              	.L32:
 300:Generated_Source\PSoC5/I2C_MASTER.c **** 
 441              		.loc 1 300 0
 442 005e 0220     		movs	r0, #2
 443              	.LVL41:
 444 0060 7047     		bx	lr
 445              	.LVL42:
 446              	.L33:
 361:Generated_Source\PSoC5/I2C_MASTER.c ****             }
 362:Generated_Source\PSoC5/I2C_MASTER.c ****             else
 363:Generated_Source\PSoC5/I2C_MASTER.c ****             {
 364:Generated_Source\PSoC5/I2C_MASTER.c ****                 /* Start was sent without errors */
 365:Generated_Source\PSoC5/I2C_MASTER.c ****                 errStatus = I2C_MSTR_NO_ERROR;
 366:Generated_Source\PSoC5/I2C_MASTER.c ****             }
 367:Generated_Source\PSoC5/I2C_MASTER.c ****         }
 368:Generated_Source\PSoC5/I2C_MASTER.c ****         else
 369:Generated_Source\PSoC5/I2C_MASTER.c ****         {
 370:Generated_Source\PSoC5/I2C_MASTER.c ****             errStatus = I2C_MSTR_BUS_BUSY;
 447              		.loc 1 370 0
 448 0062 0120     		movs	r0, #1
 449              	.LVL43:
 450 0064 7047     		bx	lr
 451              	.LVL44:
 452              	.L34:
 365:Generated_Source\PSoC5/I2C_MASTER.c ****             }
 453              		.loc 1 365 0
 454 0066 0020     		movs	r0, #0
 455              	.LVL45:
 371:Generated_Source\PSoC5/I2C_MASTER.c ****         }
 372:Generated_Source\PSoC5/I2C_MASTER.c ****     }
 373:Generated_Source\PSoC5/I2C_MASTER.c **** 
 374:Generated_Source\PSoC5/I2C_MASTER.c ****     return(errStatus);
 375:Generated_Source\PSoC5/I2C_MASTER.c **** }
 456              		.loc 1 375 0
 457 0068 7047     		bx	lr
 458              	.L36:
 459 006a 00BF     		.align	2
 460              	.L35:
 461 006c 00000000 		.word	I2C_state
 462 0070 D9490040 		.word	1073760729
 463 0074 80E100E0 		.word	-536813184
 464 0078 D8490040 		.word	1073760728
 465 007c D7490040 		.word	1073760727
 466              		.cfi_endproc
 467              	.LFE2:
 468              		.size	I2C_MasterSendStart, .-I2C_MasterSendStart
ARM GAS  C:\Users\Dell\AppData\Local\Temp\ccpYsGDa.s 			page 16


 469              		.section	.text.I2C_MasterSendRestart,"ax",%progbits
 470              		.align	2
 471              		.global	I2C_MasterSendRestart
 472              		.thumb
 473              		.thumb_func
 474              		.type	I2C_MasterSendRestart, %function
 475              	I2C_MasterSendRestart:
 476              	.LFB3:
 376:Generated_Source\PSoC5/I2C_MASTER.c **** 
 377:Generated_Source\PSoC5/I2C_MASTER.c **** 
 378:Generated_Source\PSoC5/I2C_MASTER.c **** /*******************************************************************************
 379:Generated_Source\PSoC5/I2C_MASTER.c **** * Function Name: I2C_MasterSendRestart
 380:Generated_Source\PSoC5/I2C_MASTER.c **** ********************************************************************************
 381:Generated_Source\PSoC5/I2C_MASTER.c **** *
 382:Generated_Source\PSoC5/I2C_MASTER.c **** * Summary:
 383:Generated_Source\PSoC5/I2C_MASTER.c **** *  Generates ReStart condition and sends slave address with read/write bit.
 384:Generated_Source\PSoC5/I2C_MASTER.c **** *
 385:Generated_Source\PSoC5/I2C_MASTER.c **** * Parameters:
 386:Generated_Source\PSoC5/I2C_MASTER.c **** *  slaveAddress:  7-bit slave address.
 387:Generated_Source\PSoC5/I2C_MASTER.c **** *  R_nW:          Zero, send write command, non-zero send read command.
 388:Generated_Source\PSoC5/I2C_MASTER.c **** *
 389:Generated_Source\PSoC5/I2C_MASTER.c **** * Return:
 390:Generated_Source\PSoC5/I2C_MASTER.c **** *  Status error - Zero means no errors.
 391:Generated_Source\PSoC5/I2C_MASTER.c **** *
 392:Generated_Source\PSoC5/I2C_MASTER.c **** * Side Effects:
 393:Generated_Source\PSoC5/I2C_MASTER.c **** *  This function is entered without a "byte complete" bit set in the I2C_CSR
 394:Generated_Source\PSoC5/I2C_MASTER.c **** *  register. It does not exit until it is set.
 395:Generated_Source\PSoC5/I2C_MASTER.c **** *
 396:Generated_Source\PSoC5/I2C_MASTER.c **** * Global variables:
 397:Generated_Source\PSoC5/I2C_MASTER.c **** *  I2C_state - The global variable used to store a current state of
 398:Generated_Source\PSoC5/I2C_MASTER.c **** *                           the software FSM.
 399:Generated_Source\PSoC5/I2C_MASTER.c **** *
 400:Generated_Source\PSoC5/I2C_MASTER.c **** * Reentrant:
 401:Generated_Source\PSoC5/I2C_MASTER.c **** *  No.
 402:Generated_Source\PSoC5/I2C_MASTER.c **** *
 403:Generated_Source\PSoC5/I2C_MASTER.c **** *******************************************************************************/
 404:Generated_Source\PSoC5/I2C_MASTER.c **** uint8 I2C_MasterSendRestart(uint8 slaveAddress, uint8 R_nW)
 405:Generated_Source\PSoC5/I2C_MASTER.c ****       
 406:Generated_Source\PSoC5/I2C_MASTER.c **** {
 477              		.loc 1 406 0
 478              		.cfi_startproc
 479              		@ args = 0, pretend = 0, frame = 0
 480              		@ frame_needed = 0, uses_anonymous_args = 0
 481              		@ link register save eliminated.
 482              	.LVL46:
 407:Generated_Source\PSoC5/I2C_MASTER.c ****     uint8 errStatus;
 408:Generated_Source\PSoC5/I2C_MASTER.c **** 
 409:Generated_Source\PSoC5/I2C_MASTER.c ****     errStatus = I2C_MSTR_NOT_READY;
 410:Generated_Source\PSoC5/I2C_MASTER.c **** 
 411:Generated_Source\PSoC5/I2C_MASTER.c ****     /* Check if START condition was generated */
 412:Generated_Source\PSoC5/I2C_MASTER.c ****     if(I2C_CHECK_MASTER_MODE(I2C_MCSR_REG))
 483              		.loc 1 412 0
 484 0000 164B     		ldr	r3, .L44
 485 0002 1B78     		ldrb	r3, [r3]	@ zero_extendqisi2
 486 0004 13F0040F 		tst	r3, #4
 487 0008 23D0     		beq	.L42
 413:Generated_Source\PSoC5/I2C_MASTER.c ****     {
ARM GAS  C:\Users\Dell\AppData\Local\Temp\ccpYsGDa.s 			page 17


 414:Generated_Source\PSoC5/I2C_MASTER.c ****         /* Set address and read/write flag */
 415:Generated_Source\PSoC5/I2C_MASTER.c ****         slaveAddress = (uint8) (slaveAddress << I2C_SLAVE_ADDR_SHIFT);
 488              		.loc 1 415 0
 489 000a 4000     		lsls	r0, r0, #1
 490              	.LVL47:
 491 000c C0B2     		uxtb	r0, r0
 492              	.LVL48:
 416:Generated_Source\PSoC5/I2C_MASTER.c ****         if(0u != R_nW)
 493              		.loc 1 416 0
 494 000e 29B1     		cbz	r1, .L39
 417:Generated_Source\PSoC5/I2C_MASTER.c ****         {
 418:Generated_Source\PSoC5/I2C_MASTER.c ****             slaveAddress |= I2C_READ_FLAG;
 495              		.loc 1 418 0
 496 0010 40F00100 		orr	r0, r0, #1
 497              	.LVL49:
 419:Generated_Source\PSoC5/I2C_MASTER.c ****             I2C_state = I2C_SM_MSTR_RD_ADDR;
 498              		.loc 1 419 0
 499 0014 4922     		movs	r2, #73
 500 0016 124B     		ldr	r3, .L44+4
 501 0018 1A70     		strb	r2, [r3]
 502 001a 02E0     		b	.L40
 503              	.L39:
 420:Generated_Source\PSoC5/I2C_MASTER.c ****         }
 421:Generated_Source\PSoC5/I2C_MASTER.c ****         else
 422:Generated_Source\PSoC5/I2C_MASTER.c ****         {
 423:Generated_Source\PSoC5/I2C_MASTER.c ****             I2C_state = I2C_SM_MSTR_WR_ADDR;
 504              		.loc 1 423 0
 505 001c 4522     		movs	r2, #69
 506 001e 104B     		ldr	r3, .L44+4
 507 0020 1A70     		strb	r2, [r3]
 508              	.L40:
 424:Generated_Source\PSoC5/I2C_MASTER.c ****         }
 425:Generated_Source\PSoC5/I2C_MASTER.c **** 
 426:Generated_Source\PSoC5/I2C_MASTER.c ****         /* Hardware actions: write address and generate ReStart */
 427:Generated_Source\PSoC5/I2C_MASTER.c ****         I2C_DATA_REG = slaveAddress;
 509              		.loc 1 427 0
 510 0022 104B     		ldr	r3, .L44+8
 511 0024 1870     		strb	r0, [r3]
 428:Generated_Source\PSoC5/I2C_MASTER.c ****         I2C_GENERATE_RESTART_MANUAL;
 512              		.loc 1 428 0
 513 0026 1222     		movs	r2, #18
 514 0028 0133     		adds	r3, r3, #1
 515 002a 1A70     		strb	r2, [r3]
 516 002c 0422     		movs	r2, #4
 517 002e 023B     		subs	r3, r3, #2
 518 0030 1A70     		strb	r2, [r3]
 519              	.L41:
 429:Generated_Source\PSoC5/I2C_MASTER.c **** 
 430:Generated_Source\PSoC5/I2C_MASTER.c ****         /* Wait until address has been transferred */
 431:Generated_Source\PSoC5/I2C_MASTER.c ****         while(I2C_WAIT_BYTE_COMPLETE(I2C_CSR_REG))
 520              		.loc 1 431 0 discriminator 1
 521 0032 0D4B     		ldr	r3, .L44+12
 522 0034 1B78     		ldrb	r3, [r3]	@ zero_extendqisi2
 523 0036 13F0010F 		tst	r3, #1
 524 003a FAD0     		beq	.L41
 432:Generated_Source\PSoC5/I2C_MASTER.c ****         {
 433:Generated_Source\PSoC5/I2C_MASTER.c ****         }
ARM GAS  C:\Users\Dell\AppData\Local\Temp\ccpYsGDa.s 			page 18


 434:Generated_Source\PSoC5/I2C_MASTER.c **** 
 435:Generated_Source\PSoC5/I2C_MASTER.c ****     #if(I2C_MODE_MULTI_MASTER_ENABLED)
 436:Generated_Source\PSoC5/I2C_MASTER.c ****         if(I2C_CHECK_LOST_ARB(I2C_CSR_REG))
 437:Generated_Source\PSoC5/I2C_MASTER.c ****         {
 438:Generated_Source\PSoC5/I2C_MASTER.c ****             I2C_BUS_RELEASE_MANUAL;
 439:Generated_Source\PSoC5/I2C_MASTER.c **** 
 440:Generated_Source\PSoC5/I2C_MASTER.c ****             /* Master lost arbitrage: reset FSM to IDLE */
 441:Generated_Source\PSoC5/I2C_MASTER.c ****             I2C_state = I2C_SM_IDLE;
 442:Generated_Source\PSoC5/I2C_MASTER.c ****             errStatus = I2C_MSTR_ERR_ARB_LOST;
 443:Generated_Source\PSoC5/I2C_MASTER.c ****         }
 444:Generated_Source\PSoC5/I2C_MASTER.c ****         else
 445:Generated_Source\PSoC5/I2C_MASTER.c ****     #endif /* (I2C_MODE_MULTI_MASTER_ENABLED) */
 446:Generated_Source\PSoC5/I2C_MASTER.c **** 
 447:Generated_Source\PSoC5/I2C_MASTER.c ****         if(I2C_CHECK_ADDR_NAK(I2C_CSR_REG))
 525              		.loc 1 447 0
 526 003c 0A4B     		ldr	r3, .L44+12
 527 003e 1B78     		ldrb	r3, [r3]	@ zero_extendqisi2
 528 0040 03F00A03 		and	r3, r3, #10
 529 0044 0A2B     		cmp	r3, #10
 530 0046 06D1     		bne	.L43
 448:Generated_Source\PSoC5/I2C_MASTER.c ****         {
 449:Generated_Source\PSoC5/I2C_MASTER.c ****             /* Address has been NACKed: reset FSM to IDLE */
 450:Generated_Source\PSoC5/I2C_MASTER.c ****             I2C_state = I2C_SM_IDLE;
 531              		.loc 1 450 0
 532 0048 1022     		movs	r2, #16
 533 004a 054B     		ldr	r3, .L44+4
 534 004c 1A70     		strb	r2, [r3]
 535              	.LVL50:
 451:Generated_Source\PSoC5/I2C_MASTER.c ****             errStatus = I2C_MSTR_ERR_LB_NAK;
 536              		.loc 1 451 0
 537 004e 0320     		movs	r0, #3
 538              	.LVL51:
 539 0050 7047     		bx	lr
 540              	.LVL52:
 541              	.L42:
 409:Generated_Source\PSoC5/I2C_MASTER.c **** 
 542              		.loc 1 409 0
 543 0052 0220     		movs	r0, #2
 544              	.LVL53:
 545 0054 7047     		bx	lr
 546              	.LVL54:
 547              	.L43:
 452:Generated_Source\PSoC5/I2C_MASTER.c ****         }
 453:Generated_Source\PSoC5/I2C_MASTER.c ****         else
 454:Generated_Source\PSoC5/I2C_MASTER.c ****         {
 455:Generated_Source\PSoC5/I2C_MASTER.c ****             /* ReStart was sent without errors */
 456:Generated_Source\PSoC5/I2C_MASTER.c ****             errStatus = I2C_MSTR_NO_ERROR;
 548              		.loc 1 456 0
 549 0056 0020     		movs	r0, #0
 550              	.LVL55:
 457:Generated_Source\PSoC5/I2C_MASTER.c ****         }
 458:Generated_Source\PSoC5/I2C_MASTER.c ****     }
 459:Generated_Source\PSoC5/I2C_MASTER.c **** 
 460:Generated_Source\PSoC5/I2C_MASTER.c ****     return(errStatus);
 461:Generated_Source\PSoC5/I2C_MASTER.c **** }
 551              		.loc 1 461 0
 552 0058 7047     		bx	lr
ARM GAS  C:\Users\Dell\AppData\Local\Temp\ccpYsGDa.s 			page 19


 553              	.L45:
 554 005a 00BF     		.align	2
 555              	.L44:
 556 005c D9490040 		.word	1073760729
 557 0060 00000000 		.word	I2C_state
 558 0064 D8490040 		.word	1073760728
 559 0068 D7490040 		.word	1073760727
 560              		.cfi_endproc
 561              	.LFE3:
 562              		.size	I2C_MasterSendRestart, .-I2C_MasterSendRestart
 563              		.section	.text.I2C_MasterSendStop,"ax",%progbits
 564              		.align	2
 565              		.global	I2C_MasterSendStop
 566              		.thumb
 567              		.thumb_func
 568              		.type	I2C_MasterSendStop, %function
 569              	I2C_MasterSendStop:
 570              	.LFB4:
 462:Generated_Source\PSoC5/I2C_MASTER.c **** 
 463:Generated_Source\PSoC5/I2C_MASTER.c **** 
 464:Generated_Source\PSoC5/I2C_MASTER.c **** /*******************************************************************************
 465:Generated_Source\PSoC5/I2C_MASTER.c **** * Function Name: I2C_MasterSendStop
 466:Generated_Source\PSoC5/I2C_MASTER.c **** ********************************************************************************
 467:Generated_Source\PSoC5/I2C_MASTER.c **** *
 468:Generated_Source\PSoC5/I2C_MASTER.c **** * Summary:
 469:Generated_Source\PSoC5/I2C_MASTER.c **** *  Generates I2C Stop condition on bus. Function do nothing if Start or Restart
 470:Generated_Source\PSoC5/I2C_MASTER.c **** *  condition was failed before call this function.
 471:Generated_Source\PSoC5/I2C_MASTER.c **** *
 472:Generated_Source\PSoC5/I2C_MASTER.c **** * Parameters:
 473:Generated_Source\PSoC5/I2C_MASTER.c **** *  None.
 474:Generated_Source\PSoC5/I2C_MASTER.c **** *
 475:Generated_Source\PSoC5/I2C_MASTER.c **** * Return:
 476:Generated_Source\PSoC5/I2C_MASTER.c **** *  Status error - Zero means no errors.
 477:Generated_Source\PSoC5/I2C_MASTER.c **** *
 478:Generated_Source\PSoC5/I2C_MASTER.c **** * Side Effects:
 479:Generated_Source\PSoC5/I2C_MASTER.c **** *  Stop generation is required to complete the transaction.
 480:Generated_Source\PSoC5/I2C_MASTER.c **** *  This function does not wait until a Stop condition is generated.
 481:Generated_Source\PSoC5/I2C_MASTER.c **** *
 482:Generated_Source\PSoC5/I2C_MASTER.c **** * Global variables:
 483:Generated_Source\PSoC5/I2C_MASTER.c **** *  I2C_state - The global variable used to store a current state of
 484:Generated_Source\PSoC5/I2C_MASTER.c **** *                           the software FSM.
 485:Generated_Source\PSoC5/I2C_MASTER.c **** *
 486:Generated_Source\PSoC5/I2C_MASTER.c **** * Reentrant:
 487:Generated_Source\PSoC5/I2C_MASTER.c **** *  No.
 488:Generated_Source\PSoC5/I2C_MASTER.c **** *
 489:Generated_Source\PSoC5/I2C_MASTER.c **** *******************************************************************************/
 490:Generated_Source\PSoC5/I2C_MASTER.c **** uint8 I2C_MasterSendStop(void) 
 491:Generated_Source\PSoC5/I2C_MASTER.c **** {
 571              		.loc 1 491 0
 572              		.cfi_startproc
 573              		@ args = 0, pretend = 0, frame = 0
 574              		@ frame_needed = 0, uses_anonymous_args = 0
 575              		@ link register save eliminated.
 576              	.LVL56:
 492:Generated_Source\PSoC5/I2C_MASTER.c ****     uint8 errStatus;
 493:Generated_Source\PSoC5/I2C_MASTER.c **** 
 494:Generated_Source\PSoC5/I2C_MASTER.c ****     errStatus = I2C_MSTR_NOT_READY;
ARM GAS  C:\Users\Dell\AppData\Local\Temp\ccpYsGDa.s 			page 20


 495:Generated_Source\PSoC5/I2C_MASTER.c **** 
 496:Generated_Source\PSoC5/I2C_MASTER.c ****     /* Check if master is active on bus */
 497:Generated_Source\PSoC5/I2C_MASTER.c ****     if(I2C_CHECK_MASTER_MODE(I2C_MCSR_REG))
 577              		.loc 1 497 0
 578 0000 0A4B     		ldr	r3, .L50
 579 0002 1B78     		ldrb	r3, [r3]	@ zero_extendqisi2
 580 0004 13F0040F 		tst	r3, #4
 581 0008 0ED0     		beq	.L49
 498:Generated_Source\PSoC5/I2C_MASTER.c ****     {
 499:Generated_Source\PSoC5/I2C_MASTER.c ****         I2C_GENERATE_STOP_MANUAL;
 582              		.loc 1 499 0
 583 000a 1023     		movs	r3, #16
 584 000c 074A     		ldr	r2, .L50
 585 000e 1370     		strb	r3, [r2]
 586 0010 0421     		movs	r1, #4
 587 0012 023A     		subs	r2, r2, #2
 588 0014 1170     		strb	r1, [r2]
 500:Generated_Source\PSoC5/I2C_MASTER.c ****         I2C_state = I2C_SM_IDLE;
 589              		.loc 1 500 0
 590 0016 064A     		ldr	r2, .L50+4
 591 0018 1370     		strb	r3, [r2]
 592              	.L48:
 501:Generated_Source\PSoC5/I2C_MASTER.c **** 
 502:Generated_Source\PSoC5/I2C_MASTER.c ****         /* Wait until stop has been generated */
 503:Generated_Source\PSoC5/I2C_MASTER.c ****         while(I2C_WAIT_STOP_COMPLETE(I2C_CSR_REG))
 593              		.loc 1 503 0 discriminator 1
 594 001a 064B     		ldr	r3, .L50+8
 595 001c 1B78     		ldrb	r3, [r3]	@ zero_extendqisi2
 596 001e 13F0210F 		tst	r3, #33
 597 0022 FAD0     		beq	.L48
 504:Generated_Source\PSoC5/I2C_MASTER.c ****         {
 505:Generated_Source\PSoC5/I2C_MASTER.c ****         }
 506:Generated_Source\PSoC5/I2C_MASTER.c **** 
 507:Generated_Source\PSoC5/I2C_MASTER.c ****         errStatus = I2C_MSTR_NO_ERROR;
 598              		.loc 1 507 0
 599 0024 0020     		movs	r0, #0
 600 0026 7047     		bx	lr
 601              	.L49:
 494:Generated_Source\PSoC5/I2C_MASTER.c **** 
 602              		.loc 1 494 0
 603 0028 0220     		movs	r0, #2
 604              	.LVL57:
 508:Generated_Source\PSoC5/I2C_MASTER.c **** 
 509:Generated_Source\PSoC5/I2C_MASTER.c ****     #if(I2C_MODE_MULTI_MASTER_ENABLED)
 510:Generated_Source\PSoC5/I2C_MASTER.c ****         if(I2C_CHECK_LOST_ARB(I2C_CSR_REG))
 511:Generated_Source\PSoC5/I2C_MASTER.c ****         {
 512:Generated_Source\PSoC5/I2C_MASTER.c ****             I2C_BUS_RELEASE_MANUAL;
 513:Generated_Source\PSoC5/I2C_MASTER.c **** 
 514:Generated_Source\PSoC5/I2C_MASTER.c ****             /* NACK was generated by instead Stop */
 515:Generated_Source\PSoC5/I2C_MASTER.c ****             errStatus = I2C_MSTR_ERR_ARB_LOST;
 516:Generated_Source\PSoC5/I2C_MASTER.c ****         }
 517:Generated_Source\PSoC5/I2C_MASTER.c ****     #endif /* (I2C_MODE_MULTI_MASTER_ENABLED) */
 518:Generated_Source\PSoC5/I2C_MASTER.c ****     }
 519:Generated_Source\PSoC5/I2C_MASTER.c **** 
 520:Generated_Source\PSoC5/I2C_MASTER.c ****     return(errStatus);
 521:Generated_Source\PSoC5/I2C_MASTER.c **** }
 605              		.loc 1 521 0
ARM GAS  C:\Users\Dell\AppData\Local\Temp\ccpYsGDa.s 			page 21


 606 002a 7047     		bx	lr
 607              	.L51:
 608              		.align	2
 609              	.L50:
 610 002c D9490040 		.word	1073760729
 611 0030 00000000 		.word	I2C_state
 612 0034 D7490040 		.word	1073760727
 613              		.cfi_endproc
 614              	.LFE4:
 615              		.size	I2C_MasterSendStop, .-I2C_MasterSendStop
 616              		.section	.text.I2C_MasterWriteByte,"ax",%progbits
 617              		.align	2
 618              		.global	I2C_MasterWriteByte
 619              		.thumb
 620              		.thumb_func
 621              		.type	I2C_MasterWriteByte, %function
 622              	I2C_MasterWriteByte:
 623              	.LFB5:
 522:Generated_Source\PSoC5/I2C_MASTER.c **** 
 523:Generated_Source\PSoC5/I2C_MASTER.c **** 
 524:Generated_Source\PSoC5/I2C_MASTER.c **** /*******************************************************************************
 525:Generated_Source\PSoC5/I2C_MASTER.c **** * Function Name: I2C_MasterWriteByte
 526:Generated_Source\PSoC5/I2C_MASTER.c **** ********************************************************************************
 527:Generated_Source\PSoC5/I2C_MASTER.c **** *
 528:Generated_Source\PSoC5/I2C_MASTER.c **** * Summary:
 529:Generated_Source\PSoC5/I2C_MASTER.c **** *  Sends one byte to a slave. A valid Start or ReStart condition must be
 530:Generated_Source\PSoC5/I2C_MASTER.c **** *  generated before this call this function. Function do nothing if Start or
 531:Generated_Source\PSoC5/I2C_MASTER.c **** *  Restart condition was failed before call this function.
 532:Generated_Source\PSoC5/I2C_MASTER.c **** *
 533:Generated_Source\PSoC5/I2C_MASTER.c **** * Parameters:
 534:Generated_Source\PSoC5/I2C_MASTER.c **** *  data:  The data byte to send to the slave.
 535:Generated_Source\PSoC5/I2C_MASTER.c **** *
 536:Generated_Source\PSoC5/I2C_MASTER.c **** * Return:
 537:Generated_Source\PSoC5/I2C_MASTER.c **** *  Status error - Zero means no errors.
 538:Generated_Source\PSoC5/I2C_MASTER.c **** *
 539:Generated_Source\PSoC5/I2C_MASTER.c **** * Side Effects:
 540:Generated_Source\PSoC5/I2C_MASTER.c **** *  This function is entered without a "byte complete" bit set in the I2C_CSR
 541:Generated_Source\PSoC5/I2C_MASTER.c **** *  register. It does not exit until it is set.
 542:Generated_Source\PSoC5/I2C_MASTER.c **** *
 543:Generated_Source\PSoC5/I2C_MASTER.c **** * Global variables:
 544:Generated_Source\PSoC5/I2C_MASTER.c **** *  I2C_state - The global variable used to store a current state of
 545:Generated_Source\PSoC5/I2C_MASTER.c **** *                           the software FSM.
 546:Generated_Source\PSoC5/I2C_MASTER.c **** *
 547:Generated_Source\PSoC5/I2C_MASTER.c **** *******************************************************************************/
 548:Generated_Source\PSoC5/I2C_MASTER.c **** uint8 I2C_MasterWriteByte(uint8 theByte) 
 549:Generated_Source\PSoC5/I2C_MASTER.c **** {
 624              		.loc 1 549 0
 625              		.cfi_startproc
 626              		@ args = 0, pretend = 0, frame = 0
 627              		@ frame_needed = 0, uses_anonymous_args = 0
 628              		@ link register save eliminated.
 629              	.LVL58:
 550:Generated_Source\PSoC5/I2C_MASTER.c ****     uint8 errStatus;
 551:Generated_Source\PSoC5/I2C_MASTER.c **** 
 552:Generated_Source\PSoC5/I2C_MASTER.c ****     errStatus = I2C_MSTR_NOT_READY;
 553:Generated_Source\PSoC5/I2C_MASTER.c **** 
 554:Generated_Source\PSoC5/I2C_MASTER.c ****     /* Check if START condition was generated */
ARM GAS  C:\Users\Dell\AppData\Local\Temp\ccpYsGDa.s 			page 22


 555:Generated_Source\PSoC5/I2C_MASTER.c ****     if(I2C_CHECK_MASTER_MODE(I2C_MCSR_REG))
 630              		.loc 1 555 0
 631 0000 114B     		ldr	r3, .L57
 632 0002 1B78     		ldrb	r3, [r3]	@ zero_extendqisi2
 633 0004 13F0040F 		tst	r3, #4
 634 0008 1BD0     		beq	.L56
 556:Generated_Source\PSoC5/I2C_MASTER.c ****     {
 557:Generated_Source\PSoC5/I2C_MASTER.c ****         I2C_DATA_REG = theByte;   /* Write DATA register */
 635              		.loc 1 557 0
 636 000a 104B     		ldr	r3, .L57+4
 637 000c 1870     		strb	r0, [r3]
 558:Generated_Source\PSoC5/I2C_MASTER.c ****         I2C_TRANSMIT_DATA_MANUAL; /* Set transmit mode   */
 638              		.loc 1 558 0
 639 000e 0422     		movs	r2, #4
 640 0010 013B     		subs	r3, r3, #1
 641 0012 1A70     		strb	r2, [r3]
 559:Generated_Source\PSoC5/I2C_MASTER.c ****         I2C_state = I2C_SM_MSTR_WR_DATA;
 642              		.loc 1 559 0
 643 0014 4622     		movs	r2, #70
 644 0016 0E4B     		ldr	r3, .L57+8
 645 0018 1A70     		strb	r2, [r3]
 646              	.L54:
 560:Generated_Source\PSoC5/I2C_MASTER.c **** 
 561:Generated_Source\PSoC5/I2C_MASTER.c ****         /* Wait until data byte has been transmitted */
 562:Generated_Source\PSoC5/I2C_MASTER.c ****         while(I2C_WAIT_BYTE_COMPLETE(I2C_CSR_REG))
 647              		.loc 1 562 0 discriminator 1
 648 001a 0E4B     		ldr	r3, .L57+12
 649 001c 1B78     		ldrb	r3, [r3]	@ zero_extendqisi2
 650 001e 13F0010F 		tst	r3, #1
 651 0022 FAD0     		beq	.L54
 563:Generated_Source\PSoC5/I2C_MASTER.c ****         {
 564:Generated_Source\PSoC5/I2C_MASTER.c ****         }
 565:Generated_Source\PSoC5/I2C_MASTER.c **** 
 566:Generated_Source\PSoC5/I2C_MASTER.c ****     #if(I2C_MODE_MULTI_MASTER_ENABLED)
 567:Generated_Source\PSoC5/I2C_MASTER.c ****         if(I2C_CHECK_LOST_ARB(I2C_CSR_REG))
 568:Generated_Source\PSoC5/I2C_MASTER.c ****         {
 569:Generated_Source\PSoC5/I2C_MASTER.c ****             I2C_BUS_RELEASE_MANUAL;
 570:Generated_Source\PSoC5/I2C_MASTER.c **** 
 571:Generated_Source\PSoC5/I2C_MASTER.c ****             /* Master lost arbitrage: reset FSM to IDLE */
 572:Generated_Source\PSoC5/I2C_MASTER.c ****             I2C_state = I2C_SM_IDLE;
 573:Generated_Source\PSoC5/I2C_MASTER.c ****             errStatus = I2C_MSTR_ERR_ARB_LOST;
 574:Generated_Source\PSoC5/I2C_MASTER.c ****         }
 575:Generated_Source\PSoC5/I2C_MASTER.c ****         /* Check LRB bit */
 576:Generated_Source\PSoC5/I2C_MASTER.c ****         else
 577:Generated_Source\PSoC5/I2C_MASTER.c ****     #endif /* (I2C_MODE_MULTI_MASTER_ENABLED) */
 578:Generated_Source\PSoC5/I2C_MASTER.c **** 
 579:Generated_Source\PSoC5/I2C_MASTER.c ****         if(I2C_CHECK_DATA_ACK(I2C_CSR_REG))
 652              		.loc 1 579 0
 653 0024 0B4B     		ldr	r3, .L57+12
 654 0026 1B78     		ldrb	r3, [r3]	@ zero_extendqisi2
 655 0028 13F0020F 		tst	r3, #2
 656 002c 04D1     		bne	.L55
 580:Generated_Source\PSoC5/I2C_MASTER.c ****         {
 581:Generated_Source\PSoC5/I2C_MASTER.c ****             I2C_state = I2C_SM_MSTR_HALT;
 657              		.loc 1 581 0
 658 002e 6022     		movs	r2, #96
 659 0030 074B     		ldr	r3, .L57+8
ARM GAS  C:\Users\Dell\AppData\Local\Temp\ccpYsGDa.s 			page 23


 660 0032 1A70     		strb	r2, [r3]
 661              	.LVL59:
 582:Generated_Source\PSoC5/I2C_MASTER.c ****             errStatus = I2C_MSTR_NO_ERROR;
 662              		.loc 1 582 0
 663 0034 0020     		movs	r0, #0
 664              	.LVL60:
 665 0036 7047     		bx	lr
 666              	.LVL61:
 667              	.L55:
 583:Generated_Source\PSoC5/I2C_MASTER.c ****         }
 584:Generated_Source\PSoC5/I2C_MASTER.c ****         else
 585:Generated_Source\PSoC5/I2C_MASTER.c ****         {
 586:Generated_Source\PSoC5/I2C_MASTER.c ****             I2C_state = I2C_SM_MSTR_HALT;
 668              		.loc 1 586 0
 669 0038 6022     		movs	r2, #96
 670 003a 054B     		ldr	r3, .L57+8
 671 003c 1A70     		strb	r2, [r3]
 672              	.LVL62:
 587:Generated_Source\PSoC5/I2C_MASTER.c ****             errStatus = I2C_MSTR_ERR_LB_NAK;
 673              		.loc 1 587 0
 674 003e 0320     		movs	r0, #3
 675              	.LVL63:
 676 0040 7047     		bx	lr
 677              	.LVL64:
 678              	.L56:
 552:Generated_Source\PSoC5/I2C_MASTER.c **** 
 679              		.loc 1 552 0
 680 0042 0220     		movs	r0, #2
 681              	.LVL65:
 588:Generated_Source\PSoC5/I2C_MASTER.c ****         }
 589:Generated_Source\PSoC5/I2C_MASTER.c ****     }
 590:Generated_Source\PSoC5/I2C_MASTER.c **** 
 591:Generated_Source\PSoC5/I2C_MASTER.c ****     return(errStatus);
 592:Generated_Source\PSoC5/I2C_MASTER.c **** }
 682              		.loc 1 592 0
 683 0044 7047     		bx	lr
 684              	.L58:
 685 0046 00BF     		.align	2
 686              	.L57:
 687 0048 D9490040 		.word	1073760729
 688 004c D8490040 		.word	1073760728
 689 0050 00000000 		.word	I2C_state
 690 0054 D7490040 		.word	1073760727
 691              		.cfi_endproc
 692              	.LFE5:
 693              		.size	I2C_MasterWriteByte, .-I2C_MasterWriteByte
 694              		.section	.text.I2C_MasterReadByte,"ax",%progbits
 695              		.align	2
 696              		.global	I2C_MasterReadByte
 697              		.thumb
 698              		.thumb_func
 699              		.type	I2C_MasterReadByte, %function
 700              	I2C_MasterReadByte:
 701              	.LFB6:
 593:Generated_Source\PSoC5/I2C_MASTER.c **** 
 594:Generated_Source\PSoC5/I2C_MASTER.c **** 
 595:Generated_Source\PSoC5/I2C_MASTER.c **** /*******************************************************************************
ARM GAS  C:\Users\Dell\AppData\Local\Temp\ccpYsGDa.s 			page 24


 596:Generated_Source\PSoC5/I2C_MASTER.c **** * Function Name: I2C_MasterReadByte
 597:Generated_Source\PSoC5/I2C_MASTER.c **** ********************************************************************************
 598:Generated_Source\PSoC5/I2C_MASTER.c **** *
 599:Generated_Source\PSoC5/I2C_MASTER.c **** * Summary:
 600:Generated_Source\PSoC5/I2C_MASTER.c **** *  Reads one byte from a slave and ACK or NACK the transfer. A valid Start or
 601:Generated_Source\PSoC5/I2C_MASTER.c **** *  ReStart condition must be generated before this call this function. Function
 602:Generated_Source\PSoC5/I2C_MASTER.c **** *  do nothing if Start or Restart condition was failed before call this
 603:Generated_Source\PSoC5/I2C_MASTER.c **** *  function.
 604:Generated_Source\PSoC5/I2C_MASTER.c **** *
 605:Generated_Source\PSoC5/I2C_MASTER.c **** * Parameters:
 606:Generated_Source\PSoC5/I2C_MASTER.c **** *  acknNack:  Zero, response with NACK, if non-zero response with ACK.
 607:Generated_Source\PSoC5/I2C_MASTER.c **** *
 608:Generated_Source\PSoC5/I2C_MASTER.c **** * Return:
 609:Generated_Source\PSoC5/I2C_MASTER.c **** *  Byte read from slave.
 610:Generated_Source\PSoC5/I2C_MASTER.c **** *
 611:Generated_Source\PSoC5/I2C_MASTER.c **** * Side Effects:
 612:Generated_Source\PSoC5/I2C_MASTER.c **** *  This function is entered without a "byte complete" bit set in the I2C_CSR
 613:Generated_Source\PSoC5/I2C_MASTER.c **** *  register. It does not exit until it is set.
 614:Generated_Source\PSoC5/I2C_MASTER.c **** *
 615:Generated_Source\PSoC5/I2C_MASTER.c **** * Global variables:
 616:Generated_Source\PSoC5/I2C_MASTER.c **** *  I2C_state - The global variable used to store a current
 617:Generated_Source\PSoC5/I2C_MASTER.c **** *                           state of the software FSM.
 618:Generated_Source\PSoC5/I2C_MASTER.c **** *
 619:Generated_Source\PSoC5/I2C_MASTER.c **** * Reentrant:
 620:Generated_Source\PSoC5/I2C_MASTER.c **** *  No.
 621:Generated_Source\PSoC5/I2C_MASTER.c **** *
 622:Generated_Source\PSoC5/I2C_MASTER.c **** *******************************************************************************/
 623:Generated_Source\PSoC5/I2C_MASTER.c **** uint8 I2C_MasterReadByte(uint8 acknNak) 
 624:Generated_Source\PSoC5/I2C_MASTER.c **** {
 702              		.loc 1 624 0
 703              		.cfi_startproc
 704              		@ args = 0, pretend = 0, frame = 0
 705              		@ frame_needed = 0, uses_anonymous_args = 0
 706              		@ link register save eliminated.
 707              	.LVL66:
 625:Generated_Source\PSoC5/I2C_MASTER.c ****     uint8 theByte;
 626:Generated_Source\PSoC5/I2C_MASTER.c **** 
 627:Generated_Source\PSoC5/I2C_MASTER.c ****     theByte = 0u;
 628:Generated_Source\PSoC5/I2C_MASTER.c **** 
 629:Generated_Source\PSoC5/I2C_MASTER.c ****     /* Check if START condition was generated */
 630:Generated_Source\PSoC5/I2C_MASTER.c ****     if(I2C_CHECK_MASTER_MODE(I2C_MCSR_REG))
 708              		.loc 1 630 0
 709 0000 114B     		ldr	r3, .L65
 710 0002 1B78     		ldrb	r3, [r3]	@ zero_extendqisi2
 711 0004 13F0040F 		tst	r3, #4
 712 0008 1BD0     		beq	.L64
 631:Generated_Source\PSoC5/I2C_MASTER.c ****     {
 632:Generated_Source\PSoC5/I2C_MASTER.c ****         /* When address phase needs to release bus and receive byte,
 633:Generated_Source\PSoC5/I2C_MASTER.c ****         * then decide ACK or NACK
 634:Generated_Source\PSoC5/I2C_MASTER.c ****         */
 635:Generated_Source\PSoC5/I2C_MASTER.c ****         if(I2C_SM_MSTR_RD_ADDR == I2C_state)
 713              		.loc 1 635 0
 714 000a 104B     		ldr	r3, .L65+4
 715 000c 1B78     		ldrb	r3, [r3]	@ zero_extendqisi2
 716 000e DBB2     		uxtb	r3, r3
 717 0010 492B     		cmp	r3, #73
 718 0012 05D1     		bne	.L62
ARM GAS  C:\Users\Dell\AppData\Local\Temp\ccpYsGDa.s 			page 25


 636:Generated_Source\PSoC5/I2C_MASTER.c ****         {
 637:Generated_Source\PSoC5/I2C_MASTER.c ****             I2C_READY_TO_READ_MANUAL;
 719              		.loc 1 637 0
 720 0014 0022     		movs	r2, #0
 721 0016 0E4B     		ldr	r3, .L65+8
 722 0018 1A70     		strb	r2, [r3]
 638:Generated_Source\PSoC5/I2C_MASTER.c ****             I2C_state = I2C_SM_MSTR_RD_DATA;
 723              		.loc 1 638 0
 724 001a 4A22     		movs	r2, #74
 725 001c 0B4B     		ldr	r3, .L65+4
 726 001e 1A70     		strb	r2, [r3]
 727              	.L62:
 639:Generated_Source\PSoC5/I2C_MASTER.c ****         }
 640:Generated_Source\PSoC5/I2C_MASTER.c **** 
 641:Generated_Source\PSoC5/I2C_MASTER.c ****         /* Wait until data byte has been received */
 642:Generated_Source\PSoC5/I2C_MASTER.c ****         while(I2C_WAIT_BYTE_COMPLETE(I2C_CSR_REG))
 728              		.loc 1 642 0 discriminator 1
 729 0020 0B4B     		ldr	r3, .L65+8
 730 0022 1B78     		ldrb	r3, [r3]	@ zero_extendqisi2
 731 0024 13F0010F 		tst	r3, #1
 732 0028 FAD0     		beq	.L62
 643:Generated_Source\PSoC5/I2C_MASTER.c ****         {
 644:Generated_Source\PSoC5/I2C_MASTER.c ****         }
 645:Generated_Source\PSoC5/I2C_MASTER.c **** 
 646:Generated_Source\PSoC5/I2C_MASTER.c ****         theByte = I2C_DATA_REG;
 733              		.loc 1 646 0
 734 002a 0A4B     		ldr	r3, .L65+12
 735 002c 1B78     		ldrb	r3, [r3]	@ zero_extendqisi2
 736 002e DBB2     		uxtb	r3, r3
 737              	.LVL67:
 647:Generated_Source\PSoC5/I2C_MASTER.c **** 
 648:Generated_Source\PSoC5/I2C_MASTER.c ****         /* Command ACK to receive next byte and continue transfer.
 649:Generated_Source\PSoC5/I2C_MASTER.c ****         *  Do nothing for NACK. The NACK will be generated by
 650:Generated_Source\PSoC5/I2C_MASTER.c ****         *  Stop or ReStart routine.
 651:Generated_Source\PSoC5/I2C_MASTER.c ****         */
 652:Generated_Source\PSoC5/I2C_MASTER.c ****         if(acknNak != 0u) /* Generate ACK */
 738              		.loc 1 652 0
 739 0030 18B1     		cbz	r0, .L63
 653:Generated_Source\PSoC5/I2C_MASTER.c ****         {
 654:Generated_Source\PSoC5/I2C_MASTER.c ****             I2C_ACK_AND_RECEIVE_MANUAL;
 740              		.loc 1 654 0
 741 0032 1021     		movs	r1, #16
 742 0034 064A     		ldr	r2, .L65+8
 743 0036 1170     		strb	r1, [r2]
 744 0038 04E0     		b	.L60
 745              	.L63:
 655:Generated_Source\PSoC5/I2C_MASTER.c ****         }
 656:Generated_Source\PSoC5/I2C_MASTER.c ****         else              /* Do nothing for the follwong NACK */
 657:Generated_Source\PSoC5/I2C_MASTER.c ****         {
 658:Generated_Source\PSoC5/I2C_MASTER.c ****             I2C_state = I2C_SM_MSTR_HALT;
 746              		.loc 1 658 0
 747 003a 6021     		movs	r1, #96
 748 003c 034A     		ldr	r2, .L65+4
 749 003e 1170     		strb	r1, [r2]
 750 0040 00E0     		b	.L60
 751              	.LVL68:
 752              	.L64:
ARM GAS  C:\Users\Dell\AppData\Local\Temp\ccpYsGDa.s 			page 26


 627:Generated_Source\PSoC5/I2C_MASTER.c **** 
 753              		.loc 1 627 0
 754 0042 0023     		movs	r3, #0
 755              	.LVL69:
 756              	.L60:
 659:Generated_Source\PSoC5/I2C_MASTER.c ****         }
 660:Generated_Source\PSoC5/I2C_MASTER.c ****     }
 661:Generated_Source\PSoC5/I2C_MASTER.c **** 
 662:Generated_Source\PSoC5/I2C_MASTER.c ****     return(theByte);
 663:Generated_Source\PSoC5/I2C_MASTER.c **** }
 757              		.loc 1 663 0
 758 0044 1846     		mov	r0, r3
 759              	.LVL70:
 760 0046 7047     		bx	lr
 761              	.L66:
 762              		.align	2
 763              	.L65:
 764 0048 D9490040 		.word	1073760729
 765 004c 00000000 		.word	I2C_state
 766 0050 D7490040 		.word	1073760727
 767 0054 D8490040 		.word	1073760728
 768              		.cfi_endproc
 769              	.LFE6:
 770              		.size	I2C_MasterReadByte, .-I2C_MasterReadByte
 771              		.section	.text.I2C_MasterStatus,"ax",%progbits
 772              		.align	2
 773              		.global	I2C_MasterStatus
 774              		.thumb
 775              		.thumb_func
 776              		.type	I2C_MasterStatus, %function
 777              	I2C_MasterStatus:
 778              	.LFB7:
 664:Generated_Source\PSoC5/I2C_MASTER.c **** 
 665:Generated_Source\PSoC5/I2C_MASTER.c **** 
 666:Generated_Source\PSoC5/I2C_MASTER.c **** /*******************************************************************************
 667:Generated_Source\PSoC5/I2C_MASTER.c **** * Function Name: I2C_MasterStatus
 668:Generated_Source\PSoC5/I2C_MASTER.c **** ********************************************************************************
 669:Generated_Source\PSoC5/I2C_MASTER.c **** *
 670:Generated_Source\PSoC5/I2C_MASTER.c **** * Summary:
 671:Generated_Source\PSoC5/I2C_MASTER.c **** *  Returns the master's communication status.
 672:Generated_Source\PSoC5/I2C_MASTER.c **** *
 673:Generated_Source\PSoC5/I2C_MASTER.c **** * Parameters:
 674:Generated_Source\PSoC5/I2C_MASTER.c **** *  None.
 675:Generated_Source\PSoC5/I2C_MASTER.c **** *
 676:Generated_Source\PSoC5/I2C_MASTER.c **** * Return:
 677:Generated_Source\PSoC5/I2C_MASTER.c **** *  Current status of I2C master.
 678:Generated_Source\PSoC5/I2C_MASTER.c **** *
 679:Generated_Source\PSoC5/I2C_MASTER.c **** * Global variables:
 680:Generated_Source\PSoC5/I2C_MASTER.c **** *  I2C_mstrStatus - The global variable used to store a current
 681:Generated_Source\PSoC5/I2C_MASTER.c **** *                                status of the I2C Master.
 682:Generated_Source\PSoC5/I2C_MASTER.c **** *
 683:Generated_Source\PSoC5/I2C_MASTER.c **** *******************************************************************************/
 684:Generated_Source\PSoC5/I2C_MASTER.c **** uint8 I2C_MasterStatus(void) 
 685:Generated_Source\PSoC5/I2C_MASTER.c **** {
 779              		.loc 1 685 0
 780              		.cfi_startproc
 781              		@ args = 0, pretend = 0, frame = 0
ARM GAS  C:\Users\Dell\AppData\Local\Temp\ccpYsGDa.s 			page 27


 782              		@ frame_needed = 0, uses_anonymous_args = 0
 783              		@ link register save eliminated.
 686:Generated_Source\PSoC5/I2C_MASTER.c ****     uint8 status;
 687:Generated_Source\PSoC5/I2C_MASTER.c **** 
 688:Generated_Source\PSoC5/I2C_MASTER.c ****     I2C_DisableInt(); /* Lock from interrupt */
 784              		.loc 1 688 0
 785 0000 4FF40042 		mov	r2, #32768
 786 0004 084B     		ldr	r3, .L69
 787 0006 1A60     		str	r2, [r3]
 689:Generated_Source\PSoC5/I2C_MASTER.c **** 
 690:Generated_Source\PSoC5/I2C_MASTER.c ****     /* Read master status */
 691:Generated_Source\PSoC5/I2C_MASTER.c ****     status = I2C_mstrStatus;
 788              		.loc 1 691 0
 789 0008 084B     		ldr	r3, .L69+4
 790 000a 1878     		ldrb	r0, [r3]	@ zero_extendqisi2
 791 000c C0B2     		uxtb	r0, r0
 792              	.LVL71:
 692:Generated_Source\PSoC5/I2C_MASTER.c **** 
 693:Generated_Source\PSoC5/I2C_MASTER.c ****     if (I2C_CHECK_SM_MASTER)
 793              		.loc 1 693 0
 794 000e 084B     		ldr	r3, .L69+8
 795 0010 1B78     		ldrb	r3, [r3]	@ zero_extendqisi2
 796 0012 13F0400F 		tst	r3, #64
 797 0016 01D0     		beq	.L68
 694:Generated_Source\PSoC5/I2C_MASTER.c ****     {
 695:Generated_Source\PSoC5/I2C_MASTER.c ****         /* Set transfer in progress flag in status */
 696:Generated_Source\PSoC5/I2C_MASTER.c ****         status |= I2C_MSTAT_XFER_INP;
 798              		.loc 1 696 0
 799 0018 40F00400 		orr	r0, r0, #4
 800              	.LVL72:
 801              	.L68:
 697:Generated_Source\PSoC5/I2C_MASTER.c ****     }
 698:Generated_Source\PSoC5/I2C_MASTER.c **** 
 699:Generated_Source\PSoC5/I2C_MASTER.c ****     I2C_EnableInt(); /* Release lock */
 802              		.loc 1 699 0
 803 001c 4FF40042 		mov	r2, #32768
 804 0020 044B     		ldr	r3, .L69+12
 805 0022 1A60     		str	r2, [r3]
 700:Generated_Source\PSoC5/I2C_MASTER.c **** 
 701:Generated_Source\PSoC5/I2C_MASTER.c ****     return (status);
 702:Generated_Source\PSoC5/I2C_MASTER.c **** }
 806              		.loc 1 702 0
 807 0024 7047     		bx	lr
 808              	.L70:
 809 0026 00BF     		.align	2
 810              	.L69:
 811 0028 80E100E0 		.word	-536813184
 812 002c 00000000 		.word	I2C_mstrStatus
 813 0030 00000000 		.word	I2C_state
 814 0034 00E100E0 		.word	-536813312
 815              		.cfi_endproc
 816              	.LFE7:
 817              		.size	I2C_MasterStatus, .-I2C_MasterStatus
 818              		.section	.text.I2C_MasterClearStatus,"ax",%progbits
 819              		.align	2
 820              		.global	I2C_MasterClearStatus
 821              		.thumb
ARM GAS  C:\Users\Dell\AppData\Local\Temp\ccpYsGDa.s 			page 28


 822              		.thumb_func
 823              		.type	I2C_MasterClearStatus, %function
 824              	I2C_MasterClearStatus:
 825              	.LFB8:
 703:Generated_Source\PSoC5/I2C_MASTER.c **** 
 704:Generated_Source\PSoC5/I2C_MASTER.c **** 
 705:Generated_Source\PSoC5/I2C_MASTER.c **** /*******************************************************************************
 706:Generated_Source\PSoC5/I2C_MASTER.c **** * Function Name: I2C_MasterClearStatus
 707:Generated_Source\PSoC5/I2C_MASTER.c **** ********************************************************************************
 708:Generated_Source\PSoC5/I2C_MASTER.c **** *
 709:Generated_Source\PSoC5/I2C_MASTER.c **** * Summary:
 710:Generated_Source\PSoC5/I2C_MASTER.c **** *  Clears all status flags and returns the master status.
 711:Generated_Source\PSoC5/I2C_MASTER.c **** *
 712:Generated_Source\PSoC5/I2C_MASTER.c **** * Parameters:
 713:Generated_Source\PSoC5/I2C_MASTER.c **** *  None.
 714:Generated_Source\PSoC5/I2C_MASTER.c **** *
 715:Generated_Source\PSoC5/I2C_MASTER.c **** * Return:
 716:Generated_Source\PSoC5/I2C_MASTER.c **** *  Current status of I2C master.
 717:Generated_Source\PSoC5/I2C_MASTER.c **** *
 718:Generated_Source\PSoC5/I2C_MASTER.c **** * Global variables:
 719:Generated_Source\PSoC5/I2C_MASTER.c **** *  I2C_mstrStatus - The global variable used to store a current
 720:Generated_Source\PSoC5/I2C_MASTER.c **** *                                status of the I2C Master.
 721:Generated_Source\PSoC5/I2C_MASTER.c **** *
 722:Generated_Source\PSoC5/I2C_MASTER.c **** * Reentrant:
 723:Generated_Source\PSoC5/I2C_MASTER.c **** *  No.
 724:Generated_Source\PSoC5/I2C_MASTER.c **** *
 725:Generated_Source\PSoC5/I2C_MASTER.c **** *******************************************************************************/
 726:Generated_Source\PSoC5/I2C_MASTER.c **** uint8 I2C_MasterClearStatus(void) 
 727:Generated_Source\PSoC5/I2C_MASTER.c **** {
 826              		.loc 1 727 0
 827              		.cfi_startproc
 828              		@ args = 0, pretend = 0, frame = 0
 829              		@ frame_needed = 0, uses_anonymous_args = 0
 830              		@ link register save eliminated.
 728:Generated_Source\PSoC5/I2C_MASTER.c ****     uint8 status;
 729:Generated_Source\PSoC5/I2C_MASTER.c **** 
 730:Generated_Source\PSoC5/I2C_MASTER.c ****     I2C_DisableInt(); /* Lock from interrupt */
 831              		.loc 1 730 0
 832 0000 4FF40043 		mov	r3, #32768
 833 0004 044A     		ldr	r2, .L72
 834 0006 1360     		str	r3, [r2]
 731:Generated_Source\PSoC5/I2C_MASTER.c **** 
 732:Generated_Source\PSoC5/I2C_MASTER.c ****     /* Read and clear master status */
 733:Generated_Source\PSoC5/I2C_MASTER.c ****     status = I2C_mstrStatus;
 835              		.loc 1 733 0
 836 0008 044A     		ldr	r2, .L72+4
 837 000a 1078     		ldrb	r0, [r2]	@ zero_extendqisi2
 838              	.LVL73:
 734:Generated_Source\PSoC5/I2C_MASTER.c ****     I2C_mstrStatus = I2C_MSTAT_CLEAR;
 839              		.loc 1 734 0
 840 000c 0021     		movs	r1, #0
 841 000e 1170     		strb	r1, [r2]
 735:Generated_Source\PSoC5/I2C_MASTER.c **** 
 736:Generated_Source\PSoC5/I2C_MASTER.c ****     I2C_EnableInt(); /* Release lock */
 842              		.loc 1 736 0
 843 0010 034A     		ldr	r2, .L72+8
 844 0012 1360     		str	r3, [r2]
ARM GAS  C:\Users\Dell\AppData\Local\Temp\ccpYsGDa.s 			page 29


 737:Generated_Source\PSoC5/I2C_MASTER.c **** 
 738:Generated_Source\PSoC5/I2C_MASTER.c ****     return (status);
 739:Generated_Source\PSoC5/I2C_MASTER.c **** }
 845              		.loc 1 739 0
 846 0014 7047     		bx	lr
 847              	.L73:
 848 0016 00BF     		.align	2
 849              	.L72:
 850 0018 80E100E0 		.word	-536813184
 851 001c 00000000 		.word	I2C_mstrStatus
 852 0020 00E100E0 		.word	-536813312
 853              		.cfi_endproc
 854              	.LFE8:
 855              		.size	I2C_MasterClearStatus, .-I2C_MasterClearStatus
 856              		.section	.text.I2C_MasterGetReadBufSize,"ax",%progbits
 857              		.align	2
 858              		.global	I2C_MasterGetReadBufSize
 859              		.thumb
 860              		.thumb_func
 861              		.type	I2C_MasterGetReadBufSize, %function
 862              	I2C_MasterGetReadBufSize:
 863              	.LFB9:
 740:Generated_Source\PSoC5/I2C_MASTER.c **** 
 741:Generated_Source\PSoC5/I2C_MASTER.c **** 
 742:Generated_Source\PSoC5/I2C_MASTER.c **** /*******************************************************************************
 743:Generated_Source\PSoC5/I2C_MASTER.c **** * Function Name: I2C_MasterGetReadBufSize
 744:Generated_Source\PSoC5/I2C_MASTER.c **** ********************************************************************************
 745:Generated_Source\PSoC5/I2C_MASTER.c **** *
 746:Generated_Source\PSoC5/I2C_MASTER.c **** * Summary:
 747:Generated_Source\PSoC5/I2C_MASTER.c **** *  Returns the amount of bytes that has been transferred with an
 748:Generated_Source\PSoC5/I2C_MASTER.c **** *  I2C_MasterReadBuf command.
 749:Generated_Source\PSoC5/I2C_MASTER.c **** *
 750:Generated_Source\PSoC5/I2C_MASTER.c **** * Parameters:
 751:Generated_Source\PSoC5/I2C_MASTER.c **** *  None.
 752:Generated_Source\PSoC5/I2C_MASTER.c **** *
 753:Generated_Source\PSoC5/I2C_MASTER.c **** * Return:
 754:Generated_Source\PSoC5/I2C_MASTER.c **** *  Byte count of transfer. If the transfer is not yet complete, it will return
 755:Generated_Source\PSoC5/I2C_MASTER.c **** *  the byte count transferred so far.
 756:Generated_Source\PSoC5/I2C_MASTER.c **** *
 757:Generated_Source\PSoC5/I2C_MASTER.c **** * Global variables:
 758:Generated_Source\PSoC5/I2C_MASTER.c **** *  I2C_mstrRdBufIndex - The global variable stores current index
 759:Generated_Source\PSoC5/I2C_MASTER.c **** *                                    within the master read buffer.
 760:Generated_Source\PSoC5/I2C_MASTER.c **** *
 761:Generated_Source\PSoC5/I2C_MASTER.c **** *******************************************************************************/
 762:Generated_Source\PSoC5/I2C_MASTER.c **** uint8 I2C_MasterGetReadBufSize(void) 
 763:Generated_Source\PSoC5/I2C_MASTER.c **** {
 864              		.loc 1 763 0
 865              		.cfi_startproc
 866              		@ args = 0, pretend = 0, frame = 0
 867              		@ frame_needed = 0, uses_anonymous_args = 0
 868              		@ link register save eliminated.
 764:Generated_Source\PSoC5/I2C_MASTER.c ****     return (I2C_mstrRdBufIndex);
 869              		.loc 1 764 0
 870 0000 014B     		ldr	r3, .L75
 871 0002 1878     		ldrb	r0, [r3]	@ zero_extendqisi2
 765:Generated_Source\PSoC5/I2C_MASTER.c **** }
 872              		.loc 1 765 0
ARM GAS  C:\Users\Dell\AppData\Local\Temp\ccpYsGDa.s 			page 30


 873 0004 7047     		bx	lr
 874              	.L76:
 875 0006 00BF     		.align	2
 876              	.L75:
 877 0008 00000000 		.word	I2C_mstrRdBufIndex
 878              		.cfi_endproc
 879              	.LFE9:
 880              		.size	I2C_MasterGetReadBufSize, .-I2C_MasterGetReadBufSize
 881              		.section	.text.I2C_MasterGetWriteBufSize,"ax",%progbits
 882              		.align	2
 883              		.global	I2C_MasterGetWriteBufSize
 884              		.thumb
 885              		.thumb_func
 886              		.type	I2C_MasterGetWriteBufSize, %function
 887              	I2C_MasterGetWriteBufSize:
 888              	.LFB10:
 766:Generated_Source\PSoC5/I2C_MASTER.c **** 
 767:Generated_Source\PSoC5/I2C_MASTER.c **** 
 768:Generated_Source\PSoC5/I2C_MASTER.c **** /*******************************************************************************
 769:Generated_Source\PSoC5/I2C_MASTER.c **** * Function Name: I2C_MasterGetWriteBufSize
 770:Generated_Source\PSoC5/I2C_MASTER.c **** ********************************************************************************
 771:Generated_Source\PSoC5/I2C_MASTER.c **** *
 772:Generated_Source\PSoC5/I2C_MASTER.c **** * Summary:
 773:Generated_Source\PSoC5/I2C_MASTER.c **** *  Returns the amount of bytes that has been transferred with an
 774:Generated_Source\PSoC5/I2C_MASTER.c **** *  I2C_MasterWriteBuf command.
 775:Generated_Source\PSoC5/I2C_MASTER.c **** *
 776:Generated_Source\PSoC5/I2C_MASTER.c **** * Parameters:
 777:Generated_Source\PSoC5/I2C_MASTER.c **** *  None.
 778:Generated_Source\PSoC5/I2C_MASTER.c **** *
 779:Generated_Source\PSoC5/I2C_MASTER.c **** * Return:
 780:Generated_Source\PSoC5/I2C_MASTER.c **** *  Byte count of transfer. If the transfer is not yet complete, it will return
 781:Generated_Source\PSoC5/I2C_MASTER.c **** *  the byte count transferred so far.
 782:Generated_Source\PSoC5/I2C_MASTER.c **** *
 783:Generated_Source\PSoC5/I2C_MASTER.c **** * Global variables:
 784:Generated_Source\PSoC5/I2C_MASTER.c **** *  I2C_mstrWrBufIndex -  The global variable used to stores current
 785:Generated_Source\PSoC5/I2C_MASTER.c **** *                                     index within master write buffer.
 786:Generated_Source\PSoC5/I2C_MASTER.c **** *
 787:Generated_Source\PSoC5/I2C_MASTER.c **** *******************************************************************************/
 788:Generated_Source\PSoC5/I2C_MASTER.c **** uint8 I2C_MasterGetWriteBufSize(void) 
 789:Generated_Source\PSoC5/I2C_MASTER.c **** {
 889              		.loc 1 789 0
 890              		.cfi_startproc
 891              		@ args = 0, pretend = 0, frame = 0
 892              		@ frame_needed = 0, uses_anonymous_args = 0
 893              		@ link register save eliminated.
 790:Generated_Source\PSoC5/I2C_MASTER.c ****     return (I2C_mstrWrBufIndex);
 894              		.loc 1 790 0
 895 0000 014B     		ldr	r3, .L78
 896 0002 1878     		ldrb	r0, [r3]	@ zero_extendqisi2
 791:Generated_Source\PSoC5/I2C_MASTER.c **** }
 897              		.loc 1 791 0
 898 0004 7047     		bx	lr
 899              	.L79:
 900 0006 00BF     		.align	2
 901              	.L78:
 902 0008 00000000 		.word	I2C_mstrWrBufIndex
 903              		.cfi_endproc
ARM GAS  C:\Users\Dell\AppData\Local\Temp\ccpYsGDa.s 			page 31


 904              	.LFE10:
 905              		.size	I2C_MasterGetWriteBufSize, .-I2C_MasterGetWriteBufSize
 906              		.section	.text.I2C_MasterClearReadBuf,"ax",%progbits
 907              		.align	2
 908              		.global	I2C_MasterClearReadBuf
 909              		.thumb
 910              		.thumb_func
 911              		.type	I2C_MasterClearReadBuf, %function
 912              	I2C_MasterClearReadBuf:
 913              	.LFB11:
 792:Generated_Source\PSoC5/I2C_MASTER.c **** 
 793:Generated_Source\PSoC5/I2C_MASTER.c **** 
 794:Generated_Source\PSoC5/I2C_MASTER.c **** /*******************************************************************************
 795:Generated_Source\PSoC5/I2C_MASTER.c **** * Function Name: I2C_MasterClearReadBuf
 796:Generated_Source\PSoC5/I2C_MASTER.c **** ********************************************************************************
 797:Generated_Source\PSoC5/I2C_MASTER.c **** *
 798:Generated_Source\PSoC5/I2C_MASTER.c **** * Summary:
 799:Generated_Source\PSoC5/I2C_MASTER.c **** *  Resets the read buffer pointer back to the first byte in the buffer.
 800:Generated_Source\PSoC5/I2C_MASTER.c **** *
 801:Generated_Source\PSoC5/I2C_MASTER.c **** * Parameters:
 802:Generated_Source\PSoC5/I2C_MASTER.c **** *  None.
 803:Generated_Source\PSoC5/I2C_MASTER.c **** *
 804:Generated_Source\PSoC5/I2C_MASTER.c **** * Return:
 805:Generated_Source\PSoC5/I2C_MASTER.c **** *  None.
 806:Generated_Source\PSoC5/I2C_MASTER.c **** *
 807:Generated_Source\PSoC5/I2C_MASTER.c **** * Global variables:
 808:Generated_Source\PSoC5/I2C_MASTER.c **** *  I2C_mstrRdBufIndex - The global variable used to stores current
 809:Generated_Source\PSoC5/I2C_MASTER.c **** *                                    index within master read buffer.
 810:Generated_Source\PSoC5/I2C_MASTER.c **** *  I2C_mstrStatus - The global variable used to store a current
 811:Generated_Source\PSoC5/I2C_MASTER.c **** *                                status of the I2C Master.
 812:Generated_Source\PSoC5/I2C_MASTER.c **** *
 813:Generated_Source\PSoC5/I2C_MASTER.c **** * Reentrant:
 814:Generated_Source\PSoC5/I2C_MASTER.c **** *  No.
 815:Generated_Source\PSoC5/I2C_MASTER.c **** *
 816:Generated_Source\PSoC5/I2C_MASTER.c **** *******************************************************************************/
 817:Generated_Source\PSoC5/I2C_MASTER.c **** void I2C_MasterClearReadBuf(void) 
 818:Generated_Source\PSoC5/I2C_MASTER.c **** {
 914              		.loc 1 818 0
 915              		.cfi_startproc
 916              		@ args = 0, pretend = 0, frame = 0
 917              		@ frame_needed = 0, uses_anonymous_args = 0
 918              		@ link register save eliminated.
 819:Generated_Source\PSoC5/I2C_MASTER.c ****     I2C_DisableInt(); /* Lock from interrupt */
 919              		.loc 1 819 0
 920 0000 4FF40042 		mov	r2, #32768
 921 0004 064B     		ldr	r3, .L81
 922 0006 1A60     		str	r2, [r3]
 820:Generated_Source\PSoC5/I2C_MASTER.c **** 
 821:Generated_Source\PSoC5/I2C_MASTER.c ****     I2C_mstrRdBufIndex = 0u;
 923              		.loc 1 821 0
 924 0008 0021     		movs	r1, #0
 925 000a 064B     		ldr	r3, .L81+4
 926 000c 1970     		strb	r1, [r3]
 822:Generated_Source\PSoC5/I2C_MASTER.c ****     I2C_mstrStatus    &= (uint8) ~I2C_MSTAT_RD_CMPLT;
 927              		.loc 1 822 0
 928 000e 0649     		ldr	r1, .L81+8
 929 0010 0B78     		ldrb	r3, [r1]	@ zero_extendqisi2
ARM GAS  C:\Users\Dell\AppData\Local\Temp\ccpYsGDa.s 			page 32


 930 0012 03F0FE03 		and	r3, r3, #254
 931 0016 0B70     		strb	r3, [r1]
 823:Generated_Source\PSoC5/I2C_MASTER.c **** 
 824:Generated_Source\PSoC5/I2C_MASTER.c ****     I2C_EnableInt(); /* Release lock */
 932              		.loc 1 824 0
 933 0018 044B     		ldr	r3, .L81+12
 934 001a 1A60     		str	r2, [r3]
 935 001c 7047     		bx	lr
 936              	.L82:
 937 001e 00BF     		.align	2
 938              	.L81:
 939 0020 80E100E0 		.word	-536813184
 940 0024 00000000 		.word	I2C_mstrRdBufIndex
 941 0028 00000000 		.word	I2C_mstrStatus
 942 002c 00E100E0 		.word	-536813312
 943              		.cfi_endproc
 944              	.LFE11:
 945              		.size	I2C_MasterClearReadBuf, .-I2C_MasterClearReadBuf
 946              		.section	.text.I2C_MasterClearWriteBuf,"ax",%progbits
 947              		.align	2
 948              		.global	I2C_MasterClearWriteBuf
 949              		.thumb
 950              		.thumb_func
 951              		.type	I2C_MasterClearWriteBuf, %function
 952              	I2C_MasterClearWriteBuf:
 953              	.LFB12:
 825:Generated_Source\PSoC5/I2C_MASTER.c **** }
 826:Generated_Source\PSoC5/I2C_MASTER.c **** 
 827:Generated_Source\PSoC5/I2C_MASTER.c **** 
 828:Generated_Source\PSoC5/I2C_MASTER.c **** /*******************************************************************************
 829:Generated_Source\PSoC5/I2C_MASTER.c **** * Function Name: I2C_MasterClearWriteBuf
 830:Generated_Source\PSoC5/I2C_MASTER.c **** ********************************************************************************
 831:Generated_Source\PSoC5/I2C_MASTER.c **** *
 832:Generated_Source\PSoC5/I2C_MASTER.c **** * Summary:
 833:Generated_Source\PSoC5/I2C_MASTER.c **** *  Resets the write buffer pointer back to the first byte in the buffer.
 834:Generated_Source\PSoC5/I2C_MASTER.c **** *
 835:Generated_Source\PSoC5/I2C_MASTER.c **** * Parameters:
 836:Generated_Source\PSoC5/I2C_MASTER.c **** *  None.
 837:Generated_Source\PSoC5/I2C_MASTER.c **** *
 838:Generated_Source\PSoC5/I2C_MASTER.c **** * Return:
 839:Generated_Source\PSoC5/I2C_MASTER.c **** *  None.
 840:Generated_Source\PSoC5/I2C_MASTER.c **** *
 841:Generated_Source\PSoC5/I2C_MASTER.c **** * Global variables:
 842:Generated_Source\PSoC5/I2C_MASTER.c **** *  I2C_mstrRdBufIndex - The global variable used to stote current
 843:Generated_Source\PSoC5/I2C_MASTER.c **** *                                    index within master read buffer.
 844:Generated_Source\PSoC5/I2C_MASTER.c **** *  I2C_mstrStatus - The global variable used to store a current
 845:Generated_Source\PSoC5/I2C_MASTER.c **** *                                status of the I2C Master.
 846:Generated_Source\PSoC5/I2C_MASTER.c **** *
 847:Generated_Source\PSoC5/I2C_MASTER.c **** * Reentrant:
 848:Generated_Source\PSoC5/I2C_MASTER.c **** *  No.
 849:Generated_Source\PSoC5/I2C_MASTER.c **** *
 850:Generated_Source\PSoC5/I2C_MASTER.c **** *******************************************************************************/
 851:Generated_Source\PSoC5/I2C_MASTER.c **** void I2C_MasterClearWriteBuf(void) 
 852:Generated_Source\PSoC5/I2C_MASTER.c **** {
 954              		.loc 1 852 0
 955              		.cfi_startproc
 956              		@ args = 0, pretend = 0, frame = 0
ARM GAS  C:\Users\Dell\AppData\Local\Temp\ccpYsGDa.s 			page 33


 957              		@ frame_needed = 0, uses_anonymous_args = 0
 958              		@ link register save eliminated.
 853:Generated_Source\PSoC5/I2C_MASTER.c ****     I2C_DisableInt(); /* Lock from interrupt */
 959              		.loc 1 853 0
 960 0000 4FF40042 		mov	r2, #32768
 961 0004 064B     		ldr	r3, .L84
 962 0006 1A60     		str	r2, [r3]
 854:Generated_Source\PSoC5/I2C_MASTER.c **** 
 855:Generated_Source\PSoC5/I2C_MASTER.c ****     I2C_mstrWrBufIndex = 0u;
 963              		.loc 1 855 0
 964 0008 0021     		movs	r1, #0
 965 000a 064B     		ldr	r3, .L84+4
 966 000c 1970     		strb	r1, [r3]
 856:Generated_Source\PSoC5/I2C_MASTER.c ****     I2C_mstrStatus    &= (uint8) ~I2C_MSTAT_WR_CMPLT;
 967              		.loc 1 856 0
 968 000e 0649     		ldr	r1, .L84+8
 969 0010 0B78     		ldrb	r3, [r1]	@ zero_extendqisi2
 970 0012 03F0FD03 		and	r3, r3, #253
 971 0016 0B70     		strb	r3, [r1]
 857:Generated_Source\PSoC5/I2C_MASTER.c **** 
 858:Generated_Source\PSoC5/I2C_MASTER.c ****     I2C_EnableInt(); /* Release lock */
 972              		.loc 1 858 0
 973 0018 044B     		ldr	r3, .L84+12
 974 001a 1A60     		str	r2, [r3]
 975 001c 7047     		bx	lr
 976              	.L85:
 977 001e 00BF     		.align	2
 978              	.L84:
 979 0020 80E100E0 		.word	-536813184
 980 0024 00000000 		.word	I2C_mstrWrBufIndex
 981 0028 00000000 		.word	I2C_mstrStatus
 982 002c 00E100E0 		.word	-536813312
 983              		.cfi_endproc
 984              	.LFE12:
 985              		.size	I2C_MasterClearWriteBuf, .-I2C_MasterClearWriteBuf
 986              		.comm	I2C_mstrWrBufIndex,1,1
 987              		.comm	I2C_mstrWrBufSize,1,1
 988              		.comm	I2C_mstrWrBufPtr,4,4
 989              		.comm	I2C_mstrRdBufIndex,1,1
 990              		.comm	I2C_mstrRdBufSize,1,1
 991              		.comm	I2C_mstrRdBufPtr,4,4
 992              		.comm	I2C_mstrControl,1,1
 993              		.comm	I2C_mstrStatus,1,1
 994              		.text
 995              	.Letext0:
 996              		.file 2 "Generated_Source\\PSoC5\\cytypes.h"
 997              		.file 3 "Generated_Source\\PSoC5\\I2C_PVT.h"
