ARM GAS  C:\Users\Dell\AppData\Local\Temp\ccrJ7ilE.s 			page 1


   1              		.syntax unified
   2              		.cpu cortex-m3
   3              		.fpu softvfp
   4              		.eabi_attribute 20, 1
   5              		.eabi_attribute 21, 1
   6              		.eabi_attribute 23, 3
   7              		.eabi_attribute 24, 1
   8              		.eabi_attribute 25, 1
   9              		.eabi_attribute 26, 1
  10              		.eabi_attribute 30, 1
  11              		.eabi_attribute 34, 1
  12              		.eabi_attribute 18, 4
  13              		.thumb
  14              		.syntax unified
  15              		.file	"Mixer_1.c"
  16              		.text
  17              	.Ltext0:
  18              		.cfi_sections	.debug_frame
  19              		.section	.text.Mixer_1_Enable,"ax",%progbits
  20              		.align	2
  21              		.global	Mixer_1_Enable
  22              		.thumb
  23              		.thumb_func
  24              		.type	Mixer_1_Enable, %function
  25              	Mixer_1_Enable:
  26              	.LFB1:
  27              		.file 1 "Generated_Source\\PSoC5\\Mixer_1.c"
   1:Generated_Source\PSoC5/Mixer_1.c **** /*******************************************************************************
   2:Generated_Source\PSoC5/Mixer_1.c **** * File Name: Mixer_1.c  
   3:Generated_Source\PSoC5/Mixer_1.c **** * Version 2.0
   4:Generated_Source\PSoC5/Mixer_1.c **** *
   5:Generated_Source\PSoC5/Mixer_1.c **** * Description:
   6:Generated_Source\PSoC5/Mixer_1.c **** *  This file provides the source code to the API for the MIXER Component.
   7:Generated_Source\PSoC5/Mixer_1.c **** *
   8:Generated_Source\PSoC5/Mixer_1.c **** * Note:
   9:Generated_Source\PSoC5/Mixer_1.c **** *
  10:Generated_Source\PSoC5/Mixer_1.c **** *******************************************************************************
  11:Generated_Source\PSoC5/Mixer_1.c **** * Copyright 2008-2012, Cypress Semiconductor Corporation.  All rights reserved.
  12:Generated_Source\PSoC5/Mixer_1.c **** * You may use this file only in accordance with the license, terms, conditions, 
  13:Generated_Source\PSoC5/Mixer_1.c **** * disclaimers, and limitations in the end user license agreement accompanying 
  14:Generated_Source\PSoC5/Mixer_1.c **** * the software package with which this file was provided.
  15:Generated_Source\PSoC5/Mixer_1.c **** *******************************************************************************/
  16:Generated_Source\PSoC5/Mixer_1.c **** 
  17:Generated_Source\PSoC5/Mixer_1.c **** #include "Mixer_1.h"
  18:Generated_Source\PSoC5/Mixer_1.c **** 
  19:Generated_Source\PSoC5/Mixer_1.c **** #if (!CY_PSOC5A)
  20:Generated_Source\PSoC5/Mixer_1.c ****     #if (CYDEV_VARIABLE_VDDA == 1u)
  21:Generated_Source\PSoC5/Mixer_1.c ****         #include "CyScBoostClk.h"
  22:Generated_Source\PSoC5/Mixer_1.c ****     #endif /* (CYDEV_VARIABLE_VDDA == 1u) */
  23:Generated_Source\PSoC5/Mixer_1.c **** #endif /* (!CY_PSOC5A) */
  24:Generated_Source\PSoC5/Mixer_1.c **** 
  25:Generated_Source\PSoC5/Mixer_1.c **** #if (Mixer_1_LO_SOURCE == Mixer_1_LO_SOURCE_INTERNAL)
  26:Generated_Source\PSoC5/Mixer_1.c ****     #include "Mixer_1_aclk.h"
  27:Generated_Source\PSoC5/Mixer_1.c **** #endif /* Mixer_1_LO_SOURCE */
  28:Generated_Source\PSoC5/Mixer_1.c **** 
  29:Generated_Source\PSoC5/Mixer_1.c **** /* Fixed configuration of SC Block only performed once */
  30:Generated_Source\PSoC5/Mixer_1.c **** uint8 Mixer_1_initVar = 0u;
ARM GAS  C:\Users\Dell\AppData\Local\Temp\ccrJ7ilE.s 			page 2


  31:Generated_Source\PSoC5/Mixer_1.c **** 
  32:Generated_Source\PSoC5/Mixer_1.c **** /* Only for PSoC5A */
  33:Generated_Source\PSoC5/Mixer_1.c **** #if (CY_PSOC5A)
  34:Generated_Source\PSoC5/Mixer_1.c ****     static Mixer_1_backupStruct Mixer_1_P5backup;
  35:Generated_Source\PSoC5/Mixer_1.c **** #endif /* CY_PSOC5A */
  36:Generated_Source\PSoC5/Mixer_1.c **** 
  37:Generated_Source\PSoC5/Mixer_1.c **** 
  38:Generated_Source\PSoC5/Mixer_1.c **** /*******************************************************************************
  39:Generated_Source\PSoC5/Mixer_1.c **** * Function Name: Mixer_1_Init
  40:Generated_Source\PSoC5/Mixer_1.c **** ********************************************************************************
  41:Generated_Source\PSoC5/Mixer_1.c **** *
  42:Generated_Source\PSoC5/Mixer_1.c **** * Summary:
  43:Generated_Source\PSoC5/Mixer_1.c **** *  Initialize component's parameters to the parameters set by user in the 
  44:Generated_Source\PSoC5/Mixer_1.c **** *  customizer of the component placed onto schematic. Usually called in 
  45:Generated_Source\PSoC5/Mixer_1.c **** *  Mixer_1_Start().
  46:Generated_Source\PSoC5/Mixer_1.c **** *
  47:Generated_Source\PSoC5/Mixer_1.c **** * Parameters:  
  48:Generated_Source\PSoC5/Mixer_1.c **** *  void
  49:Generated_Source\PSoC5/Mixer_1.c **** *
  50:Generated_Source\PSoC5/Mixer_1.c **** * Return: 
  51:Generated_Source\PSoC5/Mixer_1.c **** *  void
  52:Generated_Source\PSoC5/Mixer_1.c **** *
  53:Generated_Source\PSoC5/Mixer_1.c **** *******************************************************************************/
  54:Generated_Source\PSoC5/Mixer_1.c **** void Mixer_1_Init(void) 
  55:Generated_Source\PSoC5/Mixer_1.c **** {
  56:Generated_Source\PSoC5/Mixer_1.c ****     float LOf = Mixer_1_LO_CLOCK_FREQ;
  57:Generated_Source\PSoC5/Mixer_1.c ****     
  58:Generated_Source\PSoC5/Mixer_1.c ****     /* Configure SC Block based on selected Mixer type */
  59:Generated_Source\PSoC5/Mixer_1.c ****     /* Continuous Time (up) mixer */
  60:Generated_Source\PSoC5/Mixer_1.c ****     #if (Mixer_1_MIXER_TYPE == Mixer_1_CTMIXER) 
  61:Generated_Source\PSoC5/Mixer_1.c ****         /* SC Block mode -  - SCxx_CR0[3:1] */
  62:Generated_Source\PSoC5/Mixer_1.c ****         Mixer_1_CR0_REG = Mixer_1_MODE_CTMIXER;   
  63:Generated_Source\PSoC5/Mixer_1.c **** 
  64:Generated_Source\PSoC5/Mixer_1.c ****         /* SC Block CR1 */ 
  65:Generated_Source\PSoC5/Mixer_1.c ****         Mixer_1_CR1_REG = (Mixer_1_COMP_4P35PF  |
  66:Generated_Source\PSoC5/Mixer_1.c ****                                 Mixer_1_DIV2_DISABLE |
  67:Generated_Source\PSoC5/Mixer_1.c ****                                 Mixer_1_GAIN_0DB);                                 
  68:Generated_Source\PSoC5/Mixer_1.c **** 
  69:Generated_Source\PSoC5/Mixer_1.c ****         /* 
  70:Generated_Source\PSoC5/Mixer_1.c ****             Set SC Block resistor values based on Local Oscillator being above 
  71:Generated_Source\PSoC5/Mixer_1.c ****             or below 100kHz - controled by r20_40 (Rmix) bit for CT mode mixer
  72:Generated_Source\PSoC5/Mixer_1.c ****             and SC Block
  73:Generated_Source\PSoC5/Mixer_1.c ****         */
  74:Generated_Source\PSoC5/Mixer_1.c **** 
  75:Generated_Source\PSoC5/Mixer_1.c ****         if (LOf < Mixer_1_LO_CLOCK_FREQ_100_KHz)
  76:Generated_Source\PSoC5/Mixer_1.c ****         {
  77:Generated_Source\PSoC5/Mixer_1.c ****             Mixer_1_CR2_REG = (Mixer_1_BIAS_LOW |
  78:Generated_Source\PSoC5/Mixer_1.c **** 										Mixer_1_REDC_01 |
  79:Generated_Source\PSoC5/Mixer_1.c **** 										Mixer_1_GNDVREF_DI |
  80:Generated_Source\PSoC5/Mixer_1.c **** 										Mixer_1_R20_40B_40K);
  81:Generated_Source\PSoC5/Mixer_1.c ****         }
  82:Generated_Source\PSoC5/Mixer_1.c ****         else
  83:Generated_Source\PSoC5/Mixer_1.c ****         {
  84:Generated_Source\PSoC5/Mixer_1.c ****             Mixer_1_CR2_REG = (Mixer_1_BIAS_LOW |
  85:Generated_Source\PSoC5/Mixer_1.c **** 										Mixer_1_REDC_01 |
  86:Generated_Source\PSoC5/Mixer_1.c **** 										Mixer_1_GNDVREF_DI |
  87:Generated_Source\PSoC5/Mixer_1.c **** 										Mixer_1_R20_40B_20K);
ARM GAS  C:\Users\Dell\AppData\Local\Temp\ccrJ7ilE.s 			page 3


  88:Generated_Source\PSoC5/Mixer_1.c ****         }
  89:Generated_Source\PSoC5/Mixer_1.c ****     #else
  90:Generated_Source\PSoC5/Mixer_1.c ****         /* Discrete Time (down) mixer */
  91:Generated_Source\PSoC5/Mixer_1.c ****         /* SC Block mode -  - SCxx_CR0[3:1] */
  92:Generated_Source\PSoC5/Mixer_1.c ****         Mixer_1_CR0_REG = Mixer_1_MODE_DTMIXER;       
  93:Generated_Source\PSoC5/Mixer_1.c **** 
  94:Generated_Source\PSoC5/Mixer_1.c ****         /* SC Block CR1 */ 
  95:Generated_Source\PSoC5/Mixer_1.c ****         Mixer_1_CR1_REG = (Mixer_1_COMP_4P35PF  |
  96:Generated_Source\PSoC5/Mixer_1.c ****                                 Mixer_1_DIV2_ENABLE |
  97:Generated_Source\PSoC5/Mixer_1.c ****                                 Mixer_1_GAIN_0DB);
  98:Generated_Source\PSoC5/Mixer_1.c **** 
  99:Generated_Source\PSoC5/Mixer_1.c ****         /* 
 100:Generated_Source\PSoC5/Mixer_1.c ****             Set SC Block resistor values based on Local Oscillator beign above 
 101:Generated_Source\PSoC5/Mixer_1.c ****             or below 100kHz - set r20_40 (input resitance) and rval (feedback) 
 102:Generated_Source\PSoC5/Mixer_1.c ****             resistor values seperately for DT mode and SC Block
 103:Generated_Source\PSoC5/Mixer_1.c ****         */
 104:Generated_Source\PSoC5/Mixer_1.c ****         if (LOf < Mixer_1_LO_CLOCK_FREQ_100_KHz)
 105:Generated_Source\PSoC5/Mixer_1.c ****         {
 106:Generated_Source\PSoC5/Mixer_1.c ****             Mixer_1_CR2_REG = (Mixer_1_BIAS_LOW |
 107:Generated_Source\PSoC5/Mixer_1.c **** 										Mixer_1_GNDVREF_DI |
 108:Generated_Source\PSoC5/Mixer_1.c **** 										Mixer_1_R20_40B_40K |
 109:Generated_Source\PSoC5/Mixer_1.c **** 										Mixer_1_RVAL_40K); 
 110:Generated_Source\PSoC5/Mixer_1.c ****         }
 111:Generated_Source\PSoC5/Mixer_1.c ****         else
 112:Generated_Source\PSoC5/Mixer_1.c ****         {
 113:Generated_Source\PSoC5/Mixer_1.c ****             Mixer_1_CR2_REG = (Mixer_1_BIAS_LOW |
 114:Generated_Source\PSoC5/Mixer_1.c **** 										Mixer_1_GNDVREF_DI |
 115:Generated_Source\PSoC5/Mixer_1.c **** 										Mixer_1_R20_40B_20K |
 116:Generated_Source\PSoC5/Mixer_1.c **** 										Mixer_1_RVAL_20K);
 117:Generated_Source\PSoC5/Mixer_1.c ****         }
 118:Generated_Source\PSoC5/Mixer_1.c ****     #endif /* end if - Mixer Type */
 119:Generated_Source\PSoC5/Mixer_1.c **** 
 120:Generated_Source\PSoC5/Mixer_1.c ****     /* Enable SC Block clocking */
 121:Generated_Source\PSoC5/Mixer_1.c ****     Mixer_1_CLK_REG |= Mixer_1_CLK_EN;
 122:Generated_Source\PSoC5/Mixer_1.c **** 
 123:Generated_Source\PSoC5/Mixer_1.c ****     /* Set default power */
 124:Generated_Source\PSoC5/Mixer_1.c ****     Mixer_1_SetPower(Mixer_1_INIT_POWER);
 125:Generated_Source\PSoC5/Mixer_1.c ****     
 126:Generated_Source\PSoC5/Mixer_1.c ****     /* Set 50 % Duty cycle for LO clock if LO source is internal */
 127:Generated_Source\PSoC5/Mixer_1.c ****     #if(Mixer_1_LO_SOURCE == Mixer_1_LO_SOURCE_INTERNAL)
 128:Generated_Source\PSoC5/Mixer_1.c ****         Mixer_1_aclk_SetMode(CYCLK_DUTY);
 129:Generated_Source\PSoC5/Mixer_1.c ****     #endif /* Mixer_1_LO_SOURCE == Mixer_1_LO_SOURCE_INTERNAL */
 130:Generated_Source\PSoC5/Mixer_1.c **** 
 131:Generated_Source\PSoC5/Mixer_1.c **** }
 132:Generated_Source\PSoC5/Mixer_1.c **** 
 133:Generated_Source\PSoC5/Mixer_1.c **** 
 134:Generated_Source\PSoC5/Mixer_1.c **** /*******************************************************************************
 135:Generated_Source\PSoC5/Mixer_1.c **** * Function Name: Mixer_1_Enable
 136:Generated_Source\PSoC5/Mixer_1.c **** ********************************************************************************
 137:Generated_Source\PSoC5/Mixer_1.c **** *  
 138:Generated_Source\PSoC5/Mixer_1.c **** * Summary: 
 139:Generated_Source\PSoC5/Mixer_1.c **** *  Enables the Mixer block operation
 140:Generated_Source\PSoC5/Mixer_1.c **** *
 141:Generated_Source\PSoC5/Mixer_1.c **** * Parameters:  
 142:Generated_Source\PSoC5/Mixer_1.c **** *  void
 143:Generated_Source\PSoC5/Mixer_1.c **** *
 144:Generated_Source\PSoC5/Mixer_1.c **** * Return: 
ARM GAS  C:\Users\Dell\AppData\Local\Temp\ccrJ7ilE.s 			page 4


 145:Generated_Source\PSoC5/Mixer_1.c **** *  void
 146:Generated_Source\PSoC5/Mixer_1.c **** *
 147:Generated_Source\PSoC5/Mixer_1.c **** *******************************************************************************/
 148:Generated_Source\PSoC5/Mixer_1.c **** void Mixer_1_Enable(void) 
 149:Generated_Source\PSoC5/Mixer_1.c **** {
  28              		.loc 1 149 0
  29              		.cfi_startproc
  30              		@ args = 0, pretend = 0, frame = 0
  31              		@ frame_needed = 0, uses_anonymous_args = 0
  32              		@ link register save eliminated.
 150:Generated_Source\PSoC5/Mixer_1.c ****     /* This is to restore the value of register CR1 and CR2 which is saved 
 151:Generated_Source\PSoC5/Mixer_1.c ****       in prior to the modifications in stop() API */
 152:Generated_Source\PSoC5/Mixer_1.c ****     #if (CY_PSOC5A)
 153:Generated_Source\PSoC5/Mixer_1.c ****         if(Mixer_1_P5backup.enableState == 1u)
 154:Generated_Source\PSoC5/Mixer_1.c ****         {
 155:Generated_Source\PSoC5/Mixer_1.c ****             Mixer_1_CR1_REG = Mixer_1_P5backup.scCR1Reg;
 156:Generated_Source\PSoC5/Mixer_1.c ****             Mixer_1_CR2_REG = Mixer_1_P5backup.scCR2Reg;
 157:Generated_Source\PSoC5/Mixer_1.c ****             Mixer_1_P5backup.enableState = 0u;
 158:Generated_Source\PSoC5/Mixer_1.c ****         }
 159:Generated_Source\PSoC5/Mixer_1.c ****     #endif /* CY_PSOC5A */
 160:Generated_Source\PSoC5/Mixer_1.c ****     
 161:Generated_Source\PSoC5/Mixer_1.c ****     /* Enable power to SC block in active mode */
 162:Generated_Source\PSoC5/Mixer_1.c ****     Mixer_1_PM_ACT_CFG_REG |= Mixer_1_ACT_PWR_EN;
  33              		.loc 1 162 0
  34 0000 084A     		ldr	r2, .L2
  35 0002 1378     		ldrb	r3, [r2]	@ zero_extendqisi2
  36 0004 43F00403 		orr	r3, r3, #4
  37 0008 1370     		strb	r3, [r2]
 163:Generated_Source\PSoC5/Mixer_1.c **** 
 164:Generated_Source\PSoC5/Mixer_1.c ****     /* Enable power to SC block in Alternative active mode */
 165:Generated_Source\PSoC5/Mixer_1.c ****     Mixer_1_PM_STBY_CFG_REG |= Mixer_1_STBY_PWR_EN;
  38              		.loc 1 165 0
  39 000a 1032     		adds	r2, r2, #16
  40 000c 1378     		ldrb	r3, [r2]	@ zero_extendqisi2
  41 000e 43F00403 		orr	r3, r3, #4
  42 0012 1370     		strb	r3, [r2]
 166:Generated_Source\PSoC5/Mixer_1.c ****     
 167:Generated_Source\PSoC5/Mixer_1.c ****     /* Enable LO_Internal clock if LO source is choosen as internal */
 168:Generated_Source\PSoC5/Mixer_1.c ****     #if(Mixer_1_LO_SOURCE == Mixer_1_LO_SOURCE_INTERNAL)
 169:Generated_Source\PSoC5/Mixer_1.c ****         /* Enable power to the LO clock */
 170:Generated_Source\PSoC5/Mixer_1.c ****         Mixer_1_PWRMGR_ACLK_REG |= Mixer_1_ACT_PWR_ACLK_EN;        
 171:Generated_Source\PSoC5/Mixer_1.c ****         Mixer_1_STBY_PWRMGR_ACLK_REG |= Mixer_1_STBY_PWR_ACLK_EN;
 172:Generated_Source\PSoC5/Mixer_1.c ****         /* Enable the clock */
 173:Generated_Source\PSoC5/Mixer_1.c ****         Mixer_1_aclk_Enable();        
 174:Generated_Source\PSoC5/Mixer_1.c ****     #endif /* Mixer_1_LO_SOURCE == Mixer_1_LO_SOURCE_INTERNAL */
 175:Generated_Source\PSoC5/Mixer_1.c **** 
 176:Generated_Source\PSoC5/Mixer_1.c ****     Mixer_1_PUMP_CR1_REG |= Mixer_1_PUMP_CR1_SC_CLKSEL;
  43              		.loc 1 176 0
  44 0014 02F5A552 		add	r2, r2, #5280
  45 0018 1E32     		adds	r2, r2, #30
  46 001a 1378     		ldrb	r3, [r2]	@ zero_extendqisi2
  47 001c 43F08003 		orr	r3, r3, #128
  48 0020 1370     		strb	r3, [r2]
  49 0022 7047     		bx	lr
  50              	.L3:
  51              		.align	2
  52              	.L2:
ARM GAS  C:\Users\Dell\AppData\Local\Temp\ccrJ7ilE.s 			page 5


  53 0024 A9430040 		.word	1073759145
  54              		.cfi_endproc
  55              	.LFE1:
  56              		.size	Mixer_1_Enable, .-Mixer_1_Enable
  57              		.section	.text.Mixer_1_Stop,"ax",%progbits
  58              		.align	2
  59              		.global	Mixer_1_Stop
  60              		.thumb
  61              		.thumb_func
  62              		.type	Mixer_1_Stop, %function
  63              	Mixer_1_Stop:
  64              	.LFB3:
 177:Generated_Source\PSoC5/Mixer_1.c ****     
 178:Generated_Source\PSoC5/Mixer_1.c ****     #if (!CY_PSOC5A)
 179:Generated_Source\PSoC5/Mixer_1.c ****         #if (CYDEV_VARIABLE_VDDA == 1u)
 180:Generated_Source\PSoC5/Mixer_1.c ****             if(CyScPumpEnabled == 1u)
 181:Generated_Source\PSoC5/Mixer_1.c ****             {
 182:Generated_Source\PSoC5/Mixer_1.c ****                 Mixer_1_BSTCLK_REG &= (uint8)(~Mixer_1_BST_CLK_INDEX_MASK);
 183:Generated_Source\PSoC5/Mixer_1.c ****                 Mixer_1_BSTCLK_REG |= Mixer_1_BST_CLK_EN | CyScBoostClk__INDEX;
 184:Generated_Source\PSoC5/Mixer_1.c ****                 Mixer_1_SC_MISC_REG |= Mixer_1_PUMP_FORCE;
 185:Generated_Source\PSoC5/Mixer_1.c ****                 CyScBoostClk_Start();
 186:Generated_Source\PSoC5/Mixer_1.c ****             }
 187:Generated_Source\PSoC5/Mixer_1.c ****             else
 188:Generated_Source\PSoC5/Mixer_1.c ****             {
 189:Generated_Source\PSoC5/Mixer_1.c ****                 Mixer_1_BSTCLK_REG &= (uint8)(~Mixer_1_BST_CLK_EN);
 190:Generated_Source\PSoC5/Mixer_1.c ****                 Mixer_1_SC_MISC_REG &= (uint8)(~Mixer_1_PUMP_FORCE);
 191:Generated_Source\PSoC5/Mixer_1.c ****             }
 192:Generated_Source\PSoC5/Mixer_1.c ****         #endif /* (CYDEV_VARIABLE_VDDA == 1u) */
 193:Generated_Source\PSoC5/Mixer_1.c ****     #endif /* (!CY_PSOC5A) */
 194:Generated_Source\PSoC5/Mixer_1.c **** }
 195:Generated_Source\PSoC5/Mixer_1.c **** 
 196:Generated_Source\PSoC5/Mixer_1.c **** 
 197:Generated_Source\PSoC5/Mixer_1.c **** /*******************************************************************************
 198:Generated_Source\PSoC5/Mixer_1.c **** * Function Name: Mixer_1_Start
 199:Generated_Source\PSoC5/Mixer_1.c **** ********************************************************************************
 200:Generated_Source\PSoC5/Mixer_1.c **** *
 201:Generated_Source\PSoC5/Mixer_1.c **** * Summary:
 202:Generated_Source\PSoC5/Mixer_1.c **** *  The start function initializes the SC block control registers based on the
 203:Generated_Source\PSoC5/Mixer_1.c **** *  Mixer type selected and and enables power to the SC block
 204:Generated_Source\PSoC5/Mixer_1.c **** *
 205:Generated_Source\PSoC5/Mixer_1.c **** * Parameters:  
 206:Generated_Source\PSoC5/Mixer_1.c **** *  void
 207:Generated_Source\PSoC5/Mixer_1.c **** *
 208:Generated_Source\PSoC5/Mixer_1.c **** * Return: 
 209:Generated_Source\PSoC5/Mixer_1.c **** *  void 
 210:Generated_Source\PSoC5/Mixer_1.c **** *
 211:Generated_Source\PSoC5/Mixer_1.c **** * Global variables:
 212:Generated_Source\PSoC5/Mixer_1.c **** *  Mixer_1_initVar:  Used to check the initial configuration,
 213:Generated_Source\PSoC5/Mixer_1.c **** *  modified when this function is called for the first time.
 214:Generated_Source\PSoC5/Mixer_1.c **** *
 215:Generated_Source\PSoC5/Mixer_1.c **** * Theory: 
 216:Generated_Source\PSoC5/Mixer_1.c **** *  Full initialization of the SC Block configuration registers is only perfomed 
 217:Generated_Source\PSoC5/Mixer_1.c **** *  the first time the routine executes - global variable 
 218:Generated_Source\PSoC5/Mixer_1.c **** *  Mixer_1_initVar is used indicate that the static configuration has 
 219:Generated_Source\PSoC5/Mixer_1.c **** *  been completed.
 220:Generated_Source\PSoC5/Mixer_1.c **** *
 221:Generated_Source\PSoC5/Mixer_1.c **** *******************************************************************************/
ARM GAS  C:\Users\Dell\AppData\Local\Temp\ccrJ7ilE.s 			page 6


 222:Generated_Source\PSoC5/Mixer_1.c **** void Mixer_1_Start(void) 
 223:Generated_Source\PSoC5/Mixer_1.c **** {
 224:Generated_Source\PSoC5/Mixer_1.c ****     /* If not Initialized then initialize all required hardware and software */
 225:Generated_Source\PSoC5/Mixer_1.c ****     if(Mixer_1_initVar == 0u)
 226:Generated_Source\PSoC5/Mixer_1.c ****     {
 227:Generated_Source\PSoC5/Mixer_1.c ****         Mixer_1_Init();
 228:Generated_Source\PSoC5/Mixer_1.c ****         Mixer_1_initVar = 1u;
 229:Generated_Source\PSoC5/Mixer_1.c ****     }
 230:Generated_Source\PSoC5/Mixer_1.c ****     /* Enable the power to the block */
 231:Generated_Source\PSoC5/Mixer_1.c ****     Mixer_1_Enable();
 232:Generated_Source\PSoC5/Mixer_1.c ****     
 233:Generated_Source\PSoC5/Mixer_1.c **** }
 234:Generated_Source\PSoC5/Mixer_1.c **** 
 235:Generated_Source\PSoC5/Mixer_1.c **** 
 236:Generated_Source\PSoC5/Mixer_1.c **** /*******************************************************************************
 237:Generated_Source\PSoC5/Mixer_1.c **** * Function Name: Mixer_1_Stop
 238:Generated_Source\PSoC5/Mixer_1.c **** ********************************************************************************
 239:Generated_Source\PSoC5/Mixer_1.c **** *
 240:Generated_Source\PSoC5/Mixer_1.c **** * Summary:
 241:Generated_Source\PSoC5/Mixer_1.c **** *  Disables power to SC block.
 242:Generated_Source\PSoC5/Mixer_1.c **** *
 243:Generated_Source\PSoC5/Mixer_1.c **** * Parameters:  
 244:Generated_Source\PSoC5/Mixer_1.c **** *  void 
 245:Generated_Source\PSoC5/Mixer_1.c **** *
 246:Generated_Source\PSoC5/Mixer_1.c **** * Return: 
 247:Generated_Source\PSoC5/Mixer_1.c **** *  void 
 248:Generated_Source\PSoC5/Mixer_1.c **** *
 249:Generated_Source\PSoC5/Mixer_1.c **** *******************************************************************************/
 250:Generated_Source\PSoC5/Mixer_1.c **** void Mixer_1_Stop(void) 
 251:Generated_Source\PSoC5/Mixer_1.c **** {       
  65              		.loc 1 251 0
  66              		.cfi_startproc
  67              		@ args = 0, pretend = 0, frame = 0
  68              		@ frame_needed = 0, uses_anonymous_args = 0
  69              		@ link register save eliminated.
 252:Generated_Source\PSoC5/Mixer_1.c ****     /* Disble power to the Amp in Active mode template */
 253:Generated_Source\PSoC5/Mixer_1.c ****     Mixer_1_PM_ACT_CFG_REG &= (uint8)(~Mixer_1_ACT_PWR_EN);
  70              		.loc 1 253 0
  71 0000 054A     		ldr	r2, .L5
  72 0002 1378     		ldrb	r3, [r2]	@ zero_extendqisi2
  73 0004 03F0FB03 		and	r3, r3, #251
  74 0008 1370     		strb	r3, [r2]
 254:Generated_Source\PSoC5/Mixer_1.c **** 
 255:Generated_Source\PSoC5/Mixer_1.c ****     /* Disble power to the Amp in Alternative Active mode template */
 256:Generated_Source\PSoC5/Mixer_1.c ****     Mixer_1_PM_STBY_CFG_REG &= (uint8)(~Mixer_1_STBY_PWR_EN);
  75              		.loc 1 256 0
  76 000a 1032     		adds	r2, r2, #16
  77 000c 1378     		ldrb	r3, [r2]	@ zero_extendqisi2
  78 000e 03F0FB03 		and	r3, r3, #251
  79 0012 1370     		strb	r3, [r2]
  80 0014 7047     		bx	lr
  81              	.L6:
  82 0016 00BF     		.align	2
  83              	.L5:
  84 0018 A9430040 		.word	1073759145
  85              		.cfi_endproc
  86              	.LFE3:
ARM GAS  C:\Users\Dell\AppData\Local\Temp\ccrJ7ilE.s 			page 7


  87              		.size	Mixer_1_Stop, .-Mixer_1_Stop
  88              		.section	.text.Mixer_1_SetPower,"ax",%progbits
  89              		.align	2
  90              		.global	Mixer_1_SetPower
  91              		.thumb
  92              		.thumb_func
  93              		.type	Mixer_1_SetPower, %function
  94              	Mixer_1_SetPower:
  95              	.LFB4:
 257:Generated_Source\PSoC5/Mixer_1.c ****     
 258:Generated_Source\PSoC5/Mixer_1.c ****     #if (!CY_PSOC5A)
 259:Generated_Source\PSoC5/Mixer_1.c ****         #if (CYDEV_VARIABLE_VDDA == 1u)
 260:Generated_Source\PSoC5/Mixer_1.c ****             Mixer_1_BSTCLK_REG &= (uint8)(~Mixer_1_BST_CLK_EN);
 261:Generated_Source\PSoC5/Mixer_1.c ****             /* Disable pumps only if there aren't any SC block in use */
 262:Generated_Source\PSoC5/Mixer_1.c ****             if ((Mixer_1_PM_ACT_CFG_REG & Mixer_1_PM_ACT_CFG_MASK) == 0u)
 263:Generated_Source\PSoC5/Mixer_1.c ****             {
 264:Generated_Source\PSoC5/Mixer_1.c ****                 Mixer_1_SC_MISC_REG &= (uint8)(~Mixer_1_PUMP_FORCE);
 265:Generated_Source\PSoC5/Mixer_1.c ****                 Mixer_1_PUMP_CR1_REG &= (uint8)(~Mixer_1_PUMP_CR1_SC_CLKSEL);
 266:Generated_Source\PSoC5/Mixer_1.c ****                 CyScBoostClk_Stop();
 267:Generated_Source\PSoC5/Mixer_1.c ****             }
 268:Generated_Source\PSoC5/Mixer_1.c ****         #endif /* CYDEV_VARIABLE_VDDA == 1u */
 269:Generated_Source\PSoC5/Mixer_1.c ****     #endif /* (CY_PSOC3 || CY_PSOC5LP) */
 270:Generated_Source\PSoC5/Mixer_1.c ****     
 271:Generated_Source\PSoC5/Mixer_1.c ****     /* This sets Sample and hold in zero current mode and output routes are valid */
 272:Generated_Source\PSoC5/Mixer_1.c ****     #if (CY_PSOC5A)
 273:Generated_Source\PSoC5/Mixer_1.c ****         Mixer_1_P5backup.scCR1Reg = Mixer_1_CR1_REG;
 274:Generated_Source\PSoC5/Mixer_1.c ****         Mixer_1_P5backup.scCR2Reg = Mixer_1_CR2_REG;
 275:Generated_Source\PSoC5/Mixer_1.c ****         Mixer_1_CR1_REG = 0x00u;
 276:Generated_Source\PSoC5/Mixer_1.c ****         Mixer_1_CR2_REG = 0x00u;
 277:Generated_Source\PSoC5/Mixer_1.c ****         Mixer_1_P5backup.enableState = 1u;
 278:Generated_Source\PSoC5/Mixer_1.c ****     #endif /* CY_PSOC5A */  
 279:Generated_Source\PSoC5/Mixer_1.c ****     
 280:Generated_Source\PSoC5/Mixer_1.c ****     /* Disable aclk */
 281:Generated_Source\PSoC5/Mixer_1.c ****     #if(Mixer_1_LO_SOURCE == Mixer_1_LO_SOURCE_INTERNAL)
 282:Generated_Source\PSoC5/Mixer_1.c ****         /* Disable power to clock */
 283:Generated_Source\PSoC5/Mixer_1.c ****         Mixer_1_PWRMGR_ACLK_REG &= (uint8)(~Mixer_1_ACT_PWR_ACLK_EN);
 284:Generated_Source\PSoC5/Mixer_1.c ****         Mixer_1_STBY_PWRMGR_ACLK_REG &= (uint8)(~Mixer_1_STBY_PWR_ACLK_EN);
 285:Generated_Source\PSoC5/Mixer_1.c ****         /* Disable the clock */
 286:Generated_Source\PSoC5/Mixer_1.c ****         Mixer_1_aclk_Disable();
 287:Generated_Source\PSoC5/Mixer_1.c ****     #endif /* Mixer_1_LO_SOURCE == Mixer_1_LO_SOURCE_INTERNAL */
 288:Generated_Source\PSoC5/Mixer_1.c **** }
 289:Generated_Source\PSoC5/Mixer_1.c **** 
 290:Generated_Source\PSoC5/Mixer_1.c **** 
 291:Generated_Source\PSoC5/Mixer_1.c **** /*******************************************************************************
 292:Generated_Source\PSoC5/Mixer_1.c **** * Function Name: Mixer_1_SetPower
 293:Generated_Source\PSoC5/Mixer_1.c **** ********************************************************************************
 294:Generated_Source\PSoC5/Mixer_1.c **** *
 295:Generated_Source\PSoC5/Mixer_1.c **** * Summary:
 296:Generated_Source\PSoC5/Mixer_1.c **** *  Set the drive power of the MIXER
 297:Generated_Source\PSoC5/Mixer_1.c **** *
 298:Generated_Source\PSoC5/Mixer_1.c **** * Parameters:  
 299:Generated_Source\PSoC5/Mixer_1.c **** *  power:  Sets power level between (0) and (3) high power
 300:Generated_Source\PSoC5/Mixer_1.c **** *
 301:Generated_Source\PSoC5/Mixer_1.c **** * Return: 
 302:Generated_Source\PSoC5/Mixer_1.c **** *  void 
 303:Generated_Source\PSoC5/Mixer_1.c **** *
 304:Generated_Source\PSoC5/Mixer_1.c **** *******************************************************************************/
ARM GAS  C:\Users\Dell\AppData\Local\Temp\ccrJ7ilE.s 			page 8


 305:Generated_Source\PSoC5/Mixer_1.c **** void Mixer_1_SetPower(uint8 power) 
 306:Generated_Source\PSoC5/Mixer_1.c **** {
  96              		.loc 1 306 0
  97              		.cfi_startproc
  98              		@ args = 0, pretend = 0, frame = 0
  99              		@ frame_needed = 0, uses_anonymous_args = 0
 100              		@ link register save eliminated.
 101              	.LVL0:
 307:Generated_Source\PSoC5/Mixer_1.c ****     uint8 tmpCR;
 308:Generated_Source\PSoC5/Mixer_1.c **** 
 309:Generated_Source\PSoC5/Mixer_1.c ****     /* Sets drive bits in SC Block Control Register 1:  SCxx_CR[1:0] */    
 310:Generated_Source\PSoC5/Mixer_1.c ****     tmpCR = Mixer_1_CR1_REG & (uint8)(~Mixer_1_DRIVE_MASK);
 102              		.loc 1 310 0
 103 0000 044A     		ldr	r2, .L8
 104 0002 1378     		ldrb	r3, [r2]	@ zero_extendqisi2
 105 0004 03F0FC03 		and	r3, r3, #252
 106              	.LVL1:
 311:Generated_Source\PSoC5/Mixer_1.c ****     tmpCR |= (power & Mixer_1_DRIVE_MASK);
 107              		.loc 1 311 0
 108 0008 00F00300 		and	r0, r0, #3
 109              	.LVL2:
 110 000c 1843     		orrs	r0, r0, r3
 111              	.LVL3:
 312:Generated_Source\PSoC5/Mixer_1.c ****     Mixer_1_CR1_REG = tmpCR;  
 112              		.loc 1 312 0
 113 000e 1070     		strb	r0, [r2]
 114 0010 7047     		bx	lr
 115              	.L9:
 116 0012 00BF     		.align	2
 117              	.L8:
 118 0014 09580040 		.word	1073764361
 119              		.cfi_endproc
 120              	.LFE4:
 121              		.size	Mixer_1_SetPower, .-Mixer_1_SetPower
 122              		.section	.text.Mixer_1_Init,"ax",%progbits
 123              		.align	2
 124              		.global	Mixer_1_Init
 125              		.thumb
 126              		.thumb_func
 127              		.type	Mixer_1_Init, %function
 128              	Mixer_1_Init:
 129              	.LFB0:
  55:Generated_Source\PSoC5/Mixer_1.c ****     float LOf = Mixer_1_LO_CLOCK_FREQ;
 130              		.loc 1 55 0
 131              		.cfi_startproc
 132              		@ args = 0, pretend = 0, frame = 0
 133              		@ frame_needed = 0, uses_anonymous_args = 0
 134 0000 08B5     		push	{r3, lr}
 135              		.cfi_def_cfa_offset 8
 136              		.cfi_offset 3, -8
 137              		.cfi_offset 14, -4
 138              	.LVL4:
  92:Generated_Source\PSoC5/Mixer_1.c **** 
 139              		.loc 1 92 0
 140 0002 0622     		movs	r2, #6
 141 0004 074B     		ldr	r3, .L12
 142 0006 1A70     		strb	r2, [r3]
ARM GAS  C:\Users\Dell\AppData\Local\Temp\ccrJ7ilE.s 			page 9


  95:Generated_Source\PSoC5/Mixer_1.c ****                                 Mixer_1_DIV2_ENABLE |
 143              		.loc 1 95 0
 144 0008 1822     		movs	r2, #24
 145 000a 0133     		adds	r3, r3, #1
 146 000c 1A70     		strb	r2, [r3]
 113:Generated_Source\PSoC5/Mixer_1.c **** 										Mixer_1_GNDVREF_DI |
 147              		.loc 1 113 0
 148 000e 0320     		movs	r0, #3
 149 0010 0133     		adds	r3, r3, #1
 150 0012 1870     		strb	r0, [r3]
 121:Generated_Source\PSoC5/Mixer_1.c **** 
 151              		.loc 1 121 0
 152 0014 044A     		ldr	r2, .L12+4
 153 0016 1378     		ldrb	r3, [r2]	@ zero_extendqisi2
 154 0018 43F00803 		orr	r3, r3, #8
 155 001c 1370     		strb	r3, [r2]
 124:Generated_Source\PSoC5/Mixer_1.c ****     
 156              		.loc 1 124 0
 157 001e FFF7FEFF 		bl	Mixer_1_SetPower
 158              	.LVL5:
 159 0022 08BD     		pop	{r3, pc}
 160              	.L13:
 161              		.align	2
 162              	.L12:
 163 0024 08580040 		.word	1073764360
 164 0028 2B5A0040 		.word	1073764907
 165              		.cfi_endproc
 166              	.LFE0:
 167              		.size	Mixer_1_Init, .-Mixer_1_Init
 168              		.section	.text.Mixer_1_Start,"ax",%progbits
 169              		.align	2
 170              		.global	Mixer_1_Start
 171              		.thumb
 172              		.thumb_func
 173              		.type	Mixer_1_Start, %function
 174              	Mixer_1_Start:
 175              	.LFB2:
 223:Generated_Source\PSoC5/Mixer_1.c ****     /* If not Initialized then initialize all required hardware and software */
 176              		.loc 1 223 0
 177              		.cfi_startproc
 178              		@ args = 0, pretend = 0, frame = 0
 179              		@ frame_needed = 0, uses_anonymous_args = 0
 180 0000 08B5     		push	{r3, lr}
 181              		.cfi_def_cfa_offset 8
 182              		.cfi_offset 3, -8
 183              		.cfi_offset 14, -4
 225:Generated_Source\PSoC5/Mixer_1.c ****     {
 184              		.loc 1 225 0
 185 0002 054B     		ldr	r3, .L17
 186 0004 1B78     		ldrb	r3, [r3]	@ zero_extendqisi2
 187 0006 23B9     		cbnz	r3, .L15
 227:Generated_Source\PSoC5/Mixer_1.c ****         Mixer_1_initVar = 1u;
 188              		.loc 1 227 0
 189 0008 FFF7FEFF 		bl	Mixer_1_Init
 190              	.LVL6:
 228:Generated_Source\PSoC5/Mixer_1.c ****     }
 191              		.loc 1 228 0
ARM GAS  C:\Users\Dell\AppData\Local\Temp\ccrJ7ilE.s 			page 10


 192 000c 0122     		movs	r2, #1
 193 000e 024B     		ldr	r3, .L17
 194 0010 1A70     		strb	r2, [r3]
 195              	.L15:
 231:Generated_Source\PSoC5/Mixer_1.c ****     
 196              		.loc 1 231 0
 197 0012 FFF7FEFF 		bl	Mixer_1_Enable
 198              	.LVL7:
 199 0016 08BD     		pop	{r3, pc}
 200              	.L18:
 201              		.align	2
 202              	.L17:
 203 0018 00000000 		.word	.LANCHOR0
 204              		.cfi_endproc
 205              	.LFE2:
 206              		.size	Mixer_1_Start, .-Mixer_1_Start
 207              		.global	Mixer_1_initVar
 208              		.bss
 209              		.set	.LANCHOR0,. + 0
 210              		.type	Mixer_1_initVar, %object
 211              		.size	Mixer_1_initVar, 1
 212              	Mixer_1_initVar:
 213 0000 00       		.space	1
 214              		.text
 215              	.Letext0:
 216              		.file 2 "Generated_Source\\PSoC5\\cytypes.h"
